:020000040800F2
:20000000002000204D090008110800081308000800000000000000000000000000000000FE
:2000200000000000000000000000000015080008000000000000000017080008190800084B
:200040009D0900089D0900089D090008210800089D0900089D0900089D0900089D090008AD
:20006000000000009D0900089D0900089D0900089D0900089D0900089D0900089D090008BE
:200080009D0900089D0900089D0900089D090008000000009D0900089D0900089D0900089E
:2000A0009D0900089D0900089D090008A10300089D0900089D09000800000000000000002E
:2000C00010B5064C2378002B07D1054B002B02D0044800E000BF0123237010BD4800002047
:2000E0000000000010160008044B10B5002B03D00349044800E000BF10BDC04600000000B6
:200100004C00002010160008002243088B4274D303098B425FD3030A8B4244D3030B8B42ED
:2001200028D3030C8B420DD3FF22090212BA030C8B4202D31212090265D0030B8B4219D334
:2001400000E0090AC30B8B4201D3CB03C01A5241830B8B4201D38B03C01A5241430B8B42BD
:2001600001D34B03C01A5241030B8B4201D30B03C01A5241C30A8B4201D3CB02C01A52411E
:20018000830A8B4201D38B02C01A5241430A8B4201D34B02C01A5241030A8B4201D30B02D4
:2001A000C01A5241CDD2C3098B4201D3CB01C01A524183098B4201D38B01C01A524143091B
:2001C0008B4201D34B01C01A524103098B4201D30B01C01A5241C3088B4201D3CB00C01A8E
:2001E000524183088B4201D38B00C01A524143088B4201D34B00C01A5241411A00D2014630
:20020000524110467047FFE701B5002000F006F802BDC0460029F7D076E770477047C0460E
:2002200010B50B480B4B036000230371013343710122524202612132426160328261036284
:2002400000F0D0FC002800D110BD00F0BFFAFBE7640000200030024082B0084B02689A42D0
:2002600001D002B07047064B9A6B802149010A439A639B6B0B400193019BF2E700300240ED
:200280000010024082B0054A516B022319435163526B13400193019B02B07047001002409F
:2002A00010B5064B1C680648064A074900F0DCFCC043001B43425841C0B210BDFCDF000890
:2002C00064000020FCBF00000020000806498022CB691A42FCD0044B986219004022CB6972
:2002E0001A42FCD07047C0460038014010B5184C200001F099F82368012293432360EFF3EC
:20030000108182F3108823681F329343236081F3108800230F4A13600F4A106803210140D9
:2003200011600E4901204042802408510134FF3408510B490B664B668B66CB6691690133CE
:20034000FF330B43936100F0F1FF00F029FB10BD0038014010E000E00000014000E100E01D
:200360000018024010B5FFF79BFF002807D0094B1B68094A134080229205934200D010BDA7
:20038000FFF7B4FF054B1B68024A126882F308889847F4E7002000080000FE2F04200008DB
:2003A00010B5254BDB699B0608D5234B5B6ADBB2224A1278002A02D0022A14D010BD992BF3
:2003C00003D06620FFF782FFF8E700F045FB1C4B1C4A944660441860184B02221A708820C2
:2003E000FFF774FFEAE7184801884A1C92B2028016484354012A0CD0154B9A42DED1134B69
:200400001B78012B10D0022B12D00F4B00221A80D4E70378013B012BD0D90B4B00221A80BF
:200420006620FFF753FFC9E7044B03221A70ECE7024B04221A70E8E7003801408C0000207C
:200440008800002020A107008E0000209000002008080000F0B5CE46474680B587B00023E9
:2004600005933E4B5C7824069A78120414431A791443DB781B021C43394B9C420CD9374B5C
:200480005A7912029B799B189BB2002B09D13348344A002101F090F807B0C0BCB946B046A1
:2004A000F0BD322000F0B4FC00F09EFC0028FBD102230193F8231B06E318DB0A0393012390
:2004C0000493322000F0A4FC05A901A800F032FD0028F6D180231B01E3189C4237D222007B
:2004E000083293429B415B425A4253415B42FF221340013398461C4EA31B99464B469F19D1
:2005000074782402B3781B041C4333781C43F3781B061C43357973791B021D43B3791B04C9
:200520001D43F3791B061D43322000F071FC22002B003900012000F0A5FC0028F4D1012376
:200540005B429C46E04408364346002BD6D100F0CFFC322000F05CFC99E7C04690000020D4
:20056000FF1F00080808000098000020F8B5CE46474680B500F070FA334BF530FF30186066
:200580001E00324D1F0028E0FFF7ECFE2AE000F063FA2F4B9C4660443860EFF31082012330
:2005A000994683F310882B4C2368202188468B43236082F31088FFF74DFFEFF3108289F3AD
:2005C0001088236841460B43236082F310887720FFF77CFE1D4B02221A7000F03DFA3368B4
:2005E0009842D1D82B78032BD1D0042BF5D100F033FA154B164A9446604418607720FFF7B1
:2006000065FEEFF310820123994683F31088114C2368202188468B43236082F31088FFF7A7
:2006200019FFEFF3108289F31088236841460B43236082F310885520FFF748FE0A2000F05F
:200640009DFFFFF78FFEC8E7880000208C00002020A107000038014000B587B010220021F8
:2006600002A800F0A9FF094A516B012319435163526B1A400092009AC0220192039301A9FD
:20068000034800F0A5FC07B000BDC046001002400004005010B5284A136807218B43053978
:2006A0000B431360110007220B681340022BFBD1224A1168FE330B43136011008022D20024
:2006C0000B681342FCD01D4BD9681D4A11401D4A0A43DA601968802252040A431A60D968B6
:2006E000802252050A43DA601900802292040B681342FCD0114A936813490B4093609368AA
:2007000007218B4305390B439360110038228B681340102BFBD1094A93680C490B409360CB
:200720000B4800F043FF032000F04EF9002800D110BD72B6FEE7C04600200240001002404D
:200740008C80FF1F02080020FFF0FFFFFF8FFFFF0090D00310B500F05FF9FFF79BFFFFF7D6
:2007600091FDFFF75DFDFFF777FFC82000F006FF144B1B695B0603D4124B1B691B0611D54F
:20078000FFF7F0FD00F052F8EFF31081012383F310880D4A136820200343136081F31088C0
:2007A000FFF7E4FE00F042F8EFF31081012383F31088054A10681F330343136081F31088B4
:2007C000FFF7D4FE000400500038014072B6FEE700B583B00D4B196C012211431964196C39
:2007E0000A400092009ADA6B802149050A43DA63DB6B0B400193019B00220021032000F0AE
:2008000031F9032000F060F903B000BD00100240FEE7FEE77047704710B500F011F910BDBC
:2008200010B500F081FA10BD7047000030B591B02022002108A800F0BFFE1022002104A81F
:2008400000F0BAFE3A4B5A6D03218A435A651A6C8021C9010A431A641A6C0A400192019A3A
:200860005A6B022422435A635B6B23400093009B4023029303942F4D02A9280000F094FCB6
:200880008023029303940024049405940694079402A9280000F088FC274AC621890053582C
:2008A0001B021B0A535080231B0513600894E1235B0209930A940B940C940C230D930E9436
:2008C0000F941E4C08A9200000F0DAFDEFF31081012282F31088A368DB00DB08A36081F390
:2008E0001088EFF3108182F31088A36814480340A36081F31088236812490B4023606368A8
:2009000011490B406360A3682A218B43A3602368134323602200802189038020C003D369F6
:200920000B42FCD0D3690342F9D011B030BDC046001002400004005000E100E000380140C0
:20094000FFFFFFF1FFFFFFDFFFB7FFFF0D488546FFF76AFF0C480D490D4A002302E0D45868
:20096000C4500433C4188C42F9D30A4A0A4C002301E013600432A242FBD300F025FEFFF7A4
:20098000E9FEFEE7002000200000002048000020D016000848000020B8080020FEE77047F1
:2009A00010B5084B01214942D9620022DA6219631A6399629A6259625A62FFF7F0FF00206D
:2009C00010BDC0460010024070B504000F4B19780120002900D170BD0D4DFA208000FFF7AC
:2009E00093FB01002868FFF78FFB00F079F803000120002BEFD1032CEDD80022210040422F
:200A000000F030F8034B1C600020E4E704000020000000200800002010B5084A116880236A
:200A20005B000B4313600320FFF7CEFF041E02D00124200010BDFFF7CBFEFAE700200240AC
:200A4000034A1168034B1B785B1813607047C0469808002004000020014B18687047C046DF
:200A60009808002070B5002814DB8408A400144B9C466444C026B600A55903220240D2008E
:200A8000FF2318009040854389010B4093402B43A35170BD0F230340083B9B089B00094A04
:200AA00094466344DC6903221040C000FC3215008540AC4389010A4082402243DA61E8E73F
:200AC00000E100E000ED00E0002805DB1F22024001239340014A13607047C04600E100E0CA
:200AE000013880235B0498420FD2094A50600948036A1B021B0AC02109060B430362002337
:200B0000936007331360002070470120FCE7C04610E000E000ED00E0F0B583B00C00019141
:200B200011009208032924D90026076823781B0665782D042B43E5782B43A5782D022B438F
:200B40003B60013604349642EFD303231C000C400B4215D0012C0ED0022C15D19200019BE4
:200B60009C5C24029C466244537823430268138006E00022E9E7036892000199525C1A70FA
:200B80000368186803B0F0BD9200019B9C5C24029C4662445378234301680B80036892789C
:200BA0001A70EDE7F0B583B00C00019111005208012915D90025066823881B0467883B4314
:200BC0003360013504349542F5D3C90704D5036892000199525A1A800368186803B0F0BDA4
:200BE0000022F2E710B5041E39D0437F002B25D0022363772379002B24D12368194A5A61C4
:200C00002268936818218B4393606379002B22D12368012252421A612268936860218B43CA
:200C200061690B4393602268936880218B43A1690B43936001236377002010BD0377FFF70F
:200C40000BFBD5E7E268A168200000F035F80028DBD00120F1E7236822691A61DCE7012001
:200C6000EBE7C046B71DC10470B50400022343770068836801252B438360236A022B17D090
:200C8000032B06D00020012B0FD12000FFF744FF0BE0002A07D00B0092008918226801CB4B
:200CA00010608B42FAD1236818680123637770BD2000FFF777FFF8E7F0B507000120CB07EC
:200CC00025D51F231F260125013B27D334001C400800E0400542F7D0102A19D0102A08D834
:200CE000002A0BD00120082A11D101200F2B0ED804E0182A10D10120062B08D83B685961E3
:200D000039688B681820834313438B600020F0BD072BF3D90120FAE70120F8E7102ADDD14B
:200D20000120F4E77047704710B52A4B1B692A4A13402A4A9268510721D5284A1469002BEE
:200D40002AD1244B1B69DB070CD5224B01221A61224B9B68022B2CD0204B00229A60200097
:200D6000FFF7E0FF1D4B9B68002B07D1194A53691B490B405361194B00221A7010BD154874
:200D800041699143416117490A4202D0134AD468D5E7124A5469D2E7104A51680B4353607A
:200DA0000C4B0D491961002393602000FFF7BBFFC7E70A4A9369013B9361002B03D1074BA7
:200DC00000229A60CBE7516901315161106900F0A1F8C4E700200240FAC300009C08002017
:200DE000FFFFFFFC01000400064B5B690020002B00DB7047034B044A9A60044A9A60586964
:200E0000C00FF6E70020024023016745AB89EFCDF8B50400FFF720FE0700164E80256D02C0
:200E200033692B4208D0631CFAD0FFF715FEC01BA042F5D303201CE00E490A690E4B1500A3
:200E40001D400E4808611A420ED10E008025ED0233692B420CD0631CFAD0FFF7FDFDC01BA0
:200E6000A042F5D3032004E0054B5D60012000E00020F8BD00200240FAC30000FBC3000001
:200E80009C080020F8B506000F0014001D00164B1B78012B26D0144B01221A7000225A609D
:200EA000FA208000FFF7B4FF00280DD1012E0FD02100380000F0B8FBFA208000FFF7A8FFA8
:200EC0000A4A5369B3435361074B00221A70F8BD064A536901210B4353613C60BFF36F8F29
:200EE0007D60E9E70220F2E79C0800200020024010B5FA208000FFF78BFF054B5969802291
:200F000012060A435A615869C043C00F10BDC04600200240044A5369C9000448034019432B
:200F2000034B0B43536170470020024007E0FFFF02000100F8B504000E00224B1B78012B75
:200F40003DD0204B01221A7000225A60FA208000FFF75EFF00282ED1042363602368042BD8
:200F600019D001235B423360A568E368EB189D421CD2FA27BF0060682900FFF7CBFF380043
:200F8000FFF746FF002810D10135A368E2689B18AB42F0D80AE00C4A51690C4B0B435361C7
:200FA000FA308000FFF734FF05E03560064A536902218B435361034B00221A70F8BD022062
:200FC000FCE7C0469C0800200020024004000100F0B5DE4657464E464546E0B583B00F6839
:200FE000002F00D1D1E0002200230124A0460234694DAB4652E0876825009540AF43B94607
:20100000CF6897404D462F4387604768B7434E68360945462E409E403E4346604AE00026EA
:201020005546AE404D462E433E665D462D68AA466546ED4301954D6880267603354200D0CB
:2010400094E05646019D2E405D462E606D68AA464D688026B603354200D08BE05646019D7E
:201060002E405D466E608426AE594D68AD0300D584E0019D2E4084255F467E518026BE595C
:201080004D68ED037DD4019D2E4080275D46EE5101330F6802323E00DE4076D046469E40DA
:2010A0003D003540AC463742F2D04F682740013F012FA0D94E682640032E22D0C7682600B6
:2010C0009640B7438E6896403E43C6604E682640022E16D1DE08B600851901952D6AAA4643
:2010E00007271F40BF000F25BD40A94655464E46B543AA460D69BD402F0055462F43019D20
:201100002F62076826009640B7434E68264096403E4306604E68C025AD022E42B8D09F0817
:20112000BF001D4DA9464F443D6E019525001D40ED00AA460F255646B540019EAE43B14618
:20114000A025ED05A84200D169E7144EB04209D0134EB04208D0134D4619751EAE417600BE
:2011600003365DE701265BE7022659E7654656462E4369E7654656462E4372E765462E43EC
:2011800079E7654635432E007FE703B0F0BCBB46B246A946A046F0BD0018024000040050B0
:2011A0000008005000F4FFAFF0B5D6464F464646C0B50B68002B5AD000220124A14620E0E8
:2011C000C3689846270067437B009C46BC446346DE430B697B439A46454663469D432B00BD
:2011E00055461D43C5604B68022B25D004684B687B4334402343036001320B681C00D4400A
:2012000035D04E4696401C0034403342F4D04B68013B012BD4D88368270067437E00F61986
:20122000B3438E687E43334383604368A343CE68664333434360C3E7FF2C0CD8036A3C00BD
:201240007C43A44624016546641BA3434C696C4323430362CAE7436A240A64436443250181
:201260002D1BAB434D696C4323434362BEE70020E0BCBA46B146A846F0BD0000054B9B6882
:20128000054A1B051B0F9B009B581F221340D8407047C0460010024058160008054B9B68A3
:2012A000054A5B045B0F9B009B581F221340D8407047C046001002403816000810B5174B50
:2012C0009A6838231340082B26D0102B1DD1134BDB68032018400338434258414042104BBA
:2012E0001840104B9C4660440C4AD368D168D4685B045B0E58434906490F0131FEF704FF7B
:20130000610F0131FEF700FF10BD044B1B689B045B0F0448D840F7E70348F5E700100240D4
:2013200000EE85FF0024F40000127A00194A116880235B000B43136011008022D2000B6804
:201340001342FCD0134B5968134A11408022D2010A435A6000229A600132FF321A60190010
:20136000802292020B681342FCD10A4B802252001A601900802292040B681342FCD1054BA9
:2013800080225201DA6000229A61013A1A6200207047C04600100240FF80FFFF10B50400D5
:2013A000FFF78CFF2060FFF769FF6060FFF776FFA06010BD10B503000020032B00D010BD23
:2013C000144B5B6D03221A40C0239B021343124A934208D0114A93420FD0114A934212D166
:2013E000FFF76CFFEBE70B4B1A688023DB00100018401A42E3D00B48E1E7064BD86D8007B5
:20140000C00FC003DBE7FFF759FFFFF737FFFFF745FFD4E7001002400200030003000300AC
:20142000010003000024F4000300104A904204D00F4A012093420CD070470E4B196B80222C
:20144000D2010A431A631A6B0B490A401A630020F2E7084BD96A802292020A43DA62DA6ABD
:2014600006490A40DA620020E6E7C046003801400044004000100240FFBFFFFFFFFFFDFF9F
:2014800070B584B004000D0003680120DB0724D422688B6809690B4369690B43E9690B437F
:2014A0002F490A401343236063682E4A1340EA6813436360A3682C4A1340AA691343A36050
:2014C0002A4B9C420BD02A4B01209C422CD0E26A2B880F218A431343E36204B070BD0230C4
:2014E000FFF768FF03000120002BF0D06E68002EEDD02A6800200B2AE9D880210902E8691A
:20150000884216D01B49FF200240920051581800FEF7FAFD7308C0183100FEF7F5FD0304A5
:201520001B0CE3600020D2E701A8FFF737FF039BD9E71049FF200240920051581800FEF733
:20154000E3FD40007308C0183100FEF7DDFD0A4A024003075B0F1343E3600020B7E7C046B1
:20156000F369FFEFFFCFFFFFFFFCFFFF003801400044004098160008F0FF000082B00A4B33
:201580001B680193019B431C5A1E9341C018064980225202002804D00B681342FAD0013809
:2015A000F8E702B07047C04610E000E0014B18607047C0460000002003008218934200D129
:2015C000704719700133F9E770B500260C4C0D4D641BA410A64209D1002600F019F80A4C48
:2015E0000A4D641BA410A64205D170BDB300EB5898470136EEE7B300EB5898470136F2E7B0
:20160000C8160008C8160008CC160008C8160008F8B5C046F8BC08BC9E467047F8B5C046B5
:20162000F8BC08BC9E46704701B40248844601BC604700BF0D00002000000000000000007E
:20164000000000000000000001000000020000000300000004000000000000000000000080
:20166000000000000000000000000000000000000000000000000000010000000200000067
:20168000030000000400000006000000070000000800000009000000010000000200000022
:2016A0000400000006000000080000000A0000000C00000010000000200000004000000092
:2016C0008000000000010000E9000008C10000080024F400010000000400000030B50D4A76
:2016E00054698023DB0223435361EFF3108572B64C1CFF340B00411A1A68CA500433A3423B
:20170000FAD10449802252020B691342FCD185F3108830BD00200240FFFFFFFFFFFFFFFFCE
:20172000FFFFFFFFFFFFFFFFFFFFFFFFFFFFFFFFFFFFFFFFFFFFFFFFFFFFFFFFFFFFFFFFC9
:20174000FFFFFFFFFFFFFFFFFFFFFFFFFFFFFFFFFFFFFFFFFFFFFFFFFFFFFFFFFFFFFFFFA9
:20176000FFFFFFFFFFFFFFFFFFFFFFFFFFFFFFFFFFFFFFFFFFFFFFFFFFFFFFFFFFFFFFFF89
:20178000FFFFFFFFFFFFFFFFFFFFFFFFFFFFFFFFFFFFFFFFFFFFFFFFFFFFFFFFFFFFFFFF69
:201FE000FFFFFFFFFFFFFFFFFFFFFFFFFFFFFFFFFFFFFFFFFFFFFFFFFFFFFFFFFFFFFF01FF
:2020000000200020F16D00083D5E00083F5E000800000000000000000000000000000000D2
:20202000000000000000000000000000415E00080000000000000000435E0008455E0008A5
:20204000416E0008416E0008416E00084D5E0008416E0008416E0008416E0008416E0008CC
:2020600000000000555E0008595E0008015F0008416E0008416E0008416E0008416E0008A2
:20208000416E0008416E0008416E0008AD5F000800000000F55F000839600008416E000853
:2020A000416E0008416E0008416E00085D600008A1610008416E00080000000010B5064C5E
:2020C0002378002B07D1054B002B02D0044800E000BF0123237010BDEC000020000000009A
:2020E00058A30008044B10B5002B03D00349044800E000BF10BDC04600000000F0000020B1
:2021000058A30008002243088B4274D303098B425FD3030A8B4244D3030B8B4228D3030C5A
:202120008B420DD3FF22090212BA030C8B4202D31212090265D0030B8B4219D300E0090A2B
:20214000C30B8B4201D3CB03C01A5241830B8B4201D38B03C01A5241430B8B4201D34B036E
:20216000C01A5241030B8B4201D30B03C01A5241C30A8B4201D3CB02C01A5241830A8B42C6
:2021800001D38B02C01A5241430A8B4201D34B02C01A5241030A8B4201D30B02C01A5241A1
:2021A000CDD2C3098B4201D3CB01C01A524183098B4201D38B01C01A524143098B4201D3C7
:2021C0004B01C01A524103098B4201D30B01C01A5241C3088B4201D3CB00C01A52418308F1
:2021E0008B4201D38B00C01A524143088B4201D34B00C01A5241411A00D201465241104645
:202200007047FFE701B5002000F0F0F802BDC0460029F7D076E7704703460B437FD400229E
:2022200043088B4274D303098B425FD3030A8B4244D3030B8B4228D3030C8B420DD3FF2290
:20224000090212BA030C8B4202D31212090265D0030B8B4219D300E0090AC30B8B4201D369
:20226000CB03C01A5241830B8B4201D38B03C01A5241430B8B4201D34B03C01A5241030B41
:202280008B4201D30B03C01A5241C30A8B4201D3CB02C01A5241830A8B4201D38B02C01AE5
:2022A0005241430A8B4201D34B02C01A5241030A8B4201D30B02C01A5241CDD2C3098B4283
:2022C00001D3CB01C01A524183098B4201D38B01C01A524143098B4201D34B01C01A524125
:2022E00003098B4201D30B01C01A5241C3088B4201D3CB00C01A524183088B4201D38B005D
:20230000C01A524143088B4201D34B00C01A5241411A00D201465241104670475DE0CA0F82
:2023200000D04942031000D34042534000229C4603098B422DD3030A8B4212D3FC22890103
:2023400012BA030A8B420CD3890192118B4208D3890192118B4204D389013AD0921100E03B
:202360008909C3098B4201D3CB01C01A524183098B4201D38B01C01A524143098B4201D312
:202380004B01C01A524103098B4201D30B01C01A5241C3088B4201D3CB00C01A524183082F
:2023A0008B4201D38B00C01A5241D9D243088B4201D34B00C01A5241411A00D20146634618
:2023C00052415B10104601D34042002B00D54942704763465B1000D3404201B5002000F0E2
:2023E00005F802BD0029F8D016E770477047C0468446100062468C461900634600E0C046C3
:202400001FB501F03FF9002801D40021C8421FBD10B501F083F84042013010BD10B501F054
:2024200031F9002801DB002010BD012010BDC04610B501F027F9002801DD002010BD0120A3
:2024400010BDC04610B501F0ADF8002801DC002010BD012010BDC04610B501F0A3F80028EF
:2024600001DA002010BD012010BDC04670B500220C4B04000D00FFF7EFFF002804D12000F0
:20248000290002F05DF870BD064B00222000290001F04CFC02F054F880231B069C46604422
:2024A000F1E7C0460000E041F0B546464F46D6464502C0B5C30F470098460E1C6D0A3F0E9A
:2024C0005BD0FF2F21D08023ED00DB041D43002399469A467F3F74027300640A1B0EF60FBE
:2024E000002B20D0FF2B43D080220020E400D20414437F3B4246FF1A4B4672400F2B00D900
:202500009DE071499B00CB589F46002D5AD108239946063B74029A467300FF27640A1B0EB8
:20252000F60F002BDED1002C3BD1012342464946724019430E2918D86448890041588F4671
:202540005346022B00D1B8E0032B6ED042462C00012B40D100200024C0052043D207104357
:20256000E0BCBA46B146A846F0BDFF200024F3E7002C20D10223FF3FD8E7002D05D10423A7
:202580009946033B00279A46A5E7280002F080F87627431F9D4000237F4299469A463F1A21
:2025A00099E7200002F074F8431F9C4076235B421B1A00209EE703234A461A4391460320C2
:2025C000FC3397E70C239946093BFF279A4682E703282CD0320038007F30002847DD630797
:2025E00004D00F232340042B00D00434230103D53800374B80301C40FE28B6DCA401640AAE
:20260000C0B2A9E780240022FF20E403A4E78023DB031D4201D01C420BD08024E4032C437D
:2026200064024246FF20640A96E746462C008023DB031C4364023200FF20640A8CE76D0104
:20264000600185422DD21B230024013F0126290064006D00002901DB854201D32D1A344332
:20266000013B002BF3D16B1E9D412C43B3E701231B1A1B2B00DD6DE721009E37D940BC40E4
:202680000B00611E8C412343590704D00F211940042900D00433590113D49B0100205C0A29
:2026A0005AE71A2301242D1AD0E7981E43425841404232000024C0B24EE74246FF2000245B
:2026C0004AE70120002447E770A30008B0A30008FFFFFFF710B5041E0DD001F0D9FF9E239E
:2026E0001B1A962B0CDC082834D0083884406402640AD8B201E000200024C005204310BD4C
:20270000992B13DC421F9440144A224061071CD00F212140042918D00432D408520115D5C8
:202720009F236402181A640AC0B2E6E7020021001B3291400A00511E8A410521091ACC40B8
:202740001443064A22406107E2D1D4086402640AD8B2D2E76402640A8E30CEE7FFFFFFFB23
:20276000F0B54F464646D646C0B582B0009001910E034C00CD0F710A009E5F00760F0E4327
:20278000009900920193C900894619037B0D9846019B490ADB0F9C46009B009A5B0F0B43B8
:2027A0004146640DD200611A654500D1A6E0002972DD4746002F00D1DDE0CC4FBC4200D127
:2027C0009AE10127382917DC80273F043B431F2900DDDDE12027781A1F008740BA461700E1
:2027E000CF40844638005746074360468240CB40501E8241F61A17434B46DF1BB945804189
:202800004042361A330200D4FFE07602760A002E00D13CE1300001F03BFF0300083B202108
:202820003800CA1AD0409E4002009F4032439C4200DDA6E1181B0130091A3E008F40C6405C
:202840007B1E9F4113008B4037431F43C2403B0016000024134300D1DFE17B0700D132E37F
:202860000F233A003B40042B04D03A1DBA42BF417F42F619330200D423E39C4B01349C4242
:2028800000D1B4E09A4B64051E40640D7707D20876021743360BACE0002900D17EE04146E0
:2028A000091B002C00D060E134004846044300D1C9E14C1E012900D12EE28C4DA94200D129
:2028C00024E20127382C11DC21001F2900DD0BE2202437004846641AA740C84007434846F8
:2028E000A040CE40441EA0419B1B0743D71BBA4292415242654644469E1A83E7002900DCF6
:202900009CE04746002F67D11F00174300D1E4E0481E012900D19BE1744FB94200D1EBE002
:2029200001270100382811DC1F2900DDC7E12027781A1F00844687401000C84007436046C3
:202940008240CB40501E8241F61817434F444F45804140423618330257D5644B01349C4236
:2029600045D00121624B7A081E4039400A43F7071743760871E71F00174300D1ADE04F1E5B
:20298000BC46012900D182E1584FB94200D190E161460127382900DD2EE718E7554F611CB1
:2029A000394200D0D0E0310048461F0001431743002C00D03DE1002900D1BCE1002F00D0F0
:2029C000BFE14B460021D80877070743F00806034C05360B640D0CE0444FBC4200D18BE040
:2029E00001273829B2DC80273F043B439CE70026002724053443ED072C433800210002B07A
:202A0000E0BCBA46B146A846F0BD7B0704D00F233B40042B00D028E7F808344B7707074330
:202A2000F0089C4200D04AE23B00034359D080263603064336032D4C360BDAE7002961D0E4
:202A40004146091B002C00D1B9E0284CA04500D1A5E10127382913DC8024240426431F2990
:202A600000DDC8E1202437004846641AA740C84007434846A040CE40441EA0419B19074353
:202A8000BF189742924152424446D61863E7380001F0FEFD030018331F2B00DCBFE63A00E6
:202AA000083882409C4200DD83E01B1B581C1F2800DCB4E117001F3BDF40202805D0402384
:202AC0001B1A9A40531E9A4117430024002F0AD07B0700D0C4E626009EE74B460C00D808F0
:202AE0009BE70027014C002683E7C046FF070000FFFF7FFFFE0700004B467707D80807438A
:202B0000F00891E7CD4F611C39426BD1310048460143002C00D04BE11F001743002900D157
:202B200081E1002F00D14CE74A444A458041F61840423618330200D5B0E117009146374341
:202B400000D03EE7002654E74946891A8846C145BF41F11A7F42C91B0F0261D447460F4344
:202B600000D1BDE00E00474651E6B54CA04500D100E10127382900DDB8E680242404264344
:202B8000A3E6B04EE41A16407B0700D03FE743E70F001800203FF8408446202903D04027AD
:202BA000791A8B401A43531E9A41634617001F4322E6A448E11A10404707C00807E7340075
:202BC0004846044300D1FAE04C1E012900D1D7E09B4FB94200D1E2E00127382C00DD4FE742
:202BE00021003CE7964CA14200D1DDE04A444A458041F31840421818C707520817434608D3
:202C0000520705D00F220C003A40042A00D02CE67607FF0837430009D9E600270026E8E6DE
:202C20004946571ABA4292419E1B52426546B61AEDE5002900D0C6E0002F67D1802600255A
:202C40007F4C3603D5E665460C001E00D008E4E64A444A458041F31840421818110003028D
:202C600000D496E0774B49081840C3070B434408490700D129E10F221A40042A00D1EAE0BC
:202C80001F1D9F42B641764236190224C4E649468F1AB9458041F61A4042361A330206D461
:202CA0007307FF0801211F43F00890E665460124ABE54B467707D8080743F008B4E60F0067
:202CC0001800203FF8408446202903D04027791A8B401A43531E9A41634617001F4335E6B4
:202CE00000250024002684E60C003500203CE540202905D04024611A8E404946314389469C
:202D00004846411E884107002F43EFE5D2085F0765461743D80887E6171ABA4292419E1B65
:202D20005242B61A3302C1D47307FF08654601211F43F0084BE6002F7BD065461E00914672
:202D40003FE6811A8846C145A441F11A6442091B80242404214277D0101A824292410700E7
:202D60009E1B5242B61A374300D0A0E06546002400263EE65F07D20865461743D80853E6F5
:202D8000811891429241F01852428018030200D568E74707C9080F43C008012117E6D20865
:202DA0005F071743D8083FE60C000026002720E6002956D15F07D2081743D80834E60C00FF
:202DC0001E00D00829E6C10870070143F008002F62D080242403204207D0DE08264204D1EA
:202DE00065463000D1085B0719434F0FC900C9087F070F4318E60C003000203CE040844611
:202E0000202905D04024611A8E404946314389464846411E8841614607000F4330E6202108
:202E20000027091A0EE51E00002F00D022E5002458E7002500240026DBE5C046FE07000094
:202E4000FF070000FFFF7FFF47460F4300D147E70E00C146B5E5DF0864070221274300097B
:202E6000B5E51900C008770707431143F008002900D1D9E580210903084207D0DC080C420B
:202E800004D1D2085B071A43170020007B0FFF00FF085B071F43C7E50F00C5E5124BD2089D
:202EA00033405F075B02012417431E0BA1E5264212D00D4B6546020001241E40E6E42100F1
:202EC00085E51700A8E53A00D4E4DB0864071C432700022100097AE5C00877070743654658
:202EE0000021F00873E5C046FFFF7FFFF0B5DE46454657464E46E0B587B0009201930B035A
:202F00001B0B9B46CA0F4B00040080465B0D029200D198E07C4A934237D05946420FC9001C
:202F20000A43802109041143C2009046774A894692469A44002300240393009E019F3B030B
:202F40001B0B9B467B0030005B0DFD0F002B59D06D4A934248D05946720FC9000A4380217C
:202F6000090411438B466949F2008C4651466344CB1A9A460021029E6E40F6B20F2C00D97B
:202F8000CEE0634BA4001B599F465A460243914600D090E09A460223904608240393CCE78C
:202FA000CB464246029D0399022900D1DEE1032900D18DE0012900D079E12E000022002351
:202FC000002490461B052343F60733434046190007B0F0BCBB46B246A946A046F0BD00225F
:202FE00000249046484BEDE75A46009B1A43494B9C46E244002A59D102231C43002302211E
:203000009B46B8E75A46009B1A4349D05B46002B00D19CE1584601F03BFB020003000B3A56
:203020001D27009EBA1A19005846D64008398840320002439346009A8A40374953448A4669
:2030400000219A4497E75B460343994621D05B46002B00D169E1584601F01AFB0B235B42E6
:203060009C460200844466461D239B1B260011005846DE400839884033000343994623008B
:203080008B409846254B00249B1A9A460023039353E7002398469A460133042403934CE765
:2030A00001231C43002301219B4664E70323320003211C435FE79A460323D9460C24039310
:2030C0003BE700238024984600260F4B240379E780245B4624031C4324032E0090460A4BD7
:2030E000240B6FE780244B462403234202D05B462342F0D080244B4624031C432403029E70
:20310000014B240B5EE7C046FF07000001FCFFFFECA3000801F8FFFFF30300000DFCFFFF5D
:20312000CB4500D2F8E000D1F3E001235B429C46444648460025E2445B46170E1B021F43E6
:20314000190C3B04120200971F0C914602910397FFF75EF802007A430B04210C80461943C8
:203160008A4209D9009F0123BC465B4261449C46E0448F4200D85CE1881A0299FFF748F83B
:20318000039A240442430904240C03000C43A24206D90099013B8C466444A14200D842E166
:2031A000A01A424612041A4393464B4659461B0C1F0004930B0449460904090C0C001B0C81
:2031C0005C43120C7B43884651437A43270CBC465B186344994203D9802149028C466244EB
:2031E000190C24041B04240C8A181C19904202D316D1A54214D25B46009F013B4D4405935C
:203200004D459B41BC465B426344C018874200D302E1824200D929E100D124E1059B9B46A5
:203220002C1BA542AD41009B801A6D42401B834200D10FE10299FEF7EBFF039A0B04424302
:20324000210C050019438A4200D9CBE0881A0299FEF7DEFF039A240442430904240C0300F7
:203260000C43A24200D9CAE04146A41A2A041A43049F13041B0C594340467B439C46150C04
:2032800068430B0C844463447D43984203D98020400284466544180C09041B04090C401974
:2032A0005B18844227D323D0012335001A43944B5344002B60DD510700D086E02E00D108BF
:2032C0005A46D20106D55A468E4B1A4080239346DB0053448C4A934200DD80E65A465207F8
:2032E0000A4390465A465B055402240B5B0D69E63500002BDBD0009D511EAC466444AC42D0
:2033000000D29EE0844200D2E1E000D1EEE00A00CAE7424500D908E74B46DC0758084346FE
:203320005B081C434346DD0706E701F0B1F915239C4684440200634620321C2B00DC92E65C
:203340002300083883409946002398469AE601F09FF902000300153220331C2A00DC5FE658
:2033600000990838814000228B4666E600222E0000249046654B25E62E000121C91A3829DB
:2033800000DD1BE61F297EDC6148140050445B4682408340CC40501E824123431A435B4695
:2033A000CB40510709D00F211140042905D0111D9142924152429B180A00190200D49BE0BF
:2033C0000022012300249046FCE50F211140042900D173E7111D9142924152422E00C9088C
:2033E00093446DE7009B013D9C4661448B4200D92CE78A4200D829E7851E614426E70099E7
:20340000013B8C466444A14200D92DE7A24200D82AE7831E644427E7874200D0FEE6A94597
:2034200000D9FBE6F5E6A24200D8B9E6831E6444B6E68A4200D89FE6BC46831E9846614468
:203440009AE60A00844200D02EE74B4500D02BE735002CE72A4B2F4A5344924543DB0122E0
:20346000002193442CE7AC4200D8D7E602235B429C4600994D444D459B41E3448C465B42EC
:203480006344C018CCE61F204042C31A5846D840202904D05946204B534499400A43531E52
:2034A0009A4107231900024300241140134209D008331340042B1DD0131D934289411A0073
:2034C00049424907D2080A43904600237AE54946009F4D004D458941BC4649426144A9469A
:2034E000023A6418AEE70122524246E79945EED30A00AAE70021E5E759075B021C0BE1E7C8
:20350000FF030000FFFFFFFEFE070000FF0700001E04000002FCFFFF3E040000F0B5574601
:20352000DE464E464546E0B50D000400E80F83460903D80F090B824619488C461F03690055
:203540005E00490D3F0B760D814218D086420FD00120B1420DD1BC450BD1944209D1D34501
:203560001CD0002905D160462043431E984100E00120F0BCBB46B246A946A046F0BD0120D4
:203580008E42F6D1614639430F0017432743F0D15B465246981A431E9841EAE70020E8E7F8
:2035A000FF070000F0B557464E464546DE46E0B50D000E034900490D8A46DF0FE90FBC4676
:2035C00083B02F4F040080460191580019039146360B090B400DBA451DD0B8420DD0574691
:2035E000002F2AD13443002824D10A4336D0002C41D163465800013815E0114338D1534657
:20360000002B01D12643F4D0019B634507D1019B5800013807E026432AD1504521D0012045
:20362000019B5F42384303B0F0BCBB46B246A946A046F0BD002CDCD0E6E70028EFD0019BD0
:203640006345ECD18245EADCE1DB8E42E7D8DED1C845E4D80020C845E5D2D8E7002CE2D034
:20366000DDE7114304D1019B6345D8D10020DAE702204042D7E7019B6345E6D0CFE7C04677
:20368000FF070000F0B557464E464546DE46E0B50D000E034900490D8A46DF0FE90FBC4695
:2036A00083B02E4F040080460191580019039146360B090B400DBA451ED0B8420DD05746B0
:2036C000002F27D13443002833D10A4334D0002C40D163465800013815E0114312D1534693
:2036E000002B01D12643F4D0019B63451DD00120019B5F42384306E0264303D15045F6D117
:2037000011431CD0022003B0F0BCBB46B246A946A046F0BD0028EAD0019B6345E7D18245C8
:20372000E5DC02DB8E42E2D80ED0019B58000138E9E7002CCDD0D7E7002CE4D0D7E7019BC5
:2037400000206345DFD0D2E7C845D0D80020C845D9D2EAE7019B6345E4D0C8E7FF0700002E
:20376000F0B557464E46DE464546E0B51F000B031B0B16009A46CA0F4B000400914685B0B2
:203780005B0D00D1CFE1CD4A934255D05146420FC9000A43802109041143C2009046C84A85
:2037A0008A4693469B440023002502933C037B00FA0F0196240B5B0D009200D188E1BF4ADE
:2037C000934200D192E0BE4A944663449B440A2D42DCE400730F23438024494624041C438E
:2037E000F3000193009B00205940CBB20393022D00DC94E00123AB401D00A6232A00DB0062
:203800001A401D4200D029E290239B001D4200D14DE20023802499462403A84B10004A4607
:203820001B052343D2071343190005B0F0BCBB46B246A946A046F0BD52460243904600D05B
:20384000ACE19B460223924608250293AEE7009BA2469946019B9846029B022B00D1CAE184
:20386000032B00D192E1012B10D1002300240022D4E701227B083A4013435246D207134368
:20388000984653465B089A46039B99465B46581C8023DB005B44002B00DCB1E14246520745
:2038A0000BD00F2241460A40042A06D04246111D414592418846524292445246D20106D59A
:2038C0005246804B1A4080239246DB00C3187E4A934200DD8FE14246D108524652070A4371
:2038E00051465B054C02240B5B0D97E7734B26439C46E344002E00D16FE1032349461D43DA
:20390000009B5940CBB203930A2D00DD33E10123AB401D000323029388222A4297D142464B
:2039200043461204120C160001981D0C030C0004000C4643B4461E006E43009616000700CE
:203940005E436146B0466F430E0CB8444644B74205D9802149028846009F474400976146DE
:203960000904090C370C36048C463100614401911100260C2404240C61438C462100694390
:2039800089466146090C884672434A4442447543914503D98021490288464544110C88466D
:2039A00061460904090C8C4612046244B91802915146090C8C4651460F043F0C390041431C
:2039C00045448846614641438A4641466046090C894658437B4353444B449A4503D98021A9
:2039E000490289464844190C894641460904090C8846390061431B044344884661464C432F
:203A000071438C46414677430E0C3F19F6194844B44203D9802149028946CC440299009FFB
:203A2000894631044F4489464146974292410C04240C4C44FF1852426419A1189F429B417F
:203A4000884682465B42994690459241AC42A441C244D14452426442144399459B418245AC
:203A600092415B42524213434A46360CA419E31863445B02D20D1A43019992467A020A43E7
:203A8000501E8241FF0D17434A4652021743B846DB0100D5EDE60D4B039A5B449146002B39
:203AA00000DCACE03A00520700D110E70F2258463A40042A00D0F9E609E7C046FF07000021
:203AC00001FCFFFFFFFFFFFEFE070000FF030000220032436FD0002C00D1C2E0200000F064
:203AE000D7FD020003000B3A1D20821A30001900D04008398C400200224334008C40594663
:203B0000CB1A86498B469B440A2D00DDA4E64946009B01945940CBB2140000200393022DD5
:203B200000DD67E6FBE65346034398463CD05346002B00D1A3E0504600F0AAFD0B235B42A1
:203B40009C460200844411005046083988401D23804660461B1A2000D84003004046034321
:203B60009A4623008B4098466C4B00259B1A9B46002302931AE60F2D00D0C9E0802352467F
:203B80001B031A4202D01C4200D192E08024534624031C4324034246240B3EE69B4603236C
:203BA00080460C25029301E600239A469B46013304250293FAE501210D430A2D00DD4BE626
:203BC000494600984140C9B20391022D00DC96E000230024012001930CE649460223009A71
:203BE0002B435140CAB203920A2B00DD34E6002D57D1039B994600240022494B0EE658464B
:203C00000121C91A382900DD2FE61F2956DD1F2254465242D31ADC40202907D0414B424625
:203C20009C465346604483401A43904642460721531E9A410B00224313400024114209D060
:203C40000F231340042B5DD0111D91429B410A005B425B07D2081A430023DFE5039B994602
:203C6000FAE5019800F014FD02000300153220331C2A00DC38E7019A083882403FE700F038
:203C800007FD15239C4684440200634620321C2B00DC58E7002398462300083883409A46D8
:203CA00062E71D000023002402200193A2E5029032E61C43009B019A9946AEE51A4B52466C
:203CC000C31840469A40C8400243404698400300581E834154461A43CC40530709D00F2359
:203CE0001340042B05D0131D934292415242A4181A00230208D50123002400228EE589467D
:203D000000248BE50023A5E763076402240BA1E7009BA2469946019B984637E70DFCFFFFD8
:203D2000FF0700003E0400001E040000F0B557464E464546DE46E0B583B0009001910C039B
:203D40004D00CE0F610A009C5F00640F0C43009900920193C80019037B0D9946019BCC4F50
:203D6000DB0F9C464B0A00998046490F1943009B8B46DA0092466D0DB94500D1BFE00123E5
:203D8000614659404B468C46EB1A8E4275D0002B00DCA3E24946002900D1CEE0BD4200D1D3
:203DA00000E20127382B19DC802759463F0439438B461F2B00DDFAE12027F91A8C465946FE
:203DC0006746B9400F001100D9400F4361468A40511E8A415946D9401743641AC71BB8429B
:203DE00080414042241A230200D440E16402640A002C00D154E1200000F04AFC0300083B86
:203E000020213800CA1AD0409C4002009F4022439D4200DDA6E1581B0130091A3C008F40FE
:203E2000C4407B1E9F4113008B4027431F43C2403B0014000025134300D1F7E17B0700D193
:203E400077E30F2338003B40042B04D0381DB842BF417F42E419230200D468E38C4B0135C2
:203E60009D4200D1F4E08B4B6D051C406D0D6707C00864020743240BECE0002B00DC29E3AC
:203E80004946002900D0D6E05946114300D12EE1591E012B00D1E6E1BB4200D182E101277D
:203EA0000B00382914DC1F2B00DD3CE22027F91A8C4659466746B9400F001100D9400F4365
:203EC00061468A40511E8A415946D940174364183F188742804140422418230200D4C6E06B
:203EE0006B4B01359D4200D1B2E00121694B7A081C4039400A43E707174364089EE7664B30
:203F000011438A46EB18002928D066452CD0002B5BD0002D00D12CE15B4666465F07D208C4
:203F20001743DD083B002B4300D1E2E0802424032C432403564D240B8CE05946114300D1A3
:203F4000D5E0591E012B00D1B9E1BB4200D1B1E101270B00382900DD40E72AE761460127C6
:203F600079408C466645D2D1002B00D1C5E0002D00D055E14B462500054300D112E2591E5A
:203F80008C46012B00D149E2414DAB4200D18FE20127382911DC63461F2B00DD5BE2614640
:203FA000202327005B1A050098409F40CD40431E9841CC402F430743A344BF1897429241ED
:203FC00052425A4414004D4687E7344F6B1C3B4200D0B6E05946230011430F000343002D15
:203FE00000D026E1002B00D1C0E1002900D1A1E0831A98465B464045AD41E31A6D425B1B21
:2040000080252D042B4200D14BE15B46101A824292411C1B0700012663465242A41A274334
:204020001E40002F00D142E12C4200D16DE2194B01251C401BE7BD4200D13BE10127382B12
:2040400000DD45E7802759463F0439438B462AE7002400272D052543F607354338002900B5
:2040600003B0F0BCBB46B246A946A046F0BD7B0704D00F233B40042B00D0E7E62B00F8086C
:20408000034A67070743E508934200D14AE7A5E0FF070000FFFF7FFF01F8FFFFFE07000054
:2040A000380000F0F5FA030018331F2B00DCA7E63A00083882409D4200DD8AE05B1B581C9C
:2040C0001F2800DCD8E117001F3BDF40202805D040231B1A9A40531E9A4117430025002FEB
:2040E00000D1E5E07B0700D0ABE62C00C6E7C008C6E700270024D14DACE7D14F6B1C3B42D9
:2041000071D123000343002D00D04EE15746002B00D1B5E1002F0DD08318834280415C44CC
:2041200040422418220200D5C8E11F009846274300D1BCE043466707DB081F43E5080023FF
:204140004CE0831A98465B464045BF41E31A7F42DB1B1F027CD447461F4300D1A6E01C000B
:20416000474645E6B74CED1A14407B0700D080E784E74B462500054366D05F1E012B00D157
:20418000FCE0AE4DAB4200D15EE16646382F00DCB4E00120171ABA4292415B4652424D46DF
:2041A0009C1A20E66707C0080743E508BAE61F005946203FF9400F00202B05D04021CB1A6B
:2041C000594699400A43924653465A1E93411F4304E6EB1A9B4D15406F07ED082C035D05D3
:2041E000240B6D0D36E7954DAB4200D1D6E08218210082428041594440420818C7075208FC
:2042000017434408520700D485E10F221D003A40042A00D01AE6FF08640727430509DDE7F1
:204220005B46D2085F071743DD087BE60027002410E7002B00D0D6E0002900D02FE180245D
:2042400000267E4D240305E766465C46D00817E75B46171ABA4292411C1B012663465242FA
:20426000A41A1E40C4E58318834280415C44404225182A0200D4DAE0724A5B081540EA07DA
:204280001A4369085B0700D44AE10F231340042B00D1FCE0171D9742A44164420225641853
:2042A000ECE647461C001F4300D043E7002600250024CFE6C00867070743E50832E6871ADD
:2042C0005B46B8428041E41A4042241A230228D46307FF081F43E50801237FE7002B00D15D
:2042E00073E64B465F1B3B00002D00D142E7382F00DDECE080230E001B041C431F2F25DC6A
:2043000020252300ED1B0100A840AB40F940451EA8410B43FC4018435B461B1B9B4639E717
:204320006646012562E51F005946203FF9408C46202B05D040275946FB1A99400A43924603
:2043400057467B1E9F4163461F43C1E53B002500203BDD40202F04D04023DB1B9C40204303
:2043600080464046431E9841284313E700299DD0012663465C4690461E40DBE6171A5B4683
:20438000BA4292411C1B5242A41A2302C8D46307FF081F4366460123E5081FE71D0000242D
:2043A000002757E65C46D0086AE6002B00D137E75346C00867070743E508002B00D1B1E51D
:2043C00080231B031D4208D05946C808184204D1D20849070A43170005007B0FFF00FF0824
:2043E0005B071F439EE5C00863071843E508002953D080231B031D420AD05946CC081C42E5
:2044000006D1012663462500D008490708431E40470FC000C0087F07074383E58318934279
:2044200092415C445242A5182A0200D524E76F07DB081F43ED080123D0E6C046FF07000016
:20444000FE070000FFFF7FFF5B46D2085F0766461743DD0866E52500203BDD406346202B33
:2044600005D0402361465B1A9C402043804647467B1E9F412F43A0E520210027091AD2E4A5
:20448000002F00D113E75C4617000025F6E5D708490702230F432D09A0E6070042E55B4638
:2044A00001265F07DD086346D20817431E4039E55B46D2085F071743DD0833E51E4ADB08AE
:2044C00022405707520201251F43140BC2E50E0001205FE6002B0DD04B465B1B9C46002DE8
:2044E00000D148E50127382B00DD66E580231B041C4350E56B1C114D2B4200D073E659469B
:20450000230011438A46034300E66707C00800230743E50862E66407FF08274305095DE623
:20452000D208490711430F0002232D0956E60700A4E538008FE4C046FFFF7FFFFE07000095
:204540000B00020070B5164D0C0382B04900002000920193240B490DDE0FA94204DD11485F
:20456000814203DD104BF01802B070BD8020400320430E4C641A1F2C08DD0D4B5B1AD84023
:2045800003005842002EEFD11800EDE7094B009A9C46030061448B40E2401343F1E7C0460B
:2045A000FE0300001D040000FFFFFF7F3304000013040000EDFBFFFF10B5041E10D000F072
:2045C00067F80E4B1B1A5B055B0D0A280FDC0B222100121AD14015300A038440120B01E06A
:2045E000002300221B0513432000190010BD22000B38824012030024120BF3E71E04000081
:2046000070B542024300C40FFE201B0E591C550A08420CD0E02189008C466D07120B634446
:204620001B051343E40723432800190070BD002B14D1002D1BD0280000F02AF80A281CDCB9
:204640000B232A001B1ADA40030015339D400E4B12031B1A5B05120B5B0DE1E7002D09D035
:20466000130B802212031A436D07084BD8E700230022D5E70022054BD2E703002A000B3BE3
:204680009A400025E3E7C04689030000FF0700001C2101231B04984201D3000C10391B0A11
:2046A000984201D3000A08391B09984201D30009043902A2105C40187047C04604030202B9
:2046C00001010101000000000000000005490B78054AAA20D054981C08700133DBB2552165
:2046E000D1547047080100200C01002005490B78054A5520D054981C08700133DBB2AA2117
:20470000D1547047080100200C010020030002780020AA2A00D070475A78552AFBD15A18E0
:20472000013A1278AA2AF6D15B18023B1878553843425841C0B2EEE730B5411803390D78E8
:20474000C3781B02827813435C1E012B0EDD00230022C11809795218D2B201339BB2A3422C
:20476000F7DBA81A43425841C0B230BD0022F8E770B505000C0004290FD9FFF7C7FF03001D
:204780000020012B00D070BD21002800FFF7D4FF013843425841C0B2F5E70020F3E710B55A
:2047A0000400002909D000230020E25C8018C0B201339AB29142F8D810BD0020FCE7000075
:2047C00010B5837901338371C3790133C371054B1B78012B02D002F0AFFA10BD02F050FAC7
:2047E000FBE7C046C500002010B502F049FA10BD10B502F045FA10BD10B50248092102F037
:204800003FFA10BDC800002030B5124B1B78DAB2002B1ED1104B002119700E4B0131197016
:20482000C3781B0281780B43022B12DD0A4C0B4D2378D9B20133DBB2237083185B796B5467
:204840000132D2B2C3781B0281780B43023B9A42EEDB30BD5D0300205E03002060030020AF
:2048600010B50379013B0371CA1E835C013B835402F062FA10BD10B5037901330371CA1E81
:20488000835C0133835402F0FBF910BDF0B5C64600B580460F0016001E4A00231500137007
:2048A000F41CA4B2FFF712FF2B781B4AD454591CC9B2240A5454991CC9B2012050541C1D67
:2048C000E4B22C700333DBB24146D154002E0BD0002320000134E4B2FD5C15540133DBB29D
:2048E000B342F6D30B4B1C700A4E3578291F89B20A4C2000FFF753FF043C60550135357002
:20490000FFF7F4FE3178200002F0BAF980BCB846F0BDC046080100200C01002010010020CD
:2049200010B503490122F920FFF7B0FF10BDC0465C03002010B503490122FA20FFF7A6FF4A
:2049400010BDC046C400002010B503490222FB20FFF79CFF10BDC046C200002070B588B0AD
:204960006B46DC1DD87103F0E1F905002378862B01D008B070BD01222100FF20FFF786FF92
:204980000A2003F0D9F9224E300005F005FC33680124A3433360EFF3108284F3108833683B
:2049A00020218B43336082F310881022002104A805F09CFC174B5A6B22435A635B6B23404A
:2049C0000293029BC0230393059403A9124803F075FF114CFA26B60004E003F0A7F9401B21
:2049E000B0420BD84021200004F054F80028F4D18021200004F04EF80028EED1BFF34F8FC2
:204A0000064B074ADA60BFF34F8FC046FDE7C04600380140001002400004005000ED00E04E
:204A20000400FA0510B584B0040010220021684605F05CFC0122012C05D96946F820FFF73D
:204A400025FF04B010BD01236A461370002C0BD10B4B1A7869464A705A788A709A78CA70E9
:204A6000DB780B710522E8E700230548C15C1A006A44517001330C2BF8D10D22DDE7C0462E
:204A80005003002010B50F4B00221A700024072807D8052905D80C4B1B5CDBB201348B423E
:204AA0000AD108490B785A1CD2B20A700749CC541020FFF7EBFE10BD034B195402F0FCFEE0
:204AC000EFE7C04668020020440200206C020020F8B50500194B00221A70002008290AD08F
:204AE00016490B785A1CD2B20A701549C8541120FFF7CCFEF8BD2B002800083002E001339F
:204B0000834205D019780529F9D90132D2B2F6E70020002AE4D100240A4E370002E001340D
:204B2000082C09D0335DDBB22A5D9342F7D03A55E0B202F0C1FEF2E70120D1E7680200201A
:204B40006C0200204402002010B507280FD80B4B01221A700A4A022111700A4A125C5A70FF
:204B6000074B1A7805491220FFF790FE10BD044B01221A70014B00221A70F1E76C02002026
:204B8000680200204402002070B500230022084D084C11000132D2B2E85C60540133082BEB
:204BA000F7D1054B1A7003491320FFF76FFE70BD440200206C0200206802002010B50F4BA7
:204BC00000221A700024072807D8022905D80C4B1B5CDBB201348B420AD108490B785A1C6D
:204BE000D2B20A700749CC543020FFF74FFE10BD034B195402F060FEEFE7C0466802002076
:204C00003C0200206C020020F8B50500194B00221A70002008290AD016490B785A1CD2B2DF
:204C20000A701549C8543120FFF730FEF8BD2B002800083002E00133834205D0197802295F
:204C4000F9D90132D2B2F6E70020002AE4D100240A4E370002E00134082C09D0335DDBB2FB
:204C60002A5D9342F7D03A55E0B202F025FEF2E70120D1E7680200206C0200203C020020B3
:204C800010B507280FD80B4B01221A700A4A022111700A4A125C5A70074B1A78054932202E
:204CA000FFF7F4FD10BD044B01221A70014B00221A70F1E76C020020680200203C020020FE
:204CC00070B500230022084D084C11000132D2B2E85C60540133082BF7D1054B1A700349AC
:204CE0003320FFF7D3FD70BD3C0200206C0200206802002070B507280CD90C4B01221A70BB
:204D00000B4B00221A70094B1A7809493420FFF7BDFD70BD054C01232370054D2B7002F041
:204D200097F923785A1C2270E854ECE7680200206C02002070B50B4B00221A7000241D00B1
:204D4000094E200002F084F92B785A1CD2B22A70F0540134082CF4D103493520FFF796FD9A
:204D600070BDC046680200206C02002010B5114B00221A70002407280CD80F4B1B5CDBB286
:204D80008B4215D00C4B19540C4B1B5CDCB2012B0BD0012407490B785A1CD2B20A7008497D
:204DA000CC544020FFF772FD10BD02F0A9F9F1E70124EFE768020020340200204402002094
:204DC0006C020020F0B5C64600B505001D4B00221A70002008290CD01A490B785A1CD2B2B9
:204DE0000A701949C8544120FFF750FD80BCB846F0BD2B002800083004E00132D2B20133D6
:204E0000834203D019780129F7D8F8E70020002AE2D100240D4EB0460D4F02E00134082C78
:204E20000DD02A5D2000335DDBB29A42F6D043461A553B5D012BF1D102F062F9EEE701206E
:204E4000CAE7C046680200206C020020340200204402002010B507280FD80B4B01221A70E9
:204E60000A4A022111700A4A125C5A70074B1A7805494220FFF70AFD10BD044B01221A7054
:204E8000014B00221A70F1E76C020020680200203402002070B500230022084D084C1100B0
:204EA0000132D2B2E85C60540133082BF7D1054B1A7003494320FFF7E9FC70BD340200202D
:204EC0006C0200206802002010B5072824D8194B01221A70184B1A70184B1B5C022B07D0EE
:204EE000154B00215970134A03201070997019E0134B42001218D2009B18186901F0A2FF04
:204F00000C490B780C4AD0549C1C0C700133DBB280B2000AD05405E0064B01221A70064BB6
:204F200000221A70034B1A7803495020FFF7AEFC10BDC046680200206C0200204402002038
:204F40005C130020F0B5C64600B51A4B00221A700024194F1E00194D17E0194B6200121953
:204F6000D2009B18186901F06DFF12490B78134A9046D0549A1C0A700133DBB280B2000A6C
:204F80004246D0540134082C0BD03B5D022BE4D033780022EA54991C31700133DBB2EA5448
:204FA000F0E7044B1A7805495120FFF76FFC80BCB846F0BD68020020440200206C020020B4
:204FC0005C13002010B5124B00221A7007280DD8B4290BD80F4B1B5CDBB28B4215D00D4B38
:204FE00019540D4B1B5C0132032B09D0084B012119700A490A7001226020FFF747FC10BDC7
:20500000074B1A54074B1A70F0E70122EEE7C046680200202C020020440200206C02002053
:20502000600200205C020020F8B5CE46474680B5204B00221A70002408290BD01D4B01221B
:205040001A701D490C706120FFF720FCC0BCB946B046F8BD03000400083402E00133A342ED
:2050600005D01978B429F9D90132D2B2F6E70024002AE3D10023114D2F00114E114A914644
:2050800001229446104A904602E00133082B0ED0EA5CD2B2C15C8A42F7D0F954F25C032A7A
:2050A000F3D14A466146D15442461170EDE70124C4E7C046680200206C0200202C020020B7
:2050C00044020020600200205C02002010B507280FD80B4B01221A700A4A022111700A4A40
:2050E000125C5A70074B1A7805496220FFF7CEFB10BD044B01221A70014B00221A70F1E76C
:205100006C020020680200202C02002070B500230022084D084C11000132D2B2E85C605456
:205120000133082BF7D1054B1A7003496320FFF7ADFB70BD2C0200206C0200206802002066
:2051400010B50D4B00221A700024072803D8CB06DB0E102B0AD908490B785A1CD2B20A7038
:205160000649CC547020FFF791FB10BD044B195402F0D0F90134EEE7680200206C02002048
:205180002402002070B50500174B00221A70002008290AD014490B785A1CD2B20A701349B6
:2051A000C8547120FFF772FB70BD2A0028000830002102E00132824207D01378DB06DB0E02
:2051C000102BF7D90131C9B2F4E700200029E1D10024074E2B5D3355200002F09BF90134DD
:2051E000082CF7D10120D5E7680200206C0200202402002010B507280FD80B4B01221A709A
:205200000A4A022111700A4A125C5A70074B1A7805497220FFF73AFB10BD044B01221A7052
:20522000014B00221A70F1E76C020020680200202402002070B500230022084D084C11001C
:205240000132D2B2E85C60540133082BF7D1054B1A7003497320FFF719FB70BD240200203A
:205260006C0200206802002070B5104B00221A70002818D0002404290AD00C490B785A1C61
:20528000D2B20A700A49CC547420FFF7FFFA70BD05780F2DF1D8C37882784178280002F063
:2052A00017F90134E9E70024E7E7C046680200206C02002070B5114B00221A7000281BD089
:2052C000002430290AD00D490B785A1CD2B20A700B49CC547520FFF7D9FA70BD0400002502
:2052E000A37862782178280002F0F2F801350334102DF5D10124E6E70024E4E76802002041
:205300006C02002070B504000F280CD9144B01221A70144B00221A70114B1A7811497620C5
:20532000FFF7B4FA70BD0E4D01232B700D4E3370002102F0D9F82B785A1C2A70F054012187
:20534000200002F0D1F82B785A1C2A70F0540221200002F0C9F82B785A1C2A70F054DBE7CC
:20536000680200206C02002070B5134B00221A7000251C00114E0021280002F0B5F82378C3
:205380005A1C2270F0540121280002F0ADF823785A1C2270F0540221280002F0A5F8237884
:2053A0005A1CD2B22270F0540135102DE3D103497720FFF76BFA70BD680200206C02002073
:2053C00010B5124B00221A7007280DD864290BD80F4B1B5CDBB28B4215D00D4B19540D4B4E
:2053E0001B5C0132052B09D0084B012119700A490A7001228020FFF749FA10BD074B1A54A6
:20540000074B1A70F0E70122EEE7C046680200201C020020440200206C02002054020020A9
:2054200052020020F8B5CE46474680B5224B00221A7000283DD0002408290BD01E4B01226B
:205440001A701E490C708120FFF720FAC0BCB946B046F8BD03000400083402E00133A342CA
:2054600005D019786429F9D90132D2B2F6E70024002AE3D10023124D2F00124E124A91468D
:2054800001229446114A904602E00133082B0ED0EA5CD2B2C15C8A42F7D0F954F25C052A73
:2054A000F3D14A466146D15442461170EDE70124C4E70024C2E7C046680200206C02002034
:2054C0001C02002044020020540200205202002010B507280FD80B4B01221A700A4A0221E9
:2054E00011700A4A125C5A70074B1A7805498220FFF7CCF910BD044B01221A70014B0022D9
:205500001A70F1E76C020020680200201C02002070B500230022084D084C11000132D2B2F8
:20552000E85C60540133082BF7D1054B1A7003498320FFF7ABF970BD1C0200206C020020E8
:205540006802002010B51D4B00221A70002830D0032909D0194B0121197019490A700122AD
:205560009020FFF793F910BD0378012BF2D84178002902D18278002AECD0827812020A43CB
:2055800010499C00615A89B2914214D00D496252037842789B00CB189A70037882789B0092
:2055A000C918CA700178084B01225A54074B1A70D0E70022CEE70122CCE7C0466802002063
:2055C0006C02002014020020500200204C02002010B5244B00221A7000283FD0042909D00A
:2055E000204B0121197020490A7001229120FFF74DF910BD0178002902D14278002AEFD0BD
:205600008378002B02D1C278002AE9D043781B020B43164A128892B29A420AD0134A13806A
:20562000037893704378D370114B01221A70114B1A70C2781202837813430C4A928892B2AC
:205640009A420DD0094A938083789371C378D371074B01225A70074B1A70C1E70022BFE722
:205660000122BDE7680200206C02002014020020500200204C02002010B501280CD90D4B0A
:2056800001221A700C4B00221A700A4B1A780A499220FFF7FBF810BD074B01221A70074A68
:2056A0008000815A5970825A024903200870120A9A70EAE7680200206C02002014020020BF
:2056C00010B50A4B1A880A490A701A88120A4A709A888A709B88074A042010701B0ACB7035
:2056E00004228F30FFF7D2F810BDC046140200206C0200206802002010B5074B1A880749DB
:205700000A701B88064A022010701B0A4B7002229E30FFF7BBF810BDC00000206C020020C4
:205720006802002010B5074B1A8807490A701B88064A022010701B0A4B7002229F30FFF7FE
:20574000A5F810BD100200206C0200206802002010B5074B1A8807490A701B88064A0220FD
:2057600010701B0A4B700222A030FFF78FF810BD0E0200206C0200206802002010B5074B2C
:205780001A8807490A701B88064A022010701B0A4B700222A130FFF779F810BD0C020020D1
:2057A0006C0200206802002000B585B00C22002101A804F09BFD2B482B4B03608023DB0594
:2057C000436000238360C36080221206026104224261037643768376033AC2611F32835464
:2057E000436283620C3283540363253A426335328354C36402F0C4FA002823D11B4B019375
:2058000001230293174801A902F038FC00281CD1174B0193134801A902F030FC002817D162
:20582000144B01930F4801A902F028FC002812D1114B01930B4801A902F020FC00280DD152
:2058400005B000BD00F0D8FAD8E700F0D5FADFE700F0D2FAE4E700F0CFFAE9E700F0CCFA0A
:20586000EEE7C046EC020020002401401000001020000014002000B40000014010B588B074
:2058800004001422002103A804F030FD104B22689A4201D008B010BD0E4B1A6C80214903FE
:2058A0000A431A641A6C0A400192019A596B0122114359635B6B1A400292029B064B0393F0
:2058C00003230493A02003A9C00502F0F7FFE1E700240140001002403010000000B583B04B
:2058E000144A916B012319439163926B13400193019B114BC2229200985810490840802156
:20590000C9010143995080218900196098580C4908408021C90301439950F8321A60002200
:2059200001210B2002F0FEFE0B2002F02DFF03B000BDC0460010024000E100E0FF00FFFF5D
:20594000FFFF00FFF0B589B01422002103A804F0CDFC164B5A6B01252A435A635A6B2A4008
:205960000092009A5A6B022422435A635A6B22400192019A596B0422114359635B6B1A407F
:205980000292029B90273F01A026F60500223900300003F085F8039704950023059306949B
:2059A00003A9300002F08AFF09B0F0BD00100240084B094A1A60094A1A6002225A60084ABB
:2059C0009A6019000722CB681A42FCD1014B054A1A60704700300040CCCC000055550000B1
:2059E000FF0F0000AAAA000082B080239B050C480C4A99181A000433096811608342F7D1B5
:205A0000094A116C012319431164126C13400193019B064A136803210B43136002B07047A7
:205A2000C0000020002000E8001002400000014010B502F02DF9C0B2014B187010BDC046F5
:205A40005C03002070B502F089F9050002F08CF9040002F08FF9024B1D605C60986070BD89
:205A60005003002000B593B03822002104A804F03DFC10220021684604F038FC802080001E
:205A800003F014F80A230493F633079300230893402209923F3A0A9201320B920C920D93A2
:205AA00008330E9380239B020F93C023DB04109380239B05119304A803F02AF800280ED114
:205AC00007230093053B01930023029303930221684603F00BFB002803D113B000BD72B679
:205AE000FEE772B6FEE7000070B5FFF77DFFFFF79FFFFFF7A7FF02F0F9F8FFF7B3FFFFF76C
:205B000021FFFFF7EBFE00F07BFE00F0DFFFFFF74FFF00F0DBFB00F015FC00F051FCFFF711
:205B200043FE00F015FD00F091FD012002F004F9A64B02256D421D61DA6801242243DA6049
:205B40001A6822431A60012002F0F6F8A04B1D61DA682243DA601A6822431A60012002F025
:205B6000EBF89C4B1D61DA682243DA601A6822431A60012002F0E0F8974802F0FDFC01F0F5
:205B80001BFE0024200001F031FA0134082CF9D101F0C8FF914C924E250017E0904B58781D
:205BA000C0B29978C9B2FEF76DFF00232B7001F0BFF901F0CBFF01F0B9FD01F077FB01F069
:205BC0000FFF01F029FF874B874A1A602378012BEDD13378103BDAB2EF2AE6D89300834A43
:205BE000D3589F46824B19780139C9B28148FEF76FFFDAE77A4B5878C0B2FEF7A5FFD4E73A
:205C0000FEF7C2FFD1E7764B5878C0B29978C9B2FEF7D4FFC9E7764B19780139C9B275484B
:205C2000FEF7F2FFC1E76E4B5878C0B2FFF728F8BBE7FFF745F8B8E7694B5878C0B2FFF765
:205C400059F8B2E7FFF776F8AFE7654B5878C0B29978C9B2FFF78AF8A7E7654B1978013961
:205C6000C9B26448FFF7AEF89FE75D4B5878C0B2FFF7F0F899E7FFF70DF996E7584B5878A7
:205C8000C0B2FFF721F990E7FFF75CF98DE7544B5878C0B29978C9B2FFF794F985E7544B51
:205CA00019780139C9B25348FFF7BEF97DE74C4B5878C0B2FFF70AFA77E7FFF727FA74E74F
:205CC000474B5878C0B29978C9B2FFF739FA6CE7474B19780139C9B24648FFF753FA64E7F4
:205CE0003F4B5878C0B2FFF785FA5EE7FFF7A2FA5BE73F4B19780139C9B23E48FFF7B4FA50
:205D000053E73B4B19780139C9B23A48FFF7D2FA4BE7334B5878C0B2FFF7F4FA45E7FFF741
:205D200023FB42E72E4B5878C0B29978C9B2FFF747FB3AE72E4B19780139C9B22D48FFF752
:205D400071FB32E7264B5878C0B2FFF7C1FB2CE7FFF7DEFB29E7264B19780139C9B2254843
:205D6000FFF7F0FB21E7224B19780139C9B22148FFF72EFC19E71A4B5878C0B2FFF77CFCE9
:205D800013E7FFF79DFC10E7FFF7B6FC0DE7FFF7C9FC0AE7FFF7DCFC07E7FFF7EFFC04E7B3
:205DA0000F4B5878C0B2FEF73DFEFEE6FEF7B8FDFBE6FEF7BFFDF8E6FEF7C6FDF5E6084B33
:205DC0005878C0B2FEF7CAFDEFE6C046002000400048014000440140EC0200205D030020EE
:205DE0006003002000300040AAAA00002CA400085E0300206103002072B6FEE700B583B08A
:205E00000D4B196C012211431964196C0A400092009ADA6B802149050A43DA63DB6B0B4067
:205E20000193019B00220121032002F07BFC032002F0AAFC03B000BD00100240FEE7FEE71B
:205E40007047704710B501F065FF10BD10B502F0C5FC10BD7047000070B5244B1B689B0639
:205E60003FD5224B20225A60214A136801218B43136072B61F4BC22292009B5C002B0ED054
:205E80001C4C1D4D605D01300231FCF7ABFAC9B26155C2229200A35C013BDBB2A354154BB1
:205EA000C22292009B5C002B1CD01249124BCB5CDC011A1952008A180132FF3210881B194B
:205EC0005B005B180A4AD36053681B0C1B0403435360136801210B431360084B00221A7016
:205EE00062B670BD054B01221A70F9E7000002401C0002400810002006030000C7000020B8
:205F000070B5254B1B689B0440D5234B802292015A60224A136801218B43136072B6204B7B
:205F2000C22292009B5C002B0ED01D4C1D4D605D01300231FCF756FAC9B26155C22292000D
:205F4000A35C013BDBB2A354154BC22292009B5C002B1CD01249134BCB5CDC011A1952005C
:205F60008A180132FF3210881B195B005B180B4AD36053681B0C1B04034353601368012162
:205F80000B431360084B00221A7062B670BD064B01221A70F9E7C046000002404400024050
:205FA000FC0C002006030000C600002010B50E4B1B69DB0716D50C4B022252421A610B4C7A
:205FC0002378013B23700A48092100F059FE2378002B07D1044BDA6801218A43DA601A68BA
:205FE0008A431A6010BDC04600200040DD000020D40000200C4B1B69DB0714D50A4B022217
:2060000052421A61094B1B78002B0CD1074B01211970074BDA680A43DA601A680A431A6021
:20602000044B03221A70704700440140C500002000200040DD00002010B5064B1B69DB0768
:2060400007D5044B022252421A610348092100F073FE10BD00480140C8000020F0B5C6461D
:2060600000B54B4BDB69DB0644D5494B1B68DB0640D5474B10221A62464B1A6801218A4348
:206080001A605A6880235B009B1A9BB2002B2DD041490C78E4B20A780132012002400A7066
:2060A000097849023D4A89183A4AD1605168090C090480256D0029435160116801431160FF
:2060C000EFF3108580F3108831498A683F3002438A6085F31088082B0CD964022F4AA41871
:2060E000E7183E00093EB4420AD903E0294A13680B43136080BCB846F0BD0134B442F9D8CE
:206100002378AA2BF9D16378552BF6D1E2781202A3781343FA2B1BD806339DB2082D17D97F
:2061200063199846BB42E5D8023B1B78552B11D14346013B1B78AA2B0CD16379FD2B0BD030
:20614000FE2B0DD129002000FEF73AFB4446D5E70134D3E70134D1E7FEF74EFB4446CDE727
:206160002379012B05D029002000FEF779FB4446C4E729002000FEF7FBFA012801D04446E4
:20618000BCE729002000FEF73FFB4446B6E7C04600380140080002406104002064080020E3
:2061A000F8B5434BDB69DB0646D5414B1B68DB0642D53F4B10221A623E4B1A6801218A432B
:2061C0001A605B6880246400E41AA4B2002C2FD0394A1078C0B21378013301210B401370CF
:2061E00012785202354BD218324BDA605A68120C120480256D002A435A601A680A431A6028
:20620000EFF3108581F31088294A93683F310B43936085F31088082C0ED94002274BC01825
:2062200004192500093DA84206D88026760007E0204A13680B431360F8BD0130A842FBD8C2
:206240000378AA2BF9D14378552BF6D1C3781B0281781943B1421AD8063189B2082916D9FE
:206260004718A742E8D83B00023B1B78552B10D13B00013B1B78AA2B0BD14379FD2B0CD02F
:20628000FE2B08D0FC2B0FD0FEF7F5FA05E00130D4E70130D2E7FEF7A7FA0023084A536298
:2062A000084A13703800C9E7FEF7A2FAF5E7C04600440040300002406004002064040020AC
:2062C00000440140C50000207047000030B587B001AC14220021200004F008F8144B1A6C84
:2062E000802109020A431A641B6C0B400093009B104AC420800013581B021B0A8021C9054D
:206300000B43135080231B0313600B4B2380002363600A4AA260E360094D2100280003F08E
:20632000BFFE2B68802213432B6007B030BDC0460010024000E100E0FF180000A30600000D
:206340000020004030B587B001AC14220021200003F0CCFF144B1A6C802189020A431A6403
:206360001B6C0B400093009B104BC520800019580F4A11408022D2010A431A5080229203DF
:206380001A600C4B2380002363600B4AA260E36023610A4D2100280003F082FE2B6880223D
:2063A00093432B6007B030BD0010024000E100E0FF00FFFFFF1800002F7500000044014088
:2063C00030B587B001AC14220021200003F08EFF134B1A6C8021C9020A431A641B6C0B4010
:2063E0000093009B0F4AC520800013580E490B408021C9030B43135011600C4B23800023F8
:2064000063600B4AA260E36023610A4D2100280003F046FE2B68802293432B6007B030BD8A
:206420000010024000E100E0FFFF00FFFF1800000F2700000048014082B003688022D20560
:20644000934204D00C4A93420BD002B070470B4AD16B01231943D163D26B13400093009B21
:20646000F3E7064AD16B02231943D163D26B13400193019BE9E7C0460004004000100240D5
:2064800030B58BB004001422002105A803F02EFF23688022D205934204D0294A934228D0C7
:2064A0000BB030BD274B596B012211435963596B0A400192019A596B0422114359635B6BCF
:2064C0001A400292029B0B230593022406940994A02005A9C00502F0F1F94023059306946A
:2064E000002307930893099405A9174802F0E6F9D6E7144B5A6B012422435A635A6B22407A
:206500000392039A5A6B02252A435A635B6B2B400493049BC023059306950994A02005A9AB
:20652000C00502F0CBF9032305930695002307930893099405A9054802F0C0F9B0E7C0464F
:206540000004004000100240000800500004005000B58FB0102200210AA803F0C7FE0C221A
:20656000002107A803F0C2FE1C220021684603F0BDFE34488023DB0503603F234360002353
:206580008360314AC2600361836103F045F900283FD180235B010A932A480AA903F086FA96
:2065A000002839D1274803F067F9002837D1002307930993234807A903F02EFC002831D1FC
:2065C000602300939533FF3301930023029304931C480022694603F0BBF9002825D119486D
:2065E0000422694603F0B4F9002821D115480822694603F0ADF900281DD112480C226946F0
:2066000003F0A6F9002819D10E48FFF739FF0FB000BDFFF7F1FBBCE7FFF7EEFBC2E7FFF7D3
:20662000EBFBC4E7FFF7E8FBCAE7FFF7E5FBD6E7FFF7E2FBDAE7FFF7DFFBDEE7FFF7DCFBB6
:20664000E2E7C046B00C00201F4E000000B58FB0102200210AA803F049FE0C22002107A8F1
:2066600003F044FE1C220021684603F03FFE3348334B03603F23436000238360314AC260A4
:206680000361836103F0C8F800283FD180235B010A932A480AA903F009FA002839D127486F
:2066A00003F0EAF8002837D1002307930993234807A903F0B1FB002831D1602300939533BA
:2066C000FF3301930023029304931C480022694603F03EF9002825D118480422694603F000
:2066E00037F9002821D115480822694603F030F900281DD111480C22694603F029F9002875
:2067000019D10E48FFF7BCFE0FB000BDFFF774FBBCE7FFF771FBC2E7FFF76EFBC4E7FFF7FA
:206720006BFBCAE7FFF768FBD6E7FFF765FBDAE7FFF762FBDEE7FFF75FFBE2E7640C002054
:20674000000400401F4E000070B5EFF31080012181F31088234A13680C242343136080F35F
:206760001088EFF3108081F31088136804342343136080F310881C4B1C4898601C480078CD
:2067800040021C4D4019D8605868000C000480256D00284358601868FE3D2843186018689A
:2067A000082630431860186808431860EFF3108081F31088936838363343936080F3108822
:2067C00014620D4B0D489860EFF3108081F31088916870342143916080F310881A682A4334
:2067E0001A6070BD00380140080002402438014061040020640800201C0002402838014082
:20680000F0B5DE4657464E464546E0B59BB02022002112A803F06AFD182200210CA803F09A
:2068200065FD2422002103A803F060FD0123029302A802F02FFD002800D0C9E0664B1A6C3B
:206840008021C9010A431A641A6C0A400192019A5A6B02252A435A635B6B2B400093009B8F
:20686000402398460C930D950E9500240F94012610961194594B99460CA9180003F008FB74
:2068800080270C970D950E950F94109611940CA9484603F0FDFA524A13683F218A468B4339
:2068A0000D390B4313604F4B1A684F4989460A401A601A684D498C460A401A601A681E3507
:2068C000AA431A601A6841468A431A601A68BA433A431A601A68464802401A601A684549AF
:2068E0008B460A401A60444A136851468B430C390B431360414B1A6849460A4010210A432A
:206900001A601A6861460A401A601A68AA431A601A6841468A431A601A68BA433A431A6061
:206920001A6802401A601A6859460A401A60344AC621890053581B021B0A535080231B05F3
:2069400013601294E1235B0213931494159416940C231793189419942A4C12A9200003F0A6
:2069600047FCEFF3108286F31088A368DB00DB08A36082F31088EFF3108286F31088A368E6
:2069800021490B40A36082F3108823681F4A1340236063681E4A13406360A3682A229343F2
:2069A000A3602368334323602200802189038020C003D3690B42FCD0D3690342F9D0FFF709
:2069C000C3FE1BB0F0BCBB46B246A946A046F0BDFFF712FA32E7C04600100240000400503D
:2069E0000008024008000240EFBFFFFFFFCFFFFFFFFCFFFFFFF3FFFF040802401C000240F6
:206A000000E100E000380140FFFFFFF1FFFFFFDFFFB7FFFF70B5EFF31080012181F31088F9
:206A2000234A13680C242343136080F31088EFF3108081F31088136804342343136080F3DD
:206A400010881C4B1C4898601C48007840021C4D4019D8605868000C000480256D00284376
:206A600058601868FE3D284318601868082630431860186808431860EFF3108081F3108866
:206A8000936838363343936080F3108814620D4B0D489860EFF3108081F3108891687034E3
:206AA0002143916080F310881A682A431A6070BD00440040300002402444004060040020BE
:206AC000640400204400024028440040F0B5DE4657464E464546E0B591B0202620220021F8
:206AE00008A803F003FC00240594594BDA6B802189020A43DA63DA6B0A400192019A5A6B16
:206B000001252A435A635B6B2B400093009B8023DB01029302270397049706950795A0235A
:206B2000DB05984602A9180003F0B2F980231B0202930397049705940695079502A94046AB
:206B400003F0A6F9434A13683F218A468B430B390B431360404B1A68404989460A401A606F
:206B60001A683F4988460A401A601A68B2431A601A6840218C468A431A601A687E37BA4358
:206B80003A431A601A68374802401A601A6836498B460A401A60354A136851468B430A3909
:206BA0000B431360324B1A6849460A4010210A431A601A6841460A401A601A68B2431A6086
:206BC0001A6861468A431A601A68BA433A431A601A6802401A601A6859460A401A60254B3C
:206BE000C72189005A58FF2082435A50802252051A600894E1235B0209930A940B940C94FB
:206C00000C230D930E940F941B4C08A9200003F0EFFA6368194A13406360A3682A229343DB
:206C2000A36023682B4323602200802189038020C003D3690B42FCD0D3690342F9D0FFF78E
:206C4000E9FE11B0F0BCBB46B246A946A046F0BD001002400808024030000240EFBFFFFFA3
:206C6000FFCFFFFFFFFCFFFFFFF3FFFF0C0802404400024000E100E000440040FFB7FFFF8A
:206C8000F8B504000D0072B6264BC22080001B5CDBB2022B03D880235B00994201D962B664
:206CA000F8BD204E204FF05DC301C018400080190A00210003F046FBF35DDA019B185B00E8
:206CC000F3180133FF331D80F05D01300321FBF789FBC9B2F155C2229200B35C0133DBB287
:206CE000B354124B1B78002BD9D00E49104BCB5CDC011A1952008A180132FF3210880B4A9B
:206D0000002515701B195B005B180A4AD36053681B0C1B0403435360136801210B431360E8
:206D2000BDE7C0460810002007030000C7000020060300001C000240F8B504000D0072B633
:206D4000264BC22080001B5CDBB2022B03D880235B00994201D962B6F8BD204E204FF05DAA
:206D6000C301C018400080190A00210003F0EAFAF35DDA019B185B00F3180133FF331D8055
:206D8000F05D01300321FBF72DFBC9B2F155C2229200B35C0133DBB2B354124B1B78002B0E
:206DA000D9D00E49104BCB5CDC011A1952008A180132FF3210880B4A002515701B195B00C3
:206DC0005B180A4AD36053681B0C1B0403435360136801210B431360BDE7C046FC0C00208F
:206DE00007030000C600002006030000440002400D488546FFF768FA0C480D490D4A002378
:206E000002E0D458C4500433C4188C42F9D30A4A0A4C002301E013600432A242FBD303F0A7
:206E20006DFAFEF761FEFEE700200020C0000020EC000020BCA90008EC0000203C1400209D
:206E4000FEE70000F0B5CE46474680B585B01F4B1A68002191620190012202920532039289
:206E600001A9180001F00AF9051E2BD114240027164EB146B04606E0484601F05BFB013C95
:206E8000E4B2002C0FD0300001F0D8FA0221300001F090F80028EFD1404601F0EBF83F18F9
:206EA0000135EDB2EBE7094801F044FB002D0BD029003800FBF726F980B205B0C0BCB946CE
:206EC000B046F0BD0248F8E70148F6E7EC020020FFFF000010B588B00400134B596B01226E
:206EE00011435963596B0A400192019A596B0222114359635B6B1A400292029B0C220021AE
:206F000005A803F0F3F9094963001A19D2008A1892680392032204921B19DB00585803A9D4
:206F200001F0CCFC08B010BD001002405C13002010B52248FFF786FF0100214B984208D069
:206F4000204B1B8820485843FBF7DCF880B21F4B18801F48FFF776FF194B984209D01B4BD7
:206F60001B8858431B49FBF7CDF8400080B21A4B18801A48FFF766FF114B98420CD0134B1C
:206F80001B8858431349FBF7BDF88300C3185B00C01880B2124B18801248FFF753FF084B03
:206FA000984209D0094B1B8858430A49FBF7AAF8400080B20C4B188010BDC046002000B49D
:206FC000FFFF0000AA75FF1FB80B0000C000002020000014FF0F000010020020000001401E
:206FE0000E020020100000100C02002010B588B00400144B596B012211435963596B0A40AE
:207000000192019A596B0222114359635B6B1A400292029B1022002104A803F067F90A4954
:2070200063001A19D2008A1892680392074A125D05921B19DB00585803A901F03FFC08B011
:2070400010BDC046001002405C1300203C020020074B42001118C900C95809691218D20009
:207060009B1898680840431E9841C0B27047C0465C130020F0B5CE46474680B589B0050064
:207080001C4B5A6B012189460A435A635A6B0A400192019A5A6B013188460A435A635B6BF7
:2070A0000A000B400293029B1232002103A803F01DF9114F6C006319DB00D859FE18B168AD
:2070C0000E4B5A5DD2B289B201F0EAFCB36803934B46049300230593434606936419E400F3
:2070E000E05903A901F0EAFB09B0C0BCB946B046F0BDC046001002405C13002034020020C1
:207100000A4B42001118C900C9581218D2009B189B68074A125C002A03D01B041B0C8B6125
:2071200070471B041B0C8B62FAE7C0465C1300203402002030B589B00400144B596B012231
:2071400011435963596B0A400192019A5A6B02252A435A635B6B2B400293029B082200211F
