:020000040800F2
:2000000000200020090900080D0800080F080008000000000000000000000000000000004A
:20002000000000000000000000000000110800080000000000000000130800081508000857
:200040005909000859090008590900081D080008590900085909000859090008590900088D
:2000600000000000590900085909000859090008590900085909000859090008590900089A
:2000800059090008590900085909000859090008000000005909000859090008590900087A
:2000A00059090008590900085909000859090008A103000859090008000000000000000082
:2000C00010B5064C2378002B07D1054B002B02D0044800E000BF0123237010BD4800002047
:2000E00000000000CC150008044B10B5002B03D00349044800E000BF10BDC04600000000FB
:200100004C000020CC150008002243088B4274D303098B425FD3030A8B4244D3030B8B4232
:2001200028D3030C8B420DD3FF22090212BA030C8B4202D31212090265D0030B8B4219D334
:2001400000E0090AC30B8B4201D3CB03C01A5241830B8B4201D38B03C01A5241430B8B42BD
:2001600001D34B03C01A5241030B8B4201D30B03C01A5241C30A8B4201D3CB02C01A52411E
:20018000830A8B4201D38B02C01A5241430A8B4201D34B02C01A5241030A8B4201D30B02D4
:2001A000C01A5241CDD2C3098B4201D3CB01C01A524183098B4201D38B01C01A524143091B
:2001C0008B4201D34B01C01A524103098B4201D30B01C01A5241C3088B4201D3CB00C01A8E
:2001E000524183088B4201D38B00C01A524143088B4201D34B00C01A5241411A00D2014630
:20020000524110467047FFE701B5002000F006F802BDC0460029F7D076E770477047C0460E
:2002200010B50B480B4B036000230371013343710122524202612132426160328261036284
:2002400000F0AEFC002800D110BD00F0BDFAFBE7640000200030024082B0084B02689A42F4
:2002600001D002B07047064B9A6B802149010A439A639B6B0B400193019BF2E700300240ED
:200280000010024082B0054A516B012319435163526B13400193019B02B0704700100240A0
:2002A00010B5064B1C680648064A074900F0BAFCC043001B43425841C0B210BDFCDF0008B2
:2002C00064000020FCBF00000020000806498022CB691A42FCD0044B986219004022CB6972
:2002E0001A42FCD07047C0460044004010B5184C200001F077F82368012293432360EFF303
:20030000108182F3108823681F329343236081F3108800230F4A13600F4A106803210140D9
:2003200011600E4901204042802408510134FF3408510B490B664B668B66CB6691690133CE
:20034000FF330B43936100F0CFFF00F007FB10BD0044004010E000E00000014000E100E056
:200360000018024010B5FFF79BFF002807D0094B1B68094A134080229205934200D010BDA7
:20038000FFF7B4FF054B1B68024A126882F308889847F4E7002000080000FE2F04200008DB
:2003A00010B5254BDB699B0608D5234B5B6ADBB2224A1278002A02D0022A14D010BD992BF3
:2003C00003D06620FFF782FFF8E700F023FB1C4B1C4A944660441860184B02221A708820E4
:2003E000FFF774FFEAE7184801884A1C92B2028016484354012A0CD0154B9A42DED1134B69
:200400001B78012B10D0022B12D00F4B00221A80D4E70378013B012BD0D90B4B00221A80BF
:200420006620FFF753FFC9E7044B03221A70ECE7024B04221A70E8E7004400408C00002071
:200440008800002020A107008E0000209000002008080000F0B5CE46474680B587B00023E9
:2004600005933E4B5C7824069A78120414431A791443DB781B021C43394B9C420CD9374B5C
:200480005A7912029B799B189BB2002B09D13348344A002101F06EF807B0C0BCB946B046C3
:2004A000F0BD322000F092FC00F07CFC0028FBD102230193F8231B06E318DB0A03930123D4
:2004C0000493322000F082FC05A901A800F010FD0028F6D180231B01E3189C4237D22200BF
:2004E000083293429B415B425A4253415B42FF221340013398461C4EA31B99464B469F19D1
:2005000074782402B3781B041C4333781C43F3781B061C43357973791B021D43B3791B04C9
:200520001D43F3791B061D43322000F04FFC22002B003900012000F083FC0028F4D10123BA
:200540005B429C46E04408364346002BD6D100F0ADFC322000F03AFC99E7C0469000002018
:20056000FF1F00080808000098000020F8B5CE46474680B500F04EFA334BF530FF30186088
:200580001E00324D1F0028E0FFF7ECFE2AE000F041FA2F4B9C4660443860EFF31082012352
:2005A000994683F310882B4C2368202188468B43236082F31088FFF74DFFEFF3108289F3AD
:2005C0001088236841460B43236082F310887720FFF77CFE1D4B02221A7000F01BFA3368D6
:2005E0009842D1D82B78032BD1D0042BF5D100F011FA154B164A9446604418607720FFF7D3
:2006000065FEEFF310820123994683F31088114C2368202188468B43236082F31088FFF7A7
:2006200019FFEFF3108289F31088236841460B43236082F310885520FFF748FE0A2000F05F
:200640007BFFFFF78FFEC8E7880000208C00002020A107000044004000B587B0102200210F
:2006600002A800F087FF094A516B012319435163526B1A400092009A0C2201920393A020BD
:2006800001A9C00500F082FC07B000BD0010024010B5284A136807218B4305390B43136010
:2006A000110007220B681340022BFBD1224A1168FE330B43136011008022D2000B6813421D
:2006C000FCD01D4BD9681D4A11401D4A0A43DA601968802252040A431A60D9688022520585
:2006E0000A43DA601900802292040B681342FCD0114A936813490B409360936807218B43AD
:2007000005390B439360110038228B681340102BFBD1094A93680C490B4093600B4800F07E
:2007200023FF032000F02EF9002800D110BD72B6FEE7C04600200240001002408C80FF1FA6
:2007400002080020FFF0FFFFFF8FFFFF0090D00310B500F03FF9FFF79BFFFFF793FDFFF79A
:200760005FFDFFF779FFC82000F0E6FEA023DB051B695B0704D4A023DB051B691B0711D563
:20078000FFF7F0FD00F050F8EFF31081012383F310880C4A136820200343136081F31088C3
:2007A000FFF7E4FE00F040F8EFF31081012383F31088044A10681F330343136081F31088B7
:2007C000FFF7D4FE0044004072B6FEE700B583B00D4B196C012211431964196C0A400092A6
:2007E000009ADA6B802149050A43DA63DB6B0B400193019B00220021032000F011F903205D
:2008000000F040F903B000BD00100240FEE7FEE77047704710B500F0F1F810BD10B500F095
:2008200061FA10BD7047000070B590B02022002108A800F09FFE0C22002104A800F09AFE51
:200840002D4BDA6B802189020A43DA63DA6B0A400192019A5A6B01252A435A635B6B2B4022
:200860000093009B04230293022403940795A026F60502A9300000F075FC082302930394E1
:200880000024049405940694079502A9300000F069FC1A4BC72189005A58FF2082435A5087
:2008A000802252051A600894E1235B0209930A940B940C940C230D930E940F94104C08A92E
:2008C000200000F0BBFD63680E4A13406360A3682A229343A36023682B43236022008021A8
:2008E00089038020C003D3690B42FCD0D3690342F9D010B070BDC0460010024000E100E064
:2009000000440040FFB7FFFF0D488546FFF78AFF0C480D490D4A002302E0D458C450043383
:20092000C4188C42F9D30A4A0A4C002301E013600432A242FBD300F025FEFFF709FFFEE742
:200940000020002000000020480000209016000848000020B8080020FEE7704710B5084B25
:2009600001214942D9620022DA6219631A6399629A6259625A62FFF7F0FF002010BDC046F2
:200980000010024070B504000F4B19780120002900D170BD0D4DFA208000FFF7B5FB01000E
:2009A0002868FFF7B1FB00F079F803000120002BEFD1032CEDD800222100404200F030F8C4
:2009C000034B1C600020E4E704000020000000200800002010B5084A116880235B000B431A
:2009E00013600320FFF7CEFF041E02D00124200010BDFFF7EBFEFAE700200240034A1168B0
:200A0000034B1B785B1813607047C0469808002004000020014B18687047C0469808002025
:200A200070B5002814DB8408A400144B9C466444C026B600A55903220240D200FF23180054
:200A40009040854389010B4093402B43A35170BD0F230340083B9B089B00094A94466344FD
:200A6000DC6903221040C000FC3215008540AC4389010A4082402243DA61E8E700E100E03F
:200A800000ED00E0002805DB1F22024001239340014A13607047C04600E100E001388023EF
:200AA0005B0498420FD2094A50600948036A1B021B0AC02109060B43036200239360073326
:200AC0001360002070470120FCE7C04610E000E000ED00E0F0B583B00C0001911100920804
:200AE000032924D90026076823781B0665782D042B43E5782B43A5782D022B433B600136A9
:200B000004349642EFD303231C000C400B4215D0012C0ED0022C15D19200019B9C5C2402D8
:200B20009C466244537823430268138006E00022E9E7036892000199525C1A70036818686D
:200B400003B0F0BD9200019B9C5C24029C4662445378234301680B80036892781A70EDE769
:200B6000F0B583B00C00019111005208012915D90025066823881B0467883B4333600135E9
:200B800004349542F5D3C90704D5036892000199525A1A800368186803B0F0BD0022F2E7B2
:200BA00010B5041E39D0437F002B25D0022363772379002B24D12368194A5A61226893687A
:200BC00018218B4393606379002B22D12368012252421A612268936860218B4361690B4378
:200BE00093602268936880218B43A1690B43936001236377002010BD0377FFF72DFBD5E784
:200C0000E268A168200000F035F80028DBD00120F1E7236822691A61DCE70120EBE7C0462B
:200C2000B71DC10470B50400022343770068836801252B438360236A022B17D0032B06D0A4
:200C40000020012B0FD12000FFF744FF0BE0002A07D00B0092008918226801CB10608B4252
:200C6000FAD1236818680123637770BD2000FFF777FFF8E7F0B507000120CB0725D51F232D
:200C80001F260125013B27D334001C400800E0400542F7D0102A19D0102A08D8002A0BD0AB
:200CA0000120082A11D101200F2B0ED804E0182A10D10120062B08D83B68596139688B6894
:200CC0001820834313438B600020F0BD072BF3D90120FAE70120F8E7102ADDD10120F4E724
:200CE0007047704710B52A4B1B692A4A13402A4A9268510721D5284A1469002B2AD1244BC1
:200D00001B69DB070CD5224B01221A61224B9B68022B2CD0204B00229A602000FFF7E0FF6C
:200D20001D4B9B68002B07D1194A53691B490B405361194B00221A7010BD1548416991430B
:200D4000416117490A4202D0134AD468D5E7124A5469D2E7104A51680B4353600C4B0D498B
:200D60001961002393602000FFF7BBFFC7E70A4A9369013B9361002B03D1074B00229A6078
:200D8000CBE7516901315161106900F0A1F8C4E700200240FAC300009C080020FFFFFFFC7A
:200DA00001000400064B5B690020002B00DB7047034B044A9A60044A9A605869C00FF6E7F1
:200DC0000020024023016745AB89EFCDF8B50400FFF720FE0700164E80256D0233692B42A4
:200DE00008D0631CFAD0FFF715FEC01BA042F5D303201CE00E490A690E4B15001D400E483A
:200E000008611A420ED10E008025ED0233692B420CD0631CFAD0FFF7FDFDC01BA042F5D3E9
:200E2000032004E0054B5D60012000E00020F8BD00200240FAC30000FBC300009C08002027
:200E4000F8B506000F0014001D00164B1B78012B26D0144B01221A7000225A60FA20800007
:200E6000FFF7B4FF00280DD1012E0FD02100380000F0BAFBFA208000FFF7A8FF0A4A536970
:200E8000B3435361074B00221A70F8BD064A536901210B4353613C60BFF36F8F7D60E9E7CC
:200EA0000220F2E79C0800200020024010B5FA208000FFF78BFF054B5969802212060A4319
:200EC0005A615869C043C00F10BDC04600200240044A5369C900044803401943034B0B4335
:200EE000536170470020024007E0FFFF02000100F8B504000E00224B1B78012B3DD0204BDA
:200F000001221A7000225A60FA208000FFF75EFF00282ED1042363602368042B19D0012383
:200F20005B423360A568E368EB189D421CD2FA27BF0060682900FFF7CBFF3800FFF746FF55
:200F4000002810D10135A368E2689B18AB42F0D80AE00C4A51690C4B0B435361FA30800098
:200F6000FFF734FF05E03560064A536902218B435361034B00221A70F8BD0220FCE7C04663
:200F80009C0800200020024004000100F0B5DE4657464E464546E0B583B00F68002F00D162
:200FA000D1E0002200230124A0460234694DAB4652E0876825009540AF43B946CF68974039
:200FC0004D462F4387604768B7434E68360945462E409E403E4346604AE000265546AE40B0
:200FE0004D462E433E665D462D68AA466546ED4301954D6880267603354200D094E0564685
:20100000019D2E405D462E606D68AA464D688026B603354200D08BE05646019D2E405D46BD
:201020006E608426AE594D68AD0300D584E0019D2E4084255F467E518026BE594D68ED0308
:201040007DD4019D2E4080275D46EE5101330F6802323E00DE4076D046469E403D0035400D
:20106000AC463742F2D04F682740013F012FA0D94E682640032E22D0C76826009640B743D8
:201080008E6896403E43C6604E682640022E16D1DE08B600851901952D6AAA4607271F40C6
:2010A000BF000F25BD40A94655464E46B543AA460D69BD402F0055462F43019D2F620768ED
:2010C00026009640B7434E68264096403E4306604E68C025AD022E42B8D09F08BF001D4D2F
:2010E000A9464F443D6E019525001D40ED00AA460F255646B540019EAE43B146A025ED05CB
:20110000A84200D169E7144EB04209D0134EB04208D0134D4619751EAE41760003365DE738
:2011200001265BE7022659E7654656462E4369E7654656462E4372E765462E4379E765469E
:2011400035432E007FE703B0F0BCBB46B246A946A046F0BD001802400004005000080050A3
:2011600000F4FFAFF0B5D6464F464646C0B50B68002B5AD000220124A14620E0C368984677
:20118000270067437B009C46BC446346DE430B697B439A46454663469D432B0055461D430B
:2011A000C5604B68022B25D004684B687B4334402343036001320B681C00D44035D04E46AC
:2011C00096401C0034403342F4D04B68013B012BD4D88368270067437E00F619B3438E6874
:2011E0007E43334383604368A343CE68664333434360C3E7FF2C0CD8036A3C007C43A44641
:2012000024016546641BA3434C696C4323430362CAE7436A240A6443644325012D1BAB4334
:201220004D696C4323434362BEE70020E0BCBA46B146A846F0BD0000054B9B68054A1B0589
:201240001B0F9B009B581F221340D8407047C0460010024018160008054B9B68054A5B04E4
:201260005B0F9B009B581F221340D8407047C04600100240F815000810B5174B9A68382322
:201280001340082B26D0102B1DD1134BDB68032018400338434258414042104B1840104BA4
:2012A0009C4660440C4AD368D168D4685B045B0E58434906490F0131FEF726FF610F0131AA
:2012C000FEF722FF10BD044B1B689B045B0F0448D840F7E70348F5E70010024000EE85FF23
:2012E0000024F40000127A00194A116880235B000B43136011008022D2000B681342FCD096
:20130000134B5968134A11408022D2010A435A6000229A600132FF321A601900802292023B
:201320000B681342FCD10A4B802252001A601900802292040B681342FCD1054B802252012A
:20134000DA6000229A61013A1A6200207047C04600100240FF80FFFF10B50400FFF78CFF89
:201360002060FFF769FF6060FFF776FFA06010BD10B503000020032B00D010BD144B5B6DBD
:2013800003221A40C0239B021343124A934208D0114A93420FD0114A934212D1FFF76CFF6C
:2013A000EBE70B4B1A688023DB00100018401A42E3D00B48E1E7064BD86D8007C00FC003C4
:2013C000DBE7FFF759FFFFF737FFFFF745FFD4E7001002400200030003000300010003007B
:2013E0000024F4000300104A904204D00F4A012093420CD070470E4B196B8022D2010A4351
:201400001A631A6B0B490A401A630020F2E7084BD96A802292020A43DA62DA6A06490A4084
:20142000DA620020E6E7C046003801400044004000100240FFBFFFFFFFFFFDFF70B584B01F
:2014400004000D0003680120DB0724D422688B6809690B4369690B43E9690B432F490A4056
:201460001343236063682E4A1340EA6813436360A3682C4A1340AA691343A3602A4B9C42FF
:201480000BD02A4B01209C422CD0E26A2B880F218A431343E36204B070BD0230FFF768FFFA
:2014A00003000120002BF0D06E68002EEDD02A6800200B2AE9D880210902E869884216D007
:2014C0001B49FF200240920051581800FEF71CFE7308C0183100FEF717FE03041B0CE360E6
:2014E0000020D2E701A8FFF737FF039BD9E71049FF200240920051581800FEF705FE40009B
:201500007308C0183100FEF7FFFD0A4A024003075B0F1343E3600020B7E7C046F369FFEFA5
:20152000FFCFFFFFFFFCFFFF003801400044004058160008F0FF000082B00A4B1B680193E6
:20154000019B431C5A1E9341C018064980225202002804D00B681342FAD00138F8E702B0CF
:201560007047C04610E000E0014B18607047C0460000002003008218934200D170471970BA
:201580000133F9E770B500260C4C0D4D641BA410A64209D1002600F019F80A4C0A4D641BF2
:2015A000A410A64205D170BDB300EB5898470136EEE7B300EB5898470136F2E78816000820
:2015C000881600088C16000888160008F8B5C046F8BC08BC9E467047F8B5C046F8BC08BC24
:2015E0009E4670470000000001B40248844601BC604700BF0D000020000000000000000037
:201600000000000000000000010000000200000003000000040000000000000000000000C0
:201620000000000000000000000000000000000000000000000000000100000002000000A7
:20164000030000000400000006000000070000000800000009000000010000000200000062
:201660000400000006000000080000000A0000000C000000100000002000000040000000D2
:201680008000000000010000E9000008C10000080024F400010000000400000030B50D4AB6
:2016A00054698023DB0223435361EFF3108572B64C1CFF340B00411A1A68CA500433A3427B
:2016C000FAD10449802252020B691342FCD185F3108830BD00200240FFFFFFFFFFFFFFFF0F
:2016E000FFFFFFFFFFFFFFFFFFFFFFFFFFFFFFFFFFFFFFFFFFFFFFFFFFFFFFFFFFFFFFFF0A
:20170000FFFFFFFFFFFFFFFFFFFFFFFFFFFFFFFFFFFFFFFFFFFFFFFFFFFFFFFFFFFFFFFFE9
:20172000FFFFFFFFFFFFFFFFFFFFFFFFFFFFFFFFFFFFFFFFFFFFFFFFFFFFFFFFFFFFFFFFC9
:20174000FFFFFFFFFFFFFFFFFFFFFFFFFFFFFFFFFFFFFFFFFFFFFFFFFFFFFFFFFFFFFFFFA9
:201FE000FFFFFFFFFFFFFFFFFFFFFFFFFFFFFFFFFFFFFFFFFFFFFFFFFFFFFFFFFFFFFF01FF
:2020000000200020E5620008195600081B5600080000000000000000000000000000000041
:202020000000000000000000000000001D56000800000000000000001F5600082156000829
:20204000356300083563000835630008295600083563000835630008356300085948000890
:20206000000000003156000835560008CD5600083563000835630008356300083563000893
:202080003563000835630008356300086557000800000000AD570008F157000835630008A0
:2020A000356300083563000835630008155800083D5900083563000800000000000000008D
:2020C00010B5064C2378002B07D1054B002B02D0044800E000BF0123237010BD8C010020E2
:2020E00000000000B8920008044B10B5002B03D00349044800E000BF10BDC0460000000072
:2021000090010020B8920008002243088B4274D303098B425FD3030A8B4244D3030B8B4264
:2021200028D3030C8B420DD3FF22090212BA030C8B4202D31212090265D0030B8B4219D314
:2021400000E0090AC30B8B4201D3CB03C01A5241830B8B4201D38B03C01A5241430B8B429D
:2021600001D34B03C01A5241030B8B4201D30B03C01A5241C30A8B4201D3CB02C01A5241FE
:20218000830A8B4201D38B02C01A5241430A8B4201D34B02C01A5241030A8B4201D30B02B4
:2021A000C01A5241CDD2C3098B4201D3CB01C01A524183098B4201D38B01C01A52414309FB
:2021C0008B4201D34B01C01A524103098B4201D30B01C01A5241C3088B4201D3CB00C01A6E
:2021E000524183088B4201D38B00C01A524143088B4201D34B00C01A5241411A00D2014610
:20220000524110467047FFE701B5002000F0F0F802BDC0460029F7D076E7704703460B432A
:202220007FD4002243088B4274D303098B425FD3030A8B4244D3030B8B4228D3030C8B421C
:202240000DD3FF22090212BA030C8B4202D31212090265D0030B8B4219D300E0090AC30B09
:202260008B4201D3CB03C01A5241830B8B4201D38B03C01A5241430B8B4201D34B03C01A41
:202280005241030B8B4201D30B03C01A5241C30A8B4201D3CB02C01A5241830A8B4201D3AB
:2022A0008B02C01A5241430A8B4201D34B02C01A5241030A8B4201D30B02C01A5241CDD2B5
:2022C000C3098B4201D3CB01C01A524183098B4201D38B01C01A524143098B4201D34B01F9
:2022E000C01A524103098B4201D30B01C01A5241C3088B4201D3CB00C01A524183088B424F
:2023000001D38B00C01A524143088B4201D34B00C01A5241411A00D2014652411046704739
:202320005DE0CA0F00D04942031000D34042534000229C4603098B422DD3030A8B4212D395
:20234000FC22890112BA030A8B420CD3890192118B4208D3890192118B4204D389013AD016
:20236000921100E08909C3098B4201D3CB01C01A524183098B4201D38B01C01A5241430930
:202380008B4201D34B01C01A524103098B4201D30B01C01A5241C3088B4201D3CB00C01AAC
:2023A000524183088B4201D38B00C01A5241D9D243088B4201D34B00C01A5241411A00D2EA
:2023C0000146634652415B10104601D34042002B00D54942704763465B1000D3404201B502
:2023E000002000F005F802BD0029F8D016E770477047C04670B500220C4B04000D0001F00F
:20240000BDFA002804D12000290001F019FA70BD064B00222000290000F008FE01F010FAE1
:2024200080231B069C466044F1E7C0460000E041F0B5DE46454657464E46E0B587B0009270
:2024400001930B031B0B9B46CA0F4B00040080465B0D029200D198E07C4A934237D059465F
:20246000420FC9000A43802109041143C2009046774A894692469A44002300240393009E9A
:20248000019F3B031B0B9B467B0030005B0DFD0F002B59D06D4A934248D05946720FC90057
:2024A0000A438021090411438B466949F2008C4651466344CB1A9A460021029E6E40F6B26C
:2024C0000F2C00D9CEE0634BA4001B599F465A460243914600D090E09A460223904608248C
:2024E0000393CCE7CB464246029D0399022900D1DEE1032900D18DE0012900D079E12E0018
:2025000000220023002490461B052343F60733434046190007B0F0BCBB46B246A946A046B3
:20252000F0BD002200249046484BEDE75A46009B1A43494B9C46E244002A59D102231C435F
:20254000002302219B46B8E75A46009B1A4349D05B46002B00D19CE1584601F019FA020046
:2025600003000B3A1D27009EBA1A19005846D64008398840320002439346009A8A40374953
:2025800053448A4600219A4497E75B460343994621D05B46002B00D169E1584601F0F8F939
:2025A0000B235B429C460200844466461D239B1B260011005846DE4008398840330003438D
:2025C000994623008B409846254B00249B1A9A460023039353E7002398469A4601330424F7
:2025E00003934CE701231C43002301219B4664E70323320003211C435FE79A460323D946D8
:202600000C2403933BE700238024984600260F4B240379E780245B4624031C4324032E0006
:2026200090460A4B240B6FE780244B462403234202D05B462342F0D080244B4624031C43D6
:202640002403029E014B240B5EE7C046FF07000001FCFFFFE092000801F8FFFFF303000085
:202660000DFCFFFFCB4500D2F8E000D1F3E001235B429C46444648460025E2445B46170E29
:202680001B021F43190C3B04120200971F0C914602910397FFF7BEFD02007A430B04210CD1
:2026A000804619438A4209D9009F0123BC465B4261449C46E0448F4200D85CE1881A02991A
:2026C000FFF7A8FD039A240442430904240C03000C43A24206D90099013B8C466444A14291
:2026E00000D842E1A01A424612041A4393464B4659461B0C1F0004930B0449460904090C84
:202700000C001B0C5C43120C7B43884651437A43270CBC465B186344994203D980214902FA
:202720008C466244190C24041B04240C8A181C19904202D316D1A54214D25B46009F013BD7
:202740004D4405934D459B41BC465B426344C018874200D302E1824200D929E100D124E1C8
:20276000059B9B462C1BA542AD41009B801A6D42401B834200D10FE10299FFF74BFD039A81
:202780000B044243210C050019438A4200D9CBE0881A0299FFF73EFD039A24044243090402
:2027A000240C03000C43A24200D9CAE04146A41A2A041A43049F13041B0C594340467B439F
:2027C0009C46150C68430B0C844463447D43984203D98020400284466544180C09041B04AA
:2027E000090C40195B18844227D323D0012335001A43944B5344002B60DD510700D086E023
:202800002E00D1085A46D20106D55A468E4B1A4080239346DB0053448C4A934200DD80E6B4
:202820005A4652070A4390465A465B055402240B5B0D69E63500002BDBD0009D511EAC4637
:202840006444AC4200D29EE0844200D2E1E000D1EEE00A00CAE7424500D908E74B46DC071C
:20286000580843465B081C434346DD0706E701F08FF815239C4684440200634620321C2BB5
:2028800000DC92E62300083883409946002398469AE601F07DF802000300153220331C2A13
:2028A00000DC5FE600990838814000228B4666E600222E0000249046654B25E62E000121C9
:2028C000C91A382900DD1BE61F297EDC6148140050445B4682408340CC40501E824123431A
:2028E0001A435B46CB40510709D00F211140042905D0111D9142924152429B180A001902DB
:2029000000D49BE00022012300249046FCE50F211140042900D173E7111D91429241524206
:202920002E00C90893446DE7009B013D9C4661448B4200D92CE78A4200D829E7851E614458
:2029400026E70099013B8C466444A14200D92DE7A24200D82AE7831E644427E7874200D08E
:20296000FEE6A94500D9FBE6F5E6A24200D8B9E6831E6444B6E68A4200D89FE6BC46831EE4
:20298000984661449AE60A00844200D02EE74B4500D02BE735002CE72A4B2F4A5344924569
:2029A00043DB0122002193442CE7AC4200D8D7E602235B429C4600994D444D459B41E344E5
:2029C0008C465B426344C018CCE61F204042C31A5846D840202904D05946204B534499406C
:2029E0000A43531E9A4107231900024300241140134209D008331340042B1DD0131D934264
:202A000089411A0049424907D2080A43904600237AE54946009F4D004D458941BC46494214
:202A20006144A946023A6418AEE70122524246E79945EED30A00AAE70021E5E759075B02ED
:202A40001C0BE1E7FF030000FFFFFFFEFE070000FF0700001E04000002FCFFFF3E0400001F
:202A6000F0B557464E46DE464546E0B51F000B031B0B16009A46CA0F4B000400914685B0BF
:202A80005B0D00D1CFE1CD4A934255D05146420FC9000A43802109041143C2009046C84A92
:202AA0008A4693469B440023002502933C037B00FA0F0196240B5B0D009200D188E1BF4AEB
:202AC000934200D192E0BE4A944663449B440A2D42DCE400730F23438024494624041C439B
:202AE000F3000193009B00205940CBB20393022D00DC94E00123AB401D00A6232A00DB006F
:202B00001A401D4200D029E290239B001D4200D14DE20023802499462403A84B10004A4614
:202B20001B052343D2071343190005B0F0BCBB46B246A946A046F0BD52460243904600D068
:202B4000ACE19B460223924608250293AEE7009BA2469946019B9846029B022B00D1CAE191
:202B6000032B00D192E1012B10D1002300240022D4E701227B083A4013435246D207134375
:202B8000984653465B089A46039B99465B46581C8023DB005B44002B00DCB1E14246520752
:202BA0000BD00F2241460A40042A06D04246111D414592418846524292445246D20106D5A7
:202BC0005246804B1A4080239246DB00C3187E4A934200DD8FE14246D108524652070A437E
:202BE00051465B054C02240B5B0D97E7734B26439C46E344002E00D16FE1032349461D43E7
:202C0000009B5940CBB203930A2D00DD33E10123AB401D000323029388222A4297D1424658
:202C200043461204120C160001981D0C030C0004000C4643B4461E006E43009616000700DB
:202C40005E436146B0466F430E0CB8444644B74205D9802149028846009F474400976146EB
:202C60000904090C370C36048C463100614401911100260C2404240C61438C46210069439D
:202C800089466146090C884672434A4442447543914503D98021490288464544110C88467A
:202CA00061460904090C8C4612046244B91802915146090C8C4651460F043F0C3900414329
:202CC00045448846614641438A4641466046090C894658437B4353444B449A4503D98021B6
:202CE000490289464844190C894641460904090C8846390061431B044344884661464C433C
:202D000071438C46414677430E0C3F19F6194844B44203D9802149028946CC440299009F08
:202D2000894631044F4489464146974292410C04240C4C44FF1852426419A1189F429B418C
:202D4000884682465B42994690459241AC42A441C244D14452426442144399459B418245B9
:202D600092415B42524213434A46360CA419E31863445B02D20D1A43019992467A020A43F4
:202D8000501E8241FF0D17434A4652021743B846DB0100D5EDE60D4B039A5B449146002B46
:202DA00000DCACE03A00520700D110E70F2258463A40042A00D0F9E609E7C046FF0700002E
:202DC00001FCFFFFFFFFFFFEFE070000FF030000220032436FD0002C00D1C2E0200000F071
:202DE000D7FD020003000B3A1D20821A30001900D04008398C400200224334008C40594670
:202E0000CB1A86498B469B440A2D00DDA4E64946009B01945940CBB2140000200393022DE2
:202E200000DD67E6FBE65346034398463CD05346002B00D1A3E0504600F0AAFD0B235B42AE
:202E40009C460200844411005046083988401D23804660461B1A2000D8400300404603432E
:202E60009A4623008B4098466C4B00259B1A9B46002302931AE60F2D00D0C9E0802352468C
:202E80001B031A4202D01C4200D192E08024534624031C4324034246240B3EE69B46032379
:202EA00080460C25029301E600239A469B46013304250293FAE501210D430A2D00DD4BE633
:202EC000494600984140C9B20391022D00DC96E000230024012001930CE649460223009A7E
:202EE0002B435140CAB203920A2B00DD34E6002D57D1039B994600240022494B0EE6584658
:202F00000121C91A382900DD2FE61F2956DD1F2254465242D31ADC40202907D0414B424632
:202F20009C465346604483401A43904642460721531E9A410B00224313400024114209D06D
:202F40000F231340042B5DD0111D91429B410A005B425B07D2081A430023DFE5039B99460F
:202F6000FAE5019800F014FD02000300153220331C2A00DC38E7019A083882403FE700F045
:202F800007FD15239C4684440200634620321C2B00DC58E7002398462300083883409A46E5
:202FA00062E71D000023002402200193A2E5029032E61C43009B019A9946AEE51A4B524679
:202FC000C31840469A40C8400243404698400300581E834154461A43CC40530709D00F2366
:202FE0001340042B05D0131D934292415242A4181A00230208D50123002400228EE589468A
:2030000000248BE50023A5E763076402240BA1E7009BA2469946019B984637E70DFCFFFFE5
:20302000FF0700003E0400001E040000F0B557464E464546DE46E0B583B0009001910C03A8
:203040004D00CE0F610A009C5F00640F0C43009900920193C80019037B0D9946019BCC4F5D
:20306000DB0F9C464B0A00998046490F1943009B8B46DA0092466D0DB94500D1BFE00123F2
:20308000614659404B468C46EB1A8E4275D0002B00DCA3E24946002900D1CEE0BD4200D1E0
:2030A00000E20127382B19DC802759463F0439438B461F2B00DDFAE12027F91A8C4659460B
:2030C0006746B9400F001100D9400F4361468A40511E8A415946D9401743641AC71BB842A8
:2030E00080414042241A230200D440E16402640A002C00D154E1200000F04AFC0300083B93
:2031000020213800CA1AD0409C4002009F4022439D4200DDA6E1581B0130091A3C008F400B
:20312000C4407B1E9F4113008B4027431F43C2403B0014000025134300D1F7E17B0700D1A0
:2031400077E30F2338003B40042B04D0381DB842BF417F42E419230200D468E38C4B0135CF
:203160009D4200D1F4E08B4B6D051C406D0D6707C00864020743240BECE0002B00DC29E3B9
:203180004946002900D0D6E05946114300D12EE1591E012B00D1E6E1BB4200D182E101278A
:2031A0000B00382914DC1F2B00DD3CE22027F91A8C4659466746B9400F001100D9400F4372
:2031C00061468A40511E8A415946D940174364183F188742804140422418230200D4C6E078
:2031E0006B4B01359D4200D1B2E00121694B7A081C4039400A43E707174364089EE7664B3D
:2032000011438A46EB18002928D066452CD0002B5BD0002D00D12CE15B4666465F07D208D1
:203220001743DD083B002B4300D1E2E0802424032C432403564D240B8CE05946114300D1B0
:20324000D5E0591E012B00D1B9E1BB4200D1B1E101270B00382900DD40E72AE761460127D3
:2032600079408C466645D2D1002B00D1C5E0002D00D055E14B462500054300D112E2591E67
:203280008C46012B00D149E2414DAB4200D18FE20127382911DC63461F2B00DD5BE261464D
:2032A000202327005B1A050098409F40CD40431E9841CC402F430743A344BF1897429241FA
:2032C00052425A4414004D4687E7344F6B1C3B4200D0B6E05946230011430F000343002D22
:2032E00000D026E1002B00D1C0E1002900D1A1E0831A98465B464045AD41E31A6D425B1B2E
:2033000080252D042B4200D14BE15B46101A824292411C1B0700012663465242A41A274341
:203320001E40002F00D142E12C4200D16DE2194B01251C401BE7BD4200D13BE10127382B1F
:2033400000DD45E7802759463F0439438B462AE7002400272D052543F607354338002900C2
:2033600003B0F0BCBB46B246A946A046F0BD7B0704D00F233B40042B00D0E7E62B00F80879
:20338000034A67070743E508934200D14AE7A5E0FF070000FFFF7FFF01F8FFFFFE07000061
:2033A000380000F0F5FA030018331F2B00DCA7E63A00083882409D4200DD8AE05B1B581CA9
:2033C0001F2800DCD8E117001F3BDF40202805D040231B1A9A40531E9A4117430025002FF8
:2033E00000D1E5E07B0700D0ABE62C00C6E7C008C6E700270024D14DACE7D14F6B1C3B42E6
:2034000071D123000343002D00D04EE15746002B00D1B5E1002F0DD08318834280415C44D9
:2034200040422418220200D5C8E11F009846274300D1BCE043466707DB081F43E50800230C
:203440004CE0831A98465B464045BF41E31A7F42DB1B1F027CD447461F4300D1A6E01C0018
:20346000474645E6B74CED1A14407B0700D080E784E74B462500054366D05F1E012B00D164
:20348000FCE0AE4DAB4200D15EE16646382F00DCB4E00120171ABA4292415B4652424D46EC
:2034A0009C1A20E66707C0080743E508BAE61F005946203FF9400F00202B05D04021CB1A78
:2034C000594699400A43924653465A1E93411F4304E6EB1A9B4D15406F07ED082C035D05E0
:2034E000240B6D0D36E7954DAB4200D1D6E08218210082428041594440420818C707520809
:2035000017434408520700D485E10F221D003A40042A00D01AE6FF08640727430509DDE7FE
:203520005B46D2085F071743DD087BE60027002410E7002B00D0D6E0002900D02FE180246A
:2035400000267E4D240305E766465C46D00817E75B46171ABA4292411C1B01266346524207
:20356000A41A1E40C4E58318834280415C44404225182A0200D4DAE0724A5B081540EA07E7
:203580001A4369085B0700D44AE10F231340042B00D1FCE0171D9742A44164420225641860
:2035A000ECE647461C001F4300D043E7002600250024CFE6C00867070743E50832E6871AEA
:2035C0005B46B8428041E41A4042241A230228D46307FF081F43E50801237FE7002B00D16A
:2035E00073E64B465F1B3B00002D00D142E7382F00DDECE080230E001B041C431F2F25DC77
:2036000020252300ED1B0100A840AB40F940451EA8410B43FC4018435B461B1B9B4639E724
:203620006646012562E51F005946203FF9408C46202B05D040275946FB1A99400A43924610
:2036400057467B1E9F4163461F43C1E53B002500203BDD40202F04D04023DB1B9C40204310
:2036600080464046431E9841284313E700299DD0012663465C4690461E40DBE6171A5B4690
:20368000BA4292411C1B5242A41A2302C8D46307FF081F4366460123E5081FE71D0000243A
:2036A000002757E65C46D0086AE6002B00D137E75346C00867070743E508002B00D1B1E52A
:2036C00080231B031D4208D05946C808184204D1D20849070A43170005007B0FFF00FF0831
:2036E0005B071F439EE5C00863071843E508002953D080231B031D420AD05946CC081C42F2
:2037000006D1012663462500D008490708431E40470FC000C0087F07074383E58318934286
:2037200092415C445242A5182A0200D524E76F07DB081F43ED080123D0E6C046FF07000023
:20374000FE070000FFFF7FFF5B46D2085F0766461743DD0866E52500203BDD406346202B40
:2037600005D0402361465B1A9C402043804647467B1E9F412F43A0E520210027091AD2E4B2
:20378000002F00D113E75C4617000025F6E5D708490702230F432D09A0E6070042E55B4645
:2037A00001265F07DD086346D20817431E4039E55B46D2085F071743DD0833E51E4ADB08BB
:2037C00022405707520201251F43140BC2E50E0001205FE6002B0DD04B465B1B9C46002DF5
:2037E00000D148E50127382B00DD66E580231B041C4350E56B1C114D2B4200D073E65946A8
:20380000230011438A46034300E66707C00800230743E50862E66407FF08274305095DE630
:20382000D208490711430F0002232D0956E60700A4E538008FE4C046FFFF7FFFFE070000A2
:203840000B00020070B5164D0C0382B04900002000920193240B490DDE0FA94204DD11486C
:20386000814203DD104BF01802B070BD8020400320430E4C641A1F2C08DD0D4B5B1AD84030
:2038800003005842002EEFD11800EDE7094B009A9C46030061448B40E2401343F1E7C04618
:2038A000FE0300001D040000FFFFFF7F3304000013040000EDFBFFFF70B5002816D0C31729
:2038C000C5185D40C40F280000F062F8104B1B1A5B055B0D0A2814DC02002E001532964062
:2038E0000B22121AD5402D032D0B03E000240023002500261B052B43E40723433000190055
:2039000070BD0B3885402D0300262D0BF2E7C0461E0400008446100062468C4619006346CD
:2039200000E0C0461FB500F005F9002801D40021C8421FBD10B500F049F84042013010BD65
:2039400010B500F0F7F8002801DB002010BD012010BDC04610B500F0EDF8002801DD00201E
:2039600010BD012010BDC04610B500F073F8002801DC002010BD012010BDC04610B500F0CB
:2039800069F8002801DA002010BD012010BDC0461C2101231B04984201D3000C10391B0A3A
:2039A000984201D3000A08391B09984201D30009043902A2105C40187047C04604030202C6
:2039C000010101010000000000000000F0B55746DE464E464546E0B50D000400E80F8346F8
:2039E0000903D80F090B824619488C461F0369005E00490D3F0B760D814218D086420FD067
:203A00000120B1420DD1BC450BD1944209D1D3451CD0002905D160462043431E984100E001
:203A20000120F0BCBB46B246A946A046F0BD01208E42F6D1614639430F0017432743F0D1CF
:203A40005B465246981A431E9841EAE70020E8E7FF070000F0B557464E464546DE46E0B561
:203A60000D000E034900490D8A46DF0FE90FBC4683B02F4F04008046019158001903914679
:203A8000360B090B400DBA451DD0B8420DD05746002F2AD13443002824D10A4336D0002CE7
:203AA00041D163465800013815E0114338D15346002B01D12643F4D0019B634507D1019BED
:203AC0005800013807E026432AD1504521D00120019B5F42384303B0F0BCBB46B246A94664
:203AE000A046F0BD002CDCD0E6E70028EFD0019B6345ECD18245EADCE1DB8E42E7D8DED11F
:203B0000C845E4D80020C845E5D2D8E7002CE2D0DDE7114304D1019B6345D8D10020DAE7A0
:203B200002204042D7E7019B6345E6D0CFE7C046FF070000F0B557464E464546DE46E0B54D
:203B40000D000E034900490D8A46DF0FE90FBC4683B02E4F04008046019158001903914699
:203B6000360B090B400DBA451ED0B8420DD05746002F27D13443002833D10A4334D0002CFB
:203B800040D163465800013815E0114312D15346002B01D12643F4D0019B63451DD0012099
:203BA000019B5F42384306E0264303D15045F6D111431CD0022003B0F0BCBB46B246A94625
:203BC000A046F0BD0028EAD0019B6345E7D18245E5DC02DB8E42E2D80ED0019B580001387A
:203BE000E9E7002CCDD0D7E7002CE4D0D7E7019B00206345DFD0D2E7C845D0D80020C84522
:203C0000D9D2EAE7019B6345E4D0C8E7FF07000005490B78054AAA20D054981C087001330D
:203C2000DBB25521D1547047A8010020AC01002005490B78054A5520D054981C08700133F6
:203C4000DBB2AA21D1547047A8010020AC010020030002780020AA2A00D070475A78552A51
:203C6000FBD15A18013A1278AA2AF6D15B18023B1878553843425841C0B2EEE730B5411836
:203C800003390D78C3781B02827813435C1E012B0EDD00230022C11809795218D2B2013368
:203CA0009BB2A342F7DBA81A43425841C0B230BD0022F8E770B505000C0004290FD9FFF77F
:203CC000C7FF03000020012B00D070BD21002800FFF7D4FF013843425841C0B2F5E70020FB
:203CE000F3E710B50400002909D000230020E25C8018C0B201339AB29142F8D810BD002084
:203D0000FCE7000010B5837901338371C3790133C371054B1B78012B02D002F02BFA10BD6E
:203D200002F084FAFBE7C046D700002010B502F07DFA10BD10B502F079FA10BD10B5024833
:203D4000092102F073FA10BDDC00002030B5124B1B78DAB2002B1ED1104B002119700E4B38
:203D600001311970C3781B0281780B43022B12DD0A4C0B4D2378D9B20133DBB2237083180A
:203D80005B796B540132D2B2C3781B0281780B43023B9A42EEDB30BDA2050020A3050020DC
:203DA000A405002010B50379013B0371CA1E835C013B835402F0DEF910BD10B50379013364
:203DC0000371CA1E835C0133835402F02FFA10BDF0B5C64600B580460F0016001E4A0023D9
:203DE00015001370F41CA4B2FFF712FF2B781B4AD454591CC9B2240A5454991CC9B2012077
:203E000050541C1DE4B22C700333DBB24146D154002E0BD0002320000134E4B2FD5C15544B
:203E20000133DBB2B342F6D30B4B1C700A4E3578291F89B20A4C2000FFF753FF043C6055E6
:203E400001353570FFF7F4FE3178200002F0EEF980BCB846F0BDC046A8010020AC0100207A
:203E6000B001002010B503490122F920FFF7B0FF10BDC046A105002010B503490122FA2098
:203E8000FFF7A6FF10BDC046D600002010B503490222FB20FFF79CFF10BDC046D400002016
:203EA00070B588B06B46DC1DD87102F0D9FA05002378862B01D008B070BD01222100FF2083
:203EC000FFF786FF0A2002F0D1FA234E300005F00FF833680124A3433360EFF3108284F3BF
:203EE0001088336820218B43336082F310881022002104A805F090F9184B5A6B22435A6319
:203F00005B6B23400293029B0C2303930594A02003A9C00503F0FAF8A024E405FA26B6004F
:203F200004E002F09DFA401BB0420BD80421200003F05EFA0028F4D10821200003F058FAD9
:203F40000028EED1BFF34F8F054B064ADA60BFF34F8FC046FDE7C0460044004000100240BA
:203F600000ED00E00400FA0510B584B0040010220021684605F050F90122012C05D9694658
:203F8000F820FFF725FF04B010BD01236A461370002C0BD10B4B1A7869464A705A788A70F2
:203FA0009A78CA70DB780B710522E8E700230548C15C1A006A44517001330C2BF8D10D2277
:203FC000DDE7C0469405002010B5044B01221A7003490A70FFF7FCFE10BDC046B40300203D
:203FE000B803002010B5044B01221A70034900230B70FFF7EDFE10BDB4030020B8030020DB
:2040000010B5044B01221A70034902230B70FFF7DFFE10BDB4030020B803002010B572B6B4
:20402000154B1B689A69120402D580221202DA619A6901210A439A6180225200DA610132ED
:20404000FF32DA618022D200DA6180221201DA6180229201DA6180225201DA611022DA6148
:204060001032DA61044803F02DFC044B1879C0B201F06CF862B610BD40050020C00000208A
:20408000064B1B780020052B00D07047034B987A053843425841C0B2F7E7C046C000002074
:2040A00010B50400012803D91020FFF79BFF10BD72B6074801F090F8200001F047F862B64D
:2040C000044B05221A709A721020FFF77DFFEEE740050020C000002030B583B005000C00EF
:2040E000FFF7CEFF002838D06BB2002B01DB402C04D91120FFF776FF03B030BD194A690058
:204100001948FA239B000093230003F0C7FC00281AD1164B01221A70154B1A70002C0CD007
:20412000104A0123124D19000133DBB2107868540132A142F7D10D4A13700C4B1A780C498E
:204140001120FFF745FED7E7012803D01120FFF749FFD1E7FFF762FFF8E71120FFF750FF68
:20416000CAE7C046B402002040050020B4030020B803002070B582B004000E001500FFF727
:204180007FFF002821D063B2002B01DB402D04D91220FFF727FF02B070BD61000D48FA2322
:2041A0009B0000932B00320003F0A6FB002805D0012807D01220FFF715FFECE71230FFF79C
:2041C00003FFE8E7FFF72AFFF4E71220FFF718FFE1E7C04640050020F0B585B004000F00B5
:2041E00016001D00FFF74CFF00283ED063B2002B02DB731E012B04D91320FFF7F3FE05B08F
:20420000F0BD402DF8D861001A48FA239B0002930195194B009333003A0003F0F3FD00289F
:204220001AD1164B01221A70154B1A70002D0CD0114A0123124C19000133DBB2107860549F
:204240000132A942F7D10D4A13700C4B1A780C491320FFF7BDFDD2E7012803D01320FFF79F
:20426000C1FECCE7FFF7DAFEF8E71320FFF7C8FEC5E7C04640050020B4020020B40300206C
:20428000B8030020F0B585B004000F0015001E00FFF7F6FE002827D063B2002B02DB6B1E74
:2042A000012B04D91420FFF79DFE05B0F0BD402EF8D861000E48FA239B00029301960A9B50
:2042C00000932B003A0003F0A7FC002805D0012807D01420FFF786FEE7E71430FFF774FE2B
:2042E000E3E7FFF79BFEF4E71420FFF789FEDCE740050020F8B5CE46474680B5FFF7C0FE7A
:2043000000282ED0194B02221A70022501240026174B9846154F174B994605E00134E4B25E
:204320000235ADB2802C0FD00A2301222900404603F062FE0028F1D10136F6B23B785A1C18
:204340003A704A46D454E9E70A4901230B704E70064B1A781520FFF73BFDC0BCB946B046C4
:20436000F8BD1520FFF74CFEF7E7C046B403002040050020B8030020F0B587B004000E002A
:20438000150018220021684604F046FF01230193012C1DD0022C07D180277F01A0203900CE
:2043A000C00502F09FFF0097013C1D4BA000001940001B185B79002B13D1009AA023DB0520
:2043C0009A62002E12D0012E12D1012303930FE080273F01A0203900C00502F083FF009766
:2043E000E2E7009AA023DB059A61EAE700230393012D0ED0022D0FD0002D01D1012304935E
:2044000001230293A0206946C00504F0EDFB07B0F0BD02230493F3E700230493F0E7C04642
:20442000C000002010B50400032906D10378013B012B02D84378012B03D93020FFF7D2FD3B
:2044400010BD8378022BF8D81C4B1B78052B03D11A4B9B7A052B22D072B6A278617820784A
:20446000FFF78AFF62B621780139144B8A00521852000121D1542178013960788A00521847
:2044800052009A18907121780139A0788A00521852009B18D8713020FFF796FDD0E772B632
:2044A000074800F099FE054B00221A709A72A27861782078FFF760FF62B6D4E7C00000208B
:2044C0004005002010B5431E012B01D8012903D93120FFF787FD10BD1800164A9B001B1868
:2044E0005B009B5C012B20D1002913D113008200121852009B185B889BB2A022D2059362BE
:204500000C4B8200121852009B1859713120FFF75BFDE0E7074B8200121852009B185B887D
:204520009BB2A022D2059361EAE73120FFF768FDD1E7C046C000002010B5431E012B03D958
:204540003220FFF74FFD10BD094901230B700138084B02221A70084B8200121852009B18CB
:204560005B794B7002223220FFF732FCEBE7C046B8030020B4030020C000002030B587B08C
:2045800005000C0018220021684604F045FE012D18D0022D07D180256D01A0202900C005EC
:2045A00002F0A0FE0095012C15D0022C16D0002C01D101230493A0206946C00504F014FBC0
:2045C00007B030BD80252D01A0202900C00502F089FE0095E7E702230493ECE70023049391
:2045E000E9E7000010B50400022936D10378013B012B32D84378022B2FD81A4B1B78052BEC
:2046000003D1184B9B7A052B19D072B661782078FFF7B4FF62B621780139124B8A005218B7
:2046200052000221D1542178013960788A00521852009B18D8714020FFF7C6FC10E072B6C3
:20464000094800F0C9FD074B00221A709A7261782078FFF793FF62B6DDE74020FFF7C2FC60
:2046600010BDC046C00000204005002070B5431E012B03D94120FFF7B5FC70BD0C4C0123E3
:20468000237001380B4B8200121852009B18598889B2094D02232B70A020C00502F0A8FEF8
:2046A00060702A7821004120FFF792FBE5E7C046B8030020C0000020B403002070B586B0C4
:2046C00006000C0015001422002101A804F0A4FD012E29D0022E07D180267601A0203100E0
:2046E000C00502F0FFFD0196012D26D0022D28D0002D02D188235B030293012C25D0022C37
:2047000026D0002C01D101230393A02001A9C00502F0FCFC01220021072002F047FB07200C
:2047200002F076FB06B070BD80263601A0203100C00502F0D7FD0196D6E784239B030293AC
:20474000DBE7C4239B030293D7E702230393DCE700230393D9E7000010B5040001F080FE90
:2047600080235B019C4216D080231B019C4217D1144B1B68C31A312B12D9124B18601249BB
:2047800000230B70114B02221A7001234B70E020FFF71EFB04E00E4B1B68C31A312B03D8AF
:2047A0000C4BDC601C6110BD094B1860064900230B70064B02221A704A70E020FFF708FBB1
:2047C000EEE7C046B0020020B8030020B4030020AC0200200018024010B5040001F040FE5A
:2047E00080235B019C4216D080231B019C4217D1144B1B68C31A312B12D9124B186012493B
:2048000001220A70114B022018704A700132DE30FFF7DEFA04E00E4B1B68C31A312B03D858
:204820000C4BDC601C6110BD094B1860064901230B70064B02221A704A70E020FFF7C8FA70
:20484000EEE7C046B0020020B8030020B4030020AC0200200018024010B5094B1B78032BF7
:2048600004D0074B9B7A032B05D010BD8020000102F0C4FDF5E78020400102F0BFFDF4E793
:20488000C000002010B50400032943D10378013B012B3FD84378022B3CD88378022B39D800
:2048A0001E4B1B78052B03D11C4B9B7A052B22D072B6A27861782078FFF700FF62B6217801
:2048C0000139164B8A00521852000321D1542178013960788A00521852009A18D071217831
:2048E0000139A0788A00521852009B1818725020FFF76AFB11E072B6094800F06DFC074B03
:2049000000221A709A72A27861782078FFF7D6FE62B6D4E75020FFF765FB10BDC000002044
:204920004005002030B587B00400431E012B53D82B4B1B78052B1FD01422002101A804F01E
:204940006BFC012C26D0264B9B7A042B26D0244B04229A7280256D01A024E4052900200078
:2049600002F0C0FC0195032302930023039301A9200002F0CBFB11E0194B9B7A052BDBD1B7
:2049800072B6184800F028FC154B00221A709A7262B6D1E7124B1B78042B08D172B600F083
:2049A00015FB62B66020FFF70FFB07B030BD0C4B04221A7080252D01A024E40529002000DB
:2049C00002F090FC0195032302930023039301A9200002F09BFBE1E76020FFF703FBE4E7F6
:2049E000C000002040050020F0B5CE46474680B585B01D4C236800229A6201900123029366
:204A00000233039301A9200001F0D2FE200002F0F7F80524002600239846134D8027BF0029
:204A2000A94603E0013CE4B2002C12D0280002F06BF80A21280001F057FE280001F0F4FFA1
:204A40003842EFD0484601F0AFFE80440136F6B2E8E731004046FDF757FB80B205B0C0BC1F
:204A6000B946B046F0BDC046DC04002010B5012805D002280ED06120FFF7C2FA10BD144B64
:204A80001B78042BF7D1134B00221A701248FFF7ABFF09E00E4B9B7A042BECD10D4B0022CB
:204AA0001A700E48FFF7A0FF0A4C23780C490122CA545A1CD2B28854DA1CD2B222700233E3
:204AC000DBB2000AC8546120FFF782F9D6E7C046C0000020B40300200080003C00000140BA
:204AE000B803002010B5074A137807490B70074B02201870937A4B7002226E30FFF768F992
:204B000010BDC046C0000020B8030020B403002000B587B00C22002103A804F07DFB80233B
:204B20005B000193FF3B02930493A02001A9C00502F0ECFA07B000BD30B517230125A0219F
:204B4000C905802252004AE08A61C046C046C046C046C046C046C046C046C046C046C0463C
:204B6000C046C046C046C046C046C0468A62C046C046C046C046C046C046C046C046C046EF
:204B8000C046C046C046C046C046C046C046C046C046C046C046C046C046C046C046C046B5
:204BA000C046C046C046C046C046C046C046C046C046C046C046C046C046C046C046C04695
:204BC000C046C046C046C046C046C046C046C046C046C046C046C046013B00D24FE02C0024
:204BE0009C40204200D1AFE78A61C046C046C046C046C046C046C046C046C046C046C046E3
:204C0000C046C046C046C046C046C046C046C046C046C046C046C046C046C046C046C04634
:204C2000C046C046C046C046C046C046C046C046C0468A62C046C046C046C046C046C0462E
:204C4000C046C046C046C046C046C046C046C046C046C046C046C046C046C046C046C046F4
:204C6000C046C046C046C046C046C046C046C046C046C046C046C046C046C046ACE730BD60
:204C800070B572B6254B1D78002D0AD00024244E3368A200D058FFF74FFF0134E3B2AB42C5
:204CA000F6D362B6FF23C046C046C046C046C046C046C046C046C046C046C046C046C046A3
:204CC000C046C046C046C046C046C046C046C046C046C046C046C046C046C046C046C04674
:204CE000C046C046C046C046C046C046C046C046C046C046C046C046C046C046C046C04654
:204D0000C046C046C046C046C046C046C046C046013BDBB2002BC6D170BDC046D8040020A9
:204D2000D4040020F0B5DE464F464646C0B584B00322002103A804F06FFA0124194B9B4630
:204D4000194B98460026194F5B461B78DBB2994602AB0333E5184346185DFEF7ADFD0090D6
:204D600001914846FEF7A8FD32003B00FDF760FB02000B0000980199FDF772FEFDF73AFBF1
:204D800028700134042CDFD103AB187800025A78120410439B78184304B0E0BCBB46B14635
:204DA000A846F0BDA0050020BB0400200000594010B5FFF7ADFEFF23C046C046C046C0467B
:204DC000C046C046C046C046C046C046C046C046C046C046C046C046C046C046C046C04673
:204DE000C046C046C046C046C046C046C046C046C046C046C046C046C046C046C046C04653
:204E0000C046C046C046C046C046C046C046C046C046C046C046C046C046C046C046C04632
:204E2000C046013BDBB2002BC6D10421012004F009F90400054B1860054B01221A70FFF7E6
:204E400071FF2060FFF71CFF10BDC046D4040020D804002010B500281ED00022052909D086
:204E60000F4B012119700F490A7001222020FEF7AFFF10BD0278002A10D14378012BEFD15C
:204E8000094A81781170C178517001799170074A012111701A00E3E70022E1E70022DFE726
:204EA000BF040020C0040020BC040020B804002010B5002801D002290CD0134B01221A709F
:204EC000124B00221A70104B1A7810492120FEF77FFF10BD0378002BEFD141780A4B01226B
:204EE0001A700A4B4A1E504242411A700129EAD1074A11785970517899700349042008708A
:204F00009278DA70DFE7C046BF040020C0040020BC04002010B5040064281CD8002912D175
:204F2000124B1B78DBB2A34204D0104B1C70104B01221A700F4B01221A700F490A70222031
:204F4000FEF746FF10BD01F037FAA042E8D0200001F0F2F9E4E7074B01221A700649002356
:204F60000B702220FEF734FFECE7C046A0050020B8040020BF040020C004002010B5054BF6
:204F800001221A70044B1B7804490B702320FEF71FFF10BDBF040020A0050020C00400200B
:204FA00010B5084B1B78002B00D110BD054B00221A70FFF7B7FE044B1B681860FFF760FE38
:204FC000F3E7C046B8040020D404002010B51348134B03608023DB05436000238360C360ED
:204FE00080221206026104224261037643768376033AC2611F328354436283620C32835479
:205000000363253A426335328354C36401F052FA002800D110BD00F0DDFAFBE7DC04002015
:205020000024014082B0084B02689A4201D002B07047064B1A6C802149030A431A641B6CF0
:205040000B400193019BF2E7002401400010024000B583B0144A916B012319439163926B92
:2050600013400193019B114BC22292009858104908408021C901014399508021890019600F
:2050800098580C4908408021C90301439950F8321A60002201210B2001F088FE0B2001F043
:2050A000B7FE03B000BDC0460010024000E100E0FF00FFFFFFFF00FF82B0094B596B01224B
:2050C00011435963596B0A400092009A596B0222114359635B6B1A400192019B02B07047D6
:2050E0000010024010B588B004001422002103A804F092F8134B22689A4201D008B010BDC3
:20510000114C626B01231A436263626B1A400192019AC0225201039212220492059301336A
:20512000069304330793A02003A9C00501F0EEFFE36B8022D2031343E363E36B134002935F
:20514000029BDBE7005800400010024010B51D4B1D4A1A60002823D11C4A5A601C4B002233
:205160001A719A731748002383600122C260036143618361C361036202F036FB002817D145
:205180001048002102F0E0FF002814D10D48002103F006F8002811D10A48FFF7A3FF10BD90
:2051A000084B0C4A5A600A4B01221A719A73D9E700F010FAE4E700F00DFAE7E700F00AFA3E
:2051C000EAE7C0464005002000580040B57DB110C00000206621C10010B50B4B02689A427F
:2051E00000D010BD094AD36B09490B40D3638021A024E4050901200002F074F880214901ED
:20520000200002F06FF8ECE70058004000100240FFFFBFFF084B094A1A60094A1A6002228B
:205220005A60084A9A6019000722CB681A42FCD1014B054A1A60704700300040CCCC0000F6
:2052400055550000FF0F0000AAAA000082B080239B050C480C4A99181A000433096811603F
:205260008342F7D1094A116C012319431164126C13400193019B064A136803210B4313602B
:2052800002B07047C0000020002000E8001002400000014010B501F095F8094B187001F01A
:2052A0008BF8FF2804D001F087F8064B187010BD044B28221A701878C0B201F03DF8F6E732
:2052C000A1050020A005002070B501F0E1F8050001F0E4F8040001F0E7F8024B1D605C6028
:2052E000986070BD9405002000B593B03822002104A803F091FF10220021684603F08CFFAF
:205300008020800002F076FF0A230493F633079300230893402209923F3A0A9201320B92DF
:205320000C920D9308330E9380239B020F93C023DB04109380239B05119304A802F08CFFFC
:2053400000280ED107230093053B01930023029303930221684603F06DFA002803D113B07D
:2053600000BD72B6FEE772B6FEE70000F0B5D6464F464646C0B582B0FFF768FFFFF78AFFF1
:20538000FFF7A2FF01F04CF8FFF7AEFFFFF794FEFFF75EFE00F0B0FC00F014FEFFF73AFFF7
:2053A00000F098FB00F0D2FB00F00EFCFFF700FD012001F05BF8FFF763FC7B4B02256D426A
:2053C0001D61DA6801242243DA601A6822431A60012001F04BF8754B1D61DA682243DA6074
:2053E0001A6822431A60012001F040F8704B1D61DA682243DA601A6822431A60012001F075
:2054000035F86C4C6C4D2E00AB1D99462B00AA460333984616E0F72B0CD90833DAB2072AF5
:2054200008D89300654AD3589F46634B5878C0B2FEF736FE5F4B00221A70FFF7B1FD604B7C
:20544000604A1A602378012BF7D12B78DBB2702BE1D80F2BEED9103BDAB2602AEAD893005E
:20546000594AD3589F46544B5878C0B29978C9B2FEF732FEDEE753465878C0B29A78D2B2B1
:205480004146FEF777FED5E74B4B5878C0B21A799446D9789A78D2B25B79DBB267463F02E4
:2054A0003943FEF799FEC5E77078C0B233799C46F178B278D2B27379DBB267463F02394356
:2054C0004F460097FEF7DEFEB4E7FEF713FFB1E73E4B1978013989B23D48FEF7A3FFA9E75A
:2054E000354B5878C0B29978C9B2FEF7EBFFA1E7314B5878C0B2FFF71FF89BE7334B19789B
:20550000013989B23248FFF76DF893E72A4B5878C0B2FFF7ABF88DE72C4B1978013989B286
:205520002B48FFF7AFF985E7234B5878C0B2FFF7F9F97FE7204B5878C0B2FFF797FA79E75C
:20554000FFF7D0FA76E7214B19780139C9B22048FFF780FC6EE71D4B19780139C9B21C483B
:20556000FFF7A6FC66E7144B5878C0B29978C9B2FFF7D0FC5EE7FFF701FD5BE70E4B5878B3
:20558000C0B2FEF7F1FC55E7FEF76CFC52E7FEF773FC4FE7FEF77AFC4CE7074B5878C0B219
:2055A000FEF77EFC46E7C046002000400048014000440140A2050020A40500202093000890
:2055C00000300040AAAA000040930008A3050020A505002072B6FEE700B583B00D4B196CC8
:2055E000012211431964196C0A400092009ADA6B802149050A43DA63DB6B0B400193019B3D
:2056000000220121032001F0D1FB032001F000FC03B000BD00100240FEE7FEE7704770475C
:2056200010B500F011FF10BD10B501F01BFC10BD7047000070B5204B1B689B0636D51E4B5F
:2056400020225A601D4A136801218B43136072B61B4BC22292009C5C002C28D01D00194E65
:20566000985D01300231FCF7BFFEA955013CE4B2C2239B00EC54002C19D0CB015A185200EB
:20568000AA180132FF3214885B185B005B190B4AD36053681B0C1B042343536013680121C7
:2056A0000B431360084B00221A7062B670BD064B01221A70F9E7C046000002401C00024061
:2056C000AC0E002006030000D800002070B5204B1B689B0437D51E4B802292015A601D4A72
:2056E000136801218B43136072B61B4BC22292009C5C002C28D01D00184E985D01300231D0
:20570000FCF772FEA955013CE4B2C2239B00EC54002C19D0CB015A185200AA180132FF32CA
:2057200014885B185B005B190A4AD36053681B0C1B0423435360136801210B431360084B39
:2057400000221A7062B670BD054B01221A70F9E70000024044000240B811002006030000C1
:20576000D900002010B50E4B1B69DB0716D50C4B022252421A610B4C2378013B23700A4824
:20578000092100F053FD2378002B07D1044BDA6801218A43DA601A688A431A6010BDC046AB
:2057A00000200040F1000020E80000200C4B1B69DB0714D50A4B022252421A61094B1B785B
:2057C000002B0CD1074B01211970074BDA680A43DA601A680A431A60044B03221A707047AB
:2057E00000440140D700002000200040F100002010B5064B1B69DB0707D5044B022252425D
:205800001A610348092100F0B5FC10BD00480140DC000020F8B5434BDB69DB0646D5414B9E
:205820001B68DB0642D53F4B10221A623E4B1A6801218A431A605B6880246400E41AA4B222
:20584000002C2FD0394A1078C0B21378013301210B40137012785202354BD218324BDA60F2
:205860005A68120C120480256D002A435A601A680A431A60EFF3108581F31088294A9368BF
:205880003F310B43936085F31088082C0ED94002274BC01804192500093DA84206D88026AA
:2058A000760007E0204A13680B431360F8BD0130A842FBD80378AA2BF9D14378552BF6D126
:2058C000C3781B0281781943B1421AD8063189B2082916D94718A742E8D83B00023B1B7891
:2058E000552B10D13B00013B1B78AA2B0BD14379FD2B0CD0FE2B08D0FC2B0FD0FEF75DFA79
:2059000005E00130D4E70130D2E7FEF70FFA0023084A5362084A13703800C9E7FEF70AFAEE
:20592000F5E7C0460038014008000240A4060020A806002000440140D7000020F8B5CE46ED
:20594000474680B54C4BDB69DB0647D54A4B1B68DB0643D5484B10221A62484B1A68012124
:205960008A431A605B6880267600F61AB6B2002E30D0434A1478E4B21378013301210B4080
:205980001370127852023F4BD2183C4BDA605A68120C12048020400002435A601A680A43CD
:2059A0001A60EFF3108081F31088334A93683F310B43936080F31088082E0FD96402314BBB
:2059C000E418A6193700093FBC4207D880235B0098460AE0294A13680B431360C0BCB946C0
:2059E000B046F8BD0134BC42F8D82378AA2BF9D16378552BF6D1E2781202A3781343434536
:205A00001BD806339DB2082D17D963199946B342E4D8023B1B78552B11D14B46013B1B7848
:205A2000AA2B0CD16379FD2B0BD0FE2B0DD129002000FEF767F94C46D5E70134D3E70134BE
:205A4000D1E7FEF77BF94C46CDE72379012B05D029002000FEF7A6F94C46C4E729002000DF
:205A6000FEF728F9012801D04C46BCE729002000FEF76CF94C46B6E7004400403000024019
:205A8000A5060020A80A002010B503000C4A0D49521A0D490968002907D00B490868C31823
:205AA000934206D8084A136010BD074907480860F3E703F0CBFB0C23036001204042F3E7F8
:205AC0000020002000040000A80E0020301600207047000030B587B001AC1422002120004F
:205AE00003F09AFB144B1A6C802109020A431A641B6C0B400093009B104AC4208000135899
:205B00001B021B0A8021C9050B43135080231B0313600B4B2380002363600A4AA260E36077
:205B2000094D2100280003F067F92B68802213432B6007B030BDC0460010024000E100E0A0
:205B4000FF180000A30600000020004030B587B001AC14220021200003F05EFB144B1A6CB4
:205B6000802189020A431A641B6C0B400093009B104BC520800019580F4A11408022D201DE
:205B80000A431A50802292031A600C4B2380002363600B4AA260E36023610A4D21002800FF
:205BA00003F02AF92B68802293432B6007B030BD0010024000E100E0FF00FFFFFF1800006E
:205BC0002F7500000044014030B587B001AC14220021200003F020FB134B1A6C8021C902FE
:205BE0000A431A641B6C0B400093009B0F4AC520800013580E490B408021C9030B431350F1
:205C000011600C4B2380002363600B4AA260E36023610A4D2100280003F0EEF82B68802267
:205C200093432B6007B030BD0010024000E100E0FFFF00FFFF1800000F2700000048014079
:205C400070B5EFF31080012181F31088234A13680C242343136080F31088EFF3108081F39D
:205C60001088136804342343136080F310881C4B1C4898601C48007840021C4D4019D8601A
:205C80005868000C000480256D00284358601868FE3D284318601868082630431860186848
:205CA00008431860EFF3108081F31088936838363343936080F3108814620D4B0D489860AB
:205CC000EFF3108081F31088916870342143916080F310881A682A431A6070BD003801403A
:205CE0000800024024380140A4060020A80600201C00024028380140F0B5DE4657464E462C
:205D00004546E0B59BB02022002112A803F084FA182200210CA803F07FFA2422002103A8FD
:205D200003F07AFA0123029302A802F057FE002800D0C9E0664B1A6C8021C9010A431A6444
:205D40001A6C0A400192019A5A6B02252A435A635B6B2B400093009B402398460C930D954E
:205D60000E9500240F94012610961194594B99460CA9180002F038FF80270C970D950E953F
:205D80000F94109611940CA9484602F02DFF524A13683F218A468B430D390B4313604F4BFE
:205DA0001A684F4989460A401A601A684D498C460A401A601A681E35AA431A601A68414643
:205DC0008A431A601A68BA433A431A601A68464802401A601A6845498B460A401A60444A07
:205DE000136851468B430C390B431360414B1A6849460A4010210A431A601A6861460A406B
:205E00001A601A68AA431A601A6841468A431A601A68BA433A431A601A6802401A601A6899
:205E200059460A401A60344AC621890053581B021B0A535080231B0513601294E1235B0244
:205E400013931494159416940C231793189419942A4C12A9200003F077F8EFF3108286F3CF
:205E60001088A368DB00DB08A36082F31088EFF3108286F31088A36821490B40A36082F3F4
:205E8000108823681F4A1340236063681E4A13406360A3682A229343A360236833432360A3
:205EA0002200802189038020C003D3690B42FCD0D3690342F9D0FFF7C3FE1BB0F0BCBB4662
:205EC000B246A946A046F0BDFFF784FB32E7C046001002400004005000080240080002407A
:205EE000EFBFFFFFFFCFFFFFFFFCFFFFFFF3FFFF040802401C00024000E100E0003801405B
:205F0000FFFFFFF1FFFFFFDFFFB7FFFF70B5EFF31080012181F31088234A13680C242343C0
:205F2000136080F31088EFF3108081F31088136804342343136080F310881C4B1C4898600B
:205F40001C48007840021C4D4019D8605868000C000480256D00284358601868FE3D2843FE
:205F600018601868082630431860186808431860EFF3108081F3108893683836334393607D
:205F800080F3108814620D4B0D489860EFF3108081F31088916870342143916080F3108860
:205FA0001A682A431A6070BD004400403000024024440040A5060020A80A0020440002408A
:205FC00028440040F0B5DE4657464E464546E0B591B020262022002108A803F01DF9002434
:205FE0000594584BDA6B802189020A43DA63DA6B0A400192019A5A6B01252A435A635B6BD2
:206000002B400093009B0423029302270397049706950795A023DB05984602A9180002F060
:20602000E3FD082302930397049705940695079502A9404602F0D8FD434A13683F218A468B
:206040008B430B390B431360404B1A68404989460A401A601A683F4988460A401A601A6826
:20606000B2431A601A6840218C468A431A601A687E37BA433A431A601A68374802401A60CD
:206080001A6836498B460A401A60354A136851468B430A390B431360324B1A6849460A402F
:2060A00010210A431A601A6841460A401A601A68B2431A601A6861468A431A601A68BA433B
:2060C0003A431A601A6802401A601A6859460A401A60254BC72189005A58FF2082435A5085
:2060E000802252051A600894E1235B0209930A940B940C940C230D930E940F941B4C08A98B
:20610000200002F021FF6368194A13406360A3682A229343A36023682B432360220080219A
:2061200089038020C003D3690B42FCD0D3690342F9D0FFF7EBFE11B0F0BCBB46B246A9469D
:20614000A046F0BD001002400808024030000240EFBFFFFFFFCFFFFFFFFCFFFFFFF3FFFF35
:206160000C0802404400024000E100E000440040FFB7FFFFF8B504000D0072B6264BC22011
:2061800080001B5CDBB2022B03D880235B00994201D962B6F8BD204E204FF05DC301C0182D
:2061A000400080190A00210003F07CF8F35DDA019B185B00F3180133FF331D80F05D0130AF
:2061C0000321FCF711F9C9B2F155C2229200B35C0133DBB2B354124B1B78002BD9D00E4975
:2061E000104BCB5CDC011A1952008A180132FF3210880B4A002515701B195B005B180A4AC8
:20620000D36053681B0C1B0403435360136801210B431360BDE7C046AC0E00200703000065
:20622000D8000020060300001C000240F8B504000D0072B6264BC22080001B5CDBB2022B15
:2062400003D880235B00994201D962B6F8BD204E204FF05DC301C018400080190A00210019
:2062600003F020F8F35DDA019B185B00F3180133FF331D80F05D01300321FCF7B5F8C9B20F
:20628000F155C2229200B35C0133DBB2B354124B1B78002BD9D00E49104BCB5CDC011A19BE
:2062A00052008A180132FF3210880B4A002515701B195B005B180A4AD36053681B0C1B0465
:2062C00003435360136801210B431360BDE7C046B811002007030000D900002006030000C8
:2062E000440002400D488546FFF7F2FB0C480D490D4A002302E0D458C4500433C4188C42EE
:20630000F9D30A4A0A4C002301E013600432A242FBD302F0A1FFFFF729F8FEE700200020DA
:20632000C00000208C0100205C9500088C0100202C160020FEE70000F0B5C64600B586B047
:20634000804672B6194B18685968194D054043461A0215430F0000230193023302931D3322
:2063600004931E3B059300F0DDFD01A902A800F07FFE00F05BFE0D4E00F0D4FD2A003B0040
:206380003100012000F01CFE040000F04FFE002CF2D162B6074B18784346181A434258419E
:2063A000C0B206B080BCB846F0BDC04600F80008FF00FFFF01F80008014B1878C0B27047C5
:2063C00001F80008014B1878C0B27047FF1F000870B504000F4B19780120002900D170BD35
:2063E0000D4DFA208000FBF78FFE01002868FBF78BFE00F019FD03000120002BEFD1032CDA
:20640000EDD800222100404200F0D0FC034B1C600020E4E7F8000020F4000020FC00002039
:2064200010B5084A116880235B000B4313600320FFF7CEFF041E02D00124200010BDFFF72B
:20644000CBF8FAE700200240034A1168034B1B785B1813607047C046C4140020F8000020DC
:20646000014B18687047C046C414002070B50400FFF7F6FF0500631C02D0044B1B78E41853
:20648000FFF7EEFF401BA042FAD370BDF8000020014B18687047C0469075FF1F014B186852
:2064A0007047C0469475FF1F014B18687047C0469875FF1FF0B583B0040000230193002889
:2064C00000D1FFE0836D002B00D1B6E023689A68D20017D499687C4A1140802252050A43E2
:2064E0009A607A4B18687A49FBF70EFE013040000190019B002B05D0019B013B0193019BF6
:20650000002BF9D121688B680020DB0008D4A36D10221343A365E36D0F3A1343E36501302B
:206520008D68A26D1023134004222A40134300D0C1E0A36D674A13400632FF321343A3659F
:206540008B68DB074FD4A57E266B731E9E413603A268E3681A43237E9B031A43637EDB03D9
:206560001A436B031A432369002B6DDB8027BF032C23E35C5B00134333433B432022A25C18
:20658000012A64D0626A002A05D0E0256D002A40A56A2A431343CA684F4D2A401343CB606A
:2065A00063689B0F9B07E26C1A433C21615C01295CD021680B69494D2B4013430B6162681F
:2065C00053005B088021C9058B420CD080231B069A4208D042490B68424D2B40F025AD03B8
:2065E0002A4013430B602268536907218B43616B0B43536121684A69A36B1B017025AA437E
:2066000013434B612369002B3AD12268916A103B0B43936223685A6907231340626B9A422F
:2066200040D0A36D12229343023A1343A365E36D0F3A1343E365012042E0FEF7F3FC002315
:20664000E3655422A35441E75B005F0890E7002D03D180225202134394E7A26D20252A439B
:20666000A265E26D1F3D2A43E2658BE7216C656C29430A43A16C0A43134301221A4398E77C
:20668000802292039342C5D121688B6AE369013B9B001C221A4010235B429340226E134396
:2066A0008B62B7E70023E365A36D03229343023A1343A36504E0A36D10221343A36501209A
:2066C00003B0F0BD0120FBE7E8FFFF6FF4000020400D0300FDFEFFFF0102DEFF02FCFF1FA9
:2066E00008270140FFFFC3FFF8B506000D004469082C04D00368DB680424DB071CD4FFF757
:20670000AFFE0700326813681C421BD16B1CFAD0FFF7A6FEC01BA84201D8002DF2D1336852
:206720001B681C42EED1B36D04221343B36554230022F254032029E0836D2022134383658A
:20674000012023E0B16D80239B000B43B365D168C0231B01194213D1B37E002B10D1136824
:206760001B070DD593685B0711D453680C218B435360B36D0B4A13400432FF321343B365CD
:20678000307E00280CD133680C221A60F8BDB36D20221343B365F36D1F3A1343F365EFE741
:2067A0000020F3E7FEFEFFFF0368186C70470000F0B583B004000023019305695433C35C98
:2067C000012B00D11EE154230122C25400688368033217001F401A4209D0A36D1C32134326
:2067E000A365012054230022E25403B0F0BD4A68022A00D1C4E004239D4380263606B5420E
:2068000021D01F231A40103B9340266E9E430B685D0348D15B00DF0E3B0093403343236617
:206820004A6893080133E569AB4212D8866A1F2515400B689B0E0F221340AB40AA409643DB
:206840003343836205E0826A0B685B035B0B13438362256868690A6812028B6813406A4EB8
:206860003340904303436B610B680020002BB9DA664A1268E0256D04154065498B4250D0DF
:20688000644883426ED0644900208B42AAD15202A8D45E490B68614A13402B438022D20367
:2068A00013430B609EE7DD07B6D401279D07B3D401375D07B0D401371D07ADD40137DD06B9
:2068C000AAD401379D06A7D401375D06A4D401371D06A1D40137DD059ED401379D059BD42C
:2068E00001375D0598D401371D0595D40137DD0492D401379D048FD401375D048CD40137E3
:206900001D0489D40137DD0386D401379D0383D48025ED021F002F402B4200D17CE712275C
:206920007AE7120200D55DE738490B683B4A13402B438022120413430B60394B1868394990
:20694000FBF7E2FB013043001B189B000193019B002B55D0019B013B0193019B002BF9D1A9
:2069600000203FE70020D20100D53BE727490B682A4A13402B438022520413430B6031E7FE
:2069800004239D4380231B069D421CD00B680020002B00DB26E71D4A12681D498B4219D0BE
:2069A0001C498B4221D01C4900208B4200D019E716480168C0235B041340184A0A40134334
:2069C000036000200EE7826A0B685B035B0B9A438262DBE70D480168A0235B0413400F4A0D
:2069E0000A40134303600020FCE608480168C0231B041340094A0A40134303600020F1E637
:206A00000020EFE60220F0E600FFFF0708270140001000B0004000B8002000B4FFFF3FFE4D
:206A2000F4000020400D0300806D7047F0B583B004000023019303689A680020D20734D44D
:206A400099682C4A114227D19A682B490A4001210A439A60294B1B681B020FD5284B186860
:206A60002849FBF751FB01300190019B002B05D0019B013B0193019B002BF9D1637E00200B
:206A8000012B12D0FFF7ECFC060023681A68D2072DD40125184F0EE0A36D10221343A36502
:206AA000E36D0F3A1343E365013003B0F0BD23681A68154219D19A68154203D19A683A4017
:206AC0002A439A60FFF7CCFC801B0228EFD923681B681D42EBD1A36D10221343A365E36DEB
:206AE0000F3A1343E3650120DFE70020DDE70020DBE7C04617000080E8FFFF7F0827014090
:206B0000F4000020400D030010B5040003689B6802205B0720D45423E35C012B21D0542318
:206B20000122E2542000FFF781FF002815D1A26D0D4B1A4080235B001343A3650023E365D0
:206B400022681C2111605422A3542268936807490B4004210B43936010BD54230022E2546E
:206B6000FAE70220F8E7C046FEF0FFFFE8FFFF7F70B50400036899689A680020D2070FD568
:206B800089070DD4996805220A40012A09D0A36D10221343A365E36D0F3A1343E365012016
:206BA00070BD9A6815490A4002210A439A60236803221A60FFF754FC060023689B6801256A
:206BC0000020DB0704D4EBE723689B681D4212D0FFF746FC801B0228F6D923689B681D4281
:206BE000F2D0A36D10221343A365E36D0F3A1343E3650120D4E70020D2E7C046E8FFFF7FDC
:206C0000F0B5DE4657464E464546E0B583B00400002301935433C35C012B00D1B7E001250C
:206C20005423C554FFF7A4FF8346236899682A000A400D420ED0A36D10221343A36554231E
:206C40000022E254584603B0F0BCBB46B246A946A046F0BDA16D4F4801400630FF300143D5
:206C6000A165D9688946D9684B480140D96015004A4B9C4680200006494B9A46B423984655
:206C80007F2721688B686646334003438B6021688B68002B5ADB4346CB583B40ED18013247
:206CA000082AEED1EA088B683C480340012003438B60216808698023DB05984219D2394B1F
:206CC0001B68F02080030340E0204003834210D39B0C033B012098400090009B5B08009371
:206CE000009B002B05D0009B013B0093009B002BF9D1B423CD587F2085431543CD5022689D
:206D0000936826490B4002210B439360FFF7A8FB050023689A68D2070BD501239846FFF77E
:206D20009FFB401B022823D823689A6841461142F5D1DA681C494F460F401743DF60A36DD8
:206D400003229343023A1343A36578E7019B01330193019B53459BD9A36D12229343023ADD
:206D60001343A36554230022E254533B9B4669E723689B68DB07D7D5A36D10221343A3656B
:206D8000E36D0F3A1343E36501239B465AE702239B4657E7FDFEFFFFFC7FFFFFE8FFFF7F5B
:206DA000FFF10200082701400380000070B5002814DB8408A400144B9C466444C026B600FD
:206DC000A55903220240D200FF2318009040854389010B4093402B43A35170BD0F230340FE
:206DE000083B9B089B00094A94466344DC6903221040C000FC3215008540AC4389010A40F9
:206E000082402243DA61E8E700E100E000ED00E0002805DB1F22024001239340014A136073
:206E20007047C04600E100E0013880235B0498420FD2094A50600948036A1B021B0AC021FA
:206E400009060B4303620023936007331360002070470120FCE7C04610E000E000ED00E02F
:206E60007047704710B52A4B1B692A4A13402A4A9268510721D5284A1469002B2AD1244BDF
:206E80001B69DB070CD5224B01221A61224B9B68022B2CD0204B00229A602000FFF7E0FF8B
:206EA0001D4B9B68002B07D1194A53691B490B405361194B00221A7010BD1548416991432A
:206EC000416117490A4202D0134AD468D5E7124A5469D2E7104A51680B4353600C4B0D49AA
:206EE0001961002393602000FFF7BBFFC7E70A4A9369013B9361002B03D1074B00229A6097
:206F0000CBE7516901315161106900F0A1F8C4E700200240FAC30000C8140020FFFFFFFC60
:206F200001000400064B5B690020002B00DB7047034B044A9A60044A9A605869C00FF6E70F
:206F40000020024023016745AB89EFCDF8B50400FFF786FA0700164E80256D0233692B4260
:206F600008D0631CFAD0FFF77BFAC01BA042F5D303201CE00E490A690E4B15001D400E48F6
:206F800008611A420ED10E008025ED0233692B420CD0631CFAD0FFF763FAC01BA042F5D3A5
:206FA000032004E0054B5D60012000E00020F8BD00200240FAC30000FBC30000C81400200E
:206FC000F8B506000F0014001D00164B1B78012B26D0144B01221A7000225A60FA20800026
:206FE000FFF7B4FF00280DD1012E0FD02100380002F06EF9FA208000FFF7A8FF0A4A5369DB
:20700000B3435361074B00221A70F8BD064A536901210B4353613C60BFF36F8F7D60E9E7EA
:207020000220F2E7C81400200020024010B5FA208000FFF78BFF054B5969802212060A43FF
:207040005A615869C043C00F10BDC04600200240044A5369C900044803401943034B0B4353
:20706000536170470020024007E0FFFF02000100F8B504000E00224B1B78012B3DD0204BF8
:2070800001221A7000225A60FA208000FFF75EFF00282ED1042363602368042B19D00123A2
:2070A0005B423360A568E368EB189D421CD2FA27BF0060682900FFF7CBFF3800FFF746FF74
:2070C000002810D10135A368E2689B18AB42F0D80AE00C4A51690C4B0B435361FA308000B7
:2070E000FFF734FF05E03560064A536902218B435361034B00221A70F8BD0220FCE7C04682
:20710000C81400200020024004000100F0B5DE4657464E464546E0B583B00F68002F00D148
:20712000D1E0002200230124A0460234694DAB4652E0876825009540AF43B946CF68974057
:207140004D462F4387604768B7434E68360945462E409E403E4346604AE000265546AE40CE
:207160004D462E433E665D462D68AA466546ED4301954D6880267603354200D094E05646A3
:20718000019D2E405D462E606D68AA464D688026B603354200D08BE05646019D2E405D46DC
