:020000040800F2
:20000000002000204D090008110800081308000800000000000000000000000000000000FE
:2000200000000000000000000000000015080008000000000000000017080008190800084B
:200040009D0900089D0900089D090008210800089D0900089D0900089D0900089D090008AD
:20006000000000009D0900089D0900089D0900089D0900089D0900089D0900089D090008BE
:200080009D0900089D0900089D0900089D090008000000009D0900089D0900089D0900089E
:2000A0009D0900089D0900089D090008A10300089D0900089D09000800000000000000002E
:2000C00010B5064C2378002B07D1054B002B02D0044800E000BF0123237010BD4800002047
:2000E0000000000010160008044B10B5002B03D00349044800E000BF10BDC04600000000B6
:200100004C00002010160008002243088B4274D303098B425FD3030A8B4244D3030B8B42ED
:2001200028D3030C8B420DD3FF22090212BA030C8B4202D31212090265D0030B8B4219D334
:2001400000E0090AC30B8B4201D3CB03C01A5241830B8B4201D38B03C01A5241430B8B42BD
:2001600001D34B03C01A5241030B8B4201D30B03C01A5241C30A8B4201D3CB02C01A52411E
:20018000830A8B4201D38B02C01A5241430A8B4201D34B02C01A5241030A8B4201D30B02D4
:2001A000C01A5241CDD2C3098B4201D3CB01C01A524183098B4201D38B01C01A524143091B
:2001C0008B4201D34B01C01A524103098B4201D30B01C01A5241C3088B4201D3CB00C01A8E
:2001E000524183088B4201D38B00C01A524143088B4201D34B00C01A5241411A00D2014630
:20020000524110467047FFE701B5002000F006F802BDC0460029F7D076E770477047C0460E
:2002200010B50B480B4B036000230371013343710122524202612132426160328261036284
:2002400000F0D0FC002800D110BD00F0BFFAFBE7640000200030024082B0084B02689A42D0
:2002600001D002B07047064B9A6B802149010A439A639B6B0B400193019BF2E700300240ED
:200280000010024082B0054A516B022319435163526B13400193019B02B07047001002409F
:2002A00010B5064B1C680648064A074900F0DCFCC043001B43425841C0B210BDFCDF000890
:2002C00064000020FCBF00000020000806498022CB691A42FCD0044B986219004022CB6972
:2002E0001A42FCD07047C0460038014010B5184C200001F099F82368012293432360EFF3EC
:20030000108182F3108823681F329343236081F3108800230F4A13600F4A106803210140D9
:2003200011600E4901204042802408510134FF3408510B490B664B668B66CB6691690133CE
:20034000FF330B43936100F0F1FF00F029FB10BD0038014010E000E00000014000E100E01D
:200360000018024010B5FFF79BFF002807D0094B1B68094A134080229205934200D010BDA7
:20038000FFF7B4FF054B1B68024A126882F308889847F4E7002000080000FE2F04200008DB
:2003A00010B5254BDB699B0608D5234B5B6ADBB2224A1278002A02D0022A14D010BD992BF3
:2003C00003D06620FFF782FFF8E700F045FB1C4B1C4A944660441860184B02221A708820C2
:2003E000FFF774FFEAE7184801884A1C92B2028016484354012A0CD0154B9A42DED1134B69
:200400001B78012B10D0022B12D00F4B00221A80D4E70378013B012BD0D90B4B00221A80BF
:200420006620FFF753FFC9E7044B03221A70ECE7024B04221A70E8E7003801408C0000207C
:200440008800002020A107008E0000209000002008080000F0B5CE46474680B587B00023E9
:2004600005933E4B5C7824069A78120414431A791443DB781B021C43394B9C420CD9374B5C
:200480005A7912029B799B189BB2002B09D13348344A002101F090F807B0C0BCB946B046A1
:2004A000F0BD322000F0B4FC00F09EFC0028FBD102230193F8231B06E318DB0A0393012390
:2004C0000493322000F0A4FC05A901A800F032FD0028F6D180231B01E3189C4237D222007B
:2004E000083293429B415B425A4253415B42FF221340013398461C4EA31B99464B469F19D1
:2005000074782402B3781B041C4333781C43F3781B061C43357973791B021D43B3791B04C9
:200520001D43F3791B061D43322000F071FC22002B003900012000F0A5FC0028F4D1012376
:200540005B429C46E04408364346002BD6D100F0CFFC322000F05CFC99E7C04690000020D4
:20056000FF1F00080808000098000020F8B5CE46474680B500F070FA334BF530FF30186066
:200580001E00324D1F0028E0FFF7ECFE2AE000F063FA2F4B9C4660443860EFF31082012330
:2005A000994683F310882B4C2368202188468B43236082F31088FFF74DFFEFF3108289F3AD
:2005C0001088236841460B43236082F310887720FFF77CFE1D4B02221A7000F03DFA3368B4
:2005E0009842D1D82B78032BD1D0042BF5D100F033FA154B164A9446604418607720FFF7B1
:2006000065FEEFF310820123994683F31088114C2368202188468B43236082F31088FFF7A7
:2006200019FFEFF3108289F31088236841460B43236082F310885520FFF748FE0A2000F05F
:200640009DFFFFF78FFEC8E7880000208C00002020A107000038014000B587B010220021F8
:2006600002A800F0A9FF094A516B012319435163526B1A400092009AC0220192039301A9FD
:20068000034800F0A5FC07B000BDC046001002400004005010B5284A136807218B43053978
:2006A0000B431360110007220B681340022BFBD1224A1168FE330B43136011008022D20024
:2006C0000B681342FCD01D4BD9681D4A11401D4A0A43DA601968802252040A431A60D968B6
:2006E000802252050A43DA601900802292040B681342FCD0114A936813490B4093609368AA
:2007000007218B4305390B439360110038228B681340102BFBD1094A93680C490B409360CB
:200720000B4800F043FF032000F04EF9002800D110BD72B6FEE7C04600200240001002404D
:200740008C80FF1F02080020FFF0FFFFFF8FFFFF0090D00310B500F05FF9FFF79BFFFFF7D6
:2007600091FDFFF75DFDFFF777FFC82000F006FF144B1B695B0603D4124B1B691B0611D54F
:20078000FFF7F0FD00F052F8EFF31081012383F310880D4A136820200343136081F31088C0
:2007A000FFF7E4FE00F042F8EFF31081012383F31088054A10681F330343136081F31088B4
:2007C000FFF7D4FE000400500038014072B6FEE700B583B00D4B196C012211431964196C39
:2007E0000A400092009ADA6B802149050A43DA63DB6B0B400193019B00220021032000F0AE
:2008000031F9032000F060F903B000BD00100240FEE7FEE77047704710B500F011F910BDBC
:2008200010B500F081FA10BD7047000030B591B02022002108A800F0BFFE1022002104A81F
:2008400000F0BAFE3A4B5A6D03218A435A651A6C8021C9010A431A641A6C0A400192019A3A
:200860005A6B022422435A635B6B23400093009B4023029303942F4D02A9280000F094FCB6
:200880008023029303940024049405940694079402A9280000F088FC274AC621890053582C
:2008A0001B021B0A535080231B0513600894E1235B0209930A940B940C940C230D930E9436
:2008C0000F941E4C08A9200000F0DAFDEFF31081012282F31088A368DB00DB08A36081F390
:2008E0001088EFF3108182F31088A36814480340A36081F31088236812490B4023606368A8
:2009000011490B406360A3682A218B43A3602368134323602200802189038020C003D369F6
:200920000B42FCD0D3690342F9D011B030BDC046001002400004005000E100E000380140C0
:20094000FFFFFFF1FFFFFFDFFFB7FFFF0D488546FFF76AFF0C480D490D4A002302E0D45868
:20096000C4500433C4188C42F9D30A4A0A4C002301E013600432A242FBD300F025FEFFF7A4
:20098000E9FEFEE7002000200000002048000020D016000848000020B8080020FEE77047F1
:2009A00010B5084B01214942D9620022DA6219631A6399629A6259625A62FFF7F0FF00206D
:2009C00010BDC0460010024070B504000F4B19780120002900D170BD0D4DFA208000FFF7AC
:2009E00093FB01002868FFF78FFB00F079F803000120002BEFD1032CEDD80022210040422F
:200A000000F030F8034B1C600020E4E704000020000000200800002010B5084A116880236A
:200A20005B000B4313600320FFF7CEFF041E02D00124200010BDFFF7CBFEFAE700200240AC
:200A4000034A1168034B1B785B1813607047C0469808002004000020014B18687047C046DF
:200A60009808002070B5002814DB8408A400144B9C466444C026B600A55903220240D2008E
:200A8000FF2318009040854389010B4093402B43A35170BD0F230340083B9B089B00094A04
:200AA00094466344DC6903221040C000FC3215008540AC4389010A4082402243DA61E8E73F
:200AC00000E100E000ED00E0002805DB1F22024001239340014A13607047C04600E100E0CA
:200AE000013880235B0498420FD2094A50600948036A1B021B0AC02109060B430362002337
:200B0000936007331360002070470120FCE7C04610E000E000ED00E0F0B583B00C00019141
:200B200011009208032924D90026076823781B0665782D042B43E5782B43A5782D022B438F
:200B40003B60013604349642EFD303231C000C400B4215D0012C0ED0022C15D19200019BE4
:200B60009C5C24029C466244537823430268138006E00022E9E7036892000199525C1A70FA
:200B80000368186803B0F0BD9200019B9C5C24029C4662445378234301680B80036892789C
:200BA0001A70EDE7F0B583B00C00019111005208012915D90025066823881B0467883B4314
:200BC0003360013504349542F5D3C90704D5036892000199525A1A800368186803B0F0BDA4
:200BE0000022F2E710B5041E39D0437F002B25D0022363772379002B24D12368194A5A61C4
:200C00002268936818218B4393606379002B22D12368012252421A612268936860218B43CA
:200C200061690B4393602268936880218B43A1690B43936001236377002010BD0377FFF70F
:200C40000BFBD5E7E268A168200000F035F80028DBD00120F1E7236822691A61DCE7012001
:200C6000EBE7C046B71DC10470B50400022343770068836801252B438360236A022B17D090
:200C8000032B06D00020012B0FD12000FFF744FF0BE0002A07D00B0092008918226801CB4B
:200CA00010608B42FAD1236818680123637770BD2000FFF777FFF8E7F0B507000120CB07EC
:200CC00025D51F231F260125013B27D334001C400800E0400542F7D0102A19D0102A08D834
:200CE000002A0BD00120082A11D101200F2B0ED804E0182A10D10120062B08D83B685961E3
:200D000039688B681820834313438B600020F0BD072BF3D90120FAE70120F8E7102ADDD14B
:200D20000120F4E77047704710B52A4B1B692A4A13402A4A9268510721D5284A1469002BEE
:200D40002AD1244B1B69DB070CD5224B01221A61224B9B68022B2CD0204B00229A60200097
:200D6000FFF7E0FF1D4B9B68002B07D1194A53691B490B405361194B00221A7010BD154874
:200D800041699143416117490A4202D0134AD468D5E7124A5469D2E7104A51680B4353607A
:200DA0000C4B0D491961002393602000FFF7BBFFC7E70A4A9369013B9361002B03D1074BA7
:200DC00000229A60CBE7516901315161106900F0A1F8C4E700200240FAC300009C08002017
:200DE000FFFFFFFC01000400064B5B690020002B00DB7047034B044A9A60044A9A60586964
:200E0000C00FF6E70020024023016745AB89EFCDF8B50400FFF720FE0700164E80256D02C0
:200E200033692B4208D0631CFAD0FFF715FEC01BA042F5D303201CE00E490A690E4B1500A3
:200E40001D400E4808611A420ED10E008025ED0233692B420CD0631CFAD0FFF7FDFDC01BA0
:200E6000A042F5D3032004E0054B5D60012000E00020F8BD00200240FAC30000FBC3000001
:200E80009C080020F8B506000F0014001D00164B1B78012B26D0144B01221A7000225A609D
:200EA000FA208000FFF7B4FF00280DD1012E0FD02100380000F0B8FBFA208000FFF7A8FFA8
:200EC0000A4A5369B3435361074B00221A70F8BD064A536901210B4353613C60BFF36F8F29
:200EE0007D60E9E70220F2E79C0800200020024010B5FA208000FFF78BFF054B5969802291
:200F000012060A435A615869C043C00F10BDC04600200240044A5369C9000448034019432B
:200F2000034B0B43536170470020024007E0FFFF02000100F8B504000E00224B1B78012B75
:200F40003DD0204B01221A7000225A60FA208000FFF75EFF00282ED1042363602368042BD8
:200F600019D001235B423360A568E368EB189D421CD2FA27BF0060682900FFF7CBFF380043
:200F8000FFF746FF002810D10135A368E2689B18AB42F0D80AE00C4A51690C4B0B435361C7
:200FA000FA308000FFF734FF05E03560064A536902218B435361034B00221A70F8BD022062
:200FC000FCE7C0469C0800200020024004000100F0B5DE4657464E464546E0B583B00F6839
:200FE000002F00D1D1E0002200230124A0460234694DAB4652E0876825009540AF43B94607
:20100000CF6897404D462F4387604768B7434E68360945462E409E403E4346604AE00026EA
:201020005546AE404D462E433E665D462D68AA466546ED4301954D6880267603354200D0CB
:2010400094E05646019D2E405D462E606D68AA464D688026B603354200D08BE05646019D7E
:201060002E405D466E608426AE594D68AD0300D584E0019D2E4084255F467E518026BE595C
:201080004D68ED037DD4019D2E4080275D46EE5101330F6802323E00DE4076D046469E40DA
:2010A0003D003540AC463742F2D04F682740013F012FA0D94E682640032E22D0C7682600B6
:2010C0009640B7438E6896403E43C6604E682640022E16D1DE08B600851901952D6AAA4643
:2010E00007271F40BF000F25BD40A94655464E46B543AA460D69BD402F0055462F43019D20
:201100002F62076826009640B7434E68264096403E4306604E68C025AD022E42B8D09F0817
:20112000BF001D4DA9464F443D6E019525001D40ED00AA460F255646B540019EAE43B14618
:20114000A025ED05A84200D169E7144EB04209D0134EB04208D0134D4619751EAE417600BE
:2011600003365DE701265BE7022659E7654656462E4369E7654656462E4372E765462E43EC
:2011800079E7654635432E007FE703B0F0BCBB46B246A946A046F0BD0018024000040050B0
:2011A0000008005000F4FFAFF0B5D6464F464646C0B50B68002B5AD000220124A14620E0E8
:2011C000C3689846270067437B009C46BC446346DE430B697B439A46454663469D432B00BD
:2011E00055461D43C5604B68022B25D004684B687B4334402343036001320B681C00D4400A
:2012000035D04E4696401C0034403342F4D04B68013B012BD4D88368270067437E00F61986
:20122000B3438E687E43334383604368A343CE68664333434360C3E7FF2C0CD8036A3C00BD
:201240007C43A44624016546641BA3434C696C4323430362CAE7436A240A64436443250181
:201260002D1BAB434D696C4323434362BEE70020E0BCBA46B146A846F0BD0000054B9B6882
:20128000054A1B051B0F9B009B581F221340D8407047C0460010024058160008054B9B68A3
:2012A000054A5B045B0F9B009B581F221340D8407047C046001002403816000810B5174B50
:2012C0009A6838231340082B26D0102B1DD1134BDB68032018400338434258414042104BBA
:2012E0001840104B9C4660440C4AD368D168D4685B045B0E58434906490F0131FEF704FF7B
:20130000610F0131FEF700FF10BD044B1B689B045B0F0448D840F7E70348F5E700100240D4
:2013200000EE85FF0024F40000127A00194A116880235B000B43136011008022D2000B6804
:201340001342FCD0134B5968134A11408022D2010A435A6000229A600132FF321A60190010
:20136000802292020B681342FCD10A4B802252001A601900802292040B681342FCD1054BA9
:2013800080225201DA6000229A61013A1A6200207047C04600100240FF80FFFF10B50400D5
:2013A000FFF78CFF2060FFF769FF6060FFF776FFA06010BD10B503000020032B00D010BD23
:2013C000144B5B6D03221A40C0239B021343124A934208D0114A93420FD0114A934212D166
:2013E000FFF76CFFEBE70B4B1A688023DB00100018401A42E3D00B48E1E7064BD86D8007B5
:20140000C00FC003DBE7FFF759FFFFF737FFFFF745FFD4E7001002400200030003000300AC
:20142000010003000024F4000300104A904204D00F4A012093420CD070470E4B196B80222C
:20144000D2010A431A631A6B0B490A401A630020F2E7084BD96A802292020A43DA62DA6ABD
:2014600006490A40DA620020E6E7C046003801400044004000100240FFBFFFFFFFFFFDFF9F
:2014800070B584B004000D0003680120DB0724D422688B6809690B4369690B43E9690B437F
:2014A0002F490A401343236063682E4A1340EA6813436360A3682C4A1340AA691343A36050
:2014C0002A4B9C420BD02A4B01209C422CD0E26A2B880F218A431343E36204B070BD0230C4
:2014E000FFF768FF03000120002BF0D06E68002EEDD02A6800200B2AE9D880210902E8691A
:20150000884216D01B49FF200240920051581800FEF7FAFD7308C0183100FEF7F5FD0304A5
:201520001B0CE3600020D2E701A8FFF737FF039BD9E71049FF200240920051581800FEF733
:20154000E3FD40007308C0183100FEF7DDFD0A4A024003075B0F1343E3600020B7E7C046B1
:20156000F369FFEFFFCFFFFFFFFCFFFF003801400044004098160008F0FF000082B00A4B33
:201580001B680193019B431C5A1E9341C018064980225202002804D00B681342FAD0013809
:2015A000F8E702B07047C04610E000E0014B18607047C0460000002003008218934200D129
:2015C000704719700133F9E770B500260C4C0D4D641BA410A64209D1002600F019F80A4C48
:2015E0000A4D641BA410A64205D170BDB300EB5898470136EEE7B300EB5898470136F2E7B0
:20160000C8160008C8160008CC160008C8160008F8B5C046F8BC08BC9E467047F8B5C046B5
:20162000F8BC08BC9E46704701B40248844601BC604700BF0D00002000000000000000007E
:20164000000000000000000001000000020000000300000004000000000000000000000080
:20166000000000000000000000000000000000000000000000000000010000000200000067
:20168000030000000400000006000000070000000800000009000000010000000200000022
:2016A0000400000006000000080000000A0000000C00000010000000200000004000000092
:2016C0008000000000010000E9000008C10000080024F400010000000400000030B50D4A76
:2016E00054698023DB0223435361EFF3108572B64C1CFF340B00411A1A68CA500433A3423B
:20170000FAD10449802252020B691342FCD185F3108830BD00200240FFFFFFFFFFFFFFFFCE
:20172000FFFFFFFFFFFFFFFFFFFFFFFFFFFFFFFFFFFFFFFFFFFFFFFFFFFFFFFFFFFFFFFFC9
:20174000FFFFFFFFFFFFFFFFFFFFFFFFFFFFFFFFFFFFFFFFFFFFFFFFFFFFFFFFFFFFFFFFA9
:20176000FFFFFFFFFFFFFFFFFFFFFFFFFFFFFFFFFFFFFFFFFFFFFFFFFFFFFFFFFFFFFFFF89
:20178000FFFFFFFFFFFFFFFFFFFFFFFFFFFFFFFFFFFFFFFFFFFFFFFFFFFFFFFFFFFFFFFF69
:201FE000FFFFFFFFFFFFFFFFFFFFFFFFFFFFFFFFFFFFFFFFFFFFFFFFFFFFFFFFFFFFFF01FF
:2020000000200020F5560008554800085748000800000000000000000000000000000000E1
:202020000000000000000000000000005948000800000000000000005B4800085D4800089F
:2020400045570008455700084557000865480008455700084557000845570008455700084F
:20206000000000006D480008714800081949000845570008455700084557000845570008E8
:20208000455700084557000845570008FD49000800000000454A0008894A000845570008F0
:2020A000455700084557000845570008AD4A0008F14B00084557000800000000000000004D
:2020C00010B5064C2378002B07D1054B002B02D0044800E000BF0123237010BD300100203E
:2020E00000000000FC730008044B10B5002B03D00349044800E000BF10BDC046000000004D
:2021000034010020FC730008002243088B4274D303098B425FD3030A8B4244D3030B8B429B
:2021200028D3030C8B420DD3FF22090212BA030C8B4202D31212090265D0030B8B4219D314
:2021400000E0090AC30B8B4201D3CB03C01A5241830B8B4201D38B03C01A5241430B8B429D
:2021600001D34B03C01A5241030B8B4201D30B03C01A5241C30A8B4201D3CB02C01A5241FE
:20218000830A8B4201D38B02C01A5241430A8B4201D34B02C01A5241030A8B4201D30B02B4
:2021A000C01A5241CDD2C3098B4201D3CB01C01A524183098B4201D38B01C01A52414309FB
:2021C0008B4201D34B01C01A524103098B4201D30B01C01A5241C3088B4201D3CB00C01A6E
:2021E000524183088B4201D38B00C01A524143088B4201D34B00C01A5241411A00D2014610
:20220000524110467047FFE701B5002000F0F0F802BDC0460029F7D076E7704703460B432A
:202220007FD4002243088B4274D303098B425FD3030A8B4244D3030B8B4228D3030C8B421C
:202240000DD3FF22090212BA030C8B4202D31212090265D0030B8B4219D300E0090AC30B09
:202260008B4201D3CB03C01A5241830B8B4201D38B03C01A5241430B8B4201D34B03C01A41
:202280005241030B8B4201D30B03C01A5241C30A8B4201D3CB02C01A5241830A8B4201D3AB
:2022A0008B02C01A5241430A8B4201D34B02C01A5241030A8B4201D30B02C01A5241CDD2B5
:2022C000C3098B4201D3CB01C01A524183098B4201D38B01C01A524143098B4201D34B01F9
:2022E000C01A524103098B4201D30B01C01A5241C3088B4201D3CB00C01A524183088B424F
:2023000001D38B00C01A524143088B4201D34B00C01A5241411A00D2014652411046704739
:202320005DE0CA0F00D04942031000D34042534000229C4603098B422DD3030A8B4212D395
:20234000FC22890112BA030A8B420CD3890192118B4208D3890192118B4204D389013AD016
:20236000921100E08909C3098B4201D3CB01C01A524183098B4201D38B01C01A5241430930
:202380008B4201D34B01C01A524103098B4201D30B01C01A5241C3088B4201D3CB00C01AAC
:2023A000524183088B4201D38B00C01A5241D9D243088B4201D34B00C01A5241411A00D2EA
:2023C0000146634652415B10104601D34042002B00D54942704763465B1000D3404201B502
:2023E000002000F005F802BD0029F8D016E770477047C04670B500220C4B04000D0001F00F
:20240000BDFA002804D12000290001F019FA70BD064B00222000290000F008FE01F010FAE1
:2024200080231B069C466044F1E7C0460000E041F0B5DE46454657464E46E0B587B0009270
:2024400001930B031B0B9B46CA0F4B00040080465B0D029200D198E07C4A934237D059465F
:20246000420FC9000A43802109041143C2009046774A894692469A44002300240393009E9A
:20248000019F3B031B0B9B467B0030005B0DFD0F002B59D06D4A934248D05946720FC90057
:2024A0000A438021090411438B466949F2008C4651466344CB1A9A460021029E6E40F6B26C
:2024C0000F2C00D9CEE0634BA4001B599F465A460243914600D090E09A460223904608248C
:2024E0000393CCE7CB464246029D0399022900D1DEE1032900D18DE0012900D079E12E0018
:2025000000220023002490461B052343F60733434046190007B0F0BCBB46B246A946A046B3
:20252000F0BD002200249046484BEDE75A46009B1A43494B9C46E244002A59D102231C435F
:20254000002302219B46B8E75A46009B1A4349D05B46002B00D19CE1584601F019FA020046
:2025600003000B3A1D27009EBA1A19005846D64008398840320002439346009A8A40374953
:2025800053448A4600219A4497E75B460343994621D05B46002B00D169E1584601F0F8F939
:2025A0000B235B429C460200844466461D239B1B260011005846DE4008398840330003438D
:2025C000994623008B409846254B00249B1A9A460023039353E7002398469A4601330424F7
:2025E00003934CE701231C43002301219B4664E70323320003211C435FE79A460323D946D8
:202600000C2403933BE700238024984600260F4B240379E780245B4624031C4324032E0006
:2026200090460A4B240B6FE780244B462403234202D05B462342F0D080244B4624031C43D6
:202640002403029E014B240B5EE7C046FF07000001FCFFFF2874000801F8FFFFF30300005B
:202660000DFCFFFFCB4500D2F8E000D1F3E001235B429C46444648460025E2445B46170E29
:202680001B021F43190C3B04120200971F0C914602910397FFF7BEFD02007A430B04210CD1
:2026A000804619438A4209D9009F0123BC465B4261449C46E0448F4200D85CE1881A02991A
:2026C000FFF7A8FD039A240442430904240C03000C43A24206D90099013B8C466444A14291
:2026E00000D842E1A01A424612041A4393464B4659461B0C1F0004930B0449460904090C84
:202700000C001B0C5C43120C7B43884651437A43270CBC465B186344994203D980214902FA
:202720008C466244190C24041B04240C8A181C19904202D316D1A54214D25B46009F013BD7
:202740004D4405934D459B41BC465B426344C018874200D302E1824200D929E100D124E1C8
:20276000059B9B462C1BA542AD41009B801A6D42401B834200D10FE10299FFF74BFD039A81
:202780000B044243210C050019438A4200D9CBE0881A0299FFF73EFD039A24044243090402
:2027A000240C03000C43A24200D9CAE04146A41A2A041A43049F13041B0C594340467B439F
:2027C0009C46150C68430B0C844463447D43984203D98020400284466544180C09041B04AA
:2027E000090C40195B18844227D323D0012335001A43944B5344002B60DD510700D086E023
:202800002E00D1085A46D20106D55A468E4B1A4080239346DB0053448C4A934200DD80E6B4
:202820005A4652070A4390465A465B055402240B5B0D69E63500002BDBD0009D511EAC4637
:202840006444AC4200D29EE0844200D2E1E000D1EEE00A00CAE7424500D908E74B46DC071C
:20286000580843465B081C434346DD0706E701F08FF815239C4684440200634620321C2BB5
:2028800000DC92E62300083883409946002398469AE601F07DF802000300153220331C2A13
:2028A00000DC5FE600990838814000228B4666E600222E0000249046654B25E62E000121C9
:2028C000C91A382900DD1BE61F297EDC6148140050445B4682408340CC40501E824123431A
:2028E0001A435B46CB40510709D00F211140042905D0111D9142924152429B180A001902DB
:2029000000D49BE00022012300249046FCE50F211140042900D173E7111D91429241524206
:202920002E00C90893446DE7009B013D9C4661448B4200D92CE78A4200D829E7851E614458
:2029400026E70099013B8C466444A14200D92DE7A24200D82AE7831E644427E7874200D08E
:20296000FEE6A94500D9FBE6F5E6A24200D8B9E6831E6444B6E68A4200D89FE6BC46831EE4
:20298000984661449AE60A00844200D02EE74B4500D02BE735002CE72A4B2F4A5344924569
:2029A00043DB0122002193442CE7AC4200D8D7E602235B429C4600994D444D459B41E344E5
:2029C0008C465B426344C018CCE61F204042C31A5846D840202904D05946204B534499406C
:2029E0000A43531E9A4107231900024300241140134209D008331340042B1DD0131D934264
:202A000089411A0049424907D2080A43904600237AE54946009F4D004D458941BC46494214
:202A20006144A946023A6418AEE70122524246E79945EED30A00AAE70021E5E759075B02ED
:202A40001C0BE1E7FF030000FFFFFFFEFE070000FF0700001E04000002FCFFFF3E0400001F
:202A6000F0B557464E46DE464546E0B51F000B031B0B16009A46CA0F4B000400914685B0BF
:202A80005B0D00D1CFE1CD4A934255D05146420FC9000A43802109041143C2009046C84A92
:202AA0008A4693469B440023002502933C037B00FA0F0196240B5B0D009200D188E1BF4AEB
:202AC000934200D192E0BE4A944663449B440A2D42DCE400730F23438024494624041C439B
:202AE000F3000193009B00205940CBB20393022D00DC94E00123AB401D00A6232A00DB006F
:202B00001A401D4200D029E290239B001D4200D14DE20023802499462403A84B10004A4614
:202B20001B052343D2071343190005B0F0BCBB46B246A946A046F0BD52460243904600D068
:202B4000ACE19B460223924608250293AEE7009BA2469946019B9846029B022B00D1CAE191
:202B6000032B00D192E1012B10D1002300240022D4E701227B083A4013435246D207134375
:202B8000984653465B089A46039B99465B46581C8023DB005B44002B00DCB1E14246520752
:202BA0000BD00F2241460A40042A06D04246111D414592418846524292445246D20106D5A7
:202BC0005246804B1A4080239246DB00C3187E4A934200DD8FE14246D108524652070A437E
:202BE00051465B054C02240B5B0D97E7734B26439C46E344002E00D16FE1032349461D43E7
:202C0000009B5940CBB203930A2D00DD33E10123AB401D000323029388222A4297D1424658
:202C200043461204120C160001981D0C030C0004000C4643B4461E006E43009616000700DB
:202C40005E436146B0466F430E0CB8444644B74205D9802149028846009F474400976146EB
:202C60000904090C370C36048C463100614401911100260C2404240C61438C46210069439D
:202C800089466146090C884672434A4442447543914503D98021490288464544110C88467A
:202CA00061460904090C8C4612046244B91802915146090C8C4651460F043F0C3900414329
:202CC00045448846614641438A4641466046090C894658437B4353444B449A4503D98021B6
:202CE000490289464844190C894641460904090C8846390061431B044344884661464C433C
:202D000071438C46414677430E0C3F19F6194844B44203D9802149028946CC440299009F08
:202D2000894631044F4489464146974292410C04240C4C44FF1852426419A1189F429B418C
:202D4000884682465B42994690459241AC42A441C244D14452426442144399459B418245B9
:202D600092415B42524213434A46360CA419E31863445B02D20D1A43019992467A020A43F4
:202D8000501E8241FF0D17434A4652021743B846DB0100D5EDE60D4B039A5B449146002B46
:202DA00000DCACE03A00520700D110E70F2258463A40042A00D0F9E609E7C046FF0700002E
:202DC00001FCFFFFFFFFFFFEFE070000FF030000220032436FD0002C00D1C2E0200000F071
:202DE000D7FD020003000B3A1D20821A30001900D04008398C400200224334008C40594670
:202E0000CB1A86498B469B440A2D00DDA4E64946009B01945940CBB2140000200393022DE2
:202E200000DD67E6FBE65346034398463CD05346002B00D1A3E0504600F0AAFD0B235B42AE
:202E40009C460200844411005046083988401D23804660461B1A2000D8400300404603432E
:202E60009A4623008B4098466C4B00259B1A9B46002302931AE60F2D00D0C9E0802352468C
:202E80001B031A4202D01C4200D192E08024534624031C4324034246240B3EE69B46032379
:202EA00080460C25029301E600239A469B46013304250293FAE501210D430A2D00DD4BE633
:202EC000494600984140C9B20391022D00DC96E000230024012001930CE649460223009A7E
:202EE0002B435140CAB203920A2B00DD34E6002D57D1039B994600240022494B0EE6584658
:202F00000121C91A382900DD2FE61F2956DD1F2254465242D31ADC40202907D0414B424632
:202F20009C465346604483401A43904642460721531E9A410B00224313400024114209D06D
:202F40000F231340042B5DD0111D91429B410A005B425B07D2081A430023DFE5039B99460F
:202F6000FAE5019800F014FD02000300153220331C2A00DC38E7019A083882403FE700F045
:202F800007FD15239C4684440200634620321C2B00DC58E7002398462300083883409A46E5
:202FA00062E71D000023002402200193A2E5029032E61C43009B019A9946AEE51A4B524679
:202FC000C31840469A40C8400243404698400300581E834154461A43CC40530709D00F2366
:202FE0001340042B05D0131D934292415242A4181A00230208D50123002400228EE589468A
:2030000000248BE50023A5E763076402240BA1E7009BA2469946019B984637E70DFCFFFFE5
:20302000FF0700003E0400001E040000F0B557464E464546DE46E0B583B0009001910C03A8
:203040004D00CE0F610A009C5F00640F0C43009900920193C80019037B0D9946019BCC4F5D
:20306000DB0F9C464B0A00998046490F1943009B8B46DA0092466D0DB94500D1BFE00123F2
:20308000614659404B468C46EB1A8E4275D0002B00DCA3E24946002900D1CEE0BD4200D1E0
:2030A00000E20127382B19DC802759463F0439438B461F2B00DDFAE12027F91A8C4659460B
:2030C0006746B9400F001100D9400F4361468A40511E8A415946D9401743641AC71BB842A8
:2030E00080414042241A230200D440E16402640A002C00D154E1200000F04AFC0300083B93
:2031000020213800CA1AD0409C4002009F4022439D4200DDA6E1581B0130091A3C008F400B
:20312000C4407B1E9F4113008B4027431F43C2403B0014000025134300D1F7E17B0700D1A0
:2031400077E30F2338003B40042B04D0381DB842BF417F42E419230200D468E38C4B0135CF
:203160009D4200D1F4E08B4B6D051C406D0D6707C00864020743240BECE0002B00DC29E3B9
:203180004946002900D0D6E05946114300D12EE1591E012B00D1E6E1BB4200D182E101278A
:2031A0000B00382914DC1F2B00DD3CE22027F91A8C4659466746B9400F001100D9400F4372
:2031C00061468A40511E8A415946D940174364183F188742804140422418230200D4C6E078
:2031E0006B4B01359D4200D1B2E00121694B7A081C4039400A43E707174364089EE7664B3D
:2032000011438A46EB18002928D066452CD0002B5BD0002D00D12CE15B4666465F07D208D1
:203220001743DD083B002B4300D1E2E0802424032C432403564D240B8CE05946114300D1B0
:20324000D5E0591E012B00D1B9E1BB4200D1B1E101270B00382900DD40E72AE761460127D3
:2032600079408C466645D2D1002B00D1C5E0002D00D055E14B462500054300D112E2591E67
:203280008C46012B00D149E2414DAB4200D18FE20127382911DC63461F2B00DD5BE261464D
:2032A000202327005B1A050098409F40CD40431E9841CC402F430743A344BF1897429241FA
:2032C00052425A4414004D4687E7344F6B1C3B4200D0B6E05946230011430F000343002D22
:2032E00000D026E1002B00D1C0E1002900D1A1E0831A98465B464045AD41E31A6D425B1B2E
:2033000080252D042B4200D14BE15B46101A824292411C1B0700012663465242A41A274341
:203320001E40002F00D142E12C4200D16DE2194B01251C401BE7BD4200D13BE10127382B1F
:2033400000DD45E7802759463F0439438B462AE7002400272D052543F607354338002900C2
:2033600003B0F0BCBB46B246A946A046F0BD7B0704D00F233B40042B00D0E7E62B00F80879
:20338000034A67070743E508934200D14AE7A5E0FF070000FFFF7FFF01F8FFFFFE07000061
:2033A000380000F0F5FA030018331F2B00DCA7E63A00083882409D4200DD8AE05B1B581CA9
:2033C0001F2800DCD8E117001F3BDF40202805D040231B1A9A40531E9A4117430025002FF8
:2033E00000D1E5E07B0700D0ABE62C00C6E7C008C6E700270024D14DACE7D14F6B1C3B42E6
:2034000071D123000343002D00D04EE15746002B00D1B5E1002F0DD08318834280415C44D9
:2034200040422418220200D5C8E11F009846274300D1BCE043466707DB081F43E50800230C
:203440004CE0831A98465B464045BF41E31A7F42DB1B1F027CD447461F4300D1A6E01C0018
:20346000474645E6B74CED1A14407B0700D080E784E74B462500054366D05F1E012B00D164
:20348000FCE0AE4DAB4200D15EE16646382F00DCB4E00120171ABA4292415B4652424D46EC
:2034A0009C1A20E66707C0080743E508BAE61F005946203FF9400F00202B05D04021CB1A78
:2034C000594699400A43924653465A1E93411F4304E6EB1A9B4D15406F07ED082C035D05E0
:2034E000240B6D0D36E7954DAB4200D1D6E08218210082428041594440420818C707520809
:2035000017434408520700D485E10F221D003A40042A00D01AE6FF08640727430509DDE7FE
:203520005B46D2085F071743DD087BE60027002410E7002B00D0D6E0002900D02FE180246A
:2035400000267E4D240305E766465C46D00817E75B46171ABA4292411C1B01266346524207
:20356000A41A1E40C4E58318834280415C44404225182A0200D4DAE0724A5B081540EA07E7
:203580001A4369085B0700D44AE10F231340042B00D1FCE0171D9742A44164420225641860
:2035A000ECE647461C001F4300D043E7002600250024CFE6C00867070743E50832E6871AEA
:2035C0005B46B8428041E41A4042241A230228D46307FF081F43E50801237FE7002B00D16A
:2035E00073E64B465F1B3B00002D00D142E7382F00DDECE080230E001B041C431F2F25DC77
:2036000020252300ED1B0100A840AB40F940451EA8410B43FC4018435B461B1B9B4639E724
:203620006646012562E51F005946203FF9408C46202B05D040275946FB1A99400A43924610
:2036400057467B1E9F4163461F43C1E53B002500203BDD40202F04D04023DB1B9C40204310
:2036600080464046431E9841284313E700299DD0012663465C4690461E40DBE6171A5B4690
:20368000BA4292411C1B5242A41A2302C8D46307FF081F4366460123E5081FE71D0000243A
:2036A000002757E65C46D0086AE6002B00D137E75346C00867070743E508002B00D1B1E52A
:2036C00080231B031D4208D05946C808184204D1D20849070A43170005007B0FFF00FF0831
:2036E0005B071F439EE5C00863071843E508002953D080231B031D420AD05946CC081C42F2
:2037000006D1012663462500D008490708431E40470FC000C0087F07074383E58318934286
:2037200092415C445242A5182A0200D524E76F07DB081F43ED080123D0E6C046FF07000023
:20374000FE070000FFFF7FFF5B46D2085F0766461743DD0866E52500203BDD406346202B40
:2037600005D0402361465B1A9C402043804647467B1E9F412F43A0E520210027091AD2E4B2
:20378000002F00D113E75C4617000025F6E5D708490702230F432D09A0E6070042E55B4645
:2037A00001265F07DD086346D20817431E4039E55B46D2085F071743DD0833E51E4ADB08BB
:2037C00022405707520201251F43140BC2E50E0001205FE6002B0DD04B465B1B9C46002DF5
:2037E00000D148E50127382B00DD66E580231B041C4350E56B1C114D2B4200D073E65946A8
:20380000230011438A46034300E66707C00800230743E50862E66407FF08274305095DE630
:20382000D208490711430F0002232D0956E60700A4E538008FE4C046FFFF7FFFFE070000A2
:203840000B00020070B5164D0C0382B04900002000920193240B490DDE0FA94204DD11486C
:20386000814203DD104BF01802B070BD8020400320430E4C641A1F2C08DD0D4B5B1AD84030
:2038800003005842002EEFD11800EDE7094B009A9C46030061448B40E2401343F1E7C04618
:2038A000FE0300001D040000FFFFFF7F3304000013040000EDFBFFFF70B5002816D0C31729
:2038C000C5185D40C40F280000F062F8104B1B1A5B055B0D0A2814DC02002E001532964062
:2038E0000B22121AD5402D032D0B03E000240023002500261B052B43E40723433000190055
:2039000070BD0B3885402D0300262D0BF2E7C0461E0400008446100062468C4619006346CD
:2039200000E0C0461FB500F005F9002801D40021C8421FBD10B500F049F84042013010BD65
:2039400010B500F0F7F8002801DB002010BD012010BDC04610B500F0EDF8002801DD00201E
:2039600010BD012010BDC04610B500F073F8002801DC002010BD012010BDC04610B500F0CB
:2039800069F8002801DA002010BD012010BDC0461C2101231B04984201D3000C10391B0A3A
:2039A000984201D3000A08391B09984201D30009043902A2105C40187047C04604030202C6
:2039C000010101010000000000000000F0B55746DE464E464546E0B50D000400E80F8346F8
:2039E0000903D80F090B824619488C461F0369005E00490D3F0B760D814218D086420FD067
:203A00000120B1420DD1BC450BD1944209D1D3451CD0002905D160462043431E984100E001
:203A20000120F0BCBB46B246A946A046F0BD01208E42F6D1614639430F0017432743F0D1CF
:203A40005B465246981A431E9841EAE70020E8E7FF070000F0B557464E464546DE46E0B561
:203A60000D000E034900490D8A46DF0FE90FBC4683B02F4F04008046019158001903914679
:203A8000360B090B400DBA451DD0B8420DD05746002F2AD13443002824D10A4336D0002CE7
:203AA00041D163465800013815E0114338D15346002B01D12643F4D0019B634507D1019BED
:203AC0005800013807E026432AD1504521D00120019B5F42384303B0F0BCBB46B246A94664
:203AE000A046F0BD002CDCD0E6E70028EFD0019B6345ECD18245EADCE1DB8E42E7D8DED11F
:203B0000C845E4D80020C845E5D2D8E7002CE2D0DDE7114304D1019B6345D8D10020DAE7A0
:203B200002204042D7E7019B6345E6D0CFE7C046FF070000F0B557464E464546DE46E0B54D
:203B40000D000E034900490D8A46DF0FE90FBC4683B02E4F04008046019158001903914699
:203B6000360B090B400DBA451ED0B8420DD05746002F27D13443002833D10A4334D0002CFB
:203B800040D163465800013815E0114312D15346002B01D12643F4D0019B63451DD0012099
:203BA000019B5F42384306E0264303D15045F6D111431CD0022003B0F0BCBB46B246A94625
:203BC000A046F0BD0028EAD0019B6345E7D18245E5DC02DB8E42E2D80ED0019B580001387A
:203BE000E9E7002CCDD0D7E7002CE4D0D7E7019B00206345DFD0D2E7C845D0D80020C84522
:203C0000D9D2EAE7019B6345E4D0C8E7FF07000005490B78054AAA20D054981C087001330D
:203C2000DBB25521D15470474C0100205001002005490B78054A5520D054981C08700133AE
:203C4000DBB2AA21D15470474C01002050010020030002780020AA2A00D070475A78552A09
:203C6000FBD15A18013A1278AA2AF6D15B18023B1878553843425841C0B2EEE730B5411836
:203C800003390D78C3781B02827813435C1E012B0EDD00230022C11809795218D2B2013368
:203CA0009BB2A342F7DBA81A43425841C0B230BD0022F8E770B505000C0004290FD9FFF77F
:203CC000C7FF03000020012B00D070BD21002800FFF7D4FF013843425841C0B2F5E70020FB
:203CE000F3E710B50400002909D000230020E25C8018C0B201339AB29142F8D810BD002084
:203D0000FCE7000010B5837901338371C3790133C371054B1B78012B02D001F08FFC10BD09
:203D200001F030FCFBE7C046C500002010B501F029FC10BD10B501F025FC10BD10B502483E
:203D4000092101F01FFC10BDC800002030B5124B1B78DAB2002B1ED1104B002119700E4B9F
:203D600001311970C3781B0281780B43022B12DD0A4C0B4D2378D9B20133DBB2237083180A
:203D80005B796B540132D2B2C3781B0281780B43023B9A42EEDB30BDA6030020A7030020D8
:203DA000A803002010B50379013B0371CA1E835C013B835401F042FC10BD10B503790133FC
:203DC0000371CA1E835C0133835401F0DBFB10BDF0B5C64600B580460F0016001E4A00232D
:203DE00015001370F41CA4B2FFF712FF2B781B4AD454591CC9B2240A5454991CC9B2012077
:203E000050541C1DE4B22C700333DBB24146D154002E0BD0002320000134E4B2FD5C15544B
:203E20000133DBB2B342F6D30B4B1C700A4E3578291F89B20A4C2000FFF753FF043C6055E6
:203E400001353570FFF7F4FE3178200001F09AFB80BCB846F0BDC0464C0100205001002085
:203E60005401002010B503490122F920FFF7B0FF10BDC046A503002010B503490122FA20F2
:203E8000FFF7A6FF10BDC046C400002010B503490222FB20FFF79CFF10BDC046C20000203A
:203EA00070B588B06B46DC1DD87101F0C7FE05002378862B01D008B070BD01222100FF2092
:203EC000FFF786FF0A2001F0BFFE224E300003F0B5F933680124A3433360EFF3108284F32A
:203EE0001088336820218B43336082F310881022002104A803F04CFA174B5A6B22435A635F
:203F00005B6B23400293029BC0230393059403A9124802F06DF8114CFA26B60004E001F0CF
:203F20008DFE401BB0420BD84021200002F04CF90028F4D18021200002F046F90028EED148
:203F4000BFF34F8F064B074ADA60BFF34F8FC046FDE7C04600380140001002400004005056
:203F600000ED00E00400FA0510B584B0040010220021684603F00CFA0122012C05D969469D
:203F8000F820FFF725FF04B010BD01236A461370002C0BD10B4B1A7869464A705A788A70F2
:203FA0009A78CA70DB780B710522E8E700230548C15C1A006A44517001330C2BF8D10D2277
:203FC000DDE7C04698030020084A53681B0C1B04902149000B43536013682039FF390B43B4
:203FE0001360034A13680B431360704758000240002C0140F0B5D6464F464646C0B582B07E
:20400000814601AC0191554D2B78DBB298462078FFF752FC06000F004046FFF74DFC002212
:204020004F4BFEF705FA02000B0030003900FEF717FDFEF7DFF9C3B298462B78DBB29A4643
:204040006078FFF739FC06000F005046FFF734FC0022434BFEF7ECF902000B00300039008C
:20406000FEF7FEFCFEF7C6F9C6B22F78FFB2A078FFF722FC04000D003800FFF71DFC002227
:20408000374BFEF7D5F902000B0020002900FEF7E7FCFEF7AFF9C2B2324B1B78002B1BD076
:2040A000314B1B784344191C9BB2FF2B00D9FF21CBB298462C4B5B78F3181E1C9BB2FF2B64
:2040C00000D9FF26F6B2284B9B78D3181A1C9BB2FF2B00D9FF22D2B24B4658004844C00069
:2040E000224BC018072101251A2433000B412B405F427B415B42A3433433037001300139E0
:20410000F3D24B4658004844C000194C0419072101261A2543460B4133405F427B415B4253
:20412000AB433433237001340139F3D2114BC018072101251A2413000B412B405E42734185
:204140005B42A3433433037001300139F3D202B0E0BCBA46B146A846F0BDC046A403002025
:204160000000594054020020940300206C020020740200207C02002010B5204B5A68120CA7
:204180001204902149000A435A601D4CDC601D4A9A601D4A80214902516080218902516021
:2041A0001A6802210A431A60184BD968802292000A43DA60596C802212020A435A645A68EC
:2041C00008218A435A601A6A07390A431A6200210020FFF70FFF00210120FFF70BFF2300F8
:2041E000303348340021197001339C42FBD1FFF7EBFE012001F028FD10BDC04658000240D5
:204200006C020020342C014000000240002C014010B500281ED00022052909D00F4B012140
:2042200019700F490A7001222020FFF7D1FD10BD0278002A10D14378012BEFD1094A8178B7
:204240001170C178517001799170074A012111701A00E3E70022E1E70022DFE75602002046
:20426000580200208C0300205502002010B5002801D002290CD0134B01221A70124B00224F
:204280001A70104B1A7810492120FFF7A1FD10BD0378002BEFD141780A4B01221A700A4B36
:2042A0004A1E504242411A700129EAD1074A11785970517899700349042008709278DA7061
:2042C000DFE7C04656020020580200208C03002010B5040064281CD8002912D1124B1B782C
:2042E000DBB2A34204D0104B1C70104B01221A700F4B01221A700F490A702220FFF768FD13
:2043000010BD01F047FCA042E8D0200001F002FCE4E7074B01221A70064900230B702220FA
:20432000FFF756FDECE7C046A403002055020020560200205802002010B5054B01221A7069
:20434000044B1B7804490B702320FFF741FD10BD56020020A40300205802002010B53D4B69
:204360001B78002B00D110BD01F068FC3A4B1B78002B4ED0394B1B68C31A092B49D9374B6F
:204380001860374B1B78012B15D0354B1B78022B31D0334B1B78032B1AD12F4B1B78314C8A
:2043A000013B1802C01A6321FDF738FFA0700022227062700CE0284B1B782A4C013B1802CA
:2043C000C01A6321FDF72AFF207000226270A270214A1378013BDBB213701378002B06D1FD
:2043E000204B00221A705A709A701D4B1A701E4B01221A7013E0184B1B781A4C013B180225
:20440000C01A6321FDF70AFF607000222270A270DEE7154B154A1B7812781343A3D0144CE1
:2044200021680020FFF7E6FD21680120FFF7E2FD104B1900183100221A7001339942FBD137
:20444000FFF7C2FD094A00231370024A1370064A137088E7C00000208F0300205002002099
:20446000900300209403002054020020550200208C0300209C02002000B583B0144A916B36
:20448000012319439163926B13400193019B114BC22292009858104908408021C901014316
:2044A000995080218900196098580C4908408021C90301439950F8321A60002201210B2036
:2044C00001F0E6FB0B2001F015FC03B000BDC0460010024000E100E0FF00FFFFFFFF00FF5A
:2044E00000B589B01022002104A802F051FF0C4B596B012211435963596B114001910199FE
:20450000586B0221084358635B6B19400291029B0392059203A9034801F06AFD09B000BD6F
:204520000010024000040050084B094A1A60094A1A6002225A60084A9A6019000722CB6849
:204540001A42FCD1014B054A1A60704700300040CCCC000055550000FF0F0000AAAA000052
:2045600082B080239B050C480C4A99181A000433096811608342F7D1094A116C012319435B
:204580001164126C13400193019B064A136803210B43136002B07047C0000020002000E8A4
:2045A000001002400000014010B501F0F9FA094B187001F0EFFAFF2804D001F0EBFA064BE7
:2045C000187010BD044B28221A701878C0B201F0A1FAF6E7A5030020A403002070B501F053
:2045E00045FB050001F048FB040001F04BFB024B1D605C60986070BD9803002000B593B0A9
:204600003822002104A802F0C3FE10220021684602F0BEFE8020800001F0DCFD0A23049363
:20462000F633079300230893402209923F3A0A9201320B920C920D9308330E9380239B02BD
:204640000F93C023DB04109380239B05119304A801F0F2FD00280ED107230093053B019348
:204660000023029303930221684602F0D3F8002803D113B000BD72B6FEE772B6FEE70000C8
:2046800070B5FFF76DFFFFF78FFFFFF7A7FF01F0B5FAFFF7B3FFFFF723FFFFF7EDFE00F042
:2046A00033FD00F097FEFFF73FFF00F01BFC00F035FB00F053FC00F08FFCFFF75DFD01F0EF
:2046C00087F9012001F0C0FA474B02256D421D61DA6801242243DA601A6822431A60012020
:2046E00001F0B2FA414B1D61DA682243DA601A6822431A60012001F0A7FA3D4B1D61DA68D6
:204700002243DA601A6822431A60012001F09CFA384C394E250023E0222B30D00BD8202B43
:204720000ED0212B13D1354B19780139C9B23448FFF79CFD0BE0232B09D1FFF7FDFD06E0B1
:204740002E4B19780139C9B22D48FFF761FD00232B7001F059F9FFF701FE2A4B2A4A1A6078
:204760002378012BF5D13378DBB2E02BD4D91F33DAB21E2AEBD89300244AD3589F461E4B59
:204780005878C0B29978C9B2FFF7A2FDDFE701F043F9DCE7194B19780139C9B2184801F005
:2047A0007BF9D4E701F0A6F9D1E7134B5878C0B201F042F9CBE701F065F9C8E70E4B5878DD
:2047C000C0B2FFF7D1FBC2E7FFF74CFBBFE7FFF753FBBCE7FFF75AFBB9E7074B5878C0B2B3
:2047E000FFF75EFBB3E7C046002000400048014000440140A6030020A8030020A7030020FE
:20480000A903002000300040AAAA00006874000872B6FEE700B583B00D4B196C01221143DB
:204820001964196C0A400092009ADA6B802149050A43DA63DB6B0B400193019B002201213D
:20484000032001F025FA032001F054FA03B000BD00100240FEE7FEE77047704710B501F013
:20486000E1F910BD10B501F06FFA10BD7047000070B5244B1B689B063FD5224B20225A60B9
:20488000214A136801218B43136072B61F4BC22292009B5C002B0ED01C4C1D4D605D013007
:2048A0000231FDF7A1FDC9B26155C2229200A35C013BDBB2A354154BC22292009B5C002BD5
:2048C0001CD01249124BCB5CDC011A1952008A180132FF3210881B195B005B180A4AD36084
:2048E00053681B0C1B0403435360136801210B431360084B00221A7062B670BD054B0122A9
:204900001A70F9E7000002401C000240B80F002006030000C700002070B5304B1B689B04F4
:2049200040D52E4B802292015A602D4A136801218B43136072B62B4BC22292009B5C002B6F
:204940000ED0284C284D605D01300231FDF74CFDC9B26155C2229200A35C013BDBB2A354CC
:20496000204BC22292009B5C002B32D01D491E4BCB5CDC011A1952008A180132FF3210883C
:204980001B195B005B18164AD36053681B0C1B0403435360136801210B431360134B0022AA
:2049A0001A7062B60D4B1B689B0311D50B4B802252025A60802292025A600D490A68012314
:2049C0009A430A600B490A689A430A600A4A137070BD064B01221A70E3E7C046000002406F
:2049E00044000240AC0C002006030000C600002058000240002C0140C000002010B50E4B65
:204A00001B69DB0716D50C4B022252421A610B4C2378013B23700A48092100F0B3FD237843
:204A2000002B07D1044BDA6801218A43DA601A688A431A6010BDC04600200040DD000020C0
:204A4000D40000200C4B1B69DB0714D50A4B022252421A61094B1B78002B0CD1074B0121D1
:204A60001970074BDA680A43DA601A680A431A60044B03221A70704700440140C50000202A
:204A800000200040DD00002010B5064B1B69DB0707D5044B022252421A610348092100F07A
:204AA000CDFD10BD00480140C8000020F0B5C64600B54B4BDB69DB0644D5494B1B68DB06BC
:204AC00040D5474B10221A62464B1A6801218A431A605A6880235B009B1A9BB2002B2DD01B
:204AE00041490C78E4B20A780132012002400A70097849023D4A89183A4AD1605168090C09
:204B0000090480256D0029435160116801431160EFF3108580F3108831498A683F30024389
:204B20008A6085F31088082B0CD964022F4AA418E7183E00093EB4420AD903E0294A13689A
:204B40000B43136080BCB846F0BD0134B442F9D82378AA2BF9D16378552BF6D1E2781202E7
:204B6000A3781343FA2B1BD806339DB2082D17D963199846BB42E5D8023B1B78552B11D1B9
:204B80004346013B1B78AA2B0CD16379FD2B0BD0FE2B0DD129002000FFF7B4F84446D5E7F4
:204BA0000134D3E70134D1E7FFF7C8F84446CDE72379012B05D029002000FFF7F3F84446D4
:204BC000C4E729002000FFF775F8012801D04446BCE729002000FFF7B9F84446B6E7C0463A
:204BE0000038014008000240A9040020AC080020F8B5434BDB69DB0646D5414B1B68DB06E6
:204C000042D53F4B10221A623E4B1A6801218A431A605B6880246400E41AA4B2002C2FD087
:204C2000394A1078C0B21378013301210B40137012785202354BD218324BDA605A68120C69
:204C4000120480256D002A435A601A680A431A60EFF3108581F31088294A93683F310B430D
:204C6000936085F31088082C0ED94002274BC01804192500093DA84206D88026760007E037
:204C8000204A13680B431360F8BD0130A842FBD80378AA2BF9D14378552BF6D1C3781B0257
:204CA00081781943B1421AD8063189B2082916D94718A742E8D83B00023B1B78552B10D1B4
:204CC0003B00013B1B78AA2B0BD14379FD2B0CD0FE2B08D0FC2B0FD0FFF76FF805E00130DF
:204CE000D4E70130D2E7FFF721F80023084A5362084A13703800C9E7FFF71CF8F5E7C0462D
:204D00000044004030000240A8040020AC04002000440140C500002070470000F0B5CE4627
:204D2000474680B5ADB01422002127A802F030FB202200211FA802F02BFB3022002113A8A1
:204D400002F026FB242200210AA802F021FB80239B03099309A801F031FE002800D0A8E0EB
:204D60001822002103A802F013FB534E336C8022120113433364336C13400293029B4F4A8E
:204D800013683F218B432B390B4313604C4B1A684C490A4010210A431A601A684A490A40F6
:204DA0001A601A6820218A431A601A6820318A431A601A688027BA433A431A601A6843492A
:204DC0000A408021490088460A431A601A6840490A401A6027A900240C804C604F238B60B2
:204DE000CC600C613B4D280001F0F6FF2B68BB432B60AB68384A1340AB60384B99461B6890
:204E0000082213434A46136060231F9320942194229423942494259426941FAA01212800C6
:204E200002F056F84B461B68042293434A4613606B68702293436B606B68294A13406B60B5
:204E4000AB68BB43AB6013941494159400236A465821521813706B465A229B181C808023E6
:204E60009B011793189419941A9480239B041B931C941D941E9413A9280002F091F9726BA5
:204E800001231A437263726B13400193019B43460393FE3B04930594069407940893A02044
:204EA00003A9C00501F090FE2DB0C0BCB946B046F0BDFFF7ADFC53E7001002401008024082
:204EC00058000240EFBFFFFFFFCFFFFFFFFCFFFFFFF3FFFF002C0140F8BFFEFF182C014031
:204EE000FFFF0FFF30B587B001AC14220021200002F04EFA144B1A6C802109020A431A64D0
:204F00001B6C0B400093009B104AC420800013581B021B0A8021C9050B43135080231B0345
:204F200013600B4B2380002363600A4AA260E360094D2100280001F04FFF2B68802213431D
:204F40002B6007B030BDC0460010024000E100E0FF180000A30600000020004030B587B0CD
:204F600001AC14220021200002F012FA144B1A6C802189020A431A641B6C0B400093009B33
:204F8000104BC520800019580F4A11408022D2010A431A50802292031A600C4B238000233C
:204FA00063600B4AA260E36023610A4D2100280001F012FF2B68802293432B6007B030BD34
:204FC0000010024000E100E0FF00FFFFFF1800002F7500000044014030B587B001AC142282
:204FE0000021200002F0D4F9134B1A6C8021C9020A431A641B6C0B400093009B0F4AC52058
:20500000800013580E490B408021C9030B43135011600C4B2380002363600B4AA260E360FA
:2050200023610A4D2100280001F0D6FE2B68802293432B6007B030BD0010024000E100E03A
:20504000FFFF00FFFF1800000F2700000048014070B5EFF31080012181F31088234A1368D0
:205060000C242343136080F31088EFF3108081F31088136804342343136080F310881C4BA0
:205080001C4898601C48007840021C4D4019D8605868000C000480256D0028435860186817
:2050A000FE3D284318601868082630431860186808431860EFF3108081F31088936838360F
:2050C0003343936080F3108814620D4B0D489860EFF3108081F310889168703421439160D1
:2050E00080F310881A682A431A6070BD003801400800024024380140A9040020AC0800200E
:205100001C00024028380140F0B5DE4657464E464546E0B59BB02022002112A802F038F9EB
:20512000182200210CA802F033F92422002103A802F02EF90123029302A801F03FFC002860
:2051400000D0C9E0664B1A6C8021C9010A431A641A6C0A400192019A5A6B02252A435A6355
:205160005B6B2B400093009B402398460C930D950E9500240F94012610961194594B9946EF
:205180000CA9180001F020FD80270C970D950E950F94109611940CA9484601F015FD524AD5
:2051A00013683F218A468B430D390B4313604F4B1A684F4989460A401A601A684D498C463E
:2051C0000A401A601A681E35AA431A601A6841468A431A601A68BA433A431A601A684648F9
:2051E00002401A601A6845498B460A401A60444A136851468B430C390B431360414B1A68CC
:2052000049460A4010210A431A601A6861460A401A601A68AA431A601A6841468A431A6097
:205220001A68BA433A431A601A6802401A601A6859460A401A60344AC621890053581B021F
:205240001B0A535080231B0513601294E1235B0213931494159416940C2317931894199476
:205260002A4C12A9200002F015F8EFF3108286F31088A368DB00DB08A36082F31088EFF39E
:20528000108286F31088A36821490B40A36082F3108823681F4A1340236063681E4A13404B
:2052A0006360A3682A229343A3602368334323602200802189038020C003D3690B42FCD070
:2052C000D3690342F9D0FFF7C3FE1BB0F0BCBB46B246A946A046F0BDFFF79AFA32E7C04632
:2052E00000100240000400500008024008000240EFBFFFFFFFCFFFFFFFFCFFFFFFF3FFFF13
:20530000040802401C00024000E100E000380140FFFFFFF1FFFFFFDFFFB7FFFF70B5EFF322
:205320001080012181F31088234A13680C242343136080F31088EFF3108081F310881368BA
:2053400004342343136080F310881C4B1C4898601C48007840021C4D4019D8605868000C8A
:20536000000480256D00284358601868FE3D2843186018680826304318601868084318607A
:20538000EFF3108081F31088936838363343936080F3108814620D4B0D489860EFF3108025
:2053A00081F31088916870342143916080F310881A682A431A6070BD004400403000024058
:2053C00024440040A8040020AC0400204400024028440040F0B5DE4657464E464546E0B53D
:2053E00091B020262022002108A801F0D1FF00240594584BDA6B802189020A43DA63DA6BB2
:205400000A400192019A5A6B01252A435A635B6B2B400093009B0423029302270397049786
:2054200006950795A023DB05984602A9180001F0CBFB082302930397049705940695079575
:2054400002A9404601F0C0FB434A13683F218A468B430B390B431360404B1A6840498946FF
:205460000A401A601A683F4988460A401A601A68B2431A601A6840218C468A431A601A685D
:205480007E37BA433A431A601A68374802401A601A6836498B460A401A60354A136851467F
:2054A0008B430A390B431360324B1A6849460A4010210A431A601A6841460A401A601A68FB
:2054C000B2431A601A6861468A431A601A68BA433A431A601A6802401A601A6859460A40CE
:2054E0001A60254BC72189005A58FF2082435A50802252051A600894E1235B0209930A9467
:205500000B940C940C230D930E940F941B4C08A9200001F0BFFE6368194A13406360A36803
:205520002A229343A36023682B4323602200802189038020C003D3690B42FCD0D369034242
:20554000F9D0FFF7EBFE11B0F0BCBB46B246A946A046F0BD001002400808024030000240A5
:20556000EFBFFFFFFFCFFFFFFFFCFFFFFFF3FFFF0C0802404400024000E100E000440040A9
:20558000FFB7FFFFF8B504000D0072B6264BC22080001B5CDBB2022B03D880235B009942B9
:2055A00001D962B6F8BD204E204FF05DC301C018400080190A00210001F016FFF35DDA0149
:2055C0009B185B00F3180133FF331D80F05D01300321FCF709FFC9B2F155C2229200B35CCC
:2055E0000133DBB2B354124B1B78002BD9D00E49104BCB5CDC011A1952008A180132FF32DE
:2056000010880B4A002515701B195B005B180A4AD36053681B0C1B040343536013680121D3
:205620000B431360BDE7C046B80F002007030000C7000020060300001C000240F8B504000F
:205640000D0072B6264BC22080001B5CDBB2022B03D880235B00994201D962B6F8BD204E48
:20566000204FF05DC301C018400080190A00210001F0BAFEF35DDA019B185B00F3180133AD
:20568000FF331D80F05D01300321FCF7ADFEC9B2F155C2229200B35C0133DBB2B354124B90
:2056A0001B78002BD9D00E49104BCB5CDC011A1952008A180132FF3210880B4A00251570AB
:2056C0001B195B005B180A4AD36053681B0C1B0403435360136801210B431360BDE7C0463F
:2056E000AC0C002007030000C600002006030000440002400D488546FFF70EFB0C480D498A
:205700000D4A002302E0D458C4500433C4188C42F9D30A4A0A4C002301E013600432A24205
:20572000FBD301F03DFEFEF7ABFFFEE700200020C000002030010020A0750008300100200C
:2057400028130020FEE710B504008188006800F03BFD237A012B04D00138431E9841C0B225
:2057600010BD013843425841C0B2F9E710B5040001608280002B11D006300622190001F013
:2057800033FE002323736373A3736361A361E37323746374E3612362636210BD0123837134
:2057A0000023C371037214334381EAE7C16102624362704700230373437383734361836192
:2057C000C3730374704770B5002909D00D784C788A788B888571C47102724381FFF7EAFF9E
:2057E00070BD10B501234374FFF7E4FF10BD10B500234374FFF7DEFF10BD000070B50400CE
:20580000437C0025002B01D0280070BD00F016FA06002000FFF797FF03003A4909788142D7
:2058200010D039490978814203D0384A1660364A1070364A1268B21A61898A4204D3314A29
:20584000137001E0304A10702E4B1B78002B12D1227B012A2AD0002A37D1E57B002DD3D0AC
:205860002B4AA1794900895AA269022D32D0012D38D01D00C8E7237B002B26D101332373A5
:205880006661002323746369F31A224AE17949008A5A00259342B7D3012323740023E37303
:2058A000636A002B2BD098470335ADE700222273227C002AD1D161896269B21A9142CCD237
:2058C000E27B0132E273A661C7E7237C0025002B9AD1D8E70023E373236A002B00D193E799
:2058E000984791E7B21A914201D91D008CE70023E373E369002B00D186E7984784E70325A8
:2059000082E7C046C8120020E4000020C4120020547500084475000800B583B06B46991D43
:2059200002230B800222E020FEF752FA064B01221A70064B63321A70054B9B321A7000221B
:205940005A709A7003B000BD900300208F0300209403002000B583B06B46991D01230B80E9
:205960000222E020FEF734FA064B03221A70064B61321A70054B00221A705A70FF329A7071
:2059800003B000BD900300208F0300209403002000B583B06B46991D00230B800222E0205A
:2059A000FEF716FA074B02221A70074B62321A70064B00221A70FF225A7000229A7003B0AB
:2059C00000BDC046900300208F0300209403002010B5074B074C012207492000FFF7C6FE31
:2059E000064B074A07492000FFF7E0FE10BDC046E8000020E0120020000400501959000806
:205A0000555900089159000810B50248FFF7F6FE10BDC046E012002000B583B00548FFF7D5
:205A200092FE6B46D91D08700122E120FEF7D0F903B000BDE012002010B50023012806D963
:205A40000D490B700122E420FEF7C2F910BD0B4B1B7883420DD0094B1870002804D108481D
:205A6000FFF7BFFE0123EBE70548FFF7C0FE0123E6E70123E4E7C046CC120020E500002093
:205A8000E012002010B503490122E520FEF7A0F910BDC046E500002010B50023022906D06C
:205AA00011490B700122E220FEF792F910BD002815D00278092AF3D840780728F0D80B4B15
:205AC0001B78934203D1094B5B78834209D007490A7048700648FFF776FE0123E0E700237D
:205AE000DEE70123DCE7C046CC120020E8000020E012002010B50549054B1A780A705B789A
:205B00004B700222E320FEF763F910BDCC120020E8000020F0B5C64600B586B0804672B6F5
:205B2000194B18685968194D054043461A0215430F0000230193023302931D3304931E3B48
:205B4000059300F061F901A902A800F003FA00F0DFF90D4E00F058F92A003B003100012007
:205B600000F0A0F9040000F0D3F9002CF2D162B6074B18784346181A43425841C0B206B0F2
:205B800080BCB846F0BDC04600F80008FF00FFFF01F80008014B1878C0B2704701F8000814
:205BA000014B1878C0B27047FF1F000870B504000F4B19780120002900D170BD0D4DFA20EA
:205BC0008000FCF7A1FA01002868FCF79DFA00F09DF803000120002BEFD1032CEDD80022F2
:205BE0002100404200F054F8034B1C600020E4E7EE000020E0000020F000002010B5084ADC
:205C0000116880235B000B4313600320FFF7CEFF041E02D00124200010BDFEF7FBFDFAE792
:205C200000200240034A1168034B1B785B1813607047C04608130020EE000020014B1868A3
:205C40007047C0460813002070B50400FFF7F6FF0500631C02D0044B1B78E418FFF7EEFF21
:205C6000401BA042FAD370BDEE000020014B18687047C0469075FF1F014B18687047C046AA
:205C80009475FF1F014B18687047C0469875FF1F70B5002814DB8408A400144B9C466444D4
:205CA000C026B600A55903220240D200FF2318009040854389010B4093402B43A35170BD08
:205CC0000F230340083B9B089B00094A94466344DC6903221040C000FC3215008540AC4389
:205CE00089010A4082402243DA61E8E700E100E000ED00E0002805DB1F220240012393408F
:205D0000014A13607047C04600E100E0013880235B0498420FD2094A50600948036A1B0273
:205D20001B0AC02109060B4303620023936007331360002070470120FCE7C04610E000E027
:205D400000ED00E07047704710B52A4B1B692A4A13402A4A9268510721D5284A1469002BAD
:205D60002AD1244B1B69DB070CD5224B01221A61224B9B68022B2CD0204B00229A60200027
:205D8000FFF7E0FF1D4B9B68002B07D1194A53691B490B405361194B00221A7010BD154804
:205DA00041699143416117490A4202D0134AD468D5E7124A5469D2E7104A51680B4353600A
:205DC0000C4B0D491961002393602000FFF7BBFFC7E70A4A9369013B9361002B03D1074B37
:205DE00000229A60CBE7516901315161106900F0A1F8C4E700200240FAC300000C1300202C
:205E0000FFFFFFFC01000400064B5B690020002B00DB7047034B044A9A60044A9A605869F3
:205E2000C00FF6E70020024023016745AB89EFCDF8B50400FFF702FF0700164E80256D026D
:205E400033692B4208D0631CFAD0FFF7F7FEC01BA042F5D303201CE00E490A690E4B150051
:205E60001D400E4808611A420ED10E008025ED0233692B420CD0631CFAD0FFF7DFFEC01B4D
:205E8000A042F5D3032004E0054B5D60012000E00020F8BD00200240FAC30000FBC3000091
:205EA0000C130020F8B506000F0014001D00164B1B78012B26D0144B01221A7000225A60B2
:205EC000FA208000FFF7B4FF00280DD1012E0FD02100380001F0A0FAFA208000FFF7A8FF50
:205EE0000A4A5369B3435361074B00221A70F8BD064A536901210B4353613C60BFF36F8FB9
:205F00007D60E9E70220F2E70C1300200020024010B5FA208000FFF78BFF054B59698022A5
:205F200012060A435A615869C043C00F10BDC04600200240044A5369C900044803401943BB
:205F4000034B0B43536170470020024007E0FFFF02000100F8B504000E00224B1B78012B05
:205F60003DD0204B01221A7000225A60FA208000FFF75EFF00282ED1042363602368042B68
:205F800019D001235B423360A568E368EB189D421CD2FA27BF0060682900FFF7CBFF3800D3
:205FA000FFF746FF002810D10135A368E2689B18AB42F0D80AE00C4A51690C4B0B43536157
:205FC000FA308000FFF734FF05E03560064A536902218B435361034B00221A70F8BD0220F2
:205FE000FCE7C0460C1300200020024004000100F0B5DE4657464E464546E0B583B00F684E
:20600000002F00D1D1E0002200230124A0460234694DAB4652E0876825009540AF43B94696
:20602000CF6897404D462F4387604768B7434E68360945462E409E403E4346604AE000267A
:206040005546AE404D462E433E665D462D68AA466546ED4301954D6880267603354200D05B
:2060600094E05646019D2E405D462E606D68AA464D688026B603354200D08BE05646019D0E
:206080002E405D466E608426AE594D68AD0300D584E0019D2E4084255F467E518026BE59EC
:2060A0004D68ED037DD4019D2E4080275D46EE5101330F6802323E00DE4076D046469E406A
:2060C0003D003540AC463742F2D04F682740013F012FA0D94E682640032E22D0C768260046
:2060E0009640B7438E6896403E43C6604E682640022E16D1DE08B600851901952D6AAA46D3
:2061000007271F40BF000F25BD40A94655464E46B543AA460D69BD402F0055462F43019DAF
:206120002F62076826009640B7434E68264096403E4306604E68C025AD022E42B8D09F08A7
:20614000BF001D4DA9464F443D6E019525001D40ED00AA460F255646B540019EAE43B146A8
:20616000A025ED05A84200D169E7144EB04209D0134EB04208D0134D4619751EAE4176004E
:2061800003365DE701265BE7022659E7654656462E4369E7654656462E4372E765462E437C
:2061A00079E7654635432E007FE703B0F0BCBB46B246A946A046F0BD001802400004005040
:2061C0000008005000F4FFAF00690840431E9841C0B2704710B5020013490B68134803407D
:2061E00013430B6080239B0000209A4200D010BD0F4B1B685800C01840000E49FBF784FFEE
:206200000130094B5B695B050AD507498022D20001384B69134205D00028F9D10320E6E739
:206220000020E4E70020E2E700700040FFF9FFFFE000002040420F00F0B5CE46474680B5D8
:2062400083B0041E00D146E20368DB0738D5C74A916838230B40D268102B26D0082B27D051
:2062600063688022520293427AD0A022D20293427DD0BE4B1A68BE490A401A601A68BD49A8
:206280000A401A606368002B7DD0FFF7D7FC0500B64F8026B6023B68334211D1FFF7CEFC0C
:2062A000401B6428F7D9032016E2D2439207D7D1AE4B1B689B0303D56368002B00D110E20B
:2062C00023689B072AD5A94A916838230B40D268102B68D0002B6BD1A44B1B685B0500D545
:2062E00022E2A2494A6863691B02A348024013434B609E4A1368A1490B4021690B43136003
:2063000013689F499B045B0F9E4ADA400A609E4B1868FFF74BFC002800D0E4E123681B0795
:2063200000D48BE0914B9A6838231340182B7DD0A369002B00D1C4E08C4A136E01210B438F
:206340001366FFF77BFC0500884F02263B6E1E4274D1FFF773FC401B0228F7D90320BBE18C
:20636000824A116880235B020B4313608AE77F4B19688022D2020A431A60196880225202A7
:206380000A431A607EE7FFF759FC0500774F8026B6023B68334293D0FFF750FC401B6428B9
:2063A000F7D9032098E10D3B1340022B00D1ABE1E368002B24D06D4A136870490B40216922
:2063C0000B431360116880235B000B431360FFF735FC0500654F8026F6003B68334206D159
:2063E000FFF72CFC401B0228F7D9032074E15F494A6863691B026048024013434B608DE710
:206400005A4A136861490B401360FFF717FC0500564F8026F6003B68334200D17EE7FFF762
:206420000DFC401B0228F6D9032055E14F4B1B6E9B0703D5A369002B00D156E123685B07DD
:2064400000D4ACE0494B9A6838231340202B4CD0464BDB6B00229146DB000BD4434BDA6BD4
:20646000802149050A43DA63DB6B0B400193019B01239946464B1B68DB053FD5A368012BA0
:2064800052D0052B56D0394BDA6D01218A43DA65DA6D03318A43DA65A368002B54D0FFF7B4
:2064A000CDFB0600314B984602273A4D4346DB6D1F4271D1FFF7C2FB801BA842F6D9032066
:2064C0000AE12A4A136E01218B431366FFF7B6FB0500264F02263B6E1E42AFD0FFF7AEFB03
:2064E000401B0228F7D90320F6E0204BDB6D9B0755D5A368002B52D10120EDE0244A1168A1
:2065000080235B000B431360FFF798FB0600204D80277F002B683B42B0D1FFF78FFB801BEE
:206520000228F7D90320D7E0104AD36D01210B43D365B1E70D4BDA6D04210A43DA65DA6D16
:2065400003390A43DA65A7E7FFF778FB0600074B984602270F4D4346DB6D1F421CD0FFF7AD
:206560006DFB801BA842F6D90320B5E000100240FFFFFEFFFFFFFBFFFF80FFFFFFC7FFFF21
:20658000E00000200024F400F0000020FFFEFFFF00700040881300004B46012B21D0E36993
:2065A0000020002B00D197E0664A916838220A40102A66D0022B1AD0624A136862490B4057
:2065C0001360FFF73BFB04005E4E8025AD0433682B424FD0FFF732FB001B0228F7D9032094
:2065E0007AE0584AD36B59490B40D363D7E7554A136855490B401360FFF720FB0500514F54
:206600008026B6043B68334206D0FFF717FB401B0228F7D903205FE04A4AD168236A606A49
:2066200003434B4801400B43E16A0B43216B0B43616B0B43A16A09020B43D36011688023B2
:206640005B040B431360D16880235B050B43D360FFF7F4FA04003B4E8025AD0433682B428E
:2066600006D1FFF7EBFA001B0228F7D9032033E0002031E0334AD36836490B40D360002017
:206680002AE0012B33D02F4BDA6803231340216A01208B4220D170231340616A8B421BD1B8
:2066A000FE21C9011140A36A1B02994214D1F8239B031340E16A8B420ED1E0231B0513403D
:2066C000216B8B4208D1530F5B07626B9B1A5A1E9341D8B200E0012003B0C0BCB946B04647
:2066E000F0BD0120F8E70120F6E70120F4E70120F2E70120F0E713494A6863691B021648AC
:20670000024013434B6002E60E4B1B685B05F2D5E368002BEDD00B494A6863691B020E48D3
:20672000024013434B60F2E5E3680120002BD3D004494A6863691B020748024013434B608B
:20674000D7E5C04600100240FFFFFFFEFFFFFFEF8C80C111FCFFFEEEFF80FFFF10B5294BC3
:206760009B6838221A4206D1264B1B689B045B0F2548D84010BD234B9A6838231340082BE9
:206780003AD0204B9A6838231340102B14D01D4B9A6838231340202B30D01A4B9B68382092
:2067A00018401838431E98414042184B1840FA23DB019C466044DDE7124AD368D168490658
:2067C000490F0131DB439B070ED00E4BDC686404640E0D48FBF798FC60430A4BD968490FAE
:2067E0000131FBF791FCC5E7D4686404640E0848FBF78AFC6043F0E70548BBE78020000253
:20680000B8E7C046001002400024F4000083FFFF00127A00F8B5CE46474680B504000D00C8
:20682000002800D1B6E05D4B1A68072313408B4221D323689A070ED55B0705D5584A91687B
:20684000E023DB010B439360554A936855490B40A1680B4393602368DB075BD56368012BB7
:2068600023D0022B42D0002B46D14D4A1268520520D4012070E0494A136807218B432B4365
:206880001360FFF7DBF90600444B98460727464B994643461B683B40AB42CAD0FFF7CEF9DF
:2068A000801B4845F5D9032056E03D4A1268920300D471E03A498A680720824313438B602C
:2068C000FFF7BCF90600364B98463827364B994643469A683A406368DB009A421AD0FFF782
:2068E000ADF9801B4845F3D9032035E02C4A12689201DFD401202FE0032B05D0284AD26DAC
:206900009207D7D4012027E0254A126E9207D1D4012021E0214B1A6807231340AB421FD86D
:2069200023685B0706D51E4A936820490B40E1680B439360FFF712FF194B9B681C491D4AB4
:206940001B051B0F9B009B581F221340D8400860194B1868FFF72AF9C0BCB946B046F8BD28
:206960000E4A136807218B432B431360FFF766F906000A4B984607270B4B994643461B6870
:206980003B40AB42CCD0FFF759F9801B4845F5D90320E1E70120DFE70120DDE7002002409C
:2069A00000100240FFF0FFFF88130000FF8FFFFFE000002004750008F0000020F0B5D6461F
:2069C0004F464646C0B582B00400036800209B032BD5714BDB6B00229246DB000BD46E4B53
:2069E000DA6B802149050A43DA63DB6B0B400193019B01239A46694A116880235B000B439C
:206A00001360FFF71BF90500644F802676003B68334200D0AFE0FFF711F9401B0228F6D95A
:206A200003205346012B00D18AE02368DB0706D5594A536D03218B4361680B43536523683C
:206A4000DB0606D5544A536D55490B40A1680B43536523689B0506D54F4A536D51490B40E0
:206A600061690B43536523685B0506D54A4A536D4D490B40A1690B43536523689B0606D534
:206A8000454A536D49490B40E1680B43536523685B040BD5404A536D9B009B08E1690B4391
:206AA00053658023DB05E2699A424FD023689B020BD5394A536D3E490B40216A0B435365A7
:206AC0008023DB03226A9A4247D023681B050BD5314A536D37490B4021690B4353658023F2
:206AE000DB0122699A423FD002B0E0BCBA46B146A846F0BD636A8B4245D0274BDA6D2E4985
:206B00001140DD6D802040022843D865D86D2B4D2840D865D965D20735D5FFF78FF805004B
:206B20001D4B98460226264B99464346DB6D1E4229D1FFF783F8401B4845F6D9032070E7CA
:206B4000154AD36B1F490B40D3636EE7124AD16880235B020B43D360A8E70F4AD168802380
:206B60005B040B43D360B0E70B4AD16880235B020B43D360B8E7084BDA6DC0239B001100C7
:206B800019401A42B6D1044AD36D0B490B40616A0B43D365002044E70010024000700040EE
:206BA000FFF3FFFFFFFFF3FFFFFFCFFFFFCFFFFFFFFFBFFFFF3FFFFFFFFCFFFFFFFFFEFF71
:206BC00088130000FFFFFFEFF0B5D6464F464646C0B50B68002B5AD000220124A14620E0E1
:206BE000C3689846270067437B009C46BC446346DE430B697B439A46454663469D432B0043
:206C000055461D43C5604B68022B25D004684B687B4334402343036001320B681C00D4408F
:206C200035D04E4696401C0034403342F4D04B68013B012BD4D88368270067437E00F6190C
:206C4000B3438E687E43334383604368A343CE68664333434360C3E7FF2C0CD8036A3C0043
:206C60007C43A44624016546641BA3434C696C4323430362CAE7436A240A64436443250107
:206C80002D1BAB434D696C4323434362BEE70020E0BCBA46B146A846F0BD0000054B9B6808
:206CA000054A1B051B0F9B009B581F221340D8407047C0460010024004750008054B9B681E
:206CC000054A5B045B0F9B009B581F221340D8407047C04600100240E474000810B5174BCC
:206CE0009A6838231340082B26D0102B1DD1134BDB68032018400338434258414042104B40
:206D00001840104B9C4660440C4AD368D168D4685B045B0E58434906490F0131FBF7F4F919
:206D2000610F0131FBF7F0F910BD044B1B689B045B0F0448D840F7E70348F5E70010024073
:206D400000EE85FF0024F40000127A0010B50400FFF7C4FF2060FFF7A1FF6060FFF7AEFF22
:206D6000A06010BD10B503000020032B00D010BD144B5B6D03221A40C0239B021343124ABB
:206D8000934208D0114A93420FD0114A934212D1FFF7A4FFEBE70B4B1A688023DB00100053
:206DA00018401A42E3D00B48E1E7064BD86D8007C00FC003DBE7FFF791FFFFF76FFFFFF700
:206DC0007DFFD4E7001002400200030003000300010003000024F4000368374A904247D02E
:206DE0008022D205904258D0344A90420ED0344A904256D0334A904230D0334A904223D0EB
:206E000003608B68C3620B88836240E0702293434A681343284A90422ED08022D205904262
:206E20003FD02A4A1340CA68134303608B68C3620B888362204B984227D0224B984224D08A
:206E4000214B984221D022E0204A1340CA68134303608B68C3620B88836216E01B4A134013
:206E6000CA68134303608B68C3620B8883620CE0702293434A681343144A1340CA68134302
:206E800003608B68C3620B8883620B690363436901221343436100207047702293434A686B
:206EA00013430A4A1340CA68134303608B68C3620B888362EBE7C046002C014000040040D1
:206EC000002000400044014000480140FFFCFFFF70B580235B01994200D1E7E040D8102963
:206EE00000D172E080235B00994200D1A6E0012934D1036A0125AB430362036A4468816927
:206F0000944E3140166831430226B34316693343AB4355682B43904DA84205D08F4DA8429E
:206F200002D08F4DA84212D10825AB435569AD001D4304239D4393689B002B43894D2540AA
:206F400094692543884C2540D46964002C4344608161D26842630362002070BD0120FCE768
:206F600080235B02994200D1CAE080235B03994229D1036A7D4D2B400362016A436D7C4CFB
:206F80002340146824021C437A4B194013691B050B432B40516809050B436F49884205D0AE
:206FA0006E49884202D06E49884206D1456891698902714E3540294341604465D268C265A9
:206FC00003620020C9E70120C7E7036A1026B3430362046A4568836968490B401168090228
:206FE000194320239C4313691B012343B343546824011C43584B984205D0584B984202D03E
:20700000574B984213D180239C4353699B0123434024A3439468A4011C43594B1D40936989
:207020009B002B43574D2B40D569ED001D4345608161D3688363046200208EE7036A494E06
:2070400033400362046A4568C169424B194013681943454B1C4013691B022343334054683C
:2070600024021C433C4B984205D03C4B984202D03B4B984213D1434B1C4053699B02234335
:207080003F4C23409468A4021C433F4B1D4093691B012B433D4D2B40D5696D011D434560EE
:2070A000C161D368C3630462002056E7036A364E33400362016A4568C369304C2340146822
:2070C00024021C43314B194013691B030B433340516809030B432049884205D01F498842AE
:2070E00002D01F49884204D1294929409569AD010D434560C461D2680264036200202CE7DE
:20710000036A244D2B400362016A436D224C234014681C43214B194013691B040B432B40E1
:20712000516809040B430C49884205D00B49884202D00B49884206D1456891690902154E4D
:207140003540294341604465D268816D82650362002002E78CFFFEFF002C0140004401400D
