:020000040800F2
:20000000002000204D090008110800081308000800000000000000000000000000000000FE
:2000200000000000000000000000000015080008000000000000000017080008190800084B
:200040009D0900089D0900089D090008210800089D0900089D0900089D0900089D090008AD
:20006000000000009D0900089D0900089D0900089D0900089D0900089D0900089D090008BE
:200080009D0900089D0900089D0900089D090008000000009D0900089D0900089D0900089E
:2000A0009D0900089D0900089D090008A10300089D0900089D09000800000000000000002E
:2000C00010B5064C2378002B07D1054B002B02D0044800E000BF0123237010BD4800002047
:2000E0000000000010160008044B10B5002B03D00349044800E000BF10BDC04600000000B6
:200100004C00002010160008002243088B4274D303098B425FD3030A8B4244D3030B8B42ED
:2001200028D3030C8B420DD3FF22090212BA030C8B4202D31212090265D0030B8B4219D334
:2001400000E0090AC30B8B4201D3CB03C01A5241830B8B4201D38B03C01A5241430B8B42BD
:2001600001D34B03C01A5241030B8B4201D30B03C01A5241C30A8B4201D3CB02C01A52411E
:20018000830A8B4201D38B02C01A5241430A8B4201D34B02C01A5241030A8B4201D30B02D4
:2001A000C01A5241CDD2C3098B4201D3CB01C01A524183098B4201D38B01C01A524143091B
:2001C0008B4201D34B01C01A524103098B4201D30B01C01A5241C3088B4201D3CB00C01A8E
:2001E000524183088B4201D38B00C01A524143088B4201D34B00C01A5241411A00D2014630
:20020000524110467047FFE701B5002000F006F802BDC0460029F7D076E770477047C0460E
:2002200010B50B480B4B036000230371013343710122524202612132426160328261036284
:2002400000F0D0FC002800D110BD00F0BFFAFBE7640000200030024082B0084B02689A42D0
:2002600001D002B07047064B9A6B802149010A439A639B6B0B400193019BF2E700300240ED
:200280000010024082B0054A516B022319435163526B13400193019B02B07047001002409F
:2002A00010B5064B1C680648064A074900F0DCFCC043001B43425841C0B210BDFCDF000890
:2002C00064000020FCBF00000020000806498022CB691A42FCD0044B986219004022CB6972
:2002E0001A42FCD07047C0460038014010B5184C200001F099F82368012293432360EFF3EC
:20030000108182F3108823681F329343236081F3108800230F4A13600F4A106803210140D9
:2003200011600E4901204042802408510134FF3408510B490B664B668B66CB6691690133CE
:20034000FF330B43936100F0F1FF00F029FB10BD0038014010E000E00000014000E100E01D
:200360000018024010B5FFF79BFF002807D0094B1B68094A134080229205934200D010BDA7
:20038000FFF7B4FF054B1B68024A126882F308889847F4E7002000080000FE2F04200008DB
:2003A00010B5254BDB699B0608D5234B5B6ADBB2224A1278002A02D0022A14D010BD992BF3
:2003C00003D06620FFF782FFF8E700F045FB1C4B1C4A944660441860184B02221A708820C2
:2003E000FFF774FFEAE7184801884A1C92B2028016484354012A0CD0154B9A42DED1134B69
:200400001B78012B10D0022B12D00F4B00221A80D4E70378013B012BD0D90B4B00221A80BF
:200420006620FFF753FFC9E7044B03221A70ECE7024B04221A70E8E7003801408C0000207C
:200440008800002020A107008E0000209000002008080000F0B5CE46474680B587B00023E9
:2004600005933E4B5C7824069A78120414431A791443DB781B021C43394B9C420CD9374B5C
:200480005A7912029B799B189BB2002B09D13348344A002101F090F807B0C0BCB946B046A1
:2004A000F0BD322000F0B4FC00F09EFC0028FBD102230193F8231B06E318DB0A0393012390
:2004C0000493322000F0A4FC05A901A800F032FD0028F6D180231B01E3189C4237D222007B
:2004E000083293429B415B425A4253415B42FF221340013398461C4EA31B99464B469F19D1
:2005000074782402B3781B041C4333781C43F3781B061C43357973791B021D43B3791B04C9
:200520001D43F3791B061D43322000F071FC22002B003900012000F0A5FC0028F4D1012376
:200540005B429C46E04408364346002BD6D100F0CFFC322000F05CFC99E7C04690000020D4
:20056000FF1F00080808000098000020F8B5CE46474680B500F070FA334BF530FF30186066
:200580001E00324D1F0028E0FFF7ECFE2AE000F063FA2F4B9C4660443860EFF31082012330
:2005A000994683F310882B4C2368202188468B43236082F31088FFF74DFFEFF3108289F3AD
:2005C0001088236841460B43236082F310887720FFF77CFE1D4B02221A7000F03DFA3368B4
:2005E0009842D1D82B78032BD1D0042BF5D100F033FA154B164A9446604418607720FFF7B1
:2006000065FEEFF310820123994683F31088114C2368202188468B43236082F31088FFF7A7
:2006200019FFEFF3108289F31088236841460B43236082F310885520FFF748FE0A2000F05F
:200640009DFFFFF78FFEC8E7880000208C00002020A107000038014000B587B010220021F8
:2006600002A800F0A9FF094A516B012319435163526B1A400092009AC0220192039301A9FD
:20068000034800F0A5FC07B000BDC046001002400004005010B5284A136807218B43053978
:2006A0000B431360110007220B681340022BFBD1224A1168FE330B43136011008022D20024
:2006C0000B681342FCD01D4BD9681D4A11401D4A0A43DA601968802252040A431A60D968B6
:2006E000802252050A43DA601900802292040B681342FCD0114A936813490B4093609368AA
:2007000007218B4305390B439360110038228B681340102BFBD1094A93680C490B409360CB
:200720000B4800F043FF032000F04EF9002800D110BD72B6FEE7C04600200240001002404D
:200740008C80FF1F02080020FFF0FFFFFF8FFFFF0090D00310B500F05FF9FFF79BFFFFF7D6
:2007600091FDFFF75DFDFFF777FFC82000F006FF144B1B695B0603D4124B1B691B0611D54F
:20078000FFF7F0FD00F052F8EFF31081012383F310880D4A136820200343136081F31088C0
:2007A000FFF7E4FE00F042F8EFF31081012383F31088054A10681F330343136081F31088B4
:2007C000FFF7D4FE000400500038014072B6FEE700B583B00D4B196C012211431964196C39
:2007E0000A400092009ADA6B802149050A43DA63DB6B0B400193019B00220021032000F0AE
:2008000031F9032000F060F903B000BD00100240FEE7FEE77047704710B500F011F910BDBC
:2008200010B500F081FA10BD7047000030B591B02022002108A800F0BFFE1022002104A81F
:2008400000F0BAFE3A4B5A6D03218A435A651A6C8021C9010A431A641A6C0A400192019A3A
:200860005A6B022422435A635B6B23400093009B4023029303942F4D02A9280000F094FCB6
:200880008023029303940024049405940694079402A9280000F088FC274AC621890053582C
:2008A0001B021B0A535080231B0513600894E1235B0209930A940B940C940C230D930E9436
:2008C0000F941E4C08A9200000F0DAFDEFF31081012282F31088A368DB00DB08A36081F390
:2008E0001088EFF3108182F31088A36814480340A36081F31088236812490B4023606368A8
:2009000011490B406360A3682A218B43A3602368134323602200802189038020C003D369F6
:200920000B42FCD0D3690342F9D011B030BDC046001002400004005000E100E000380140C0
:20094000FFFFFFF1FFFFFFDFFFB7FFFF0D488546FFF76AFF0C480D490D4A002302E0D45868
:20096000C4500433C4188C42F9D30A4A0A4C002301E013600432A242FBD300F025FEFFF7A4
:20098000E9FEFEE7002000200000002048000020D016000848000020B8080020FEE77047F1
:2009A00010B5084B01214942D9620022DA6219631A6399629A6259625A62FFF7F0FF00206D
:2009C00010BDC0460010024070B504000F4B19780120002900D170BD0D4DFA208000FFF7AC
:2009E00093FB01002868FFF78FFB00F079F803000120002BEFD1032CEDD80022210040422F
:200A000000F030F8034B1C600020E4E704000020000000200800002010B5084A116880236A
:200A20005B000B4313600320FFF7CEFF041E02D00124200010BDFFF7CBFEFAE700200240AC
:200A4000034A1168034B1B785B1813607047C0469808002004000020014B18687047C046DF
:200A60009808002070B5002814DB8408A400144B9C466444C026B600A55903220240D2008E
:200A8000FF2318009040854389010B4093402B43A35170BD0F230340083B9B089B00094A04
:200AA00094466344DC6903221040C000FC3215008540AC4389010A4082402243DA61E8E73F
:200AC00000E100E000ED00E0002805DB1F22024001239340014A13607047C04600E100E0CA
:200AE000013880235B0498420FD2094A50600948036A1B021B0AC02109060B430362002337
:200B0000936007331360002070470120FCE7C04610E000E000ED00E0F0B583B00C00019141
:200B200011009208032924D90026076823781B0665782D042B43E5782B43A5782D022B438F
:200B40003B60013604349642EFD303231C000C400B4215D0012C0ED0022C15D19200019BE4
:200B60009C5C24029C466244537823430268138006E00022E9E7036892000199525C1A70FA
:200B80000368186803B0F0BD9200019B9C5C24029C4662445378234301680B80036892789C
:200BA0001A70EDE7F0B583B00C00019111005208012915D90025066823881B0467883B4314
:200BC0003360013504349542F5D3C90704D5036892000199525A1A800368186803B0F0BDA4
:200BE0000022F2E710B5041E39D0437F002B25D0022363772379002B24D12368194A5A61C4
:200C00002268936818218B4393606379002B22D12368012252421A612268936860218B43CA
:200C200061690B4393602268936880218B43A1690B43936001236377002010BD0377FFF70F
:200C40000BFBD5E7E268A168200000F035F80028DBD00120F1E7236822691A61DCE7012001
:200C6000EBE7C046B71DC10470B50400022343770068836801252B438360236A022B17D090
:200C8000032B06D00020012B0FD12000FFF744FF0BE0002A07D00B0092008918226801CB4B
:200CA00010608B42FAD1236818680123637770BD2000FFF777FFF8E7F0B507000120CB07EC
:200CC00025D51F231F260125013B27D334001C400800E0400542F7D0102A19D0102A08D834
:200CE000002A0BD00120082A11D101200F2B0ED804E0182A10D10120062B08D83B685961E3
:200D000039688B681820834313438B600020F0BD072BF3D90120FAE70120F8E7102ADDD14B
:200D20000120F4E77047704710B52A4B1B692A4A13402A4A9268510721D5284A1469002BEE
:200D40002AD1244B1B69DB070CD5224B01221A61224B9B68022B2CD0204B00229A60200097
:200D6000FFF7E0FF1D4B9B68002B07D1194A53691B490B405361194B00221A7010BD154874
:200D800041699143416117490A4202D0134AD468D5E7124A5469D2E7104A51680B4353607A
:200DA0000C4B0D491961002393602000FFF7BBFFC7E70A4A9369013B9361002B03D1074BA7
:200DC00000229A60CBE7516901315161106900F0A1F8C4E700200240FAC300009C08002017
:200DE000FFFFFFFC01000400064B5B690020002B00DB7047034B044A9A60044A9A60586964
:200E0000C00FF6E70020024023016745AB89EFCDF8B50400FFF720FE0700164E80256D02C0
:200E200033692B4208D0631CFAD0FFF715FEC01BA042F5D303201CE00E490A690E4B1500A3
:200E40001D400E4808611A420ED10E008025ED0233692B420CD0631CFAD0FFF7FDFDC01BA0
:200E6000A042F5D3032004E0054B5D60012000E00020F8BD00200240FAC30000FBC3000001
:200E80009C080020F8B506000F0014001D00164B1B78012B26D0144B01221A7000225A609D
:200EA000FA208000FFF7B4FF00280DD1012E0FD02100380000F0B8FBFA208000FFF7A8FFA8
:200EC0000A4A5369B3435361074B00221A70F8BD064A536901210B4353613C60BFF36F8F29
:200EE0007D60E9E70220F2E79C0800200020024010B5FA208000FFF78BFF054B5969802291
:200F000012060A435A615869C043C00F10BDC04600200240044A5369C9000448034019432B
:200F2000034B0B43536170470020024007E0FFFF02000100F8B504000E00224B1B78012B75
:200F40003DD0204B01221A7000225A60FA208000FFF75EFF00282ED1042363602368042BD8
:200F600019D001235B423360A568E368EB189D421CD2FA27BF0060682900FFF7CBFF380043
:200F8000FFF746FF002810D10135A368E2689B18AB42F0D80AE00C4A51690C4B0B435361C7
:200FA000FA308000FFF734FF05E03560064A536902218B435361034B00221A70F8BD022062
:200FC000FCE7C0469C0800200020024004000100F0B5DE4657464E464546E0B583B00F6839
:200FE000002F00D1D1E0002200230124A0460234694DAB4652E0876825009540AF43B94607
:20100000CF6897404D462F4387604768B7434E68360945462E409E403E4346604AE00026EA
:201020005546AE404D462E433E665D462D68AA466546ED4301954D6880267603354200D0CB
:2010400094E05646019D2E405D462E606D68AA464D688026B603354200D08BE05646019D7E
:201060002E405D466E608426AE594D68AD0300D584E0019D2E4084255F467E518026BE595C
:201080004D68ED037DD4019D2E4080275D46EE5101330F6802323E00DE4076D046469E40DA
:2010A0003D003540AC463742F2D04F682740013F012FA0D94E682640032E22D0C7682600B6
:2010C0009640B7438E6896403E43C6604E682640022E16D1DE08B600851901952D6AAA4643
:2010E00007271F40BF000F25BD40A94655464E46B543AA460D69BD402F0055462F43019D20
:201100002F62076826009640B7434E68264096403E4306604E68C025AD022E42B8D09F0817
:20112000BF001D4DA9464F443D6E019525001D40ED00AA460F255646B540019EAE43B14618
:20114000A025ED05A84200D169E7144EB04209D0134EB04208D0134D4619751EAE417600BE
:2011600003365DE701265BE7022659E7654656462E4369E7654656462E4372E765462E43EC
:2011800079E7654635432E007FE703B0F0BCBB46B246A946A046F0BD0018024000040050B0
:2011A0000008005000F4FFAFF0B5D6464F464646C0B50B68002B5AD000220124A14620E0E8
:2011C000C3689846270067437B009C46BC446346DE430B697B439A46454663469D432B00BD
:2011E00055461D43C5604B68022B25D004684B687B4334402343036001320B681C00D4400A
:2012000035D04E4696401C0034403342F4D04B68013B012BD4D88368270067437E00F61986
:20122000B3438E687E43334383604368A343CE68664333434360C3E7FF2C0CD8036A3C00BD
:201240007C43A44624016546641BA3434C696C4323430362CAE7436A240A64436443250181
:201260002D1BAB434D696C4323434362BEE70020E0BCBA46B146A846F0BD0000054B9B6882
:20128000054A1B051B0F9B009B581F221340D8407047C0460010024058160008054B9B68A3
:2012A000054A5B045B0F9B009B581F221340D8407047C046001002403816000810B5174B50
:2012C0009A6838231340082B26D0102B1DD1134BDB68032018400338434258414042104BBA
:2012E0001840104B9C4660440C4AD368D168D4685B045B0E58434906490F0131FEF704FF7B
:20130000610F0131FEF700FF10BD044B1B689B045B0F0448D840F7E70348F5E700100240D4
:2013200000EE85FF0024F40000127A00194A116880235B000B43136011008022D2000B6804
:201340001342FCD0134B5968134A11408022D2010A435A6000229A600132FF321A60190010
:20136000802292020B681342FCD10A4B802252001A601900802292040B681342FCD1054BA9
:2013800080225201DA6000229A61013A1A6200207047C04600100240FF80FFFF10B50400D5
:2013A000FFF78CFF2060FFF769FF6060FFF776FFA06010BD10B503000020032B00D010BD23
:2013C000144B5B6D03221A40C0239B021343124A934208D0114A93420FD0114A934212D166
:2013E000FFF76CFFEBE70B4B1A688023DB00100018401A42E3D00B48E1E7064BD86D8007B5
:20140000C00FC003DBE7FFF759FFFFF737FFFFF745FFD4E7001002400200030003000300AC
:20142000010003000024F4000300104A904204D00F4A012093420CD070470E4B196B80222C
:20144000D2010A431A631A6B0B490A401A630020F2E7084BD96A802292020A43DA62DA6ABD
:2014600006490A40DA620020E6E7C046003801400044004000100240FFBFFFFFFFFFFDFF9F
:2014800070B584B004000D0003680120DB0724D422688B6809690B4369690B43E9690B437F
:2014A0002F490A401343236063682E4A1340EA6813436360A3682C4A1340AA691343A36050
:2014C0002A4B9C420BD02A4B01209C422CD0E26A2B880F218A431343E36204B070BD0230C4
:2014E000FFF768FF03000120002BF0D06E68002EEDD02A6800200B2AE9D880210902E8691A
:20150000884216D01B49FF200240920051581800FEF7FAFD7308C0183100FEF7F5FD0304A5
:201520001B0CE3600020D2E701A8FFF737FF039BD9E71049FF200240920051581800FEF733
:20154000E3FD40007308C0183100FEF7DDFD0A4A024003075B0F1343E3600020B7E7C046B1
:20156000F369FFEFFFCFFFFFFFFCFFFF003801400044004098160008F0FF000082B00A4B33
:201580001B680193019B431C5A1E9341C018064980225202002804D00B681342FAD0013809
:2015A000F8E702B07047C04610E000E0014B18607047C0460000002003008218934200D129
:2015C000704719700133F9E770B500260C4C0D4D641BA410A64209D1002600F019F80A4C48
:2015E0000A4D641BA410A64205D170BDB300EB5898470136EEE7B300EB5898470136F2E7B0
:20160000C8160008C8160008CC160008C8160008F8B5C046F8BC08BC9E467047F8B5C046B5
:20162000F8BC08BC9E46704701B40248844601BC604700BF0D00002000000000000000007E
:20164000000000000000000001000000020000000300000004000000000000000000000080
:20166000000000000000000000000000000000000000000000000000010000000200000067
:20168000030000000400000006000000070000000800000009000000010000000200000022
:2016A0000400000006000000080000000A0000000C00000010000000200000004000000092
:2016C0008000000000010000E9000008C10000080024F400010000000400000030B50D4A76
:2016E00054698023DB0223435361EFF3108572B64C1CFF340B00411A1A68CA500433A3423B
:20170000FAD10449802252020B691342FCD185F3108830BD00200240FFFFFFFFFFFFFFFFCE
:20172000FFFFFFFFFFFFFFFFFFFFFFFFFFFFFFFFFFFFFFFFFFFFFFFFFFFFFFFFFFFFFFFFC9
:20174000FFFFFFFFFFFFFFFFFFFFFFFFFFFFFFFFFFFFFFFFFFFFFFFFFFFFFFFFFFFFFFFFA9
:20176000FFFFFFFFFFFFFFFFFFFFFFFFFFFFFFFFFFFFFFFFFFFFFFFFFFFFFFFFFFFFFFFF89
:20178000FFFFFFFFFFFFFFFFFFFFFFFFFFFFFFFFFFFFFFFFFFFFFFFFFFFFFFFFFFFFFFFF69
:201FE000FFFFFFFFFFFFFFFFFFFFFFFFFFFFFFFFFFFFFFFFFFFFFFFFFFFFFFFFFFFFFF01FF
:20200000002000204D5E0008594F00085B4F0008000000000000000000000000000000006B
:202020000000000000000000000000005D4F000800000000000000005F4F0008614F00087E
:202040009D5E00089D5E00089D5E0008694F00089D5E00089D5E00089D5E00089D5E0008AB
:2020600000000000714F0008754F00081D5000089D5E00089D5E00089D5E00089D5E00084B
:202080009D5E00089D5E00089D5E00080151000800000000495100088D5100089D5E000852
:2020A0009D5E00089D5E00089D5E0008B1510008E95200089D5E00080000000000000000C7
:2020C00010B5064C2378002B07D1054B002B02D0044800E000BF0123237010BD2801002046
:2020E00000000000D4810008044B10B5002B03D00349044800E000BF10BDC0460000000067
:202100002C010020D4810008002243088B4274D303098B425FD3030A8B4244D3030B8B42BD
:2021200028D3030C8B420DD3FF22090212BA030C8B4202D31212090265D0030B8B4219D314
:2021400000E0090AC30B8B4201D3CB03C01A5241830B8B4201D38B03C01A5241430B8B429D
:2021600001D34B03C01A5241030B8B4201D30B03C01A5241C30A8B4201D3CB02C01A5241FE
:20218000830A8B4201D38B02C01A5241430A8B4201D34B02C01A5241030A8B4201D30B02B4
:2021A000C01A5241CDD2C3098B4201D3CB01C01A524183098B4201D38B01C01A52414309FB
:2021C0008B4201D34B01C01A524103098B4201D30B01C01A5241C3088B4201D3CB00C01A6E
:2021E000524183088B4201D38B00C01A524143088B4201D34B00C01A5241411A00D2014610
:20220000524110467047FFE701B5002000F0F0F802BDC0460029F7D076E7704703460B432A
:202220007FD4002243088B4274D303098B425FD3030A8B4244D3030B8B4228D3030C8B421C
:202240000DD3FF22090212BA030C8B4202D31212090265D0030B8B4219D300E0090AC30B09
:202260008B4201D3CB03C01A5241830B8B4201D38B03C01A5241430B8B4201D34B03C01A41
:202280005241030B8B4201D30B03C01A5241C30A8B4201D3CB02C01A5241830A8B4201D3AB
:2022A0008B02C01A5241430A8B4201D34B02C01A5241030A8B4201D30B02C01A5241CDD2B5
:2022C000C3098B4201D3CB01C01A524183098B4201D38B01C01A524143098B4201D34B01F9
:2022E000C01A524103098B4201D30B01C01A5241C3088B4201D3CB00C01A524183088B424F
:2023000001D38B00C01A524143088B4201D34B00C01A5241411A00D2014652411046704739
:202320005DE0CA0F00D04942031000D34042534000229C4603098B422DD3030A8B4212D395
:20234000FC22890112BA030A8B420CD3890192118B4208D3890192118B4204D389013AD016
:20236000921100E08909C3098B4201D3CB01C01A524183098B4201D38B01C01A5241430930
:202380008B4201D34B01C01A524103098B4201D30B01C01A5241C3088B4201D3CB00C01AAC
:2023A000524183088B4201D38B00C01A5241D9D243088B4201D34B00C01A5241411A00D2EA
:2023C0000146634652415B10104601D34042002B00D54942704763465B1000D3404201B502
:2023E000002000F005F802BD0029F8D016E770477047C04670B500220C4B04000D0001F00F
:20240000BDFA002804D12000290001F019FA70BD064B00222000290000F008FE01F010FAE1
:2024200080231B069C466044F1E7C0460000E041F0B5DE46454657464E46E0B587B0009270
:2024400001930B031B0B9B46CA0F4B00040080465B0D029200D198E07C4A934237D059465F
:20246000420FC9000A43802109041143C2009046774A894692469A44002300240393009E9A
:20248000019F3B031B0B9B467B0030005B0DFD0F002B59D06D4A934248D05946720FC90057
:2024A0000A438021090411438B466949F2008C4651466344CB1A9A460021029E6E40F6B26C
:2024C0000F2C00D9CEE0634BA4001B599F465A460243914600D090E09A460223904608248C
:2024E0000393CCE7CB464246029D0399022900D1DEE1032900D18DE0012900D079E12E0018
:2025000000220023002490461B052343F60733434046190007B0F0BCBB46B246A946A046B3
:20252000F0BD002200249046484BEDE75A46009B1A43494B9C46E244002A59D102231C435F
:20254000002302219B46B8E75A46009B1A4349D05B46002B00D19CE1584601F019FA020046
:2025600003000B3A1D27009EBA1A19005846D64008398840320002439346009A8A40374953
:2025800053448A4600219A4497E75B460343994621D05B46002B00D169E1584601F0F8F939
:2025A0000B235B429C460200844466461D239B1B260011005846DE4008398840330003438D
:2025C000994623008B409846254B00249B1A9A460023039353E7002398469A4601330424F7
:2025E00003934CE701231C43002301219B4664E70323320003211C435FE79A460323D946D8
:202600000C2403933BE700238024984600260F4B240379E780245B4624031C4324032E0006
:2026200090460A4B240B6FE780244B462403234202D05B462342F0D080244B4624031C43D6
:202640002403029E014B240B5EE7C046FF07000001FCFFFF0082000801F8FFFFF303000075
:202660000DFCFFFFCB4500D2F8E000D1F3E001235B429C46444648460025E2445B46170E29
:202680001B021F43190C3B04120200971F0C914602910397FFF7BEFD02007A430B04210CD1
:2026A000804619438A4209D9009F0123BC465B4261449C46E0448F4200D85CE1881A02991A
:2026C000FFF7A8FD039A240442430904240C03000C43A24206D90099013B8C466444A14291
:2026E00000D842E1A01A424612041A4393464B4659461B0C1F0004930B0449460904090C84
:202700000C001B0C5C43120C7B43884651437A43270CBC465B186344994203D980214902FA
:202720008C466244190C24041B04240C8A181C19904202D316D1A54214D25B46009F013BD7
:202740004D4405934D459B41BC465B426344C018874200D302E1824200D929E100D124E1C8
:20276000059B9B462C1BA542AD41009B801A6D42401B834200D10FE10299FFF74BFD039A81
:202780000B044243210C050019438A4200D9CBE0881A0299FFF73EFD039A24044243090402
:2027A000240C03000C43A24200D9CAE04146A41A2A041A43049F13041B0C594340467B439F
:2027C0009C46150C68430B0C844463447D43984203D98020400284466544180C09041B04AA
:2027E000090C40195B18844227D323D0012335001A43944B5344002B60DD510700D086E023
:202800002E00D1085A46D20106D55A468E4B1A4080239346DB0053448C4A934200DD80E6B4
:202820005A4652070A4390465A465B055402240B5B0D69E63500002BDBD0009D511EAC4637
:202840006444AC4200D29EE0844200D2E1E000D1EEE00A00CAE7424500D908E74B46DC071C
:20286000580843465B081C434346DD0706E701F08FF815239C4684440200634620321C2BB5
:2028800000DC92E62300083883409946002398469AE601F07DF802000300153220331C2A13
:2028A00000DC5FE600990838814000228B4666E600222E0000249046654B25E62E000121C9
:2028C000C91A382900DD1BE61F297EDC6148140050445B4682408340CC40501E824123431A
:2028E0001A435B46CB40510709D00F211140042905D0111D9142924152429B180A001902DB
:2029000000D49BE00022012300249046FCE50F211140042900D173E7111D91429241524206
:202920002E00C90893446DE7009B013D9C4661448B4200D92CE78A4200D829E7851E614458
:2029400026E70099013B8C466444A14200D92DE7A24200D82AE7831E644427E7874200D08E
:20296000FEE6A94500D9FBE6F5E6A24200D8B9E6831E6444B6E68A4200D89FE6BC46831EE4
:20298000984661449AE60A00844200D02EE74B4500D02BE735002CE72A4B2F4A5344924569
:2029A00043DB0122002193442CE7AC4200D8D7E602235B429C4600994D444D459B41E344E5
:2029C0008C465B426344C018CCE61F204042C31A5846D840202904D05946204B534499406C
:2029E0000A43531E9A4107231900024300241140134209D008331340042B1DD0131D934264
:202A000089411A0049424907D2080A43904600237AE54946009F4D004D458941BC46494214
:202A20006144A946023A6418AEE70122524246E79945EED30A00AAE70021E5E759075B02ED
:202A40001C0BE1E7FF030000FFFFFFFEFE070000FF0700001E04000002FCFFFF3E0400001F
:202A6000F0B557464E46DE464546E0B51F000B031B0B16009A46CA0F4B000400914685B0BF
:202A80005B0D00D1CFE1CD4A934255D05146420FC9000A43802109041143C2009046C84A92
:202AA0008A4693469B440023002502933C037B00FA0F0196240B5B0D009200D188E1BF4AEB
:202AC000934200D192E0BE4A944663449B440A2D42DCE400730F23438024494624041C439B
:202AE000F3000193009B00205940CBB20393022D00DC94E00123AB401D00A6232A00DB006F
:202B00001A401D4200D029E290239B001D4200D14DE20023802499462403A84B10004A4614
:202B20001B052343D2071343190005B0F0BCBB46B246A946A046F0BD52460243904600D068
:202B4000ACE19B460223924608250293AEE7009BA2469946019B9846029B022B00D1CAE191
:202B6000032B00D192E1012B10D1002300240022D4E701227B083A4013435246D207134375
:202B8000984653465B089A46039B99465B46581C8023DB005B44002B00DCB1E14246520752
:202BA0000BD00F2241460A40042A06D04246111D414592418846524292445246D20106D5A7
:202BC0005246804B1A4080239246DB00C3187E4A934200DD8FE14246D108524652070A437E
:202BE00051465B054C02240B5B0D97E7734B26439C46E344002E00D16FE1032349461D43E7
:202C0000009B5940CBB203930A2D00DD33E10123AB401D000323029388222A4297D1424658
:202C200043461204120C160001981D0C030C0004000C4643B4461E006E43009616000700DB
:202C40005E436146B0466F430E0CB8444644B74205D9802149028846009F474400976146EB
:202C60000904090C370C36048C463100614401911100260C2404240C61438C46210069439D
:202C800089466146090C884672434A4442447543914503D98021490288464544110C88467A
:202CA00061460904090C8C4612046244B91802915146090C8C4651460F043F0C3900414329
:202CC00045448846614641438A4641466046090C894658437B4353444B449A4503D98021B6
:202CE000490289464844190C894641460904090C8846390061431B044344884661464C433C
:202D000071438C46414677430E0C3F19F6194844B44203D9802149028946CC440299009F08
:202D2000894631044F4489464146974292410C04240C4C44FF1852426419A1189F429B418C
:202D4000884682465B42994690459241AC42A441C244D14452426442144399459B418245B9
:202D600092415B42524213434A46360CA419E31863445B02D20D1A43019992467A020A43F4
:202D8000501E8241FF0D17434A4652021743B846DB0100D5EDE60D4B039A5B449146002B46
:202DA00000DCACE03A00520700D110E70F2258463A40042A00D0F9E609E7C046FF0700002E
:202DC00001FCFFFFFFFFFFFEFE070000FF030000220032436FD0002C00D1C2E0200000F071
:202DE000D7FD020003000B3A1D20821A30001900D04008398C400200224334008C40594670
:202E0000CB1A86498B469B440A2D00DDA4E64946009B01945940CBB2140000200393022DE2
:202E200000DD67E6FBE65346034398463CD05346002B00D1A3E0504600F0AAFD0B235B42AE
:202E40009C460200844411005046083988401D23804660461B1A2000D8400300404603432E
:202E60009A4623008B4098466C4B00259B1A9B46002302931AE60F2D00D0C9E0802352468C
:202E80001B031A4202D01C4200D192E08024534624031C4324034246240B3EE69B46032379
:202EA00080460C25029301E600239A469B46013304250293FAE501210D430A2D00DD4BE633
:202EC000494600984140C9B20391022D00DC96E000230024012001930CE649460223009A7E
:202EE0002B435140CAB203920A2B00DD34E6002D57D1039B994600240022494B0EE6584658
:202F00000121C91A382900DD2FE61F2956DD1F2254465242D31ADC40202907D0414B424632
:202F20009C465346604483401A43904642460721531E9A410B00224313400024114209D06D
:202F40000F231340042B5DD0111D91429B410A005B425B07D2081A430023DFE5039B99460F
:202F6000FAE5019800F014FD02000300153220331C2A00DC38E7019A083882403FE700F045
:202F800007FD15239C4684440200634620321C2B00DC58E7002398462300083883409A46E5
:202FA00062E71D000023002402200193A2E5029032E61C43009B019A9946AEE51A4B524679
:202FC000C31840469A40C8400243404698400300581E834154461A43CC40530709D00F2366
:202FE0001340042B05D0131D934292415242A4181A00230208D50123002400228EE589468A
:2030000000248BE50023A5E763076402240BA1E7009BA2469946019B984637E70DFCFFFFE5
:20302000FF0700003E0400001E040000F0B557464E464546DE46E0B583B0009001910C03A8
:203040004D00CE0F610A009C5F00640F0C43009900920193C80019037B0D9946019BCC4F5D
:20306000DB0F9C464B0A00998046490F1943009B8B46DA0092466D0DB94500D1BFE00123F2
:20308000614659404B468C46EB1A8E4275D0002B00DCA3E24946002900D1CEE0BD4200D1E0
:2030A00000E20127382B19DC802759463F0439438B461F2B00DDFAE12027F91A8C4659460B
:2030C0006746B9400F001100D9400F4361468A40511E8A415946D9401743641AC71BB842A8
:2030E00080414042241A230200D440E16402640A002C00D154E1200000F04AFC0300083B93
:2031000020213800CA1AD0409C4002009F4022439D4200DDA6E1581B0130091A3C008F400B
:20312000C4407B1E9F4113008B4027431F43C2403B0014000025134300D1F7E17B0700D1A0
:2031400077E30F2338003B40042B04D0381DB842BF417F42E419230200D468E38C4B0135CF
:203160009D4200D1F4E08B4B6D051C406D0D6707C00864020743240BECE0002B00DC29E3B9
:203180004946002900D0D6E05946114300D12EE1591E012B00D1E6E1BB4200D182E101278A
:2031A0000B00382914DC1F2B00DD3CE22027F91A8C4659466746B9400F001100D9400F4372
:2031C00061468A40511E8A415946D940174364183F188742804140422418230200D4C6E078
:2031E0006B4B01359D4200D1B2E00121694B7A081C4039400A43E707174364089EE7664B3D
:2032000011438A46EB18002928D066452CD0002B5BD0002D00D12CE15B4666465F07D208D1
:203220001743DD083B002B4300D1E2E0802424032C432403564D240B8CE05946114300D1B0
:20324000D5E0591E012B00D1B9E1BB4200D1B1E101270B00382900DD40E72AE761460127D3
:2032600079408C466645D2D1002B00D1C5E0002D00D055E14B462500054300D112E2591E67
:203280008C46012B00D149E2414DAB4200D18FE20127382911DC63461F2B00DD5BE261464D
:2032A000202327005B1A050098409F40CD40431E9841CC402F430743A344BF1897429241FA
:2032C00052425A4414004D4687E7344F6B1C3B4200D0B6E05946230011430F000343002D22
:2032E00000D026E1002B00D1C0E1002900D1A1E0831A98465B464045AD41E31A6D425B1B2E
:2033000080252D042B4200D14BE15B46101A824292411C1B0700012663465242A41A274341
:203320001E40002F00D142E12C4200D16DE2194B01251C401BE7BD4200D13BE10127382B1F
:2033400000DD45E7802759463F0439438B462AE7002400272D052543F607354338002900C2
:2033600003B0F0BCBB46B246A946A046F0BD7B0704D00F233B40042B00D0E7E62B00F80879
:20338000034A67070743E508934200D14AE7A5E0FF070000FFFF7FFF01F8FFFFFE07000061
:2033A000380000F0F5FA030018331F2B00DCA7E63A00083882409D4200DD8AE05B1B581CA9
:2033C0001F2800DCD8E117001F3BDF40202805D040231B1A9A40531E9A4117430025002FF8
:2033E00000D1E5E07B0700D0ABE62C00C6E7C008C6E700270024D14DACE7D14F6B1C3B42E6
:2034000071D123000343002D00D04EE15746002B00D1B5E1002F0DD08318834280415C44D9
:2034200040422418220200D5C8E11F009846274300D1BCE043466707DB081F43E50800230C
:203440004CE0831A98465B464045BF41E31A7F42DB1B1F027CD447461F4300D1A6E01C0018
:20346000474645E6B74CED1A14407B0700D080E784E74B462500054366D05F1E012B00D164
:20348000FCE0AE4DAB4200D15EE16646382F00DCB4E00120171ABA4292415B4652424D46EC
:2034A0009C1A20E66707C0080743E508BAE61F005946203FF9400F00202B05D04021CB1A78
:2034C000594699400A43924653465A1E93411F4304E6EB1A9B4D15406F07ED082C035D05E0
:2034E000240B6D0D36E7954DAB4200D1D6E08218210082428041594440420818C707520809
:2035000017434408520700D485E10F221D003A40042A00D01AE6FF08640727430509DDE7FE
:203520005B46D2085F071743DD087BE60027002410E7002B00D0D6E0002900D02FE180246A
:2035400000267E4D240305E766465C46D00817E75B46171ABA4292411C1B01266346524207
:20356000A41A1E40C4E58318834280415C44404225182A0200D4DAE0724A5B081540EA07E7
:203580001A4369085B0700D44AE10F231340042B00D1FCE0171D9742A44164420225641860
:2035A000ECE647461C001F4300D043E7002600250024CFE6C00867070743E50832E6871AEA
:2035C0005B46B8428041E41A4042241A230228D46307FF081F43E50801237FE7002B00D16A
:2035E00073E64B465F1B3B00002D00D142E7382F00DDECE080230E001B041C431F2F25DC77
:2036000020252300ED1B0100A840AB40F940451EA8410B43FC4018435B461B1B9B4639E724
:203620006646012562E51F005946203FF9408C46202B05D040275946FB1A99400A43924610
:2036400057467B1E9F4163461F43C1E53B002500203BDD40202F04D04023DB1B9C40204310
:2036600080464046431E9841284313E700299DD0012663465C4690461E40DBE6171A5B4690
:20368000BA4292411C1B5242A41A2302C8D46307FF081F4366460123E5081FE71D0000243A
:2036A000002757E65C46D0086AE6002B00D137E75346C00867070743E508002B00D1B1E52A
:2036C00080231B031D4208D05946C808184204D1D20849070A43170005007B0FFF00FF0831
:2036E0005B071F439EE5C00863071843E508002953D080231B031D420AD05946CC081C42F2
:2037000006D1012663462500D008490708431E40470FC000C0087F07074383E58318934286
:2037200092415C445242A5182A0200D524E76F07DB081F43ED080123D0E6C046FF07000023
:20374000FE070000FFFF7FFF5B46D2085F0766461743DD0866E52500203BDD406346202B40
:2037600005D0402361465B1A9C402043804647467B1E9F412F43A0E520210027091AD2E4B2
:20378000002F00D113E75C4617000025F6E5D708490702230F432D09A0E6070042E55B4645
:2037A00001265F07DD086346D20817431E4039E55B46D2085F071743DD0833E51E4ADB08BB
:2037C00022405707520201251F43140BC2E50E0001205FE6002B0DD04B465B1B9C46002DF5
:2037E00000D148E50127382B00DD66E580231B041C4350E56B1C114D2B4200D073E65946A8
:20380000230011438A46034300E66707C00800230743E50862E66407FF08274305095DE630
:20382000D208490711430F0002232D0956E60700A4E538008FE4C046FFFF7FFFFE070000A2
:203840000B00020070B5164D0C0382B04900002000920193240B490DDE0FA94204DD11486C
:20386000814203DD104BF01802B070BD8020400320430E4C641A1F2C08DD0D4B5B1AD84030
:2038800003005842002EEFD11800EDE7094B009A9C46030061448B40E2401343F1E7C04618
:2038A000FE0300001D040000FFFFFF7F3304000013040000EDFBFFFF70B5002816D0C31729
:2038C000C5185D40C40F280000F062F8104B1B1A5B055B0D0A2814DC02002E001532964062
:2038E0000B22121AD5402D032D0B03E000240023002500261B052B43E40723433000190055
:2039000070BD0B3885402D0300262D0BF2E7C0461E0400008446100062468C4619006346CD
:2039200000E0C0461FB500F005F9002801D40021C8421FBD10B500F049F84042013010BD65
:2039400010B500F0F7F8002801DB002010BD012010BDC04610B500F0EDF8002801DD00201E
:2039600010BD012010BDC04610B500F073F8002801DC002010BD012010BDC04610B500F0CB
:2039800069F8002801DA002010BD012010BDC0461C2101231B04984201D3000C10391B0A3A
:2039A000984201D3000A08391B09984201D30009043902A2105C40187047C04604030202C6
:2039C000010101010000000000000000F0B55746DE464E464546E0B50D000400E80F8346F8
:2039E0000903D80F090B824619488C461F0369005E00490D3F0B760D814218D086420FD067
:203A00000120B1420DD1BC450BD1944209D1D3451CD0002905D160462043431E984100E001
:203A20000120F0BCBB46B246A946A046F0BD01208E42F6D1614639430F0017432743F0D1CF
:203A40005B465246981A431E9841EAE70020E8E7FF070000F0B557464E464546DE46E0B561
:203A60000D000E034900490D8A46DF0FE90FBC4683B02F4F04008046019158001903914679
:203A8000360B090B400DBA451DD0B8420DD05746002F2AD13443002824D10A4336D0002CE7
:203AA00041D163465800013815E0114338D15346002B01D12643F4D0019B634507D1019BED
:203AC0005800013807E026432AD1504521D00120019B5F42384303B0F0BCBB46B246A94664
:203AE000A046F0BD002CDCD0E6E70028EFD0019B6345ECD18245EADCE1DB8E42E7D8DED11F
:203B0000C845E4D80020C845E5D2D8E7002CE2D0DDE7114304D1019B6345D8D10020DAE7A0
:203B200002204042D7E7019B6345E6D0CFE7C046FF070000F0B557464E464546DE46E0B54D
:203B40000D000E034900490D8A46DF0FE90FBC4683B02E4F04008046019158001903914699
:203B6000360B090B400DBA451ED0B8420DD05746002F27D13443002833D10A4334D0002CFB
:203B800040D163465800013815E0114312D15346002B01D12643F4D0019B63451DD0012099
:203BA000019B5F42384306E0264303D15045F6D111431CD0022003B0F0BCBB46B246A94625
:203BC000A046F0BD0028EAD0019B6345E7D18245E5DC02DB8E42E2D80ED0019B580001387A
:203BE000E9E7002CCDD0D7E7002CE4D0D7E7019B00206345DFD0D2E7C845D0D80020C84522
:203C0000D9D2EAE7019B6345E4D0C8E7FF070000BFF34F8F034B044ADA60BFF34F8FC0467F
:203C2000FDE7C04600ED00E00400FA0500B587B01422002101A804F097FA094A516B012326
:203C400019435163526B1A400092009AC0220192039301A9034803F021F907B000BDC0468A
:203C6000001002400004005010B5064803785A1CD2B202700449AA24CC5402330370552349
:203C80008B5410BD440100204801002010B5064803785A1CD2B2027004495524CC54023395
:203CA0000370AA238B5410BD44010020480100200378AA2B01D0002070474378552B01D046
:203CC0000020F9E74318013B1B78AA2B01D00020F2E7401802380378552B01D00020EBE7CB
:203CE0000120E9E730B50339455C0022002105E083181B795918C9B2013292B2C3781B02FF
:203D000084782343013B9A42F2DBA94201D0002030BD0120FCE770B505000C0004290DD946
:203D2000FFF7C6FF012801D0002070BD21002800FFF7D8FF0128F8D00020F6E70020F4E782
:203D400010B504000023002004E0E25C1018C0B201339BB28B42F8D310BD10B501F0C6FF3A
:203D600010BD10B502F01AF810BD000010B5837901338371C3790133C371054B1B78012B44
:203D800002D0FFF7EEFF10BDFFF7E7FFFBE7C046C900002010B5FFF7E0FF10BD10B5FFF7D2
:203DA000DCFF10BD10B502480921FFF7D6FF10BDCC00002010B5104B1B78DAB2002B19D14A
:203DC0000E4B002119700C4B013119700BE00B490B78DCB20133DBB20B7083185979084B82
:203DE00019550132D2B2C3781B0281780B43023B9A42ECDB10BDC0460204002003040020FF
:203E00000404002010B50379013B0371CA1E835C013B8354FFF7A5FF10BD10B503790133D3
:203E20000371CA1E835C01338354FFF796FF10BDF0B5C64600B580460F0016001E4C002306
:203E40002370D51CADB2FFF70FFF23785A1CD2B222701A49CD54981CC0B220702D0A8D5402
:203E6000DA1CD2B2227001250D540433237043468B54002308E0104C2078421C2270FD5C35
:203E80000E4C25540133DBB2B342F4D30A4E3578291F89B20A4C2000FFF752FF043C605598
:203EA00001353570FFF7F2FE31782000FFF755FF80BCB846F0BDC046440100204801002073
:203EC0004C01002010B503490122F920FFF7B0FF10BDC0460104002010B503490122FA203D
:203EE000FFF7A6FF10BDC046C800002010B503490222FB20FFF79CFF10BDC046C6000020D2
:203F000030B583B06B46DC1DD87102F011F905002378862B01D003B030BD01222100FF2075
:203F2000FFF786FF0A2002F009F9154C200004F09BF82368012293432360EFF3108182F3F1
:203F4000108823681F329343236081F31088FFF76DFE06E002F0ECF8401BFA239B0098427E
:203F60000BD84021074803F053F80028F2D18021044803F04DF80028ECD1FFF749FEC04638
:203F8000003801400004005010B584B0040010220021684604F0E8F8012C06D901226946A4
:203FA000F820FFF745FF04B010BD01236A461370002C0ED0012C1AD00122F0E7531C0D49F7
:203FC000095D684681540134E4B2DAB2032CF5D9E5E70122FAE7621C0649C95C68460155DE
:203FE0000133DBB2D4B20B2BF5D92200D7E70023F9E7C046EC03002000B583B0064B1B78B2
:204000006A46137104235371022201A9E020FFF70FFF03B000BDC0465202002010B5154BA0
:204020001A88154B1B889BB29A420BD8134B1B78002B06D0114B00221A70114B1B78002BBB
:2040400015D110BD0F4B1B889BB29A4207D30B4B1B78012BF5D0094B01221A70EDE7074BAC
:204060001B78012BEDD0054B01221A70E5E7FFF7C3FFE6E756020020F8030020520200206F
:20408000C0000020FA03002010B5324B1B78022B0FD0032B0CD102F04BF82F4B18602F4B96
:2040A00018602F4B2F4A12881A802A4B02221A7010BD02F03DF8284B18602A4B1A88284BD5
:2040C0001B88D31A642B16DD24490968411AFA24A400A1420FD8244B00211970234B1970F9
:2040E00014095C709970224B013119701C4B1A801A4B1860DCE7643317DA184B1B68C31ABA
:20410000FA2189008B4210D8174B002119701409E443164B1C7059709970154B013119701C
:204120000F4B1A800D4B1860C2E70C4B1B68C01AFA239B009842BBD9064B03221A700A4AE4
:2041400000231370094A137053709370084B01221A70ADE7C1000020480200204C020020D0
:204160005002002056020020810300208403002080030020214B1B78012B31D00FD8002B29
:204180001ED11F4B1A881F4B1B880A3B9A4217DA1A4B03221A701C4B023A1A70EAE7023BB6
:2041A000DBB2012B0CD8164B1A88164B1B889BB29A4206D3114B00221A70134B01321A7036
:2041C0007047124B1B889BB29A4205D80B4B01221A700D4B1A70F3E7084B02221A70EFE78C
:2041E000074B1A88094B1B880A339A42E8DD034B03221A70044B023A1A70BBE7C200002060
:2042000056020020FA0300207F030020F803002010B5184B1B78002B09D0174B1B78012B6C
:2042200006D0002B22D1154B1B78012B11D010BD124B1B78012BFAD1114B01221A70114B71
:2042400063321A70104B9B321A7000225A709A70EDE70B4B02221A700A4B62321A700A4BF7
:2042600000221A70FF2159709A70E0E7FFF70CFFDDE7C046C0000020C20000207F030020A9
:2042800082030020810300208403002010B50302181A0249FDF7C2FFC0B210BDFF0F0000E5
:2042A000F8B500240027002604E0224802F056FB0134E4B20E2C18D81E4D280002F070FB6A
:2042C000280002F0CDFA0121280002F07DF80028EBD1184802F02CFA8005E6D5154802F061
:2042E000D3F83F180136F6B2DFE7002E1DD031003800FDF709FF84B20F4B1C800F4B1B785E
:20430000012B13D02000FFF7C1FFC043C0B20C4B18700A4B1B78012B03D00A4B1B1B064AA2
:204320001380FFF727FFFFF773FFF8BD2000FFF7ADFFECE78803002056020020C400002015
:2043400054020020FF0F000010B5034902223020FFF76EFD10BDC0465602002010B5034997
:2043600001223120FFF764FD10BDC0465402002010B504000E4B01221A70012808D90C4BF9
:2043800000221A700A4901223220FFF751FD10BD002905D1074B1C70054B01221A70F1E7E6
:2043A00001F008FEA042F5D0200001F009FEF1E753020020C400002010B50349012233208F
:2043C000FFF736FD10BDC046C400002010B5034901223620FFF72CFD10BDC046520200200D
:2043E000F0B5CE46474680B583B005000E00170098460AAB1B789946264B01221A700B02B5
:20440000C3189BB2244A138043461C023C19A4B2224B1C8013889BB28022520193420CD288
:204420001E4B1B889BB2934207D21B4B1A8892B21A4B1B889BB29A4202D8164B00221A7011
:20444000144B1B78002B09D1124901223420FFF7EFFC03B0C0BCB946B046F0BD01F0D4FD1F
:2044600002002B029B191B02DB191B02434418000B4B18604B46002BE6D08242E4D043464B
:2044800000933B003200290001F0C6FD014B1870DAE7C04653020020FA030020F8030020F7
:2044A000FC03002000B583B000230193032107E0084A1268C800C24001A8C2540133013970
:2044C000032BF5DD042201A93520FFF7B1FC03B000BDC046FC03002000B583B06B460022C4
:2044E000DA71012807D901226B46D91DE120FFF79FFC03B000BD034B18706B460132DA7197
:20450000F1E7C046C000002010B503490122E220FFF78EFC10BDC046C00000204018C0B2AA
:2045200070470000144A53681B0C1B0430210B435360124BD360124B9360124B80214902EA
:204540005960802189025960136802210B4313600D4BD968802292000A43DA60596C8022A3
:2045600012020A435A645A6808218A435A601A6A07390A431A627047580002407402002036
:20458000342C014000000240002C0140F0B5DE4657464E464546E0B583B0050001AC01913A
:2045A00023789846544B9A461878C0B2FFF784F90022524BFDF73CFF06000F004046FFF70F
:2045C0007BF932003B00FEF74BFAFDF713FFC3B2994623706378984653461878C0B2FFF789
:2045E0006BF90022454BFDF723FF06000F004046FFF762F932003B00FEF732FAFDF7FAFE29
:20460000C3B298466370A3789B4653461878C0B2FFF752F90022394BFDF70AFF06000F00E4
:204620005846FFF749F932003B00FEF719FAFDF7E1FEC6B2A670324B1B78002B0FD0314F34
:2046400039784846FFF76AFF207079784046FFF765FF6070B9783000FFF760FFA0700023A2
:2046600008E01924284A69004919C900521814540133DBB2072B09D801AA527818000721B4
:20468000C91A0A41D207ECD53424EBE7082308E019241D4A69004919C900521814540133D7
:2046A000DBB20F2B09D801AA127818000F21C91A0A41D207ECD53424EBE7102308E019248B
:2046C000114A69004919C900521814540133DBB2172B09D801AA927818001721C91A0A4102
:2046E000D207ECD53424EBE703B0F0BCBB46B246A946A046F0BDC046000400200000594059
:20470000800300208403002074020020002305E0044AD218002111760133DBB2172BF7D9FE
:204720007047C04674020020084A53681B0C1B04842149000B43536013680839FF390B43A2
:204740001360034A13680B431360704758000240002C014010B500210020FFF717FFFFF797
:20476000D5FFFFF7E1FF10BD10B5FFF7DBFEFFF7F1FF012001F0E2FC10BD000010B500289E
:2047800020D005290CD00022104B00211970013119700F490A7001222020FFF749FB10BD01
:2047A0000278002A10D14378012BEDD1094A81781170C178517001799170074A0121117099
:2047C0001A00E1E70022DFE70022DDE75D020020600200207C0300205C02002010B500281E
:2047E0001AD0022910D00022154B0021197001311970144B1A70012A12D0114B1A7811499F
:204800002120FFF715FB10BD0378002B06D14278012AE9D01A00E7E70022E5E70022E3E7A7
:20482000074B01321A7008490878064A50700320187048789070042018708B78D370DCE768
:204840005D020020600200207C03002010B5040064281ED8002914D1144B1B78DBB2A342FB
:2048600004D0124B1C70124B01221A70114B00221A7001321A7010490A702220FFF7D8FACF
:2048800010BD01F067FBA042E6D0200001F068FBE2E7084B00221A700121197006490A70B0
:2048A00001322220FFF7C4FAEAE7C046000400205C0200205D0200206002002010B5064B3F
:2048C00000221A7001321A70044B1B7804490B702320FFF7ADFA10BD5D0200200004002075
:2048E0006002002010B5324B1B78002B00D110BD01F01EFC2F4B1B78002B23D02E4B1B6866
:20490000C31A092B1ED92C4B18602C4B1B78012B31D02A4B1B78022B3BD0264A1378013BF2
:20492000DBB213701378002B06D1254B00221A705A709A70214B1A70224B01221A70224B6D
:2049400001321A701F4B1B78002B03D11F4B1B78002BCCD01E4B19680020FFF717FEFFF7CF
:20496000D5FEFFF7E1FE194A00231370104A1370144A1370BBE70F4B1B78013B1802C01A09
:204980006321FDF74BFC0E4B187000225A709A70C3E7084B1B78013B1802C01A6321FDF749
:2049A0003DFC074B587000221A709A70B5E7C046C3000020810300205802002082030020A6
:2049C00084030020800300207F0300205C0200207C03002000B585B00C22002101A803F0F9
:2049E000C3FB1948194B03608023DB05436000238360C36003610422426103764376033AE6
:204A00008276C261436283622B3283540363273A4263826337328354C36401F0B3FB00283E
:204A20000CD10B4B0193002302930393064801A901F02EFD002804D105B000BD00F03CF9B9
:204A4000EFE700F039F9F7E788030020002401400001002010B588B004001422002103A84C
:204A600003F082FB2268104B9A4201D008B010BD0E4B1A6C802149030A431A641A6C0A4048
:204A80000192019A596B0222114359635B6B1A400292029B012303930233049303A9044821
:204AA00002F0FCF9E2E7C04600240140001002400004005000B583B0144A916B0123194373
:204AC0009163926B13400193019B114BC22292009858104908408021C901014399508021C6
:204AE0008900196098580C4908408021C90301439950F8321A60002201210B2002F058F838
:204B00000B2002F059F803B000BDC0460010024000E100E0FF00FFFFFFFF00FF82B0094B1E
:204B2000596B012211435963596B0A400092009A596B0222114359635B6B1A400192019BFD
:204B400002B07047001002400B4B0C4A1A600C4A1A6002225A600B4A9A6002E00023012B46
:204B600005D0054BDB685B07F8D10123F7E7024B054A1A607047C04600300040CCCC0000C5
:204B800055550000FF0F0000AAAA000082B080229205002307E099000C48844661440968C7
:204BA00002C20133DBB22F2BF5D9094A116C012319431164126C13400193019B054A1368B8
:204BC00003210B43136002B07047C04600200008001002400000014010B582B001F0E4F901
:204BE000264B187001F0E6F9FF2825D001F0E2F9234B187001F0AEF9FF2825D001F0AAF9C6
:204C0000204B187001F000FA013025D001F0FCF91D4A106013681B0C5BBA1C490B801368B1
:204C20001B029BB21168090AFF220A409B189BB2174A138002B010BD114B01221A70187807
:204C4000C0B201F0BDF9D5E70E4B28221A701878C0B201F085F9D5E70B480E4B03600168AD
:204C6000090E0268120CD2B203681B0ADBB20468E4B20068009401F0CFF9DBE70104002056
:204C8000C400002000040020FC030020FA030020F803002000800F7F70B501F061FA050031
:204CA00001F064FA040001F067FA024B1D605C60986070BDEC03002072B6FEE700B593B090
:204CC0003822002104A803F04FFA10220021684603F04AFA8020800002F0A2F90A230493C8
:204CE000F633079300230893402209923F3A0A9201320B920C920D9308330E9380239B02F7
:204D00000F93C023DB04109380239B05119304A802F0B0F900280ED107230093053B0193C6
:204D20000023029303930221684602F05BFC002803D113B000BDFFF7BFFFFFF7BDFF000029
:204D400030B583B0FFF722FFFFF746FFFFF7A4FF01F0CEF9FFF7B2FFFFF7E0FEFFF7AAFE7F
:204D600000F088FD00F0EAFEFFF7EEFE00F06EFC00F08EFB00F0A6FCFFF72CFE00F0E0FCB3
:204D8000FFF7F2FC584801F00BFE012001F0D6F9564B02256D421D61DA6801242243DA60B9
:204DA0001A6822431A60012001F0C8F9504B1D61DA682243DA601A6822431A60012001F052
:204DC000BDF94C4B1D61DA682243DA601A6822431A60012001F0B2F91AE0E12B0CD31F33D2
:204DE000DAB21E2A08D89300434AD3589F46434B5878C0B2FFF7C8F8414B00221A70FFF71B
:204E00004FFAFFF70BF9FFF76DFD3E4B3E4A1A603B4B1B78012BF2D1384B1B78DBB2362B58
:204E2000DBD8202BE8D3203BDAB2162AE4D89300364AD3589F46FFF791FADDE7FFF784FAFA
:204E4000DAE72E4B5878C0B29978C9B2FFF790FAD2E7FFF7B1FACFE7284C6078C0B2A178E3
:204E6000C9B2E278D2B22379DBB264790094FFF7B7FAC1E7FFF716FBBEE7FFF7A7FABBE70B
:204E8000234B1978013989B22248FFF777FCB3E71F4B1978013989B21E48FFF79FFCABE738
:204EA000164B5878C0B29978C9B2FFF7CFFCA3E7FFF704FDA0E7114B5878C0B2FFF70CFB5F
:204EC0009AE7FFF721FB97E7FEF7FCFF94E7FFF703F891E7FFF70AF88EE7084B5878C0B2EB
:204EE000FFF70EF888E7C04688030020002000400048014000440140408200080404002036
:204F00000204002000300040AAAA0000BC820008030400200504002000B583B00D4B196C4C
:204F2000012211431964196C0A400092009ADA6B802149050A43DA63DB6B0B400193019B03
:204F400000220121032001F033FE032001F034FE03B000BD00100240FEE7FEE77047704788
:204F600010B501F0D9F810BD10B501F045FE10BD7047000070B5244B1B689B063FD5224B27
:204F800020225A60214A136801218B43136072B61F4BC22292009B5C002B0ED01C4C1D4DF2
:204FA000605D01300231FDF71FFAC9B26155C2229200A35C013BDBB2A354154BC222920087
:204FC0009B5C002B1CD01249124BCB5CDC011A1952008A180132FF3210881B195B005B18E2
:204FE0000A4AD36053681B0C1B0403435360136801210B431360084B00221A7062B670BD8E
:20500000054B01221A70F9E7000002401C0002401410002006030000CB00002070B5304B3B
:205020001B689B0440D52E4B802292015A602D4A136801218B43136072B62B4BC222920068
:205040009B5C002B0ED0284C284D605D01300231FDF7CAF9C9B26155C2229200A35C013BAD
:20506000DBB2A354204BC22292009B5C002B32D01D491E4BCB5CDC011A1952008A1801327A
:20508000FF3210881B195B005B18164AD36053681B0C1B0403435360136801210B4313605A
:2050A000134B00221A7062B60D4B1B689B0311D50B4B802252025A60802292025A600D4923
:2050C0000A6801239A430A600B490A689A430A600A4A137070BD064B01221A70E3E7C04614
:2050E0000000024044000240080D002006030000CA00002058000240002C0140C3000020D6
:2051000010B50E4B1B69DB0716D50C4B022252421A610B4C2378013B23700A48092100F069
:20512000E5FD2378002B07D1044BDA6801218A43DA601A688A431A6010BDC0460020004039
:20514000E1000020D80000200C4B1B69DB0714D50A4B022252421A61094B1B78002B0CD139
:20516000074B01211970074BDA680A43DA601A680A431A60044B03221A7070470044014094
:20518000C900002000200040E100002010B5064B1B69DB0707D5044B022252421A610348A0
:2051A000092100F0FBFD10BD00480140CC000020F8B5494BDB69DB0641D5474B1B68DB0629
:2051C0003DD5454B10221A62444B1A6801218A431A605B689BB280256D00ED1AADB2002D50
:2051E00029D03F4A1478E4B21378013301210B401370127852023B4BD218384BDA605A688F
:20520000120C12048020400002435A601A680A431A60EFF3108081F310882F4A93683F31D0
:205220000B43936080F31088082D08D964022D4BE418651905E0294A13680B431360F8BD6B
:2052400001342B00093BA342F9D32378AA2BF7D16378552BF4D1A378E278120213439E1D07
:20526000B6B2FA2B19D8082E17D9A719AF42E6D83B00023B1B78552B11D13B00013B1B78A4
:20528000AA2B0CD16379FD2B0BD0FE2B0DD131002000FEF76BFD3C00D3E70134D1E70134B0
:2052A000CFE7FEF77FFD3C00CBE72379012B05D031002000FEF7A6FD3C00C2E7310020001D
:2052C000FEF729FD012801D03C00BAE731002000FEF770FD3C00B4E700380140080002408F
:2052E000050500200809002070B5424BDB69DB0641D5404B1B68DB063DD53E4B10221A622E
:205300003D4B1A6801218A431A605B689BB280246400E41AA4B2002C29D0384A1078C0B20D
:205320001378013301210B40137012785202344BD218314BDA605A68120C120480256D00B9
:205340002A435A601A680A431A60EFF3108581F31088284A93683F310B43936085F310882C
:20536000082C08D94002264BC018041905E0224A13680B43136070BD01302300093B834259
:20538000F9D30378AA2BF7D14378552BF4D18378C27812021343991D89B2802252009342D0
:2053A00018D8082916D94518A542E4D82B00023B1B78552B10D12B00013B1B78AA2B0BD1D6
:2053C0004379FD2B0CD0FE2B08D0FC2B0FD0FEF724FD05E00130D0E70130CEE7FEF7DAFC72
:2053E0000023084A5362084A13702800C5E7FEF7D5FCF5E700440040300002400405002019
:205400000805002000440140C90000207047000080235B00994226D00CD8102925D005D87C
:20542000012924D0042924D1012210E0402922D103220CE080235B0199421ED080235B02E4
:2054400099421CD08023DB0099421AD1052218300D4B9B5CC01803680C49895C04228A4016
:205460009343036070470422F1E70222EFE70022EDE70822EBE70822E9E70622E7E7072239
:20548000E5E70822E3E7C0468483000878830008F0B5C64600B5ACB01422002127A802F05A
:2054A00063FE202200211FA802F05EFE3022002113A802F059FE2822002109A802F054FE3C
:2054C00080239B03099309A802F052F9002800D0A3E01822002103A802F046FE504E336C0D
:2054E0008022120113433364336C13400293029B4C4A13683F218B432B390B4313604A4BED
:205500001A684A490A4010210A431A601A6848490A401A601A6820218A431A601A68203180
:205520008A431A601A688027BA433A431A601A6840490A408021490088460A431A601A68B1
:205540003D490A401A6027A900240C804C604F238B60CC600C61394D280002F089FC2B6827
:20556000BB432B60AB68364A1340AB60354A136808210B43136060231F9320942194229479
:2055800023942494259426941FAA0739280002F0B7FC01212800FFF73BFF6B68702293439E
:2055A0006B606B68284A13406B60AB68BB43AB6013941494159400236A4658215218137070
:2055C0006B465A229B181C8080239B011793189419941A9480239B041B931C941D941E945C
:2055E00013A9280002F0BAFC726B01231A437263726B13400193019B43460393FE3B04939D
:205600000594069407940893A02003A9C00502F0A9F92CB080BCB846F0BDFFF74DFB58E71C
:20562000001002401008024058000240EFBFFFFFFFCFFFFFFFFCFFFFFFF3FFFF002C014056
:20564000F8BFFEFF182C0140FFFF0FFF30B587B001AC14220021200002F086FD144B1A6C6B
:20566000802109020A431A641B6C0B400093009B104AC420800013581B021B0A8021C905D9
:205680000B43135080231B0313600B4B2380002363600A4AA260E360094D2100280002F01C
:2056A000E7FB2B68802213432B6007B030BDC0460010024000E100E0FF180000A306000075
:2056C0000020004030B587B001AC14220021200002F04AFD144B1A6C802189020A431A6415
:2056E0001B6C0B400093009B104BC520800019580F4A11408022D2010A431A50802292036C
:205700001A600C4B2380002363600B4AA260E36023610A4D2100280002F0AAFB2B688022A5
:2057200093432B6007B030BD0010024000E100E0FF00FFFFFF1800002F7500000044014014
:2057400030B587B001AC14220021200002F00CFD134B1A6C8021C9020A431A641B6C0B4021
:205760000093009B0F4AC520800013580E490B408021C9030B43135011600C4B2380002384
:2057800063600B4AA260E36023610A4D2100280002F06EFB2B68802293432B6007B030BDF3
:2057A0000010024000E100E0FFFF00FFFF1800000F2700000048014070B5EFF31084012146
:2057C00081F31088244A13680C2083430343136084F31088EFF3108081F3108813681024ED
:2057E0002343136080F310881C4B1D4898601D48007840021C4D4019D8605868000C000418
:2058000080256D00284358601868FE3D284318601868082630431860186808431860EFF3F7
:20582000108081F31088936838363343936080F3108814620D4B0E489860EFF3108081F3ED
:205840001088916870342143916080F310881A682A431A6070BDC046003801400800024054
:205860002438014005050020080900201C00024028380140F0B5DE4657464E464546E0B517
:205880009BB02022002112A802F06EFC182200210CA802F069FC2822002102A802F064FC77
:2058A0000123029302A801F063FF002800D0C6E0644B1A6C8021C9010A431A641A6C0A4059
:2058C0000192019A5A6B02252A435A635B6B2B400093009B402398460C930D950E950024DC
:2058E0000F94012610961194574B99460CA9180002F038F880270C970D950E950F9410964B
:2059000011940CA9484602F02DF8504A13683F218A468B430D390B4313604D4B1A684D49BE
:2059200089460A401A601A684B498C460A401A601A681E35AA431A601A6841468A431A609C
:205940001A68BA433A431A601A68444802401A601A6843498B460A401A60424A13685146C6
:205960008B430C390B4313603F4B1A6849460A4010210A431A601A6861460A401A601A6807
:20598000AA431A601A6841468A431A601A68BA433A431A601A6802401A601A6859460A4031
:2059A0001A60324AC621890053581B021B0A535080231B0513601294E1235B021393149466
:2059C000159416940C23179318941994284C12A9200002F073FBEFF3108286F31088A36803
:2059E000DB00DB08A36082F31088EFF3108286F31088A3681F490B40A36082F310882368FB
:205A00001D4A1340236063681C4A13406360A3682A229343A360236833432360144BDB69AB
:205A20009B02FBD5124BDB695B02F7D5FFF7C4FE1BB0F0BCBB46B246A946A046F0BDFFF78F
:205A40003BF935E700100240000400500008024008000240EFBFFFFFFFCFFFFFFFFCFFFF4B
:205A6000FFF3FFFF040802401C00024000E100E000380140FFFFFFF1FFFFFFDFFFB7FFFFD2
:205A800070B5EFF31084012181F31088244A13680C2083430343136084F31088EFF3108028
:205AA00081F31088136810242343136080F310881C4B1D4898601D48007840021C4D4019A2
:205AC000D8605868000C000480256D00284358601868FE3D28431860186808263043186052
:205AE000186808431860EFF3108081F31088936838363343936080F3108814620D4B0E48E4
:205B00009860EFF3108081F31088916870342143916080F310881A682A431A6070BDC04676
:205B200000440040300002402444004004050020080500204400024028440040F0B5DE4676
:205B400057464E464546E0B591B020262022002108A802F009FB1822002102A802F004FB6E
:205B6000564BDA6B802189020A43DA63DA6B0A400192019A5A6B01252A435A635B6B2B4086
:205B80000093009B0423029302240394049406950795A027FF0502A9380001F0E3FE0823E4
:205BA000029303940494002405940695079502A9380001F0D7FE424A13683F218A468B437F
:205BC0000B390B4313603F4B1A683F4989460A401A601A683D4988460A401A601A68B24388
:205BE0001A601A6840218C468A431A601A688027BA433A431A601A68354802401A601A68D5
:205C000034498B460A401A60334A136851468B430A390B431360314B1A6849460A40102109
:205C20000A431A601A6841460A401A601A68B2431A601A6861468A431A601A68BA433A4373
:205C40001A601A6802401A601A6859460A401A60234BC72189005A58FF2082435A508022E6
:205C600052051A600894E1235B0209930A940B940C940C230D930E940F941A4C08A9200092
:205C800002F01CFA6368184A13406360A3682A229343A36023682B432360124BDB699B02CF
:205CA000FBD5104BDB695B02F7D5FFF7E9FE11B0F0BCBB46B246A946A046F0BD0010024035
:205CC0000808024030000240EFBFFFFFFFCFFFFFFFFCFFFFFFF3FFFF0C08024044000240C3
:205CE00000E100E000440040FFB7FFFFF8B505000E0072B6244BC224A4001B5D022B03D84A
:205D000080235B00994201D962B6F8BD1E4C1F4FE35DD801C018400000190A00290002F0BC
:205D20004FFAE05DC3011B185B00E3180133FF331E8001300321FCF757FBE155C222920046
:205D4000A35C0133A354124B1B78002BDCD00E49104BCC5CE3011A1952008A180132FF3209
:205D600010880B4A002515701B195B005B180A4AD36053681B0C1B0403435360136801216C
:205D80000B431360C0E7C0461410002007030000CB000020060300001C000240F8B5050043
:205DA0000E0072B6244BC224A4001B5D022B03D880235B00994201D962B6F8BD1E4C1F4FDC
:205DC000E35DD801C018400000190A00290002F0F7F9E05DC3011B185B00E3180133FF3374
:205DE0001E8001300321FCF7FFFAE155C2229200A35C0133A354124B1B78002BDCD00E49D0
:205E0000104BCC5CE3011A1952008A180132FF3210880B4A002515701B195B005B180A4AA3
:205E2000D36053681B0C1B0403435360136801210B431360C0E7C046080D002007030000EB
:205E4000CA00002006030000440002400D488546FFF7DCFA0C480D490D4A002302E0D458AB
:205E6000C4500433C4188C42F9D30A4A0A4C002301E013600432A242FBD302F07DF9FEF7FB
:205E80005FFFFEE700200020C000002028010020C88300082801002040130020FEE7F82347
:205EA0001B069C466044C00A704770B504684368C9000E00203E13D4FF25B540FF268E4056
:205EC000B443AB43046043600D00203D0DD41600AE4035008A40144304602B43436070BD8F
:205EE0002026761AFF25F540E8E720256D1A1600EE403500EEE741680068704710B586B0C7
:205F00000023059302330193FFF7C9FF03900123049300F0D1FE05A901A800F07BFF04006D
:205F200000F04AFF63425C41E0B206B010BD70B5040016001D0000F0BFFE32002B0021004A
:205F4000012000F007FF040000F036FF63425C41E0B270BD014B1878C0B2704701F80008FA
:205F600030B583B0040072B60E4D2800FFF7C3FF00900191220001216846FFF796FF2800DB
:205F8000FFF7BCFF009A019B0648FFF7D0FF0028F8D062B6FFF7DEFF001B43425841C0B281
:205FA00003B030BD00F80008014B1878C0B27047FF1F0008014B1878C0B2704700F8000811
:205FC00030B583B0040072B60E4D2800FFF793FF00900191220000216846FFF766FF2800DC
:205FE000FFF78CFF009A019B0648FFF7A0FF0028F8D062B6FFF7DEFF001B43425841C0B281
:2060000003B030BD00F80008024B18885B881B041843704702F80008F0B5CE46474680B562
:2060200083B004000F00160098460AAB1B78994672B6184D2800FFF75EFF009001913A009B
:2060400005216846FFF731FF320004216846FFF72CFF424603216846FFF727FF4A460221F7
:206060006846FFF722FF2800FFF748FF009A019B0848FFF75CFF0028F8D062B6FFF7C4FF5E
:20608000001B43425841C0B203B0C0BCB946B046F0BDC04600F8000810B50400114B1978C8
:2060A000002901D1012010BDFA208000FCF72CF801000D4B1868FCF727F800F089FD0028BD
:2060C0000DD1032C01D90120EDE7013000222100404200F06DFD054B1C600020E3E70120BD
:2060E000E1E7C046E8000020E4000020EC00002010B5084A116880235B000B431360032048
:20610000FFF7CAFF041E02D00124200010BDFEF703FFFAE700200240034B1B78034A1168D9
:206120005B1813607047C046E800002020130020014B18687047C0462013002070B504005C
:20614000FFF7F6FF0500631C02D0044B1B78E418FFF7EEFF401BA042FAD370BDE8000020FE
:20616000014B18687047C0469075FF1F014B18687047C0469475FF1F014B18687047C0463A
:206180009875FF1F30B583B0040000230193002800D106E1836D002B13D023689A68D200C4
:2061A0001CD49968804A1140802252050A439A607E4B18687E49FBF7A7FF013040000190E9
:2061C00009E0FEF747FC0023E3655422A354E4E7019B013B0193019B002BF9D123689A6871
:2061E000D20000D59DE0A26D10210A43A265E26D0F390A43E26501209A6804210D00154012
:20620000114200D00125A26DD20600D5C2E0002D00D0BFE0A26D67490A400631FF310A437E
:20622000A2659A68D20752D4A268217E89030A43617EC9030A43A57E69030A43216B00294B
:2062400001D0802149010A43E1680A432169002969DB802189030A432C21615C49000A438E
:206260002021615C012961D0616A002905D0E0256D002940A56A29430A43D9684E4D294014
:206280000A43DA6063689B0F9B07E26C1A433C21615C012959D021680B69484D2B401343F5
:2062A0000B616368C0221206934210D08022D20593420CD080221206934208D040490A686C
:2062C000404D2A40F025AD032B4013430B602168636B4A690725AA4313434B612168A26B1B
:2062E0004B696935AB43120113434B612369002B35D12268916A103B0B43936223685A692B
:2063000007231340626B9A423BD0A36D12229343023A1343A365E36D0F3A1343E365012040
:206320003DE0002068E74900490894E7002D03D1802149020A4397E7A16D20252943A1653F
:20634000E16D1F3D2943E1658EE7216C0B43616C0B43A16C0B43134301221A439BE7802221
:2063600092039342CAD121688B6AE369013B9B001C221A4010235B429340226E13438B6269
:20638000BCE70023E365A36D03229343023A1343A36504E0A36D10221343A365012003B0F2
:2063A00030BD0120FBE7C046E8FFFF6FE4000020400D0300FDFEFFFF0102DEFF02FCFF1F49
:2063C00008270140FFFFC3FFF8B504000D004669082E04D00368DB68DB071DD40426FFF775
:2063E000A7FE070023681A6816421BD16B1CF9D0FFF79EFEC01BA84201D8002DF2D12368A5
:206400001B681E42EED1A36D04221343A36554230022E254032029E0836D202213438365DB
:20642000012023E0A16D802292000A43A265D968C0221201114213D1A27E002A10D11A6888
:2064400012070DD59A68520711D45A680C218A435A60A36D0B4A13400432FF321343A3650E
:20646000207E00280CD123680C221A60F8BDA36D20221343A365E36D1F3A1343E365EFE7C4
:206480000020F3E7FEFEFFFF0368186C70470000F0B583B004000023019305695433C35CBB
:2064A000012B00D12FE154230122C25400688368033216001E401A4209D0A36D1C3213433A
:2064C000A365012054230022E25403B0F0BD4B68022B00D1D5E080221206954225D08B4AA3
:2064E000954222D0226E1F271F400F25BD40AA430B685D032FD19B0E1F261E40BE403243EE
:2065000022664D68AB080133E269934213D80E68826A1F231D40103B1F00AF40BA43B60E31
:206520003340AB401343836205E00B68826A5B035B0B1343836220680B688D6842691B02C7
:206540009A432B40724D2B40134343610B68002B4FDB0020B6E7DD07D0D49D0727D45D07BF
:2065600027D41D0727D4DD0627D49D0627D45D0627D41D0627D4DD0527D49D0527D45D052D
:2065800027D41D0527D4DD0427D49D0427D45D0427D41D0427D4DD0327D49D0327D48025D8
:2065A000ED021E002E402B42A8D01226A6E70126A4E70226A2E70326A0E704269EE70526C9
:2065C0009CE706269AE7072698E7082696E7092694E70A2692E70B2690E70C268EE70D265F
:2065E0008CE70E268AE70F2688E7102686E7112684E7484A1168E02252040A40464883429A
:2066000007D04648834222D0454883422CD0002058E70802F5D480231B0413433D490A68CE
:206620004048024013430B603F4B18683F49FBF76BFD013043001B189B00019302E0019B8F
:20664000013B0193019B002BF9D100203AE7C801DAD480235B0413432E490A683148024025
:2066600013430B6000202DE749024AD48023DB03134328490A682B48024013430B6000206C
:2066800020E780231B069D4202D0204B9D4205D10B68826A5B035B0B9A4382620B68002BDC
:2066A00001DB00200EE71B4A12681B498B4207D01A498B420FD01A498B4217D0002001E7D4
:2066C000A0235B041A4013490B68164803401A430A600020F6E6C0231B041A400D490B68E6
:2066E000104803401A430A600020EBE6C0235B041A4008490B680B4803401A430A6000206A
:20670000E0E60020DEE60220DFE6C0460400008000FFFF0708270140001000B0004000B831
:20672000002000B4FFFF3FFEE4000020400D0300806D704770B50400026893685B0724D569
:2067400093689B0705D4936811490B4010210B439360FFF7EDFC050023689B685B0712D5F6
:20676000FFF7E6FC401B0228F6D923689B685B07F2D5A36D10221343A365E36D0F3A1343A7
:20678000E365012002E0002000E0002070BDC046E8FFFF7F30B583B00400002301930368B8
:2067A0009A68D2074FD49968284A114211D19A6827490A4001210A439A60264B1B681B02FD
:2067C00017D5254B18682549FBF79EFC013001900CE0836D102213438365C36D0F3A134306
:2067E000C365012030E0019B013B0193019B002BF9D1637E012B01D1002025E0FFF798FCB5
:20680000050023681A68D2071BD49A68D20705D49A680F490A4001210A439A60FFF788FC63
:20682000401B0228EDD923681B68DB07E9D4A36D10221343A365E36D0F3A1343E365012068
:2068400002E0002000E0002003B030BD17000080E8FFFF7F08270140E4000020400D0300D6
:2068600010B5040003689B685B0724D45423C35C012B22D054230122C254FFF78BFF00287B
:2068800015D1A26D0E4B1A4080235B001343A3650023E36522681C2111605422A35422685A
:2068A000936808490B4004210B43936004E054230022E25400E0022010BD0220FCE7C0464E
:2068C000FEF0FFFFE8FFFF7F70B5040003689A68022108001040114200D001209A68D20737
:2068E00035D5002835D1996805220A40012A09D0A36D10221343A365E36D0F3A1343E36513
:20690000012025E09A6814490A4002210A439A60236803221A60FFF70BFC050023689B6884
:20692000DB0712D5FFF704FC401B0228F6D923689B68DB07F2D5A36D10221343A365E36D1D
:206940000F3A1343E365012002E0002000E0002070BD0020FCE7C046E8FFFF7F10B50400C9
:206960005423C35C012B17D054230122C254FFF7E1FE002803D054230022E25410BD200032
:20698000FFF7A2FF0028F6D1A36D044A13400432FF321343A365EEE70220EFE7FEFEFFFF34
:2069A000F0B583B00400002301935433C35C012B00D1A2E001265423C654FFF785FF0500E8
:2069C00023689A6831001140164209D0A36D10221343A36554230022E254280003B0F0BD80
:2069E000A26D474802400630FF300243A265DE68444A1640DA6844480240DA60080005E0A5
:206A0000B4229A587F231340C018013107291CD82768BA683D4B1A4018331343BB602368B1
:206A20009A68002AECDA019B01330193019A384B9A42F4D9A36D12229343023A1343A36585
:206A400054230022E2540125C7E7FBF75DFB226893682E490B4001210B439360226811699B
:206A60008023DB05994217D22A4B1B68F02189030B40E02149038B420ED39B0C033B0121ED
:206A800099400091009B5B08009302E0009B013B0093009B002BF9D1B42153587F27BB43FB
:206AA000184350502268936818490B4002210B439360FFF73DFB070023689A68D20709D4CE
:206AC000DA683243DA60A36D03229343023A1343A3657FE7FFF72CFBC01B0228ECD9236848
:206AE0009B68DB07E8D5A36D10221343A365E36D0F3A1343E36501256FE702256DE7C04620
:206B0000FDFEFFFF03800000FC7FFFFFE8FFFF7FFFF102000827014070B5002811DB8308F5
:206B2000134DC0339B005C5903221040C000FC3216008640B44389010A40824022435A51D6
:206B400070BD0F230340083B9B0806339B00094A944663445C6803221040C000FC321500C9
:206B60008540AC4389010A40824022435A60E7E700E100E000ED00E0013880235B0498423B
:206B80000FD2094A50600948036A1B021B0AC02109060B430362002393600733136000208B
:206BA00070470120FCE7C04610E000E000ED00E010B5FFF7B1FF10BD002805DB1F220240B4
:206BC00001239340014A13607047C04600E100E010B5FFF7D1FF10BD30B5054C6169012504
:206BE000294361610260BFF36F8F436030BDC046002002407047704710B52A4B1B692A4ABD
:206C000013402A4A9268510721D5284A1469002B2AD1244B1B69DB070CD5224B01221A618F
:206C2000224B9B68022B2CD0204B00229A602000FFF7E0FF1D4B9B68002B07D1194A5369B2
:206C40001B490B405361194B00221A7010BD154841699143416117490A4202D0134AD46860
:206C6000D5E7124A5469D2E7104A51680B4353600C4B0D491961002393602000FFF7BBFF65
:206C8000C7E70A4A9369013B9361002B03D1074B00229A60CBE7516901315161106900F0A0
:206CA000A9F8C4E700200240FAC3000024130020FFFFFFFC01000400084B5B69002B01DBF6
:206CC00000207047054B064A9A60064A9A605B69002B01DB0020F4E70120F2E700200240D7
:206CE00023016745AB89EFCD70B50400FFF720FA0500144B1B69DB0308D5631CF9D0FFF7BA
:206D000017FA401BA042F4D303201AE00D490A690D4B16001E400D4808611A420CD1094B61
:206D20001B695B030CD5631CF9D0FFF701FA401BA042F4D3032004E0054B5E60012000E03D
:206D4000002070BD00200240FAC30000FBC3000024130020F8B507000C0015001E00144B60
:206D60001B78012B22D0124B01221A7000225A60FA208000FFF7B8FF00280DD1012F0FD020
:206D80002900200001F034FAFA208000FFF7ACFF084A5369BB435361054B00221A70F8BDDF
:206DA0002A0033002000FFF717FFEDE70220F6E7241300200020024010B5FA208000FFF769
:206DC00093FF064B5969802212060A435A615B69002B01DB012010BD0020FCE7002002402E
:206DE000034A536903438020400218435061704700200240044A536904480340C90019437F
:206E0000034B0B43536170470020024007E0FFFF0200010070B504000E001E4B1B78012BC2
:206E200036D01C4B01221A7000225A60FA208000FFF75AFF002827D1042363602368042BAF
:206E400014D001235B423360A568A368E2689B18AB4214D960682900FFF7CCFFFA208000BF
:206E6000FFF742FF002809D10135EEE70430FFF7B7FFFA208000FFF737FF05E03560064A5E
:206E8000536902218B435361024B00221A7070BD0220FCE72413002000200240F0B50023E5
:206EA00059E086685F000324BC40A643CC68BC4034438460446894434E68360901223240A8
:206EC0009A402243426056E0DE080836B600375805321A4092000F249440A7430C699440D5
:206EE00022003A43325059E0032600E00026A64034003C43424E1832920094513768EA4353
:206F00003E00AE434C68E40201D53E002E433C4C266067683E0016404C68A40201D53E0044
:206F20002E43374C66608426A7593E0016404C68A40301D53E002E43314C8427E651802674
:206F4000A65932404C68E40301D52A0032432C4D80242A5101330C682200DA404ED00122F3
:206F60009A40250015401442F4D04E6803243440013C012C95D94C6803222240032A08D03A
:206F8000C4685E000322B24094438A68B2402243C2604C6803222240022A95D004685E0078
:206FA00003221700B740BC434F683A40B240224302604C68C02292021442CBD09A081400E4
:206FC0001834A4000E4EA75903241C40E4000F26A640B743A026F605B04287D0094EB04296
:206FE00008D0094EB04207D0084EB04200D17BE705267CE701267AE7022678E7F0BDC046CE
:20700000001802400004005000080050000C005003690B4201D0012070470020FCE70000A9
:2070200010B5104A136810490B400343136080239B00984201D0002010BD0C4B1B68580051
:20704000C01840000A49FBF75FF80130054B5B695B0503D5002803D00138F7E70020EBE7FB
:207060000320E9E700700040FFF9FFFFE400002040420F0070B582B0041E00D131E203681A
:20708000DB0739D5C14A916838230B40D16803220A40102B26D0082B26D063688022520293
:2070A00093427FD0A022D202934200D181E0B74B1A68B7490A401A601A68B6490A401A6082
:2070C0006368002B00D180E0FFF732F80500AF4B1B689B0310D4FFF72BF8401B6428F6D996
:2070E0000320FFE1032AD6D1A84B1B689B0303D56368002B00D1F7E123689B0731D5A34A0E
:20710000916838230B40D16803220A40102B6AD0002B6BD19D4A1268520503D5E268002A48
:2071200000D1E3E1994842689B490A40616909020A434260002B0DD1036898490B40216913
:207140000B4303600368DB0A07221A40944BD340944A1360944B1868FEF79EFF002800D07F
