:020000040800F2
:10000000002000204D09000811080008130800080E
:1000100000000000000000000000000000000000E0
:1000200000000000000000000000000015080008AB
:100030000000000000000000170800081908000870
:100040009D0900089D0900089D0900082108000875
:100050009D0900089D0900089D0900089D090008E8
:10006000000000009D0900089D0900089D09000886
:100070009D0900089D0900089D0900089D090008C8
:100080009D0900089D0900089D0900089D090008B8
:10009000000000009D0900089D0900089D09000856
:1000A0009D0900089D0900089D090008A10300089A
:1000B0009D0900089D0900080000000000000000E4
:1000C00010B5064C2378002B07D1054B002B02D02E
:1000D000044800E000BF0123237010BD4800002049
:1000E0000000000010160008044B10B5002B03D0D0
:1000F0000349044800E000BF10BDC04600000000F6
:100100004C00002010160008002243088B4274D3D4
:1001100003098B425FD3030A8B4244D3030B8B4208
:1001200028D3030C8B420DD3FF22090212BA030C11
:100130008B4202D31212090265D0030B8B4219D3F2
:1001400000E0090AC30B8B4201D3CB03C01A524112
:10015000830B8B4201D38B03C01A5241430B8B425A
:1001600001D34B03C01A5241030B8B4201D30B0343
:10017000C01A5241C30A8B4201D3CB02C01A52416A
:10018000830A8B4201D38B02C01A5241430A8B422D
:1001900001D34B02C01A5241030A8B4201D30B0216
:1001A000C01A5241CDD2C3098B4201D3CB01C01A30
:1001B000524183098B4201D38B01C01A524143093A
:1001C0008B4201D34B01C01A524103098B4201D328
:1001D0000B01C01A5241C3088B4201D3CB00C01A95
:1001E000524183088B4201D38B00C01A524143080D
:1001F0008B4201D34B00C01A5241411A00D2014632
:10020000524110467047FFE701B5002000F006F8A4
:1002100002BDC0460029F7D076E770477047C04658
:1002200010B50B480B4B036000230371013343717E
:1002300001225242026121324261603282610362D4
:1002400000F0D0FC002800D110BD00F0BFFAFBE7A1
:10025000640000200030024082B0084B02689A42DD
:1002600001D002B07047064B9A6B802149010A43C6
:100270009A639B6B0B400193019BF2E700300240B5
:100280000010024082B0054A516B022319435163AA
:10029000526B13400193019B02B070470010024063
:1002A00010B5064B1C680648064A074900F0DCFCFE
:1002B000C043001B43425841C0B210BDFCDF0008E0
:1002C00064000020FCBF00000020000806498022D6
:1002D000CB691A42FCD0044B986219004022CB69CA
:1002E0001A42FCD07047C0460038014010B5184C87
:1002F000200001F099F82368012293432360EFF373
:10030000108182F3108823681F329343236081F3A6
:10031000108800230F4A13600F4A10680321014020
:1003200011600E4901204042802408510134FF34FD
:1003300008510B490B664B668B66CB66916901339E
:10034000FF330B43936100F0F1FF00F029FB10BD78
:100350000038014010E000E00000014000E100E052
:100360000018024010B5FFF79BFF002807D0094B8B
:100370001B68094A134080229205934200D010BDA9
:10038000FFF7B4FF054B1B68024A126882F3088826
:100390009847F4E7002000080000FE2F0420000822
:1003A00010B5254BDB699B0608D5234B5B6ADBB296
:1003B000224A1278002A02D0022A14D010BD992BAA
:1003C00003D06620FFF782FFF8E700F045FB1C4BE7
:1003D0001C4A944660441860184B02221A70882008
:1003E000FFF774FFEAE7184801884A1C92B20280BE
:1003F00016484354012A0CD0154B9A42DED1134BB8
:100400001B78012B10D0022B12D00F4B00221A8028
:10041000D4E70378013B012BD0D90B4B00221A8083
:100420006620FFF753FFC9E7044B03221A70ECE77D
:10043000024B04221A70E8E7003801408C000020CB
:100440008800002020A107008E00002090000020DE
:1004500008080000F0B5CE46474680B587B00023B7
:1004600005933E4B5C7824069A78120414431A795B
:100470001443DB781B021C43394B9C420CD9374B8D
:100480005A7912029B799B189BB2002B09D13348F1
:10049000344A002101F090F807B0C0BCB946B0461C
:1004A000F0BD322000F0B4FC00F09EFC0028FBD12F
:1004B00002230193F8231B06E318DB0A03930123AD
:1004C0000493322000F0A4FC05A901A800F032FD3D
:1004D0000028F6D180231B01E3189C4237D222006A
:1004E000083293429B415B425A4253415B42FF2296
:1004F0001340013398461C4EA31B99464B469F1947
:1005000074782402B3781B041C4333781C43F378BB
:100510001B061C43357973791B021D43B3791B04F9
:100520001D43F3791B061D43322000F071FC2200AD
:100530002B003900012000F0A5FC0028F4D1012394
:100540005B429C46E04408364346002BD6D100F07F
:10055000CFFC322000F05CFC99E7C0469000002000
:10056000FF1F00080808000098000020F8B5CE46DC
:10057000474680B500F070FA334BF530FF30186015
:100580001E00324D1F0028E0FFF7ECFE2AE000F0CD
:1005900063FA2F4B9C4660443860EFF310820123CE
:1005A000994683F310882B4C2368202188468B437F
:1005B000236082F31088FFF74DFFEFF3108289F379
:1005C0001088236841460B43236082F3108877200C
:1005D000FFF77CFE1D4B02221A7000F03DFA3368D3
:1005E0009842D1D82B78032BD1D0042BF5D100F031
:1005F00033FA154B164A9446604418607720FFF78B
:1006000065FEEFF310820123994683F31088114CA5
:100610002368202188468B43236082F31088FFF7EC
:1006200019FFEFF3108289F31088236841460B43CA
:10063000236082F310885520FFF748FE0A2000F05F
:100640009DFFFFF78FFEC8E7880000208C00002088
:1006500020A107000038014000B587B0102200211A
:1006600002A800F0A9FF094A516B01231943516305
:10067000526B1A400092009AC0220192039301A982
:10068000034800F0A5FC07B000BDC04600100240C2
:100690000004005010B5284A136807218B43053920
:1006A0000B431360110007220B681340022BFBD190
:1006B000224A1168FE330B43136011008022D200DE
:1006C0000B681342FCD01D4BD9681D4A11401D4ACE
:1006D0000A43DA601968802252040A431A60D96812
:1006E000802252050A43DA601900802292040B68C6
:1006F0001342FCD0114A936813490B4093609368EE
:1007000007218B4305390B439360110038228B6816
:100710001340102BFBD1094A93680C490B4093609E
:100720000B4800F043FF032000F04EF9002800D1F1
:1007300010BD72B6FEE7C046002002400010024025
:100740008C80FF1F02080020FFF0FFFFFF8FFFFFDC
:100750000090D00310B500F05FF9FFF79BFFFFF7A3
:1007600091FDFFF75DFDFFF777FFC82000F006FF62
:10077000144B1B695B0603D4124B1B691B0611D576
:10078000FFF7F0FD00F052F8EFF31081012383F33F
:1007900010880D4A136820200343136081F31088EA
:1007A000FFF7E4FE00F042F8EFF31081012383F33A
:1007B0001088054A10681F330343136081F31088C3
:1007C000FFF7D4FE000400500038014072B6FEE787
:1007D00000B583B00D4B196C012211431964196CDB
:1007E0000A400092009ADA6B802149050A43DA63D5
:1007F000DB6B0B400193019B00220021032000F0E2
:1008000031F9032000F060F903B000BD0010024090
:10081000FEE7FEE77047704710B500F011F910BD14
:1008200010B500F081FA10BD7047000030B591B0EE
:100830002022002108A800F0BFFE1022002104A8F9
:1008400000F0BAFE3A4B5A6D03218A435A651A6C7E
:100850008021C9010A431A641A6C0A400192019A64
:100860005A6B022422435A635B6B23400093009B24
:100870004023029303942F4D02A9280000F094FC1A
:10088000802302930394002404940594069407940F
:1008900002A9280000F088FC274AC6218900535885
:1008A0001B021B0A535080231B0513600894E1238D
:1008B0005B0209930A940B940C940C230D930E94F1
:1008C0000F941E4C08A9200000F0DAFDEFF3108110
:1008D000012282F31088A368DB00DB08A36081F3A8
:1008E0001088EFF3108182F31088A3681448034046
:1008F000A36081F31088236812490B40236063686A
:1009000011490B406360A3682A218B43A3602368CD
:10091000134323602200802189038020C003D36910
:100920000B42FCD0D3690342F9D011B030BDC046B0
:10093000001002400004005000E100E000380140D7
:10094000FFFFFFF1FFFFFFDFFFB7FFFF0D48854609
:10095000FFF76AFF0C480D490D4A002302E0D45806
:10096000C4500433C4188C42F9D30A4A0A4C0023F9
:1009700001E013600432A242FBD300F025FEFFF732
:10098000E9FEFEE7002000200000002048000020D3
:10099000D016000848000020B8080020FEE7704785
:1009A00010B5084B01214942D9620022DA6219636D
:1009B0001A6399629A6259625A62FFF7F0FF002047
:1009C00010BDC0460010024070B504000F4B1978EE
:1009D0000120002900D170BD0D4DFA208000FFF7E5
:1009E00093FB01002868FFF78FFB00F079F8030004
:1009F0000120002BEFD1032CEDD800222100404232
:100A000000F030F8034B1C600020E4E704000020F5
:100A1000000000200800002010B5084A116880235B
:100A20005B000B4313600320FFF7CEFF041E02D0D0
:100A30000124200010BDFFF7CBFEFAE700200240A2
:100A4000034A1168034B1B785B1813607047C0465C
:100A50009808002004000020014B18687047C04629
:100A60009808002070B5002814DB8408A400144BFB
:100A70009C466444C026B600A55903220240D20019
:100A8000FF2318009040854389010B4093402B437E
:100A9000A35170BD0F230340083B9B089B00094AEC
:100AA00094466344DC6903221040C000FC32150008
:100AB0008540AC4389010A4082402243DA61E8E77D
:100AC00000E100E000ED00E0002805DB1F2202400D
:100AD00001239340014A13607047C04600E100E0E3
:100AE000013880235B0498420FD2094A50600948BC
:100AF000036A1B021B0AC02109060B430362002381
:100B0000936007331360002070470120FCE7C04664
:100B100010E000E000ED00E0F0B583B00C000191C2
:100B200011009208032924D90026076823781B06A0
:100B300065782D042B43E5782B43A5782D022B43B4
:100B40003B60013604349642EFD303231C000C4073
:100B50000B4215D0012C0ED0022C15D19200019B16
:100B60009C5C24029C4662445378234302681380B1
:100B700006E00022E9E7036892000199525C1A70CE
:100B80000368186803B0F0BD9200019B9C5C2402CE
:100B90009C4662445378234301680B800368927833
:100BA0001A70EDE7F0B583B00C0001911100520806
:100BB000012915D90025066823881B0467883B4353
:100BC0003360013504349542F5D3C90704D5036871
:100BD00092000199525A1A800368186803B0F0BD58
:100BE0000022F2E710B5041E39D0437F002B25D038
:100BF000022363772379002B24D12368194A5A6191
:100C00002268936818218B4393606379002B22D16B
:100C10002368012252421A612268936860218B4343
:100C200061690B4393602268936880218B43A169BB
:100C30000B43936001236377002010BD0377FFF718
:100C40000BFBD5E7E268A168200000F035F800282A
:100C5000DBD00120F1E7236822691A61DCE701207B
:100C6000EBE7C046B71DC10470B50400022343770B
:100C70000068836801252B438360236A022B17D009
:100C8000032B06D00020012B0FD12000FFF744FFDB
:100C90000BE0002A07D00B0092008918226801CBD4
:100CA00010608B42FAD1236818680123637770BD06
:100CB0002000FFF777FFF8E7F0B507000120CB072A
:100CC00025D51F231F260125013B27D334001C40B7
:100CD0000800E0400542F7D0102A19D0102A08D8A1
:100CE000002A0BD00120082A11D101200F2B0ED889
:100CF00004E0182A10D10120062B08D83B6859615E
:100D000039688B681820834313438B600020F0BD43
:100D1000072BF3D90120FAE70120F8E7102ADDD1EB
:100D20000120F4E77047704710B52A4B1B692A4A27
:100D300013402A4A9268510721D5284A1469002B8A
:100D40002AD1244B1B69DB070CD5224B01221A61E7
:100D5000224B9B68022B2CD0204B00229A60200053
:100D6000FFF7E0FF1D4B9B68002B07D1194A536921
:100D70001B490B405361194B00221A7010BD1548D6
:100D800041699143416117490A4202D0134AD4682C
:100D9000D5E7124A5469D2E7104A51680B435360B1
:100DA0000C4B0D491961002393602000FFF7BBFF36
:100DB000C7E70A4A9369013B9361002B03D1074BB4
:100DC00000229A60CBE7516901315161106900F04E
:100DD000A1F8C4E700200240FAC300009C080020EC
:100DE000FFFFFFFC01000400064B5B690020002BA5
:100DF00000DB7047034B044A9A60044A9A605869C2
:100E0000C00FF6E70020024023016745AB89EFCD14
:100E1000F8B50400FFF720FE0700164E80256D028E
:100E200033692B4208D0631CFAD0FFF715FEC01BB4
:100E3000A042F5D303201CE00E490A690E4B1500B1
:100E40001D400E4808611A420ED10E008025ED02A9
:100E500033692B420CD0631CFAD0FFF7FDFDC01B99
:100E6000A042F5D3032004E0054B5D60012000E0C3
:100E70000020F8BD00200240FAC30000FBC30000C0
:100E80009C080020F8B506000F0014001D00164B4A
:100E90001B78012B26D0144B01221A7000225A60B5
:100EA000FA208000FFF7B4FF00280DD1012E0FD0EB
:100EB0002100380000F0B8FBFA208000FFF7A8FFFF
:100EC0000A4A5369B3435361074B00221A70F8BDB5
:100ED000064A536901210B4353613C60BFF36F8F96
:100EE0007D60E9E70220F2E79C0800200020024034
:100EF00010B5FA208000FFF78BFF054B596980225F
:100F000012060A435A615869C043C00F10BDC0465B
:100F100000200240044A5369C900044803401943B1
:100F2000034B0B43536170470020024007E0FFFF73
:100F300002000100F8B504000E00224B1B78012BC3
:100F40003DD0204B01221A7000225A60FA20800006
:100F5000FFF75EFF00282ED1042363602368042B73
:100F600019D001235B423360A568E368EB189D420A
:100F70001CD2FA27BF0060682900FFF7CBFF3800BA
:100F8000FFF746FF002810D10135A368E2689B18DF
:100F9000AB42F0D80AE00C4A51690C4B0B43536149
:100FA000FA308000FFF734FF05E03560064A5369E8
:100FB00002218B435361034B00221A70F8BD0220BB
:100FC000FCE7C0469C08002000200240040001000D
:100FD000F0B5DE4657464E464546E0B583B00F684D
:100FE000002F00D1D1E0002200230124A0460234CA
:100FF000694DAB4652E0876825009540AF43B9463E
:10100000CF6897404D462F4387604768B7434E6887
:10101000360945462E409E403E4346604AE0002643
:101020005546AE404D462E433E665D462D68AA4667
:101030006546ED4301954D6880267603354200D024
:1010400094E05646019D2E405D462E606D68AA468E
:101050004D688026B603354200D08BE05646019D90
:101060002E405D466E608426AE594D68AD0300D5B6
:1010700084E0019D2E4084255F467E518026BE5926
:101080004D68ED037DD4019D2E4080275D46EE51D5
:1010900001330F6802323E00DE4076D046469E4065
:1010A0003D003540AC463742F2D04F682740013F03
:1010B000012FA0D94E682640032E22D0C7682600F3
:1010C0009640B7438E6896403E43C6604E682640C1
:1010D000022E16D1DE08B600851901952D6AAA46A2
:1010E00007271F40BF000F25BD40A94655464E4665
:1010F000B543AA460D69BD402F0055462F43019DBB
:101100002F62076826009640B7434E6826409640F7
:101110003E4306604E68C025AD022E42B8D09F08FF
:10112000BF001D4DA9464F443D6E019525001D4051
:10113000ED00AA460F255646B540019EAE43B14686
:10114000A025ED05A84200D169E7144EB04209D0B0
:10115000134EB04208D0134D4619751EAE417600AD
:1011600003365DE701265BE7022659E765465646EA
:101170002E4369E7654656462E4372E765462E4381
:1011800079E7654635432E007FE703B0F0BCBB46E8
:10119000B246A946A046F0BD001802400004005027
:1011A0000008005000F4FFAFF0B5D6464F46464663
:1011B000C0B50B68002B5AD000220124A14620E0C4
:1011C000C3689846270067437B009C46BC4463463F
:1011D000DE430B697B439A46454663469D432B009D
:1011E00055461D43C5604B68022B25D004684B68EB
:1011F0007B4334402343036001320B681C00D4401E
:1012000035D04E4696401C0034403342F4D04B68F3
:10121000013B012BD4D88368270067437E00F61971
:10122000B3438E687E43334383604368A343CE68F1
:10123000664333434360C3E7FF2C0CD8036A3C008A
:101240007C43A44624016546641BA3434C696C435C
:1012500023430362CAE7436A240A644364432501C3
:101260002D1BAB434D696C4323434362BEE7002013
:10127000E0BCBA46B146A846F0BD0000054B9B68ED
:10128000054A1B051B0F9B009B581F221340D8408B
:101290007047C0460010024058160008054B9B6876
:1012A000054A5B045B0F9B009B581F221340D840EC
:1012B0007047C046001002403816000810B5174BA2
:1012C0009A6838231340082B26D0102B1DD1134BBE
:1012D000DB68032018400338434258414042104B1A
:1012E0001840104B9C4660440C4AD368D168D468BF
:1012F0005B045B0E58434906490F0131FEF704FFBA
:10130000610F0131FEF700FF10BD044B1B689B0409
:101310005B0F0448D840F7E70348F5E700100240A8
:1013200000EE85FF0024F40000127A00194A1168CB
:1013300080235B000B43136011008022D2000B68F6
:101340001342FCD0134B5968134A11408022D2013A
:101350000A435A6000229A600132FF321A60190073
:10136000802292020B681342FCD10A4B8022520069
:101370001A601900802292040B681342FCD1054BBD
:1013800080225201DA6000229A61013A1A6200203A
:101390007047C04600100240FF80FFFF10B50400F8
:1013A000FFF78CFF2060FFF769FF6060FFF776FFB3
:1013B000A06010BD10B503000020032B00D010BDAD
:1013C000144B5B6D03221A40C0239B021343124A45
:1013D000934208D0114A93420FD0114A934212D13E
:1013E000FFF76CFFEBE70B4B1A688023DB00100064
:1013F00018401A42E3D00B48E1E7064BD86D80074E
:10140000C00FC003DBE7FFF759FFFFF737FFFFF718
:1014100045FFD4E700100240020003000300030070
:10142000010003000024F4000300104A904204D09D
:101430000F4A012093420CD070470E4B196B80224B
:10144000D2010A431A631A6B0B490A401A6300203F
:10145000F2E7084BD96A802292020A43DA62DA6A1A
:1014600006490A40DA620020E6E7C046003801403B
:101470000044004000100240FFBFFFFFFFFFFDFFE0
:1014800070B584B004000D0003680120DB0724D48C
:1014900022688B6809690B4369690B43E9690B434F
:1014A0002F490A401343236063682E4A1340EA68B9
:1014B00013436360A3682C4A1340AA691343A360D3
:1014C0002A4B9C420BD02A4B01209C422CD0E26A32
:1014D0002B880F218A431343E36204B070BD0230AE
:1014E000FFF768FF03000120002BF0D06E68002E8C
:1014F000EDD02A6800200B2AE9D880210902E8698A
:10150000884216D01B49FF20024092005158180013
:10151000FEF7FAFD7308C0183100FEF7F5FD03046D
:101520001B0CE3600020D2E701A8FFF737FF039B05
:10153000D9E71049FF200240920051581800FEF7E9
:10154000E3FD40007308C0183100FEF7DDFD0A4AD4
:10155000024003075B0F1343E3600020B7E7C04678
:10156000F369FFEFFFCFFFFFFFFCFFFF00380140F3
:101570000044004098160008F0FF000082B00A4BBB
:101580001B680193019B431C5A1E9341C0180649D6
:1015900080225202002804D00B681342FAD001388E
:1015A000F8E702B07047C04610E000E0014B186059
:1015B0007047C0460000002003008218934200D10B
:1015C000704719700133F9E770B500260C4C0D4DCA
:1015D000641BA410A64209D1002600F019F80A4C99
:1015E0000A4D641BA410A64205D170BDB300EB5890
:1015F00098470136EEE7B300EB5898470136F2E71B
:10160000C8160008C8160008CC160008C81600083E
:10161000F8B5C046F8BC08BC9E467047F8B5C04651
:10162000F8BC08BC9E46704701B40248844601BC21
:10163000604700BF0D000020000000000000000017
:101640000000000000000000010000000200000097
:101650000300000004000000000000000000000083
:10166000000000000000000000000000000000007A
:101670000000000000000000010000000200000067
:101680000300000004000000060000000700000046
:101690000800000009000000010000000200000036
:1016A0000400000006000000080000000A0000001E
:1016B0000C000000100000002000000040000000AE
:1016C0008000000000010000E9000008C1000008DF
:1016D0000024F400010000000400000030B50D4AB1
:1016E00054698023DB0223435361EFF3108572B604
:1016F0004C1CFF340B00411A1A68CA500433A34231
:10170000FAD10449802252020B691342FCD185F3BD
:10171000108830BD00200240FFFFFFFFFFFFFFFFEA
:10172000FFFFFFFFFFFFFFFFFFFFFFFFFFFFFFFFC9
:10173000FFFFFFFFFFFFFFFFFFFFFFFFFFFFFFFFB9
:10174000FFFFFFFFFFFFFFFFFFFFFFFFFFFFFFFFA9
:10175000FFFFFFFFFFFFFFFFFFFFFFFFFFFFFFFF99
:101FF000FFFFFFFFFFFFFFFFFFFFFFFFFFFFFF01EF
:102000000020002021480008493900084B39000809
:1020100000000000000000000000000000000000C0
:102020000000000000000000000000004D39000822
:1020300000000000000000004F390008513900087E
:1020400071480008714800087148000859390008B3
:10205000714800087148000871480008714800087C
:102060000000000061390008653900080D3A0008D9
:10207000714800087148000871480008714800085C
:10208000E93A00087148000871480008313C00082E
:1020900000000000793C0008BD3C000871480008C1
:1020A000714800087148000871480008E13C0008C8
:1020B000253E0008714800080000000000000000F4
:1020C00010B5064C2378002B07D1054B002B02D00E
:1020D000044800E000BF0123237010BD2801002048
:1020E0000000000008650008044B10B5002B03D069
:1020F0000349044800E000BF10BDC04600000000D6
:102100002C010020086500080023C25C0133002A6E
:10211000FBD1581E70470000002243088B4274D345
:1021200003098B425FD3030A8B4244D3030B8B42D8
:1021300028D3030C8B420DD3FF22090212BA030CE1
:102140008B4202D31212090265D0030B8B4219D3C2
:1021500000E0090AC30B8B4201D3CB03C01A5241E2
:10216000830B8B4201D38B03C01A5241430B8B422A
:1021700001D34B03C01A5241030B8B4201D30B0313
:10218000C01A5241C30A8B4201D3CB02C01A52413A
:10219000830A8B4201D38B02C01A5241430A8B42FD
:1021A00001D34B02C01A5241030A8B4201D30B02E6
:1021B000C01A5241CDD2C3098B4201D3CB01C01A00
:1021C000524183098B4201D38B01C01A524143090A
:1021D0008B4201D34B01C01A524103098B4201D3F8
:1021E0000B01C01A5241C3088B4201D3CB00C01A65
:1021F000524183088B4201D38B00C01A52414308DD
:102200008B4201D34B00C01A5241411A00D2014601
:10221000524110467047FFE701B5002000F0F0F88A
:1022200002BDC0460029F7D076E7704703460B434E
:102230007FD4002243088B4274D303098B425FD3BF
:10224000030A8B4244D3030B8B4228D3030C8B42EB
:102250000DD3FF22090212BA030C8B4202D31212D1
:10226000090265D0030B8B4219D300E0090AC30BA6
:102270008B4201D3CB03C01A5241830B8B4201D353
:102280008B03C01A5241430B8B4201D34B03C01A3C
:102290005241030B8B4201D30B03C01A5241C30AB4
:1022A0008B4201D3CB02C01A5241830A8B4201D325
:1022B0008B02C01A5241430A8B4201D34B02C01A0F
:1022C0005241030A8B4201D30B02C01A5241CDD2B4
:1022D000C3098B4201D3CB01C01A524183098B42FF
:1022E00001D38B01C01A524143098B4201D34B01E8
:1022F000C01A524103098B4201D30B01C01A52414B
:10230000C3088B4201D3CB00C01A524183088B42D1
:1023100001D38B00C01A524143088B4201D34B00BA
:10232000C01A5241411A00D201465241104670472C
:102330005DE0CA0F00D04942031000D34042534031
:1023400000229C4603098B422DD3030A8B4212D3F1
:10235000FC22890112BA030A8B420CD38901921123
:102360008B4208D3890192118B4204D389013AD060
:10237000921100E08909C3098B4201D3CB01C01A35
:10238000524183098B4201D38B01C01A5241430948
:102390008B4201D34B01C01A524103098B4201D336
:1023A0000B01C01A5241C3088B4201D3CB00C01AA3
:1023B000524183088B4201D38B00C01A5241D9D2BB
:1023C00043088B4201D34B00C01A5241411A00D23C
:1023D0000146634652415B10104601D34042002B38
:1023E00000D54942704763465B1000D3404201B5B7
:1023F000002000F005F802BD0029F8D016E770476C
:102400007047C046414208401C2101231B049842EA
:1024100001D3000C10391B0A984201D3000A083975
:102420001B09984201D30009043902A2105C401A2A
:102430007047C0461B1C1D1D1E1E1E1E1F1F1F1F7A
:102440001F1F1F1F05490B78054AAA20D054981C4E
:1024500008700133DBB25521D1547047440100208C
:102460004801002005490B78054A5520D054981C96
:1024700008700133DBB2AA21D15470474401002017
:1024800048010020030002780020AA2A00D07047EB
:102490005A78552AFBD15A18013A1278AA2AF6D14D
:1024A0005B18023B1878553843425841C0B2EEE7FA
:1024B00030B5411803390D78C3781B028278134375
:1024C0005C1E012B0EDD00230022C1180979521871
:1024D000D2B201339BB2A342F7DBA81A4342584160
:1024E000C0B230BD0022F8E770B505000C00042929
:1024F0000FD9FFF7C7FF03000020012B00D070BDEC
:1025000021002800FFF7D4FF013843425841C0B2F0
:10251000F5E70020F3E710B50400002909D00023F7
:102520000020E25C8018C0B201339AB29142F8D820
:1025300010BD0020FCE7000010B5837901338371E2
:10254000C3790133C371054B1B78012B02D002F014
:102550000BF910BD02F0ACF8FBE7C046C500002047
:1025600010B502F0A5F810BD10B502F0A1F810BD2D
:1025700010B50248092102F09BF810BDC8000020E8
:1025800030B5124B1B78DAB2002B1ED1104B002154
:1025900019700E4B01311970C3781B0281780B43FF
:1025A000022B12DD0A4C0B4D2378D9B20133DBB27A
:1025B000237083185B796B540132D2B2C3781B024B
:1025C00081780B43023B9A42EEDB30BD6D0B00205D
:1025D0006E0B0020700B002010B50379013B0371D6
:1025E000CA1E835C013B835402F0BEF810BD10B5D7
:1025F000037901330371CA1E835C0133835402F0F3
:1026000057F810BDF0B5C64600B580460F0016005D
:102610001E4A002315001370F41CA4B2FFF712FF2A
:102620002B781B4AD454591CC9B2240A5454991CFF
:10263000C9B2012050541C1DE4B22C700333DBB22C
:102640004146D154002E0BD0002320000134E4B2C7
:10265000FD5C15540133DBB2B342F6D30B4B1C7057
:102660000A4E3578291F89B20A4C2000FFF753FF24
:10267000043C605501353570FFF7F4FE31782000D9
:1026800002F016F880BCB846F0BDC04644010020F8
:10269000480100204C01002010B503490122F92017
:1026A000FFF7B0FF10BDC0466C0B002010B503490A
:1026B0000122FA20FFF7A6FF10BDC046C40000208B
:1026C00010B503490222FB20FFF79CFF10BDC04656
:1026D000C200002070B588B06B46DC1DD87102F0D6
:1026E0009BF905002378862B01D008B070BD01222C
:1026F0002100FF20FFF786FF0A2002F093F9224E07
:10270000300003F021FE33680124A3433360EFF36C
:10271000108284F31088336820218B43336082F366
:1027200010881022002104A803F0B8FE174B5A6B42
:1027300022435A635B6B23400293029BC0230393A3
:10274000059403A9124802F041FB114CFA26B60089
:1027500004E002F061F9401BB0420BD84021200098
:1027600002F020FC0028F4D18021200002F01AFCA5
:102770000028EED1BFF34F8F064B074ADA60BFF354
:102780004F8FC046FDE7C0460038014000100240B0
:102790000004005000ED00E00400FA0510B584B01C
:1027A000040010220021684603F078FE0122012C6B
:1027B00005D96946F820FFF725FF04B010BD0123B5
:1027C0006A461370002C0BD10B4B1A7869464A707D
:1027D0005A788A709A78CA70DB780B710522E8E71C
:1027E00000230548C15C1A006A44517001330C2B68
:1027F000F8D10D22DDE7C046600B002010B50D4C6E
:102800002478022C0BD0032C0FD0012C02D0107096
:10281000197010BD0724641A0100E0B2F7E707241D
:10282000201AC0B2611AC9B2F1E70724241A0800BD
:10283000E1B2ECE7880A00201A4B21229B5C002BB6
:1028400006D1184B203ADA850023164A9385704743
:10285000012B07D0022B11D1124B01229A860022A4
:102860005A86F4E70F4B01225242DA8523329B5CF1
:10287000012B15D00B4B30229B5EE6E7032BE6D1F4
:10288000084B012252429A8623329B5C012B03D0D3
:10289000044BDA8E5A86DAE7024B00225A86D6E7D4
:1028A0000023D2E74C02002010B572B60348044959
:1028B000482203F01FFE62B610BDC046D00A0020B9
:1028C000180B002010B505484022002103F0E6FD5A
:1028D00003484822002103F0E1FD10BD8C0A0020CE
:1028E000180B002070B582B0140003000B43072BB7
:1028F00016D86B469E1DDD1D33002A00FFF77EFFB4
:1029000031782D78074A084BC90048194000C65C49
:102910001B185878F60092191454044B5B185C5538
:1029200002B070BD180B0020546500088C0A00200E
:1029300070B582B0040003000B430020072B0DD8B4
:102940006B469E1DDD1D33002A002000FFF756FF59
:10295000034B32782978D2009B18585C02B070BDC6
:102960008C0A0020A023DB051A6803490A401A607C
:10297000024A9A617047C046F0003CFC0000F3191F
:10298000F8B50700FFF79EFF00253E000024325DEA
:10299000E0B22900FFF7A6FF0134082CF7D101357A
:1029A000EDB20837082DF0D1FFF77EFFF8BD00002B
:1029B00030B591B00400032801D911B030BD0A4DE3
:1029C000031D2A789B1AD917890F5B18032213401D
:1029D0005B1A2B7005493D32684603F08BFD684653
:1029E000FFF7CEFF2C70E8E7880A00208C0A002051
:1029F000F0B5DE4657464E464546E0B583B0040086
:102A00000D0001921E000CAB1B789A460DAB1B7893
:102A10000200203A5F2A00D92024002B10D13378FD
:102A20007268203C5C43A4B2002B41D0072D3FD8F4
:102A30009146A144AB46012398465B1B00932CE0D2
:102A4000FFF740FFEBE7002221003800FFF74AFFC5
:102A500001350134E4B27278EBB29A420CD9072CFA
:102A6000F6D85B462B4142461A42ECD05246210032
:102A70003800FFF737FFEBE7BB46009B5B4432783B
:102A8000DBB29A4214D958460130C3B29B460123A7
:102A90009C46E1445B46082B0AD04B461F7873786E
:102AA000002BEAD0019C00253B005F469B46D6E701
:102AB000FFF7FAFE03B0F0BCBB46B246A946A046FB
:102AC000F0BD0000034A031C072800D90723137038
:102AD0007047C046C000002010B5012808D0022869
:102AE0000BD0002803D10A4B26220021995410BD97
:102AF000074B262201219954F9E7054B2622022192
:102B00009954FFF7DFFEFFF7CFFEFFF795FEEEE7E4
:102B10004C02002010B50400064B1B78012B02D09C
:102B2000044B1C7010BD0028FAD10220FFF7D4FF1F
:102B3000F6E7C04648020020F0B5D6464F46464666
:102B4000C0B58D4B26229B5C002B09D18B4B1B788B
:102B5000012B05D1884A936AC31A928C934204D2FE
:102B6000E0BCBA46B146A846F0BD834CA062FFF770
:102B7000A9FE2223E35C012B0AD07F4B21229B5C20
:102B8000012B00D8A7E000257B4E7D4B9846D4E072
:102B9000794B21229B5C012B2CD90025764EB04627
:102BA0003700774B9A4663E0734A3821525E93426E
:102BB0000FDB9B1A9342FCDA0BE00134082C10D097
:102BC0002C22AB5E1B19EFD56B4A3821525E9B1845
:102BD000FDD4FF2BF1DCF25CE0B24146FFF782FE50
:102BE000EBE70137082F0AD0FBB2984600243E02DB
:102BF0004E44E5E70027624B99465F4DF4E75E4A95
:102C0000938DD18D5B1898B21BB293853821515E9C
:102C10008B4202DB584B401A9885574B2C229B5E07
:102C2000002B00DBA0E0544A5B1893859CE04246F1
:102C30003821525E93420EDB9B1A9342FCDA0AE083
:102C40000134082C11D03222B35E5B19EFD5382144
:102C50007A5E9B18FDD4FF2BF2DC22025244D25C38
:102C6000E0B24946FFF73EFEEAE70135082D03D002
:102C7000EBB299460024E6E73F4A538E918E5B18EB
:102C800098B21BB253863821515E8B4202DB3A4B1D
:102C9000401A5886384B32229B5E002B64DA364A43
:102CA0005B18538660E00134082C0BD0AB8D1B19E8
:102CB0009BB2FF2BF7D81BB2F25CE0B24146FFF7A4
:102CC00011FEF0E70137082F0AD0FBB29846002426
:102CD0003E024E44EAE70027294B9946264DF4E789
:102CE000254AD18D938DCB181BB29385002B03DB26
:102CF0003020125E9A4237DA1F4B22229B5C022B55
:102D000003D01D4B0022DA852EE01B4B4942D985AA
:102D10002AE00134082C0DD0738E5B199BB2FF2B77
:102D2000F7D81BB222024244D25CE0B23900FFF76E
:102D3000D9FDEEE70135082D02D0EFB20024EBE714
:102D40000D4A918E538ECB181BB25386002B03DB9A
:102D50003620125E9A4207DA074B22229B5C022B36
:102D600005D0054B00229A86FFF79EFDF8E6024B40
:102D700049429986F8E7C0464C02002048020020EC
:102D800088020020F0B5DE4657464E464546E0B57F
:102D900089B007000D00069114001E0012AB1B78CD
:102DA0009B4613AB1B88984614AB1B780193AE4827
:102DB0003C22002103F072FBAC488022120100216A
:102DC00003F06CFB2A00202D2FD8A748390003F010
:102DD00091FBA54A2123D65401335946D154434689
:102DE000938426230021D154012E24D92178002256
:102DF000072905D808235B1ADA0FD2185210D2B26D
:102E00003E78002E00D101E1069B002B00D1FDE0B1
:102E1000002304930021079201339C46934B9A466A
:102E200005913A00019B9846C6E08F482022390060
:102E300003F060FBCDE73A78002A00D1EDE0069B75
:102E4000002B00D1E9E0002001239846874B9A46E9
:102E5000130002000D00B946019902914DE066464B
:102E600002960130C0B216000127013BC918039237
:102E700001974B460493029B8446894618001DE047
:102E80000120F0E7013267789F420CD90133DBB2B1
:102E9000072BF7D80F00174145463D42F2D01F02DD
:102EA0005744B855EEE7029D6B461B7963450FD238
:102EB0000136019B01330193FF2E09DC4B46019A39
:102EC000995C6378002BEFD0002200230295DDE7A8
:102ED000039A049B9946030060460293A3789B18CB
:102EE000C01802B24B461B78002B00D1B3E0069904
:102EF000A94200D1B5E0FF2A1FDC0135EDB2012166
:102F00008C46E144180020385F2800D92023267819
:102F10006168203B73439BB2013E70B23606AFD46A
:102F2000CF18029EB4463E5C002E98D101380606AA
:102F3000F9D560460290404695E704928CE0013254
:102F400001339BB26778D1B28F420AD90100114197
:102F500067460F42F3D0FF2BF1D801994746CF5473
:102F6000EDE7484601360130C0B22278F3B29A420A
:102F700010D90728F6D86378002BF3D0039B9F5D08
:102F8000029B002201028946A944494601918146DB
:102F90003800DBE75246AA466078A6788019049B81
:102FA000C3181BB204931678002E3DD006990598DD
:102FB000814239D0FF2B37DC05990131CBB2059323
:102FC0000132300020385F2800D920262078676839
:102FD000203E4643B5B20028DED007980026B94609
:102FE000A944049B5F1CBBB202934B460393554616
:102FF0009246BEE7002304936278049BD3181BB269
:10300000049314E0002304930122F6E75B46012BAE
:10301000F0D00023049300220FE05B46012BF1D097
:1030200000230493002208E05B46012BE4D0002239
:10303000049B082B01DD083B1AB20B49049B0B874C
:103040000A86CA86FFF7F8FB09B0F0BCBB46B24659
:10305000A946A046F0BD04925B46012BE7D10122B0
:10306000CBE70492F8E7C0464C020020880200201B
:1030700010B50B4B00221A70002801D0012905D091
:10308000074901221020FFF7BDFA10BD0078012882
:10309000F6D8FFF73FFD024B01221A70F0E7C04659
:1030A000CC0A002010B5034901221120FFF7AAFA2B
:1030B00010BDC04648020020F8B5CE46474680B550
:1030C0001C4B00221A701C4B1B78002B26D10028A9
:1030D00027D0012925D90778002F1BD00025431CB4
:1030E000994607264023984605E0FFF7FBFB01358C
:1030F000EBB2BB420CD24B465B5DD808304031008E
:10310000194042461A4044461C42EED03200ECE7D9
:10311000FFF7CAFB074B01221A7002E0054B02229F
:103120001A70044901223020FFF76CFAC0BCB9467E
:10313000B046F8BDCC0A002048020020F0B5C646D3
:1031400000B590B0144B00221A7000281FD001293E
:103150001DD903789846002B19D00024451C072759
:103160000D4E285D39000140C0083840FFF7E0FBF4
:1031700033785A1CD2B23270411E88416946C85415
:103180000134E3B24345ECD33220FFF73BFA10B0F1
:1031900080BCB846F0BDC04649020020F0B5C64626
:1031A00000B507001C4B00221A701C4B1D78002D27
:1031B00026D1002827D0082925D1FFF783FBA84670
:1031C000802615E04146FFF78DFB0134082C08D01E
:1031D000E0B239782A00330023410B42F2D00722B3
:1031E000F0E743460133DBB298460137082B01D0A4
:1031F0000024EDE7FFF758FB074B01221A7002E0AD
:10320000054B02221A70044901223120FFF7FAF916
:1032100080BCB846F0BDC046CC0A00204802002061
:10322000F0B583B008220021684603F037F96D46F7
:10323000002607270724381BC0B23100FFF778FBB0
:10324000431E9841A0402B7818432870013CF2D2CD
:103250000136F6B20135082EECD10822694633203A
:10326000FFF7D0F903B0F0BD10B50400104B0122F8
:103270001A70002804D00078032801D8022908D049
:103280000B4B00221A700A490122E020FFF7BAF91D
:1032900010BDFFF78DFB6378002BF4D001F032FBFB
:1032A000044B1B789842EED0180001F0FFFAEAE7D1
:1032B000CC0A0020880A002000B583B06B46D91DD7
:1032C000044B1B780B700122E120FFF79BF903B040
:1032D00000BDC046880A002010B50400104B012232
:1032E0001A70002801D0022908D00D4B00221A7054
:1032F0000B490122E220FFF785F910BD007807286D
:10330000F3D8FFF7DFFB6378002BF1D001F030FB3F
:10331000044B1B789842EBD0180001F0F9FAE7E76C
:10332000CC0A0020C000002010B503490122E32090
:10333000FFF768F910BDC046C0000020F0B585B0A9
:10334000154B00221A70154B1B78012B09D0124B1C
:1033500002221A70104901224020FFF753F905B0EC
:10336000F0BD0028F6D00329F4D907783B090C4AB0
:10337000C178061D0724029485782D0244782C43D9
:1033800001940F243C4000943000FFF7FBFC024BFB
:1033900001221A70DEE7C046CC0A00204802002055
:1033A0003065000870B58AB001AE0F4C2123E35C94
:1033B0001B012222A25C13433370A38C73701B0A7F
:1033C000B3702000FEF7A0FE0200C5B2F570210028
:1033D00002A803F08FF80435EAB231004120FFF76C
:1033E00011F90AB070BDC0464C02002010B50C4B5C
:1033F00000221A700B4B1B78012B08D0084B0222BD
:103400001A70074901224220FFF7FCF810BD03287B
:10341000F7D8FFF761FB024B01221A70F1E7C046B3
:10342000CC0A00204802002010B5034901224320A5
:10343000FFF7E8F810BDC0467202002030B583B037
:10344000114B00221A70114B1B78002B12D100284F
:1034500013D0022911D141780D4B0F320A400909CE
:1034600000780124019407250095FFF7C1FA064B67
:103470001C7002E0044B02221A700349012234201E
:10348000FFF7C0F803B030BDCC0A0020480200208E
:103490003065000810B50A4B01221A70094B1B78E1
:1034A000012B09D0FFF70EFAFFF7FEF904490122BC
:1034B000E420FFF7A7F810BD0220FFF70DFBF1E7AE
:1034C000CC0A00204802002000B583B0144A916B5A
:1034D000012319439163926B13400193019B114B9C
:1034E000C22292009858104908408021C901014326
:1034F000995080218900196098580C490840802112
:10350000C90301439950F8321A60002201210B20AF
:1035100001F0ACFA0B2001F0DBFA03B000BDC046AD
:103520000010024000E100E0FF00FFFFFFFF00FF8E
:1035300070B588B01422002103A802F0AFFF124B2F
:103540005A6B012422435A635A6B22400192019A1A
:10355000596B0222114359635B6B1A400292029B22
:103560000A4EA025ED0500223100280001F020FDC3
:103570000396049400230593069303A9280001F001
:1035800025FC08B070BDC04600100240F3190000D1
:10359000084B094A1A60094A1A6002225A60084A0E
:1035A0009A6019000722CB681A42FCD1014B054AE8
:1035B0001A60704700300040CCCC00005555000028
:1035C000FF0F0000AAAA000082B080239B050C48D0
:1035D0000C4A99181A000433096811608342F7D124
:1035E000094A116C012319431164126C13400193B1
:1035F000019B064A136803210B43136002B0704716
:10360000C0000020002000E800100240000001403F
:1036100010B501F0B3F9104B187001F073F9FF28E1
:103620000CD001F06FF90D4B187001F0A1F9FF28D3
:103630000BD001F09DF9FFF745FA10BD074B0022B2
:103640001A70002001F032F9EFE7054B07221A70DB
:10365000F83801F05DF9F0E76C0B0020880A0020D3
:10366000C000002070B501F0EFF9050001F0F2F99B
:10367000040001F0F5F9024B1D605C60986070BDBC
:10368000600B002000B593B03822002104A802F09E
:1036900005FF10220021684602F000FF8020800014
:1036A00001F08CFC0A230493F6330793002308935C
:1036B000402209923F3A0A9201320B920C920D93EA
:1036C00008330E9380239B020F93C023DB041093D7
:1036D00080239B05119304A801F0A2FC00280ED1C1
:1036E00007230093053B01930023029303930221D8
:1036F000684601F083FF002803D113B000BD72B605
:10370000FEE772B6FEE7000070B5FFF75DFFFFF75A
:103710007FFFFFF7A7FF01F05FF9FFF7B3FFFFF7A8
:1037200007FFFFF7D1FE00F081FD00F0E7FEFFF795
:103730002FFF00F049FC00F083FC00F0BFFC00F01C
:1037400007FC012001F06EF9624C200002F050FAF3
:103750000021200002F0CCFB012001F063F95E4B58
:1037600002256D421D61DA6801242243DA601A687D
:1037700022431A60012001F055F9584B1D61DA68A7
:103780002243DA601A6822431A60012001F04AF9E4
:10379000534B1D61DA682243DA601A6822431A60CB
:1037A000012001F03FF94F4C4F4E250015E0DF2B73
:1037B0000ED92033DAB21F2A0AD893004B4AD358C5
:1037C0009F464B4B19780139C9B24A48FFF750FC64
:1037D00000232B70484B494A1A6001F01DF9FFF78E
:1037E000ABF92378012BF5D13378DBB2432BDED84C
:1037F0000F2BEDD9103BDAB2332AE9D89300404AB7
:10380000D3589F46FFF74EFCE2E7394B1978013950
:10381000C9B23848FFF750FCDAE7354B197801395F
:10382000C9B23448FFF78AFCD2E7314B1978013925
:10383000C9B23048FFF7B2FCCAE7FFF7F1FCC7E7AF
:103840002B4B19780139C9B22A48FFF70DFDBFE7A4
:10385000FFF732FDBCE7264B19780139C9B225487C
:10386000FFF73AFDB4E7FFF75FFDB1E7204B1978AA
:103870000139C9B21F48FFF761FDA9E7FFF792FDC3
:10388000A6E7194B5878C0B2FFF7B0FDA0E7FFF7E5
:10389000CBFD9DE7164B19780139C9B21548FFF7E2
:1038A000CDFD95E7FFF7F6FD92E70F4B5878C0B2D4
:1038B000FEF774FF8CE7FEF7EFFE89E7FEF7F6FEF2
:1038C00086E7FEF7FDFE83E7074B5878C0B2FEF7A8
:1038D00001FF7DE7901000200020004000480140DB
:1038E000004401406D0B0020700B0020C8670008E9
:1038F0006E0B0020710B002000300040AAAA0000CF
:103900004868000872B6FEE700B583B00D4B196C2D
:10391000012211431964196C0A400092009ADA6B73
:10392000802149050A43DA63DB6B0B400193019B5D
:1039300000220121032001F099F8032001F0C8F8CA
:1039400003B000BD00100240FEE7FEE7704770477D
:1039500010B501F055F810BD10B501F0E3F810BD39
:103960007047000070B5244B1B689B063FD5224B67
:1039700020225A60214A136801218B43136072B6DA
:103980001F4BC22292009B5C002B0ED01C4C1D4D85
:10399000605D01300231FEF72FFDC9B26155C222D0
:1039A0009200A35C013BDBB2A354154BC2229200F0
:1039B0009B5C002B1CD01249124BCB5CDC011A190A
:1039C00052008A180132FF3210881B195B005B1805
:1039D0000A4AD36053681B0C1B04034353601368EB
:1039E00001210B431360084B00221A7062B670BDB0
:1039F000054B01221A70F9E7000002401C0002404A
:103A0000E813002006030000C700002070B52F4B0C
:103A10001B689B0440D52D4B802292015A602C4A92
:103A2000136801218B43136072B62A4BC2229200A5
:103A30009B5C002B0ED0274C274D605D013002317E
:103A4000FEF7DAFCC9B26155C2229200A35C013BC9
:103A5000DBB2A3541F4BC22292009B5C002B30D0E0
:103A60001C491D4BCB5CDC011A1952008A1801322B
:103A7000FF3210881B195B005B18154AD36053682E
:103A80001B0C1B0403435360136801210B43136099
:103A9000124B00221A7062B60C4B1B689B030FD5A9
:103AA0000A4B802252025A60802292025A600C4ACB
:103AB000136801218B4313600A4A13688B43136018
:103AC00070BD064B01221A70E5E7C04600000240B7
:103AD00044000240DC10002006030000C600002065
:103AE00058000240002C0140F0B5DE4657464E46D5
:103AF0004546E0B583B0474B1C69E2431A61A30712
:103B000003D5444BDB689B070CD4E40703D5414B3A
:103B1000DB68DB070ED403B0F0BCBB46B246A94657
:103B2000A046F0BD3B4AD36802218B43D360FEF729
:103B300019FFEAE7374AD36802218B43D360FEF7C7
:103B400011FF354B354A12789B5C9B46002B54D0B5
:103B5000334B1B780193334D9C466544324C122302
:103B60009946A144002600270B3B9846063B9A46FF
:103B700003E0083502344C450DD02B7842461A42FA
:103B8000F7D02088FEF73EFC4000534683401F4399
:103B90000136F6B2EDE7002E2FD0234A019B5B00E1
:103BA0009C5A2000FEF72EFCA022D20594611168D9
:103BB00040000123834039430B4313601B4B7600C5
:103BC000F25A5B4653431A001B019B1ADB001B0A87
:103BD0001A1CF021C9009BB28B4200D90A1C93B277
:103BE000002B00D1012292B20A4B5A6303225242A7
:103BF0001A61DA6802210A43DA60094B1B78013343
:103C0000DBB2072B02D8064A137084E7044B00226C
:103C10001A7080E7000400404C650008C0000020D6
:103C2000CD0A0020D00A0020D465000838650008BD
:103C300010B50E4B1B69DB0716D50C4B0222524206
:103C40001A610B4C2378013B23700A48092100F0CC
:103C50002FFD2378002B07D1044BDA6801218A431A
:103C6000DA601A688A431A6010BDC046002000401E
:103C7000DD000020D40000200C4B1B69DB0714D5AD
:103C80000A4B022252421A61094B1B78002B0CD1BD
:103C9000074B01211970074BDA680A43DA601A688A
:103CA0000A431A60044B03221A7070470044014013
:103CB000C500002000200040DD00002010B5064BAC
:103CC0001B69DB0707D5044B022252421A610348E5
:103CD000092100F049FD10BD00480140C800002046
:103CE000F0B5C64600B54B4BDB69DB0644D5494B06
:103CF0001B68DB0640D5474B10221A62464B1A68F8
:103D000001218A431A605A6880235B009B1A9BB288
:103D1000002B2DD041490C78E4B20A780132012001
:103D200002400A70097809023D4A89183A4AD1606E
:103D30005168090C090480256D0029435160116800
:103D400001431160EFF3108580F3108831498A68D0
:103D50003F3002438A6085F31088082B0CD9240277
:103D60002F4AA418E7183E00093EB4420AD903E0DE
:103D7000294A13680B43136080BCB846F0BD013478
:103D8000B442F9D82378AA2BF9D16378552BF6D110
:103D9000E2781202A3781343FA2B1BD806339DB2A4
:103DA000082D17D963199846BB42E5D8023B1B780A
:103DB000552B11D14346013B1B78AA2B0CD16379BB
:103DC000FD2B0BD0FE2B0DD129002000FEF7B4FBFC
:103DD0004446D5E70134D3E70134D1E7FEF7C8FB09
:103DE0004446CDE72379012B05D029002000FEF7BA
:103DF000F3FB4446C4E729002000FEF775FB0128C9
:103E000001D04446BCE729002000FEF7B9FB444638
:103E1000B6E7C0460038014008000240710C00209F
:103E2000740E0020F8B5434BDB69DB0646D5414BE9
:103E30001B68DB0642D53F4B10221A623E4B1A68C4
:103E400001218A431A605B6880246400E41AA4B2EA
:103E5000002C2FD0394A1078C0B2137801330121D9
:103E60000B40137012781202354BD218324BDA60C5
:103E70005A68120C120480256D002A435A601A6891
:103E80000A431A60EFF3108581F31088294A93687A
:103E90003F310B43936085F31088082C0ED9000244
:103EA000274BC01804192500093DA84206D88026D2
:103EB000760007E0204A13680B431360F8BD013019
:103EC000A842FBD80378AA2BF9D14378552BF6D119
:103ED000C3781B0281781943B1421AD8063189B2DE
:103EE000082916D94718A742E8D83B00023B1B789F
:103EF000552B10D13B00013B1B78AA2B0BD14379EA
:103F0000FD2B0CD0FE2B08D0FC2B0FD0FEF76FFB47
:103F100005E00130D4E70130D2E7FEF721FB0023B2
:103F2000084A5362084A13703800C9E7FEF71CFBC1
:103F3000F5E7C0460044004030000240700C00200D
:103F4000740C002000440140C500002070470000B0
:103F500030B583B0164AD16B02231943D163D26BBB
:103F600013400193019B134C134B23600D2363609B
:103F70000025A560F023DB00E36025618023A361B9
:103F8000200001F005FF0D490D600D4B4B608D6069
:103F90000022200001F068FF0A49C42292008B58D9
:103FA000FF2083438B50EF3800F092FD03B030BD0B
:103FB0000010024090100020000400407410002007
:103FC000BF03000000E100E030B587B001AC14226F
:103FD0000021200002F062FA144B1A6C80210902C1
:103FE0000A431A641B6C0B400093009B104AC420C8
:103FF000800013581B021B0A802109060B43135033
:1040000080231B0313600B4B2380002363600A4A49
:10401000A260E360094D2100280002F019F92B6825
:10402000802213432B6007B030BDC0460010024011
:1040300000E100E0FF180000A3060000002000409F
:1040400030B587B001AC14220021200002F026FA1E
:10405000144B1A6C802189020A431A641B6C0B40B2
:104060000093009B104BC520800019580F4A114047
:10407000802212020A431A50802292031A600C4BCB
:104080002380002363600B4AA260E36023610A4D32
:104090002100280002F0DCF82B68802293432B607B
:1040A00007B030BD0010024000E100E0FF00FFFF5C
:1040B000FF1800002F7500000044014030B587B0A4
:1040C00001AC14220021200002F0E8F9144B1A6C14
:1040D0008021C9020A431A641B6C0B400093009BA9
:1040E000104BC520800019580F4A1140802212043D
:1040F0000A431A508022D2031A600C4B23800023FB
:1041000063600B4AA260E36023610A4D210028002E
:1041100002F09EF82B68802293432B6007B030BDDD
:104120000010024000E100E0FFFF00FFFF18000068
:104130000F2700000048014000B583B00B4B026818
:104140009A4201D003B000BD094AD16B0223194342
:10415000D163D26B13400193019B002200211020F8
:1041600000F084FC102000F0B3FCEBE700040040FA
:104170000010024070B5EFF31080012181F3108828
:10418000234A13680C242343136080F31088EFF351
:10419000108081F31088136804342343136080F384
:1041A00010881C4B1C4898601C48007800021C4D6D
:1041B0004019D8605868000C000480256D00284321
:1041C00058601868FE3D2843186018680826304378
:1041D0001860186808431860EFF3108081F31088A6
:1041E000936838363343936080F3108814620D4B24
:1041F0000D489860EFF3108081F310889168703457
:104200002143916080F310881A682A431A6070BDB8
:10421000003801400800024024380140710C0020A1
:10422000740E00201C00024028380140F0B5DE4624
:1042300057464E464546E0B59BB02022002112A8C5
:1042400002F02CF9182200210CA802F027F92422F0
:10425000002103A802F022F90123029302A801F031
:10426000A1FA002800D0CCE0674B1A6C8021C9016C
:104270000A431A641A6C0A400192019A5A6B022589
:104280002A435A635B6B2B400093009B4023984664
:104290000C930D950E9500240F9401261096119401
:1042A0005A4B99460CA9180001F0CAFE80270C97BA
:1042B0000D950E950F94109611940CA9484601F097
:1042C000BFFE534A13683F218A468B430D390B4387
:1042D0001360504B1A68504989460A401A601A68A0
:1042E0004E498C460A401A601A681E35AA431A6065
:1042F0001A6841468A431A601A68BA433A431A60F8
:104300001A68474802401A601A6846498B460A40B4
:104310001A60454A136851468B430C390B431360AE
:10432000424B1A6849460A4010210A431A601A682B
:1043300061460A401A601A68AA431A601A68414620
:104340008A431A601A68BA433A431A601A680240EC
:104350001A601A6859460A401A60354AC620800019
:1043600013581B021B0A8021C9050B4313508023DD
:104370001B0513601294E1235B02139314941594AC
:1043800016940C231793189419942A4C12A9200000
:1043900002F006F8EFF3108286F31088A368DB00C2
:1043A000DB08A36082F31088EFF3108286F3108895
:1043B000A36821490B40A36082F3108823681F4A39
:1043C0001340236063681E4A13406360A3682A2277
:1043D0009343A36023683343236022008021890331
:1043E0008020C003D3690B42FCD0D3690342F9D0CB
:1043F000FFF7C0FE1BB0F0BCBB46B246A946A046C4
:10440000F0BDFFF77FFA2FE70010024000040050D4
:104410000008024008000240EFBFFFFFFFCFFFFF90
:10442000FFFCFFFFFFF3FFFF040802401C000240F7
:1044300000E100E000380140FFFFFFF1FFFFFFDF78
:10444000FFB7FFFF70B5EFF31080012181F31088F3
:10445000234A13680C242343136080F31088EFF37E
:10446000108081F31088136804342343136080F3B1
:1044700010881C4B1C4898601C48007800021C4D9A
:104480004019D8605868000C000480256D0028434E
:1044900058601868FE3D28431860186808263043A5
:1044A0001860186808431860EFF3108081F31088D3
:1044B000936838363343936080F3108814620D4B51
:1044C0000D489860EFF3108081F310889168703484
:1044D0002143916080F310881A682A431A6070BDE6
:1044E000004400403000024024440040700C002092
:1044F000740C00204400024028440040F0B5DE4621
:1045000057464E464546E0B591B020262022002170
:1045100008A801F0C3FF00240594594BDA6B8021F1
:1045200089020A43DA63DA6B0A400192019A5A6BF4
:1045300001252A435A635B6B2B400093009B0423A5
:10454000029302270397049706950795A023DB059E
:10455000984602A9180001F073FD082302930397FF
:10456000049705940695079502A9404601F068FD59
:10457000444A13683F218A468B430B390B4313602F
:10458000414B1A68414989460A401A601A684049F5
:1045900088460A401A601A68B2431A601A684021B5
:1045A0008A431A601A6880208446824302431A6054
:1045B0001A68384F3A401A601A68374883460240F2
:1045C0001A60364A1368504683430A38034313601F
:1045D000334B1A6848460240102002431A601A689A
:1045E000404602401A601A68B2431A601A688A4349
:1045F0001A601A686046824302431A601A683A4099
:104600001A601A68584602401A60264AC72080007D
:104610001358DF36B3430B43135080235B051360FD
:104620000894E1235B0209930A940B940C940C23E5
:104630000D930E940F941C4C08A9200001F0B0FEBD
:1046400063681A4A13406360A3682A229343A360F5
:1046500023682B4323602200802189038020C0032C
:10466000D3690B42FCD0D3690342F9D0FFF7EAFECD
:1046700011B0F0BCBB46B246A946A046F0BDC0464C
:10468000001002400808024030000240EFBFFFFF68
:10469000FFCFFFFFFFFCFFFFFFF3FFFF0C0802400F
:1046A0004400024000E100E000440040FFB7FFFF8B
:1046B000F8B504000D0072B6264BC22080001B5CCA
:1046C000DBB2022B03D880235B00994201D962B68A
:1046D000F8BD204E204FF05DC301C0184000801986
:1046E0000A00210001F006FFF35DDA019B185B0070
:1046F000F3180133FF331D80F05D01300321FDF716
:104700007BFEC9B2F155C2229200B35C0133DBB229
:10471000B354124B1B78002BD9D00E49104BCB5CF5
:10472000DC011A1952008A180132FF3210880B4A34
:10473000002515701B195B005B180A4AD36053688B
:104740001B0C1B0403435360136801210B431360CC
:10475000BDE7C046E813002007030000C7000020A3
:10476000060300001C000240F8B504000D0072B6FC
:10477000264BC22080001B5CDBB2022B03D88023B7
:104780005B00994201D962B6F8BD204E204FF05D22
:10479000C301C018400080190A00210001F0AAFEE0
:1047A000F35DDA019B185B00F3180133FF331D80C2
:1047B000F05D01300321FDF71FFEC9B2F155C222A1
:1047C0009200B35C0133DBB2B354124B1B78002B65
:1047D000D9D00E49104BCB5CDC011A1952008A1853
:1047E0000132FF3210880B4A002515701B195B003F
:1047F0005B180A4AD36053681B0C1B0403435360C5
:10480000136801210B431360BDE7C046DC10002094
:1048100007030000C6000020060300004400024019
:104820000D488546FFF792FB0C480D490D4A0023C1
:1048300002E0D458C4500433C4188C42F9D30A4A55
:104840000A4C002301E013600432A242FBD301F0C2
:104850002DFEFEF759FFFEE700200020C0000020DB
:10486000280100208C6A000828010020141700206D
:10487000FEE710B586B00023059302330193F823B9
:104880001B069C466044C00A03900123049300F079
:10489000A9F905A901A800F04BFA040000F026FAD6
:1048A00063425C41E0B206B010BD0000F0B5C64600
:1048B00000B5804672B6124802684368FF211500B1
:1048C0008D4341460D431E00FFF7D3FF0C4F00F010
:1048D00089F92A0033003900012000F0D1F90400E1
:1048E00000F004FA002CF2D162B6054B187843466A
:1048F000181A43425841C0B280BCB846F0BDC04609
:1049000000F00008014B1878C0B2704700F00008B2
:10491000F0B5C64600B5804672B6124806684768CC
:10492000114D354043461A0215433E00FFF7A1FFE3
:104930000C4F00F057F92A0033003900012000F035
:104940009FF9040000F0D2F9002CF2D162B6074BB7
:1049500018784346181A43425841C0B280BCB84642
:10496000F0BDC04600F00008FF00FFFF01F00008A6
:10497000014B1878C0B2704701F00008014B18785D
:10498000C0B27047FF1F000870B504000F4B1978C4
:104990000120002900D170BD0D4DFA208000FDF7E7
:1049A000BBFB01002868FDF7B7FB00F09DF8030092
:1049B0000120002BEFD1032CEDD800222100404232
:1049C00000F054F8034B1C600020E4E7E4000020F2
:1049D000E0000020E800002010B5084A116880239C
:1049E0005B000B4313600320FFF7CEFF041E02D0D1
:1049F0000124200010BDFEF787FFFAE700200240E7
:104A0000034A1168034B1B785B1813607047C0465C
:104A1000F4160020E4000020014B18687047C046DF
:104A2000F416002070B50400FFF7F6FF0500631CC4
:104A300002D0044B1B78E418FFF7EEFF401BA042A6
:104A4000FAD370BDE4000020014B18687047C046DF
:104A50009075FF1F014B18687047C0469475FF1F83
:104A6000014B18687047C0469875FF1F70B5002845
:104A700014DB8408A400144B9C466444C026B60092
:104A8000A55903220240D200FF231800904085431D
:104A900089010B4093402B43A35170BD0F2303406A
:104AA000083B9B089B00094A94466344DC69032247
:104AB0001040C000FC3215008540AC4389010A401B
:104AC00082402243DA61E8E700E100E000ED00E027
:104AD000002805DB1F22024001239340014A136096
:104AE0007047C04600E100E0013880235B04984233
:104AF0000FD2094A50600948036A1B021B0AC021F1
:104B000009060B4303620023936007331360002000
:104B100070470120FCE7C04610E000E000ED00E037
:104B20007047704710B52A4B1B692A4A13402A4A1E
:104B30009268510721D5284A1469002B2AD1244BA9
:104B40001B69DB070CD5224B01221A61224B9B68A3
:104B5000022B2CD0204B00229A602000FFF7E0FFB0
:104B60001D4B9B68002B07D1194A53691B490B4009
:104B70005361194B00221A7010BD154841699143C9
:104B8000416117490A4202D0134AD468D5E7124A54
:104B90005469D2E7104A51680B4353600C4B0D49DE
:104BA0001961002393602000FFF7BBFFC7E70A4AA3
:104BB0009369013B9361002B03D1074B00229A605C
:104BC000CBE7516901315161106900F0A1F8C4E7E8
:104BD00000200240FAC30000F8160020FFFFFFFC8F
:104BE00001000400064B5B690020002B00DB7047CE
:104BF000034B044A9A60044A9A605869C00FF6E76A
:104C00000020024023016745AB89EFCDF8B50400D1
:104C1000FFF702FF0700164E80256D0233692B4215
:104C200008D0631CFAD0FFF7F7FEC01BA042F5D3F3
:104C300003201CE00E490A690E4B15001D400E486A
:104C400008611A420ED10E008025ED0233692B4215
:104C50000CD0631CFAD0FFF7DFFEC01BA042F5D3D7
:104C6000032004E0054B5D60012000E00020F8BD5A
:104C700000200240FAC30000FBC30000F816002029
:104C8000F8B506000F0014001D00164B1B78012B11
:104C900026D0144B01221A7000225A60FA2080009C
:104CA000FFF7B4FF00280DD1012E0FD021003800EE
:104CB00001F036FCFA208000FFF7A8FF0A4A53698A
:104CC000B3435361074B00221A70F8BD064A53697B
:104CD00001210B4353613C60BFF36F8F7D60E9E7B7
:104CE0000220F2E7F81600200020024010B5FA205A
:104CF0008000FFF78BFF054B5969802212060A439B
:104D00005A615869C043C00F10BDC0460020024020
:104D1000044A5369C900044803401943034B0B4339
:104D2000536170470020024007E0FFFF02000100CE
:104D3000F8B504000E00224B1B78012B3DD0204B10
:104D400001221A7000225A60FA208000FFF75EFFED
:104D500000282ED1042363602368042B19D001237B
:104D60005B423360A568E368EB189D421CD2FA27CA
:104D7000BF0060682900FFF7CBFF3800FFF746FF50
:104D8000002810D10135A368E2689B18AB42F0D827
:104D90000AE00C4A51690C4B0B435361FA30800016
:104DA000FFF734FF05E03560064A536902218B4363
:104DB0005361034B00221A70F8BD0220FCE7C04685
:104DC000F81600200020024004000100F0B5DE4685
:104DD00057464E464546E0B583B00F68002F00D1D8
:104DE000D1E0002200230124A0460234694DAB46E5
:104DF00052E0876825009540AF43B946CF68974099
:104E00004D462F4387604768B7434E68360945468D
:104E10002E409E403E4346604AE000265546AE4046
:104E20004D462E433E665D462D68AA466546ED43D7
:104E300001954D6880267603354200D094E05646B1
:104E4000019D2E405D462E606D68AA464D68802605
:104E5000B603354200D08BE05646019D2E405D469C
:104E60006E608426AE594D68AD0300D584E0019D87
:104E70002E4084255F467E518026BE594D68ED0345
:104E80007DD4019D2E4080275D46EE5101330F6891
:104E900002323E00DE4076D046469E403D00354020
:104EA000AC463742F2D04F682740013F012FA0D9CE
:104EB0004E682640032E22D0C76826009640B7438E
:104EC0008E6896403E43C6604E682640022E16D13C
:104ED000DE08B600851901952D6AAA4607271F40EE
:104EE000BF000F25BD40A94655464E46B543AA46CC
:104EF0000D69BD402F0055462F43019D2F62076865
:104F000026009640B7434E68264096403E430660D2
:104F10004E68C025AD022E42B8D09F08BF001D4D7F
:104F2000A9464F443D6E019525001D40ED00AA465F
:104F30000F255646B540019EAE43B146A025ED056E
:104F4000A84200D169E7144EB04209D0134EB042D6
:104F500008D0134D4619751EAE41760003365DE745
:104F600001265BE7022659E7654656462E4369E768
:104F7000654656462E4372E765462E4379E76546F9
:104F800035432E007FE703B0F0BCBB46B246A946CE
:104F9000A046F0BD00180240000400500008005078
:104FA00000F4FFAF00690840431E9841C0B270474B
:104FB000002A01D0816170478162FCE710B50200D0
:104FC00013490B681348034013430B6080239B0075
:104FD00000209A4200D010BD0F4B1B685800C0182B
:104FE00040000E49FDF798F80130094B5B695B05FD
:104FF0000AD507498022D20001384B69134205D0F7
:105000000028F9D10320E6E70020E4E70020E2E7EA
:1050100000700040FFF9FFFFE000002040420F0059
:10502000F0B5CE46474680B583B0041E00D146E2B7
:105030000368DB0738D5C74A916838230B40D2682C
:10504000102B26D0082B27D063688022520293426F
:105050007AD0A022D20293427DD0BE4B1A68BE49BC
:105060000A401A601A68BD490A401A606368002B3A
:105070007DD0FFF7D1FC0500B64F8026B6023B6815
:10508000334211D1FFF7C8FC401B6428F7D9032035
:1050900016E2D2439207D7D1AE4B1B689B0303D5D0
:1050A0006368002B00D110E223689B072AD5A94A28
:1050B000916838230B40D268102B68D0002B6BD13D
:1050C000A44B1B685B0500D522E2A2494A686369CC
:1050D0001B02A348024013434B609E4A1368A14938
:1050E0000B4021690B43136013689F499B045B0FBE
:1050F0009E4ADA400A609E4B1868FFF745FC00287C
:1051000000D0E4E123681B0700D48BE0914B9A6840
:1051100038231340182B7DD0A369002B00D1C4E0A5
:105120008C4A136E01210B431366FFF775FC0500D3
:10513000884F02263B6E1E4274D1FFF76DFC401B68
:105140000228F7D90320BBE1824A116880235B0261
:105150000B4313608AE77F4B19688022D2020A430F
:105160001A601968802252020A431A607EE7FFF72C
:1051700053FC0500774F8026B6023B68334293D03C
:10518000FFF74AFC401B6428F7D9032098E10D3B48
:105190001340022B00D1ABE1E368002B24D06D4A11
:1051A000136870490B4021690B4313601168802319
:1051B0005B000B431360FFF72FFC0500654F802653
:1051C000F6003B68334206D1FFF726FC401B02285D
:1051D000F7D9032074E15F494A6863691B0260489C
:1051E000024013434B608DE75A4A136861490B40F4
:1051F0001360FFF711FC0500564F8026F6003B6850
:10520000334200D17EE7FFF707FC401B0228F6D9A6
:10521000032055E14F4B1B6E9B0703D5A369002B61
:1052200000D156E123685B0700D4ACE0494B9A6893
:1052300038231340202B4CD0464BDB6B0022914689
:10524000DB000BD4434BDA6B802149050A43DA6358
:10525000DB6B0B400193019B01239946464B1B6876
:10526000DB053FD5A368012B52D0052B56D0394B17
:10527000DA6D01218A43DA65DA6D03318A43DA6532
:10528000A368002B54D0FFF7C7FB0600314B9846AC
:1052900002273A4D4346DB6D1F4271D1FFF7BCFB3D
:1052A000801BA842F6D903200AE12A4A136E012185
:1052B0008B431366FFF7B0FB0500264F02263B6EBB
:1052C0001E42AFD0FFF7A8FB401B0228F7D90320EE
:1052D000F6E0204BDB6D9B0755D5A368002B52D120
:1052E0000120EDE0244A116880235B000B4313602A
:1052F000FFF792FB0600204D80277F002B683B4282
:10530000B0D1FFF789FB801B0228F7D90320D7E033
:10531000104AD36D01210B43D365B1E70D4BDA6D14
:1053200004210A43DA65DA6D03390A43DA65A7E72F
:10533000FFF772FB0600074B984602270F4D4346C6
:10534000DB6D1F421CD0FFF767FB801BA842F6D91C
:105350000320B5E000100240FFFFFEFFFFFFFBFF50
:10536000FF80FFFFFFC7FFFFE00000200024F400E4
:10537000E8000020FFFEFFFF0070004088130000DF
:105380004B46012B21D0E3690020002B00D197E090
:10539000664A916838220A40102A66D0022B1AD039
:1053A000624A136862490B401360FFF735FB040043
:1053B0005E4E8025AD0433682B424FD0FFF72CFBA7
:1053C000001B0228F7D903207AE0584AD36B5949C9
:1053D0000B40D363D7E7554A136855490B40136018
:1053E000FFF71AFB0500514F8026B6043B68334295
:1053F00006D0FFF711FB401B0228F7D903205FE01E
:105400004A4AD168236A606A03434B4801400B4310
:10541000E16A0B43216B0B43616B0B43A16A0902E9
:105420000B43D360116880235B040B431360D16886
:1054300080235B050B43D360FFF7EEFA04003B4E7D
:105440008025AD0433682B4206D1FFF7E5FA001B37
:105450000228F7D9032033E0002031E0334AD36833
:1054600036490B40D36000202AE0012B33D02F4B6C
:10547000DA6803231340216A01208B4220D1702374
:105480001340616A8B421BD1FE21C9011140A36AFE
:105490001B02994214D1F8239B031340E16A8B420B
:1054A0000ED1E0231B051340216B8B4208D1530F13
:1054B0005B07626B9B1A5A1E9341D8B200E0012031
:1054C00003B0C0BCB946B046F0BD0120F8E70120EA
:1054D000F6E70120F4E70120F2E70120F0E71349A5
:1054E0004A6863691B021648024013434B6002E698
:1054F0000E4B1B685B05F2D5E368002BEDD00B4922
:105500004A6863691B020E48024013434B60F2E590
:10551000E3680120002BD3D004494A6863691B0269
:105520000748024013434B60D7E5C04600100240D5
:10553000FFFFFFFEFFFFFFEF8C80C111FCFFFEEEBF
:10554000FF80FFFF10B5294B9B6838221A4206D115
:10555000264B1B689B045B0F2548D84010BD234B8E
:105560009A6838231340082B3AD0204B9A68382386
:105570001340102B14D01D4B9A6838231340202B56
:1055800030D01A4B9B68382018401838431E984179
:105590004042184B1840FA23DB019C466044DDE78B
:1055A000124AD368D1684906490F0131DB439B0792
:1055B0000ED00E4BDC686404640E0D48FCF7ACFDA5
:1055C00060430A4BD968490F0131FCF7A5FDC5E7D7
:1055D000D4686404640E0848FCF79EFD6043F0E75D
:1055E0000548BBE780200002B8E7C0460010024033
:1055F0000024F4000083FFFF00127A00F8B5CE46C5
:10560000474680B504000D00002800D1B6E05D4B90
:105610001A68072313408B4221D323689A070ED5BB
:105620005B0705D5584A9168E023DB010B43936083
:10563000554A936855490B40A1680B439360236812
:10564000DB075BD56368012B23D0022B42D0002BF4
:1056500046D14D4A1268520520D4012070E0494AD3
:10566000136807218B432B431360FFF7D5F906001E
:10567000444B98460727464B994643461B683B4098
:10568000AB42CAD0FFF7C8F9801B4845F5D90320C3
:1056900056E03D4A1268920300D471E03A498A68A4
:1056A0000720824313438B60FFF7B6F90600364BA1
:1056B00098463827364B994643469A683A4063687D
:1056C000DB009A421AD0FFF7A7F9801B4845F3D9AF
:1056D000032035E02C4A12689201DFD401202FE02C
:1056E000032B05D0284AD26D9207D7D4012027E09A
:1056F000254A126E9207D1D4012021E0214B1A686D
:1057000007231340AB421FD823685B0706D51E4A08
:10571000936820490B40E1680B439360FFF712FF49
:10572000194B9B681C491D4A1B051B0F9B009B586E
:105730001F221340D8400860194B1868FFF724F95E
:10574000C0BCB946B046F8BD0E4A136807218B436A
:105750002B431360FFF760F906000A4B98460727B2
:105760000B4B994643461B683B40AB42CCD0FFF7FE
:1057700053F9801B4845F5D90320E1E70120DFE715
:105780000120DDE70020024000100240FFF0FFFF93
:1057900088130000FF8FFFFFE00000203869000839
:1057A000E8000020F0B5D6464F464646C0B582B068
:1057B0000400036800209B032BD5714BDB6B002298
:1057C0009246DB000BD46E4BDA6B802149050A430D
:1057D000DA63DB6B0B400193019B01239A46694A14
:1057E000116880235B000B431360FFF715F9050078
:1057F000644F802676003B68334200D0AFE0FFF76D
:105800000BF9401B0228F6D903205346012B00D187
:105810008AE02368DB0706D5594A536D03218B4381
:1058200061680B4353652368DB0606D5544A536D04
:1058300055490B40A1680B43536523689B0506D56A
:105840004F4A536D51490B4061690B4353652368BF
:105850005B0506D54A4A536D4D490B40A1690B4380
:10586000536523689B0606D5454A536D49490B404D
:10587000E1680B43536523685B040BD5404A536DC5
:105880009B009B08E1690B4353658023DB05E269BC
:105890009A424FD023689B020BD5394A536D3E493B
:1058A0000B40216A0B4353658023DB03226A9A4233
:1058B00047D023681B050BD5314A536D37490B4040
:1058C00021690B4353658023DB0122699A423FD053
:1058D00002B0E0BCBA46B146A846F0BD636A8B424E
:1058E00045D0274BDA6D2E491140DD6D80204002F6
:1058F0002843D865D86D2B4D2840D865D965D20787
:1059000035D5FFF789F805001D4B98460226264B32
:1059100099464346DB6D1E4229D1FFF77DF8401BB7
:105920004845F6D9032070E7154AD36B1F490B4051
:10593000D3636EE7124AD16880235B020B43D360C6
:10594000A8E70F4AD16880235B040B43D360B0E71C
:105950000B4AD16880235B020B43D360B8E7084B46
:10596000DA6DC0239B00110019401A42B6D1044AD7
:10597000D36D0B490B40616A0B43D365002044E7AC
:105980000010024000700040FFF3FFFFFFFFF3FF35
:10599000FFFFCFFFFFCFFFFFFFFFBFFFFF3FFFFF77
:1059A000FFFCFFFFFFFFFEFF88130000FFFFFFEF7C
:1059B00070B5036A026A0124A243026244688269E4
:1059C000184D2A400D682A430225AB438D682B43AE
:1059D000154DA8420CD0154DA8421BD0144DA8421D
:1059E00012D10825AB43CD682B430425AB4305E01A
:1059F0000825AB43CD682B430425AB430D4D254013
:105A00004C698E6934432C43446082614A68426326
:105A1000036270BD0825AB43CD682B430425AB431F
:105A2000ECE7C0468CFFFEFF002C01400044014023
:105A300000480140FFFCFFFF70B5026A036A164C84
:105A4000234003624468C369144D2B400D681D4315
:105A5000134B1A408B681B021343124A904206D024
:105A6000114A90420AD0114A90420ED106E0104AE3
:105A70001A40CB681B0213430E4A13400E4A2240C1
:105A80004C698E693443240114434460C5614A68FB
:105A9000C263036270BDC046FFFEFFFF8CFFFEFFC6
:105AA000FFFDFFFF002C0140004401400048014081
:105AB000FFF7FFFFFFFBFFFFFFCFFFFF30B5046ADB
:105AC000036A114A134003624568C3690F4A1340D1
:105AD0000A6812021A430E4B1C408B681B032343B7
:105AE0000C4CA04205D00C4CA04202D00B4CA04262
:105AF00004D10B4C2C404D69AD0125434560C2617A
:105B00004A680264036230BDFFEFFFFFFF8CFFFEB7
:105B1000FFDFFFFF002C014000440140004801402E
:105B2000FFBFFFFF30B5056A036A114A13400362E5
:105B30004468426D0F4B1A400B681A430E4B1D40D0
:105B40008B681B042B430D4DA84205D00C4DA84279
:105B500002D00C4DA84204D1054D25404C692402C9
:105B60002C43446042654A688265036230BDC0468A
:105B7000FFFFFEFF8FFFFEFFFFFFFDFF002C014038
:105B8000004401400048014030B5046A036A114AEC
:105B9000134003624568436D0F4A13400A681202BE
:105BA0001A430E4B1C408B681B0523430C4CA04230
:105BB00005D00C4CA04202D00B4CA04204D10B4C9F
:105BC0002C404D69AD022543456042654A68C26577
:105BD000036230BDFFFFEFFFFF8FFFFEFFFFDFFF20
:105BE000002C01400044014000480140FFFFFBFF42
:105BF00003003D22825C0120012A16D13C320221A1
:105C000099541968CA680243CA601B68104A9342D3
:105C10000CD08022D205934208D00E4A934205D080
:105C20001A6801210A431A60002070479A680A49DD
:105C30000A40062A08D007398A4207D01A6801218B
:105C40000A431A600020F0E70020EEE70020ECE7AE
:105C5000002C014000040040070001000368464A90
:105C6000904259D08022D205904200D171E0434A3F
:105C7000904213D0424A904200D16EE0414A904295
:105C80003CD0414A90422BD0802293434A6913432F
:105C900003608B68C3620B68836250E07022934399
:105CA0004A681343344A90423AD08022D205904247
:105CB00053D0364A1340CA681343802293434A693B
:105CC000134303608B68C3620B6883622A4B98425C
:105CD00033D02C4B984230D02B4B98422DD02EE015
:105CE0002A4A1340CA681343802293434A691343E4
:105CF00003608B68C3620B6883621EE0234A134013
:105D0000CA681343802293434A69134303608B6834
:105D1000C3620B68836210E0702293434A681343A6
:105D20001A4A1340CA681343802293434A691343B3
:105D300003608B68C3620B6883620B690363012392
:105D400043610269134203D0036901229343036153
:105D50007047702293434A6813430C4A1340CA6841
:105D60001343802293434A69134303608B68C362E1
:105D70000B688362E3E7C046002C0140000400404A
:105D8000002000400044014000480140FFFCFFFFAC
:105D900070B5041E2AD03D23C35C002B20D03D25C6
:105DA00002236355210001C9FFF758FF0123482250
:105DB000A3540A3AA3540132A3540132A35401322A
:105DC000A3540132A3540132A3540132A35401322B
:105DD000A3540132A3540132A3546355002070BD73
:105DE0003C330022C254FEF7A7F9D8E70120F6E7BA
:105DF00070B5046A036A10229343036243688269A0
:105E0000144D2A400D682D021543202294438A68C0
:105E100012012243104CA04206D0104CA0420BD0DD
:105E20000F4CA0420FD107E08024A2431600CA689D
:105E300012013243403CA2430A4C1C404B698E691C
:105E400033439B002343436085614B688363026255
:105E500070BDC046FF8CFFFE002C01400044014095
:105E600000480140FFF3FFFF10B504003C23C35C72
:105E7000012B2BD03C230120E054142A21D892007E
:105E8000134B9B589F462068FFF792FD002019E0B6
:105E90002068FFF7ADFF002014E02068FFF7CCFD7D
:105EA00000200FE02068FFF709FE00200AE02068CC
:105EB000FFF738FE002005E02068FFF765FE0020B0
:105EC00000E001203C230022E25410BD0220FCE748
:105ED0007869000810B51F231940036A01248C401B
:105EE000A3430362036A8A401A43026210BD0000A2
:105EF00010B5040010295FD88B004A4AD3589F463A
:105F00003E23C35C012B00D081E002203E23E054FD
:105F10002268D3680343D36020680122FFF7DAFFC9
:105F20002368414A934205D0404A934202D0404AF6
:105F3000934208D1596C802212020A435A642368A2
:105F4000394A934255D08022D205934251D0394AE2
:105F500093424ED01A6801210A431A60002010BDF6
:105F60003F23C35C012B54D13F230222E254226819
:105F7000D36804200343D360CEE74023C35C0120F1
:105F8000012BECD140230222E2542268D36808207E
:105F90000343D360C0E74123C35C013B5A1E9341D6
:105FA000DBB2002B0CD00120D9E74223C35C013BBC
:105FB0005A1E9341DBB2F4E74323E35C012B2AD161
:105FC000102911D88B001C4AD3589F464123022226
:105FD000E2542268D36810200343D3609CE7422335
:105FE0000222E2540120BAE743230222E2540120B4
:105FF000B5E79A6811490A40062A0ED007398A4245
:106000000DD01A6801210A431A600020A7E7012079
:10601000A5E70120A3E70120A1E700209FE70020DA
:106020009DE7C046CC690008002C014000440140B7
:106030000048014000040040106A00080700010009
:10604000F0B5D6464F464646C0B50B68002B5AD031
:1060500000220124A14620E0C36898462700674338
:106060007B009C46BC446346DE430B697B439A46F7
:10607000454663469D432B0055461D43C5604B680E
:10608000022B25D004684B687B43344023430360D4
:1060900001320B681C00D44035D04E4696401C009F
:1060A00034403342F4D04B68013B012BD4D8836891
:1060B000270067437E00F619B3438E687E4333435F
:1060C00083604368A343CE68664333434360C3E7BA
:1060D000FF2C0CD8036A3C007C43A446240165468F
:1060E000641BA3434C696C4323430362CAE7436ABE
:1060F000240A6443644325012D1BAB434D696C4363
:1061000023434362BEE70020E0BCBA46B146A8463E
:10611000F0BD0000054B9B68054A1B051B0F9B004B
:106120009B581F221340D8407047C04600100240C1
:1061300038690008054B9B68054A5B045B0F9B00B0
:106140009B581F221340D8407047C04600100240A1
:106150001869000810B5174B9A6838231340082BAC
:1061600026D0102B1DD1134BDB68032018400338B9
:10617000434258414042104B1840104B9C466044EB
:106180000C4AD368D168D4685B045B0E5843490657
:10619000490F0131FBF7C0FF610F0131FBF7BCFF75
:1061A00010BD044B1B689B045B0F0448D840F7E705
:1061B0000348F5E70010024000EE85FF0024F400DC
:1061C00000127A0010B50400FFF7C4FF2060FFF74B
:1061D000A1FF6060FFF7AEFFA06010BD10B5030027
:1061E0000020032B00D010BD144B5B6D03221A401E
:1061F000C0239B021343124A934208D0114A934290
:106200000FD0114A934212D1FFF7A4FFEBE70B4BDB
:106210001A688023DB00100018401A42E3D00B48B4
:10622000E1E7064BD86D8007C00FC003DBE7FFF73F
:1062300091FFFFF76FFFFFF77DFFD4E700100240EB
:106240000200030003000300010003000024F40027
:106250000368374A904247D08022D205904258D0F6
:10626000344A90420ED0344A904256D0334A90423B
:1062700030D0334A904223D003608B68C3620B88CE
:10628000836240E0702293434A681343284A904255
:106290002ED08022D20590423FD02A4A1340CA68AD
:1062A000134303608B68C3620B888362204B984260
:1062B00027D0224B984224D0214B984221D022E073
:1062C000204A1340CA68134303608B68C3620B887B
:1062D000836216E01B4A1340CA68134303608B684D
:1062E000C3620B8883620CE0702293434A681343B5
:1062F000144A1340CA68134303608B68C3620B8857
:1063000083620B69036343690122134343610020E5
:106310007047702293434A6813430A4A1340CA687D
:10632000134303608B68C3620B888362EBE7C0464C
:10633000002C0140000400400020004000440140C7
:1063400000480140FFFCFFFF0300104A904204D0C8
:106350000F4A012093420CD070470E4B196B8022DC
:10636000D2010A431A631A6B0B490A401A630020D0
