:020000040800F2
:10000000002000204D09000811080008130800080E
:1000100000000000000000000000000000000000E0
:1000200000000000000000000000000015080008AB
:100030000000000000000000170800081908000870
:100040009D0900089D0900089D0900082108000875
:100050009D0900089D0900089D0900089D090008E8
:10006000000000009D0900089D0900089D09000886
:100070009D0900089D0900089D0900089D090008C8
:100080009D0900089D0900089D0900089D090008B8
:10009000000000009D0900089D0900089D09000856
:1000A0009D0900089D0900089D090008A10300089A
:1000B0009D0900089D0900080000000000000000E4
:1000C00010B5064C2378002B07D1054B002B02D02E
:1000D000044800E000BF0123237010BD4800002049
:1000E0000000000010160008044B10B5002B03D0D0
:1000F0000349044800E000BF10BDC04600000000F6
:100100004C00002010160008002243088B4274D3D4
:1001100003098B425FD3030A8B4244D3030B8B4208
:1001200028D3030C8B420DD3FF22090212BA030C11
:100130008B4202D31212090265D0030B8B4219D3F2
:1001400000E0090AC30B8B4201D3CB03C01A524112
:10015000830B8B4201D38B03C01A5241430B8B425A
:1001600001D34B03C01A5241030B8B4201D30B0343
:10017000C01A5241C30A8B4201D3CB02C01A52416A
:10018000830A8B4201D38B02C01A5241430A8B422D
:1001900001D34B02C01A5241030A8B4201D30B0216
:1001A000C01A5241CDD2C3098B4201D3CB01C01A30
:1001B000524183098B4201D38B01C01A524143093A
:1001C0008B4201D34B01C01A524103098B4201D328
:1001D0000B01C01A5241C3088B4201D3CB00C01A95
:1001E000524183088B4201D38B00C01A524143080D
:1001F0008B4201D34B00C01A5241411A00D2014632
:10020000524110467047FFE701B5002000F006F8A4
:1002100002BDC0460029F7D076E770477047C04658
:1002200010B50B480B4B036000230371013343717E
:1002300001225242026121324261603282610362D4
:1002400000F0D0FC002800D110BD00F0BFFAFBE7A1
:10025000640000200030024082B0084B02689A42DD
:1002600001D002B07047064B9A6B802149010A43C6
:100270009A639B6B0B400193019BF2E700300240B5
:100280000010024082B0054A516B022319435163AA
:10029000526B13400193019B02B070470010024063
:1002A00010B5064B1C680648064A074900F0DCFCFE
:1002B000C043001B43425841C0B210BDFCDF0008E0
:1002C00064000020FCBF00000020000806498022D6
:1002D000CB691A42FCD0044B986219004022CB69CA
:1002E0001A42FCD07047C0460038014010B5184C87
:1002F000200001F099F82368012293432360EFF373
:10030000108182F3108823681F329343236081F3A6
:10031000108800230F4A13600F4A10680321014020
:1003200011600E4901204042802408510134FF34FD
:1003300008510B490B664B668B66CB66916901339E
:10034000FF330B43936100F0F1FF00F029FB10BD78
:100350000038014010E000E00000014000E100E052
:100360000018024010B5FFF79BFF002807D0094B8B
:100370001B68094A134080229205934200D010BDA9
:10038000FFF7B4FF054B1B68024A126882F3088826
:100390009847F4E7002000080000FE2F0420000822
:1003A00010B5254BDB699B0608D5234B5B6ADBB296
:1003B000224A1278002A02D0022A14D010BD992BAA
:1003C00003D06620FFF782FFF8E700F045FB1C4BE7
:1003D0001C4A944660441860184B02221A70882008
:1003E000FFF774FFEAE7184801884A1C92B20280BE
:1003F00016484354012A0CD0154B9A42DED1134BB8
:100400001B78012B10D0022B12D00F4B00221A8028
:10041000D4E70378013B012BD0D90B4B00221A8083
:100420006620FFF753FFC9E7044B03221A70ECE77D
:10043000024B04221A70E8E7003801408C000020CB
:100440008800002020A107008E00002090000020DE
:1004500008080000F0B5CE46474680B587B00023B7
:1004600005933E4B5C7824069A78120414431A795B
:100470001443DB781B021C43394B9C420CD9374B8D
:100480005A7912029B799B189BB2002B09D13348F1
:10049000344A002101F090F807B0C0BCB946B0461C
:1004A000F0BD322000F0B4FC00F09EFC0028FBD12F
:1004B00002230193F8231B06E318DB0A03930123AD
:1004C0000493322000F0A4FC05A901A800F032FD3D
:1004D0000028F6D180231B01E3189C4237D222006A
:1004E000083293429B415B425A4253415B42FF2296
:1004F0001340013398461C4EA31B99464B469F1947
:1005000074782402B3781B041C4333781C43F378BB
:100510001B061C43357973791B021D43B3791B04F9
:100520001D43F3791B061D43322000F071FC2200AD
:100530002B003900012000F0A5FC0028F4D1012394
:100540005B429C46E04408364346002BD6D100F07F
:10055000CFFC322000F05CFC99E7C0469000002000
:10056000FF1F00080808000098000020F8B5CE46DC
:10057000474680B500F070FA334BF530FF30186015
:100580001E00324D1F0028E0FFF7ECFE2AE000F0CD
:1005900063FA2F4B9C4660443860EFF310820123CE
:1005A000994683F310882B4C2368202188468B437F
:1005B000236082F31088FFF74DFFEFF3108289F379
:1005C0001088236841460B43236082F3108877200C
:1005D000FFF77CFE1D4B02221A7000F03DFA3368D3
:1005E0009842D1D82B78032BD1D0042BF5D100F031
:1005F00033FA154B164A9446604418607720FFF78B
:1006000065FEEFF310820123994683F31088114CA5
:100610002368202188468B43236082F31088FFF7EC
:1006200019FFEFF3108289F31088236841460B43CA
:10063000236082F310885520FFF748FE0A2000F05F
:100640009DFFFFF78FFEC8E7880000208C00002088
:1006500020A107000038014000B587B0102200211A
:1006600002A800F0A9FF094A516B01231943516305
:10067000526B1A400092009AC0220192039301A982
:10068000034800F0A5FC07B000BDC04600100240C2
:100690000004005010B5284A136807218B43053920
:1006A0000B431360110007220B681340022BFBD190
:1006B000224A1168FE330B43136011008022D200DE
:1006C0000B681342FCD01D4BD9681D4A11401D4ACE
:1006D0000A43DA601968802252040A431A60D96812
:1006E000802252050A43DA601900802292040B68C6
:1006F0001342FCD0114A936813490B4093609368EE
:1007000007218B4305390B439360110038228B6816
:100710001340102BFBD1094A93680C490B4093609E
:100720000B4800F043FF032000F04EF9002800D1F1
:1007300010BD72B6FEE7C046002002400010024025
:100740008C80FF1F02080020FFF0FFFFFF8FFFFFDC
:100750000090D00310B500F05FF9FFF79BFFFFF7A3
:1007600091FDFFF75DFDFFF777FFC82000F006FF62
:10077000144B1B695B0603D4124B1B691B0611D576
:10078000FFF7F0FD00F052F8EFF31081012383F33F
:1007900010880D4A136820200343136081F31088EA
:1007A000FFF7E4FE00F042F8EFF31081012383F33A
:1007B0001088054A10681F330343136081F31088C3
:1007C000FFF7D4FE000400500038014072B6FEE787
:1007D00000B583B00D4B196C012211431964196CDB
:1007E0000A400092009ADA6B802149050A43DA63D5
:1007F000DB6B0B400193019B00220021032000F0E2
:1008000031F9032000F060F903B000BD0010024090
:10081000FEE7FEE77047704710B500F011F910BD14
:1008200010B500F081FA10BD7047000030B591B0EE
:100830002022002108A800F0BFFE1022002104A8F9
:1008400000F0BAFE3A4B5A6D03218A435A651A6C7E
:100850008021C9010A431A641A6C0A400192019A64
:100860005A6B022422435A635B6B23400093009B24
:100870004023029303942F4D02A9280000F094FC1A
:10088000802302930394002404940594069407940F
:1008900002A9280000F088FC274AC6218900535885
:1008A0001B021B0A535080231B0513600894E1238D
:1008B0005B0209930A940B940C940C230D930E94F1
:1008C0000F941E4C08A9200000F0DAFDEFF3108110
:1008D000012282F31088A368DB00DB08A36081F3A8
:1008E0001088EFF3108182F31088A3681448034046
:1008F000A36081F31088236812490B40236063686A
:1009000011490B406360A3682A218B43A3602368CD
:10091000134323602200802189038020C003D36910
:100920000B42FCD0D3690342F9D011B030BDC046B0
:10093000001002400004005000E100E000380140D7
:10094000FFFFFFF1FFFFFFDFFFB7FFFF0D48854609
:10095000FFF76AFF0C480D490D4A002302E0D45806
:10096000C4500433C4188C42F9D30A4A0A4C0023F9
:1009700001E013600432A242FBD300F025FEFFF732
:10098000E9FEFEE7002000200000002048000020D3
:10099000D016000848000020B8080020FEE7704785
:1009A00010B5084B01214942D9620022DA6219636D
:1009B0001A6399629A6259625A62FFF7F0FF002047
:1009C00010BDC0460010024070B504000F4B1978EE
:1009D0000120002900D170BD0D4DFA208000FFF7E5
:1009E00093FB01002868FFF78FFB00F079F8030004
:1009F0000120002BEFD1032CEDD800222100404232
:100A000000F030F8034B1C600020E4E704000020F5
:100A1000000000200800002010B5084A116880235B
:100A20005B000B4313600320FFF7CEFF041E02D0D0
:100A30000124200010BDFFF7CBFEFAE700200240A2
:100A4000034A1168034B1B785B1813607047C0465C
:100A50009808002004000020014B18687047C04629
:100A60009808002070B5002814DB8408A400144BFB
:100A70009C466444C026B600A55903220240D20019
:100A8000FF2318009040854389010B4093402B437E
:100A9000A35170BD0F230340083B9B089B00094AEC
:100AA00094466344DC6903221040C000FC32150008
:100AB0008540AC4389010A4082402243DA61E8E77D
:100AC00000E100E000ED00E0002805DB1F2202400D
:100AD00001239340014A13607047C04600E100E0E3
:100AE000013880235B0498420FD2094A50600948BC
:100AF000036A1B021B0AC02109060B430362002381
:100B0000936007331360002070470120FCE7C04664
:100B100010E000E000ED00E0F0B583B00C000191C2
:100B200011009208032924D90026076823781B06A0
:100B300065782D042B43E5782B43A5782D022B43B4
:100B40003B60013604349642EFD303231C000C4073
:100B50000B4215D0012C0ED0022C15D19200019B16
:100B60009C5C24029C4662445378234302681380B1
:100B700006E00022E9E7036892000199525C1A70CE
:100B80000368186803B0F0BD9200019B9C5C2402CE
:100B90009C4662445378234301680B800368927833
:100BA0001A70EDE7F0B583B00C0001911100520806
:100BB000012915D90025066823881B0467883B4353
:100BC0003360013504349542F5D3C90704D5036871
:100BD00092000199525A1A800368186803B0F0BD58
:100BE0000022F2E710B5041E39D0437F002B25D038
:100BF000022363772379002B24D12368194A5A6191
:100C00002268936818218B4393606379002B22D16B
:100C10002368012252421A612268936860218B4343
:100C200061690B4393602268936880218B43A169BB
:100C30000B43936001236377002010BD0377FFF718
:100C40000BFBD5E7E268A168200000F035F800282A
:100C5000DBD00120F1E7236822691A61DCE701207B
:100C6000EBE7C046B71DC10470B50400022343770B
:100C70000068836801252B438360236A022B17D009
:100C8000032B06D00020012B0FD12000FFF744FFDB
:100C90000BE0002A07D00B0092008918226801CBD4
:100CA00010608B42FAD1236818680123637770BD06
:100CB0002000FFF777FFF8E7F0B507000120CB072A
:100CC00025D51F231F260125013B27D334001C40B7
:100CD0000800E0400542F7D0102A19D0102A08D8A1
:100CE000002A0BD00120082A11D101200F2B0ED889
:100CF00004E0182A10D10120062B08D83B6859615E
:100D000039688B681820834313438B600020F0BD43
:100D1000072BF3D90120FAE70120F8E7102ADDD1EB
:100D20000120F4E77047704710B52A4B1B692A4A27
:100D300013402A4A9268510721D5284A1469002B8A
:100D40002AD1244B1B69DB070CD5224B01221A61E7
:100D5000224B9B68022B2CD0204B00229A60200053
:100D6000FFF7E0FF1D4B9B68002B07D1194A536921
:100D70001B490B405361194B00221A7010BD1548D6
:100D800041699143416117490A4202D0134AD4682C
:100D9000D5E7124A5469D2E7104A51680B435360B1
:100DA0000C4B0D491961002393602000FFF7BBFF36
:100DB000C7E70A4A9369013B9361002B03D1074BB4
:100DC00000229A60CBE7516901315161106900F04E
:100DD000A1F8C4E700200240FAC300009C080020EC
:100DE000FFFFFFFC01000400064B5B690020002BA5
:100DF00000DB7047034B044A9A60044A9A605869C2
:100E0000C00FF6E70020024023016745AB89EFCD14
:100E1000F8B50400FFF720FE0700164E80256D028E
:100E200033692B4208D0631CFAD0FFF715FEC01BB4
:100E3000A042F5D303201CE00E490A690E4B1500B1
:100E40001D400E4808611A420ED10E008025ED02A9
:100E500033692B420CD0631CFAD0FFF7FDFDC01B99
:100E6000A042F5D3032004E0054B5D60012000E0C3
:100E70000020F8BD00200240FAC30000FBC30000C0
:100E80009C080020F8B506000F0014001D00164B4A
:100E90001B78012B26D0144B01221A7000225A60B5
:100EA000FA208000FFF7B4FF00280DD1012E0FD0EB
:100EB0002100380000F0B8FBFA208000FFF7A8FFFF
:100EC0000A4A5369B3435361074B00221A70F8BDB5
:100ED000064A536901210B4353613C60BFF36F8F96
:100EE0007D60E9E70220F2E79C0800200020024034
:100EF00010B5FA208000FFF78BFF054B596980225F
:100F000012060A435A615869C043C00F10BDC0465B
:100F100000200240044A5369C900044803401943B1
:100F2000034B0B43536170470020024007E0FFFF73
:100F300002000100F8B504000E00224B1B78012BC3
:100F40003DD0204B01221A7000225A60FA20800006
:100F5000FFF75EFF00282ED1042363602368042B73
:100F600019D001235B423360A568E368EB189D420A
:100F70001CD2FA27BF0060682900FFF7CBFF3800BA
:100F8000FFF746FF002810D10135A368E2689B18DF
:100F9000AB42F0D80AE00C4A51690C4B0B43536149
:100FA000FA308000FFF734FF05E03560064A5369E8
:100FB00002218B435361034B00221A70F8BD0220BB
:100FC000FCE7C0469C08002000200240040001000D
:100FD000F0B5DE4657464E464546E0B583B00F684D
:100FE000002F00D1D1E0002200230124A0460234CA
:100FF000694DAB4652E0876825009540AF43B9463E
:10100000CF6897404D462F4387604768B7434E6887
:10101000360945462E409E403E4346604AE0002643
:101020005546AE404D462E433E665D462D68AA4667
:101030006546ED4301954D6880267603354200D024
:1010400094E05646019D2E405D462E606D68AA468E
:101050004D688026B603354200D08BE05646019D90
:101060002E405D466E608426AE594D68AD0300D5B6
:1010700084E0019D2E4084255F467E518026BE5926
:101080004D68ED037DD4019D2E4080275D46EE51D5
:1010900001330F6802323E00DE4076D046469E4065
:1010A0003D003540AC463742F2D04F682740013F03
:1010B000012FA0D94E682640032E22D0C7682600F3
:1010C0009640B7438E6896403E43C6604E682640C1
:1010D000022E16D1DE08B600851901952D6AAA46A2
:1010E00007271F40BF000F25BD40A94655464E4665
:1010F000B543AA460D69BD402F0055462F43019DBB
:101100002F62076826009640B7434E6826409640F7
:101110003E4306604E68C025AD022E42B8D09F08FF
:10112000BF001D4DA9464F443D6E019525001D4051
:10113000ED00AA460F255646B540019EAE43B14686
:10114000A025ED05A84200D169E7144EB04209D0B0
:10115000134EB04208D0134D4619751EAE417600AD
:1011600003365DE701265BE7022659E765465646EA
:101170002E4369E7654656462E4372E765462E4381
:1011800079E7654635432E007FE703B0F0BCBB46E8
:10119000B246A946A046F0BD001802400004005027
:1011A0000008005000F4FFAFF0B5D6464F46464663
:1011B000C0B50B68002B5AD000220124A14620E0C4
:1011C000C3689846270067437B009C46BC4463463F
:1011D000DE430B697B439A46454663469D432B009D
:1011E00055461D43C5604B68022B25D004684B68EB
:1011F0007B4334402343036001320B681C00D4401E
:1012000035D04E4696401C0034403342F4D04B68F3
:10121000013B012BD4D88368270067437E00F61971
:10122000B3438E687E43334383604368A343CE68F1
:10123000664333434360C3E7FF2C0CD8036A3C008A
:101240007C43A44624016546641BA3434C696C435C
:1012500023430362CAE7436A240A644364432501C3
:101260002D1BAB434D696C4323434362BEE7002013
:10127000E0BCBA46B146A846F0BD0000054B9B68ED
:10128000054A1B051B0F9B009B581F221340D8408B
:101290007047C0460010024058160008054B9B6876
:1012A000054A5B045B0F9B009B581F221340D840EC
:1012B0007047C046001002403816000810B5174BA2
:1012C0009A6838231340082B26D0102B1DD1134BBE
:1012D000DB68032018400338434258414042104B1A
:1012E0001840104B9C4660440C4AD368D168D468BF
:1012F0005B045B0E58434906490F0131FEF704FFBA
:10130000610F0131FEF700FF10BD044B1B689B0409
:101310005B0F0448D840F7E70348F5E700100240A8
:1013200000EE85FF0024F40000127A00194A1168CB
:1013300080235B000B43136011008022D2000B68F6
:101340001342FCD0134B5968134A11408022D2013A
:101350000A435A6000229A600132FF321A60190073
:10136000802292020B681342FCD10A4B8022520069
:101370001A601900802292040B681342FCD1054BBD
:1013800080225201DA6000229A61013A1A6200203A
:101390007047C04600100240FF80FFFF10B50400F8
:1013A000FFF78CFF2060FFF769FF6060FFF776FFB3
:1013B000A06010BD10B503000020032B00D010BDAD
:1013C000144B5B6D03221A40C0239B021343124A45
:1013D000934208D0114A93420FD0114A934212D13E
:1013E000FFF76CFFEBE70B4B1A688023DB00100064
:1013F00018401A42E3D00B48E1E7064BD86D80074E
:10140000C00FC003DBE7FFF759FFFFF737FFFFF718
:1014100045FFD4E700100240020003000300030070
:10142000010003000024F4000300104A904204D09D
:101430000F4A012093420CD070470E4B196B80224B
:10144000D2010A431A631A6B0B490A401A6300203F
:10145000F2E7084BD96A802292020A43DA62DA6A1A
:1014600006490A40DA620020E6E7C046003801403B
:101470000044004000100240FFBFFFFFFFFFFDFFE0
:1014800070B584B004000D0003680120DB0724D48C
:1014900022688B6809690B4369690B43E9690B434F
:1014A0002F490A401343236063682E4A1340EA68B9
:1014B00013436360A3682C4A1340AA691343A360D3
:1014C0002A4B9C420BD02A4B01209C422CD0E26A32
:1014D0002B880F218A431343E36204B070BD0230AE
:1014E000FFF768FF03000120002BF0D06E68002E8C
:1014F000EDD02A6800200B2AE9D880210902E8698A
:10150000884216D01B49FF20024092005158180013
:10151000FEF7FAFD7308C0183100FEF7F5FD03046D
:101520001B0CE3600020D2E701A8FFF737FF039B05
:10153000D9E71049FF200240920051581800FEF7E9
:10154000E3FD40007308C0183100FEF7DDFD0A4AD4
:10155000024003075B0F1343E3600020B7E7C04678
:10156000F369FFEFFFCFFFFFFFFCFFFF00380140F3
:101570000044004098160008F0FF000082B00A4BBB
:101580001B680193019B431C5A1E9341C0180649D6
:1015900080225202002804D00B681342FAD001388E
:1015A000F8E702B07047C04610E000E0014B186059
:1015B0007047C0460000002003008218934200D10B
:1015C000704719700133F9E770B500260C4C0D4DCA
:1015D000641BA410A64209D1002600F019F80A4C99
:1015E0000A4D641BA410A64205D170BDB300EB5890
:1015F00098470136EEE7B300EB5898470136F2E71B
:10160000C8160008C8160008CC160008C81600083E
:10161000F8B5C046F8BC08BC9E467047F8B5C04651
:10162000F8BC08BC9E46704701B40248844601BC21
:10163000604700BF0D000020000000000000000017
:101640000000000000000000010000000200000097
:101650000300000004000000000000000000000083
:10166000000000000000000000000000000000007A
:101670000000000000000000010000000200000067
:101680000300000004000000060000000700000046
:101690000800000009000000010000000200000036
:1016A0000400000006000000080000000A0000001E
:1016B0000C000000100000002000000040000000AE
:1016C0008000000000010000E9000008C1000008DF
:1016D0000024F400010000000400000030B50D4AB1
:1016E00054698023DB0223435361EFF3108572B604
:1016F0004C1CFF340B00411A1A68CA500433A34231
:10170000FAD10449802252020B691342FCD185F3BD
:10171000108830BD00200240FFFFFFFFFFFFFFFFEA
:10172000FFFFFFFFFFFFFFFFFFFFFFFFFFFFFFFFC9
:10173000FFFFFFFFFFFFFFFFFFFFFFFFFFFFFFFFB9
:10174000FFFFFFFFFFFFFFFFFFFFFFFFFFFFFFFFA9
:10175000FFFFFFFFFFFFFFFFFFFFFFFFFFFFFFFF99
:101FF000FFFFFFFFFFFFFFFFFFFFFFFFFFFFFF01EF
:102000000020002001590008614A0008634A0008C6
:1020100000000000000000000000000000000000C0
:10202000000000000000000000000000654A0008F9
:102030000000000000000000674A0008694A00082C
:10204000515900085159000851590008714A0008B7
:1020500051590008515900085159000851590008B8
:1020600000000000794A00087D4A0008254B00085E
:102070005159000851590008515900085159000898
:10208000515900085159000851590008094C0008DD
:1020900000000000514C0008954C00085159000800
:1020A000515900085159000851590008B94C00080D
:1020B000FD4D00085159000800000000000000001C
:1020C00010B5064C2378002B07D1054B002B02D00E
:1020D000044800E000BF0123237010BD2801002048
:1020E00000000000B8720008044B10B5002B03D0AC
:1020F0000349044800E000BF10BDC04600000000D6
:102100002C010020B87200080023C25C0133002AB1
:10211000FBD1581E70470000002243088B4274D345
:1021200003098B425FD3030A8B4244D3030B8B42D8
:1021300028D3030C8B420DD3FF22090212BA030CE1
:102140008B4202D31212090265D0030B8B4219D3C2
:1021500000E0090AC30B8B4201D3CB03C01A5241E2
:10216000830B8B4201D38B03C01A5241430B8B422A
:1021700001D34B03C01A5241030B8B4201D30B0313
:10218000C01A5241C30A8B4201D3CB02C01A52413A
:10219000830A8B4201D38B02C01A5241430A8B42FD
:1021A00001D34B02C01A5241030A8B4201D30B02E6
:1021B000C01A5241CDD2C3098B4201D3CB01C01A00
:1021C000524183098B4201D38B01C01A524143090A
:1021D0008B4201D34B01C01A524103098B4201D3F8
:1021E0000B01C01A5241C3088B4201D3CB00C01A65
:1021F000524183088B4201D38B00C01A52414308DD
:102200008B4201D34B00C01A5241411A00D2014601
:10221000524110467047FFE701B5002000F0F0F88A
:1022200002BDC0460029F7D076E7704703460B434E
:102230007FD4002243088B4274D303098B425FD3BF
:10224000030A8B4244D3030B8B4228D3030C8B42EB
:102250000DD3FF22090212BA030C8B4202D31212D1
:10226000090265D0030B8B4219D300E0090AC30BA6
:102270008B4201D3CB03C01A5241830B8B4201D353
:102280008B03C01A5241430B8B4201D34B03C01A3C
:102290005241030B8B4201D30B03C01A5241C30AB4
:1022A0008B4201D3CB02C01A5241830A8B4201D325
:1022B0008B02C01A5241430A8B4201D34B02C01A0F
:1022C0005241030A8B4201D30B02C01A5241CDD2B4
:1022D000C3098B4201D3CB01C01A524183098B42FF
:1022E00001D38B01C01A524143098B4201D34B01E8
:1022F000C01A524103098B4201D30B01C01A52414B
:10230000C3088B4201D3CB00C01A524183088B42D1
:1023100001D38B00C01A524143088B4201D34B00BA
:10232000C01A5241411A00D201465241104670472C
:102330005DE0CA0F00D04942031000D34042534031
:1023400000229C4603098B422DD3030A8B4212D3F1
:10235000FC22890112BA030A8B420CD38901921123
:102360008B4208D3890192118B4204D389013AD060
:10237000921100E08909C3098B4201D3CB01C01A35
:10238000524183098B4201D38B01C01A5241430948
:102390008B4201D34B01C01A524103098B4201D336
:1023A0000B01C01A5241C3088B4201D3CB00C01AA3
:1023B000524183088B4201D38B00C01A5241D9D2BB
:1023C00043088B4201D34B00C01A5241411A00D23C
:1023D0000146634652415B10104601D34042002B38
:1023E00000D54942704763465B1000D3404201B5B7
:1023F000002000F005F802BD0029F8D016E770476C
:102400007047C0469E2110B5C905041C00F070FC41
:10241000002803D1201C00F0CBFB10BD9E21201C06
:10242000C90500F061F900F0C3FB80231B069C4640
:102430006044F2E7F0B54F464646D6464400C0B584
:1024400046020F1C760A240EC50F002C00D1DAE0DC
:10245000FF2C74D08023F600DB041E430023994632
:102460009A467F3C7B025B0A98467B001B0EFF0F5F
:10247000002B74D0FF2B00D18EE042468021D20089
:10248000C90411437F3B2A00E4184B467A40884632
:10249000D2B20A2B75DC4B460020022B0FDD4946D9
:1024A00001238B40A621C9000B4269D190218900EC
:1024B0000B4200D000E18821194200D0F5E04146EE
:1024C0000904090C43460800350C36041B0C360C75
:1024D000704369435E435D437618030C9B19994230
:1024E00003D9802149028C46654400041904000C7C
:1024F00009188E01701E86411B0C890E5B190E4354
:102500009B011E431B016CD423007F33002B00DC96
:10251000B1E0150071070BD00F20210030400428D6
:1025200006D00436320103D56E4B1E400B008033BB
:10253000FE2B00DDBDE0B201520ADBB248E0002E06
:1025400000D092E008239946063B9A467B025B0A3C
:1025500098467B00FF241B0EFF0F002B8AD14246BA
:10256000002A64D149460132114389460A2908DC10
:102570007D400120EAB2022991DC1500002227E00B
:1025800015005346022B00D193E0032B1AD0012BE8
:102590002CD1002300221BE04346FF34002B55D0F2
:1025A00003214B460B4319000A2B00DC92E00F2B52
:1025B00000D08CE08022D203164203D0434613425F
:1025C00000D17DE08022D20332435202520AFF231F
:1025D000D805ED0710432843E0BCBA46B146A846EB
:1025E000F0BD0123150071081E400E432300803307
:1025F000611C002B41DD720794D00F223240042A67
:1026000000D08EE78EE7002E05D104239946033BC8
:1026100000249A4626E7300000F074FB7624431F1E
:102620009E400023644299469A46241A1AE740467F
:1026300000F068FB4B46241A763C0A2BA1DC43468B
:10264000053883407D409846EAB224E74A46023383
:1026500013432A007A40D2B20A2B92DC4946150075
:10266000002926D09946022019E70C239946093BF8
:10267000FF249A46F6E6150021000122D31A1B2BEF
:1026800000DD86E79E3132008E40DA40731E9E41A7
:102690003243530704D00F231340042B00D00432DD
:1026A000530110D50123002292E73D0046468246A1
:1026B00067E7FF2300228BE780220025D20386E70D
:1026C0003D001A4383E792010023520A80E73D0050
:1026D000464677E72A0001237A408B400320D2B296
:1026E000E9E6C046FFFFFFF7F8B54746CE4643028E
:1026F00080B55F0A9B0945004A009C464B02C40F07
:10270000CE0F2D0E580A120E9909FF2A6BD0012305
:102710005E40AB1AB4424BD0002B00DCFFE0002A35
:1027200000D188E0FF2D00D1EFE08022D2041143D8
:1027300001201B2B08DC08002022D840D31A994026
:102740000B005A1E9341184363461B1A9C4663466E
:102750005B0100D4CDE063469F01BF09380000F063
:10276000D1FA3B0005388340854200DCA2E0B74A3D
:102770002D1A1A4094465A0700D1C3E00F22134085
:10278000042B00D1BEE004239846C44463465B0199
:1027900000D4B7E0681CFE2D00D0A5E0FF20002289
:1027A000C0051043E4072043C0BCB946B046F8BD9D
:1027B000002B00DCEBE1002A46D0FF2D00D1A4E085
:1027C0008022D20411431B2B00DCFBE0052398463A
:1027D0002B00C4446246D708FF2B00D195E07A0253
:1027E000520AD8B2DCE72B00FF3B9946002918D1EA
:1027F00001235E40B44200D1CAE04B46002B2DD0ED
:10280000002D00D03CE1FF236446002C00D15FE1A5
:102810005D1E012B00D174E13400FF2B74D02B001E
:1028200003E1B44200D19CE0002B17D0002DEAD088
:10283000070034006CE00029CCD05A1E012B2BD0AD
:10284000FF2B62D0130073E70029C3D05A1E012B5F
:1028500000D11EE1FF2B58D01300B4E7FE226B1C01
:102860001A420DD1002D60D06346002B00D020E12C
:10287000002900D028E180220024FF20D2038FE726
:1028800063465F1A7B0100D5FEE0002F00D065E7AC
:1028900000240020002283E76346591A4B0100D42C
:1028A00019E18F01BF09380000F02CFA3B00053810
:1028B000834001252022401B0130121A1900934049
:1028C000C1405A1E934119438C460B1EE1D05B0751
:1028D00000D152E10F2300250B40042B00D052E71A
:1028E00001204A0100D492E0C0B263469A01520A24
:1028F00056E763465B0705D00F2362461340042B5F
:1029000000D040E72B0065E70700002F00D145E726
:102910008022D2033A435202FF20520A40E7002BA2
:1029200079D1FE226B1C1A42AAD16346002B00D13A
:10293000F5E0002900D1D1E05F1A8023DB041F42BB
:1029400000D10EE1624601248A1A944600203440E8
:10295000002A00D124E701201A42C6D10023D7085B
:102960003DE7002B17D0002D00D0AFE0FF236546D8
:10297000002D00D1ADE05E1E012B00D189E0FF2BC0
:10298000C2D01B2E00DCABE04B1D9C46130021E7A0
:102990004B46002B70D1FE226B1C1A425ED1002DDB
:1029A00000D0C3E06346002B00D1D0E0002900D165
:1029B00094E00A006244530100D4D8E0920101205F
:1029C000520AEDE608002022D840D31A99400B00A5
:1029D0005A1E934103439C4463465B0189D50135EC
:1029E000FF2D00D1DAE6624601231949134052084F
:1029F0000A401A43130094465B0704D00F23134088
:102A0000042B00D0BFE663465B0100D5C2E66346F7
:102A1000DF082B00E3E6531B002D00D1F4E68020F5
:102A20006446C0040443A446340001201B2B09DC87
:102A300020256046D840EB1A65469D402B005D1E60
:102A4000AB4118430B1A9C46150080E6FFFFFFFBC5
:102A5000FFFFFF7DFE226B1C1342A3D0FF2B00D192
:102A60009CE6614449084A0749D00F220A40042ADB
:102A700045D00A1D9446ADE6002D00D176E78DE6DF
:102A80003400FF2000228BE663460124CF1A344035
:102A900064E661444B016DD5480844490140430751
:102AA0002CD00F230340042B28D00B1D9C4602235F
:102AB00090E6002900D12BE78023DB039F4200D260
:102AC00026E7984200D323E70124344007001FE79C
:102AD00034008C467EE60123CF0880E600237EE6A4
:102AE00020206546801B854063462800F340451E34
:102AF000A84103439C4615008C446DE70223CF0890
:102B00006DE60F1B7B0128D5BF01BF09380000F01F
:102B1000F9F83B000538834034000125CAE6002956
:102B200000D1B5E601240700344058E66346002B87
:102B300000D1E9E6002900D1EAE68023DB039F42C9
:102B400000D2E5E6984200D3E2E60700E0E600297D
:102B500000D19EE60023CF0841E634000123FF08A0
:102B60003DE6002F00D193E60023FF0837E600235F
:102B7000D70834E60123CF0831E680220B00D204C7
:102B800001201340114200D0AEE6CF0827E6002B0B
:102B900000D15FE7561B002D01D13300E7E680230B
:102BA0006046DB0418438446EBE6C046FFFFFF7D2A
:102BB00041024200C30F490A0020120E7E2A03DDA3
:102BC0009D2A02DD094A98187047802000040143BD
:102BD000952A07DC9620821AD1404842002BF3D177
:102BE0000800F1E7963A9140F7E7C046FFFFFF7F04
:102BF00070B5002812D0C317C5185D40C40F280057
:102C000000F080F89E231B1A962B0FDC082838D082
:102C1000083885406D026D0AD8B202E00024002019
:102C20000025C0052843E407204370BD992B14DC20
:102C3000421F95402A001549114055071CD00F2509
:102C40002A40042A18D00431CA08490115D59F2307
:102C50005202181A550AC0B2E3E705222900121AD7
:102C6000D14002001B3295402A00551EAA410A435A
:102C7000064911405507E2D1CA085202550AD8B296
:102C8000CFE76D026D0A8E30CBE7C046FFFFFFFB3A
:102C9000844608006146FFE71FB500F0C1F8002830
:102CA00001D40021C8421FBD10B500F049F84042D0
:102CB000013010BD10B500F0B3F8002801DB002092
:102CC00010BD012010BDC04610B500F0A9F80028C5
:102CD00001DD002010BD012010BDC04610B500F080
:102CE00057F8002801DC002010BD012010BDC046AF
:102CF00010B500F04DF8002801DA002010BD0120C9
:102D000010BDC0461C2101231B04984201D3000CB6
:102D100010391B0A984201D3000A08391B0998424E
:102D200001D30009043902A2105C40187047C04664
:102D30000403020201010101000000000000000084
:102D400070B542004E024C0045026D0A120EC30FD0
:102D5000760A240EC90FFF2A10D0FF2C0CD00120B8
:102D6000A2420AD1B54208D18B420FD0002A04D129
:102D70002800431E984100E0012070BD0120FF2C77
:102D8000FBD13543F9D14B401800F6E70020F4E7BA
:102D900030B5420044024D02C30F4800640A120ECF
:102DA0006D0A000EC90FFF2A18D0FF280AD0002A8A
:102DB0001ED100280AD1002D29D0002C2DD1480089
:102DC000013830BD002D25D1002A01D1002CF6D0CC
:102DD0008B4219D001205B421843F2E7002C19D135
:102DE000FF28F7D1002D15D100208B42F2D1E8E762
:102DF0000028EFD08B42EDD18242EBDC04DBAC4209
:102E0000E8D80020AC42DCD258000138D9E7002CC9
:102E1000D7D0DFE702204042D3E78B42DAD1EEE79A
:102E200030B5420044024D02C30F4800640A120E3E
:102E30006D0A000EC90FFF2A17D0FF280AD0002AFA
:102E40001BD100280AD1002D1DD0002C2DD1480007
:102E5000013811E0002D0ED1002A01D1002CF6D04E
:102E60008B420CD15800013806E0002C03D1FF281A
:102E700005D1002D15D0022030BD002806D101203B
:102E80005B421843F8E7002CF6D0F8E78B42F6D106
:102E90008242F4DCE6DBAC42F1D80020AC42EBD25B
:102EA000E0E700208B42EAD1E6E78B42E7D1F2E788
:102EB00005490B78054AAA20D054981C08700133A4
:102EC000DBB25521D1547047440100204801002055
:102ED00005490B78054A5520D054981C08700133D9
:102EE000DBB2AA21D15470474401002048010020E0
:102EF000030002780020AA2A00D070475A78552A89
:102F0000FBD15A18013A1278AA2AF6D15B18023B73
:102F10001878553843425841C0B2EEE730B54118F1
:102F200003390D78C3781B02827813435C1E012B92
:102F30000EDD00230022C11809795218D2B20133E4
:102F40009BB2A342F7DBA81A43425841C0B230BD3E
:102F50000022F8E770B505000C0004290FD9FFF72F
:102F6000C7FF03000020012B00D070BD2100280006
:102F7000FFF7D4FF013843425841C0B2F5E70020C3
:102F8000F3E710B50400002909D000230020E25C1B
:102F90008018C0B201339AB29142F8D810BD002017
:102FA000FCE7000010B5837901338371C3790133E5
:102FB000C371054B1B78012B02D002F045FC10BDFC
:102FC00002F0E6FBFBE7C046C500002010B502F0AA
:102FD000DFFB10BD10B502F0DBFB10BD10B50248E1
:102FE000092102F0D5FB10BDC800002030B5124BFE
:102FF0001B78DAB2002B1ED1104B002119700E4B3A
:1030000001311970C3781B0281780B43022B12DD4A
:103010000A4C0B4D2378D9B20133DBB223708318ED
:103020005B796B540132D2B2C3781B0281780B43B7
:10303000023B9A42EEDB30BD1A0B00201B0B002036
:103040001C0B002010B50379013B0371CA1E835C81
:10305000013B835402F0F8FB10BD10B50379013336
:103060000371CA1E835C0133835402F091FB10BDCF
:10307000F0B5C64600B580460F0016001E4A002374
:1030800015001370F41CA4B2FFF712FF2B781B4A33
:10309000D454591CC9B2240A5454991CC9B20120F1
:1030A00050541C1DE4B22C700333DBB24146D154A2
:1030B000002E0BD0002320000134E4B2FD5C155437
:1030C0000133DBB2B342F6D30B4B1C700A4E35789A
:1030D000291F89B20A4C2000FFF753FF043C6055BA
:1030E00001353570FFF7F4FE3178200002F050FB17
:1030F00080BCB846F0BDC046440100204801002015
:103100004C01002010B503490122F920FFF7B0FF60
:1031100010BDC046190B002010B503490122FA204A
:10312000FFF7A6FF10BDC046C400002010B503493C
:103130000222FB20FFF79CFF10BDC046C20000200A
:1031400070B588B06B46DC1DD87102F0D5FC050067
:103150002378862B01D008B070BD01222100FF200A
:10316000FFF786FF0A2002F0CDFC224E300003F06C
:10317000C3FF33680124A3433360EFF3108284F369
:103180001088336820218B43336082F3108810222B
:10319000002104A804F05AF8174B5A6B22435A63D3
:1031A0005B6B23400293029BC0230393059403A906
:1031B000124802F07BFE114CFA26B60004E002F041
:1031C0009BFC401BB0420BD84021200002F05AFF6C
:1031D0000028F4D18021200002F054FF0028EED115
:1031E000BFF34F8F064B074ADA60BFF34F8FC046DD
:1031F000FDE7C046003801400010024000040050C6
:1032000000ED00E00400FA0510B584B004001022BF
:103210000021684604F01AF80122012C05D96946FC
:10322000F820FFF725FF04B010BD01236A46137094
:10323000002C0BD10B4B1A7869464A705A788A7069
:103240009A78CA70DB780B710522E8E700230548FD
:10325000C15C1A006A44517001330C2BF8D10D2265
:10326000DDE7C0460C0B0020F0B5D6464F4646467B
:10327000C0B580460C00CB0A1F260E40394F3A7865
:10328000D2B29146C80B5B001843FFF7B1FC051C96
:103290004846FFF7ADFC3449FFF7CCF8011C281C69
:1032A000FFF7C8F8FFF7AEF8C3B29A463B78DBB237
:1032B00099466405A00EFFF79BFC041C4846FFF7E7
:1032C00097FC2949FFF7B6F8011C201CFFF7B2F85C
:1032D000FFF798F8C3B299463F78FFB230097600FD
:1032E0003043C0B2FFF784FC061C3800FFF780FCB7
:1032F0001D49FFF79FF8011C301CFFF79BF8FFF7F3
:1033000081F8C7B243465A004244D200174BD21844
:10331000072101261A204B460B4133401D006B420A
:103320006B415B4283433433137053460B4133404C
:103330001D006B426B415B428343343313723B008D
:103340000B4133401C00634263415B42834334338F
:10335000137401320139DED2E0BCBA46B146A84648
:10336000F0BDC046180B0020A69BC43B1C040020E7
:1033700030B5104C2478022C13D007D8002C0AD07A
:1033800007252C1AE4B26D1AE8B207E0032C0DD120
:103390000400080002E00724641AE4B214701870F4
:1033A00030BD0724201AC0B20C00F7E70724641AC6
:1033B000E4B2F3E7940300201A4B21229B5C002B1C
:1033C00006D1184B203ADA850023164A93857047B8
:1033D000012B07D0022B11D1124B01229A86002219
:1033E0005A86F4E70F4B01225242DA8523329B5C66
:1033F000012B15D00B4B30229B5EE6E7032BE6D169
:10340000084B012252429A8623329B5C012B03D047
:10341000044BDA8E5A86DAE7024B00225A86D6E748
:103420000023D2E748020020084A53681B0C1B0403
:10343000DE21C9000B435360136801210B43136065
:10344000034A13680B4313607047C046580002409C
:10345000002C014070B5214B5A68120C1204DE2179
:10346000C9000A435A601E4DDD601E4A9A601E4A1A
:103470008021490251608021890251601A6802212D
:103480000A431A60194BD968802292000A43DA6015
:10349000596C802212020A435A645A6808218A43EE
:1034A0005A601A6A07390A431A6200240021200070
:1034B000FFF7DAFE0134E4B2402CF7D10C4BC32203
:1034C000D20094466544002119700133AB42FBD110
:1034D000FFF7AAFF012002F015FB70BD5800024063
:1034E0001C040020342C014000000240002C01404C
:1034F0001C0A0020094B1900803100221A805A80D2
:103500009A80DA801A815A819A81DA8110338B424B
:10351000F4D1034B01221A707047C0469803002073
:103520001B04002070B582B0140003000B43072B6E
:1035300010D86B469E1DDD1D33002A00FFF718FFD3
:10354000054A33782978DB005B185B009C52034BFB
:1035500001221A7002B070BD980300201B040020E5
:1035600070B582B0040003000B430020072B0ED877
:103570006B469E1DDD1D33002A002000FFF7F8FE7C
:10358000044A33782978DB005B185B00985A02B054
:1035900070BDC04698030020F8B50600FFF7AAFFEB
:1035A0000027350000242A8839002000FFF7BAFFE1
:1035B0000134E4B20235082CF5D10137FFB21036E0
:1035C000082FEED1014B01221A70F8BD1B04002018
:1035D00030B5A1B00400032801D921B030BD0E4D93
:1035E000031D2A789B1ADA17920F9B1803210B40B0
:1035F0009B1AFF22134003331940297007497F3A71
:10360000684603F04FFE6846FFF7C6FF2C70044B78
:1036100001221A70E1E7C0469403002098030020BD
:103620001B040020031C642800D96423024A137081
:10363000024B01221A707047180B00201B04002057
:10364000F0B5DE4657464E464546E0B583B0040029
:103650000D0001921E000CAB1B889A460DAB1B7827
:103660000200203A5F2A00D92024002B10D13378A1
:103670007268203C5C43A4B2002B41D0072D3FD898
:103680009146A144AB46012398465B1B00932CE076
:10369000FFF730FFEBE7002221003800FFF742FF81
:1036A00001350134E4B27278EBB29A420CD9072C9E
:1036B000F6D85B462B4142461A42ECD052462100D6
:1036C0003800FFF72FFFEBE7BB46009B5B443278E7
:1036D000DBB29A4214D958460130C3B29B4601234B
:1036E0009C46E1445B46082B0AD04B461F78737812
:1036F000002BEAD0019C00253B005F469B46D6E7A5
:1037000003B0F0BCBB46B246A946A046F0BD0000DF
:1037100010B5012808D002280BD0002803D10C4B8B
:1037200026220021995410BD094B262201219954CB
:10373000F9E7074B26220221995406485A32002104
:1037400003F084FD044B01221A70FFF735FEEAE70F
:1037500048020020980300201B04002010B504003C
:10376000064B1B78012B02D0044B1C7010BD0028A7
:10377000FAD10220FFF7CCFFF6E7C0461A0400207A
:10378000F0B5DE4657464E464546E0B585B0C54BDA
:1037900026229B5C0293002B09D1C34B1B78012B83
:1037A00005D1C04A936AC31A928C934206D205B0DF
:1037B000F0BCBB46B246A946A046F0BDB94CA062DB
:1037C000BA488022002103F041FD2223E35C012B53
:1037D0000CD0B44B21229B5C012B00D84FE2002679
:1037E000B04FB34B9A460197BB4608E3AD4B21223D
:1037F0009B5C012B00D8AFE00025AA4FB946BA4622
:10380000AB4B984679E1A74A3821525E934227DBB9
:103810009B1A9342FCDA23E0772953D878235B1A6A
:103820001802C01A3C21FEF701FDC3B2029AFF2024
:10383000DB08DB02800840010343D2081A434946F3
:103840000198FFF76FFE01340135082C73D02C224C
:10385000B35E1B19D7D5934A3821525E9B18FDD40D
:10386000FF2BF0DCE2B20192D917072210000840CA
:10387000C018C010FF27BC4638404746385C490F87
:103880005B181A40521A63461A401041C0074CD5C3
:10389000844B5A8F002AD2D19B6CEB1898001818D1
:1038A000400080B2B4214900FEF7BCFC89B23B293C
:1038B000B2D80802401A3C21FEF7B8FCC0B2029A06
:1038C000FF23B5E7B32909D878390802401A3C210B
:1038D000FEF7ACFCC2B2029BFF20A9E7EF290AD891
:1038E000F0235B1A1802C01A3C21FEF79FFCC0B2FD
:1038F000029BFF229CE796235B00994209D2F03994
:103900000802401A3C21FEF791FCC3B20298FF2244
:103910008EE7B4235B005B1A1802C01A3C21FEF745
:1039200085FCC2B20298FF2382E700224946019833
:10393000FFF7F8FD87E75F4601239C46E2445346C4
:10394000082B0FD05346DBB29946554600246B0135
:103950009846B844BB467AE70027554B514EBA46C5
:103960001F00EFE74F4A2E23D45E938D1B1998B2A8
:103970001BB293852121525C012A11D9494A382171
:10398000515E8B4202DB474B401A9885454B2C22F7
:103990009B5E002B00DB0AE7424A5B18938506E733
:1039A00040498A6C12198A64E8E74A463821525E17
:1039B000934228DB9B1A9342FCDA24E0772957D8FC
:1039C00078235B1A1802C01A3C21FEF72FFCC3B201
:1039D000029AFF21DB08DB02890849010B43D20868
:1039E0001A4303990198FFF79DFD01340136082C15
:1039F00000D17FE03222BB5E5B19D6D5524638211A
:103A0000525E9B18FDD4FF2BEFDCE2B20192D81777
:103A100007220240D218D210FF218C460A406101D1
:103A20008B46C34459468A5C400F1B180721194036
:103A3000091A634619400A41D20755D5194B5A8FC6
:103A4000002ACED19B6CF31898001818400080B261
:103A5000B4214900FEF7E6FB89B23B29AED8080243
:103A6000401A3C21FEF7E2FBC1B2029AFF23B1E704
:103A7000B32909D878390802401A3C21FEF7D6FB51
:103A8000C2B2029BFF21A5E7EF2913D8F0235B1AEE
:103A90001802C01A3C21FEF7C9FBC1B2029BFF22EB
:103AA00098E7C046480200201A040020980300202E
:103AB0009402002096235B00994209D2F039080253
:103AC000401A3C21FEF7B2FBC3B20299FF2281E704
:103AD000B4235B005B1A1802C01A3C21FEF7A6FB58
:103AE000C2B20299FF2375E7002203990198FFF7FC
:103AF00019FD7AE70135082D04D0EBB203932E00AF
:103B0000002477E7CE4A3423D45E538E1B199DB22E
:103B10001BB253862121515C0239012911D9C84AAF
:103B20003821515E8B4202DBC54B6D1A5D86C44B5A
:103B300032229B5E002B00DB39E6C14A5B185386BC
:103B400035E6916C09199164E9E777294FD8782314
:103B50005B1A1802C01A3C21FEF768FBC3B2029A36
:103B6000FF21DB08DB02890849010B43D2081A4315
:103B700051460198FFF7D6FC01340135082C6FD06F
:103B8000B38D1B199BB2FF2BF6D8E2B201921BB288
:103B9000D817072211000140C918C910C9B24746F9
:103BA000795C400F1B181A40121AD2B21141C90792
:103BB00050D5A34B5A8F002ADAD11A009B6CEB1810
:103BC0009800181840004223D35AC01880B2B4217C
:103BD0004900FEF727FB89B23B29B6D80802401AF4
:103BE0003C21FEF723FBC1B2029AFF23B9E7B329B8
:103BF00009D878390802401A3C21FEF717FBC2B2F7
:103C0000029BFF21ADE7EF290AD8F0235B1A1802C7
:103C1000C01A3C21FEF70AFBC1B2029BFF22A0E7BB
:103C200096235B00994209D2F0390802401A3C21E0
:103C3000FEF7FCFAC3B20299FF2292E7B4235B00BD
:103C40005B1A1802C01A3C21FEF7F0FAC2B20299C0
:103C5000FF2386E7002251460198FFF763FC8BE7BC
:103C600001239C46E1444B46082B0ED04B46DBB269
:103C70009A464D4600246B015B44984680E700233A
:103C80009946704B9B466E4EF0E76D4A2E23D05EF0
:103C9000D58D938DEB181BB29385916C09189164A7
:103CA000002B04DB3021525E9A4200DB7FE5644A40
:103CB0002223D35C022B03D0614B0022DA8576E508
:103CC00014006D42D5854225505B0A3080B2B42184
:103CD0004900FEF7A7FA615369E5772953D878239D
:103CE0005B1A1802C01A3C21FEF7A0FAC3B2029A6E
:103CF000FF21DB08DB02890849010B43D2081A4384
:103D000049464046FFF70EFC01340135082C73D0BC
:103D10007B8E9B199BB2FF2BF6D8E2B290461BB26A
:103D2000D81707210140C918C910C9B262019446C9
:103D3000D4446246515C400F1B1807221A40121AE5
:103D4000D2B21141C90751D5019B5A8F002AD7D150
:103D50005B469B6CEB1898001818400042235A46AB
:103D6000D35AC01880B2B4214900FEF75BFA89B279
:103D70003B29B2D80802401A3C21FEF757FAC1B2DB
:103D8000029AFF23B5E7B32909D878390802401A07
:103D90003C21FEF74BFAC2B2029BFF21A9E7EF29B3
:103DA0000AD8F0235B1A1802C01A3C21FEF73EFA2B
:103DB000C1B2029BFF229CE796235B00994209D285
:103DC000F0390802401A3C21FEF730FAC3B20299DA
:103DD000FF228EE7B4235B005B1A1802C01A3C2155
:103DE000FEF724FAC2B20299FF2382E70022494675
:103DF0004046FFF797FB87E70136082E04D0F3B261
:103E000099463500002483E70D4A3423D05E958E11
:103E1000538EEB181BB25386916C09189164002BDA
:103E200004DB3621525E9A4200DBC0E4044A2223BE
:103E3000D35C022B08D0024B00229A86B7E4C0461E
:103E4000480200209402002014006D42958642250D
:103E5000505B1E3080B2B4214900FEF7E3F9615394
:103E6000A5E4C046F0B5DE4657464E464546E0B5A9
:103E700089B007008A46069116001C0012AB1B7819
:103E8000994613AB1B88984614AB1D88B6484C2244
:103E9000002103F0DBF9B54880225200002103F035
:103EA000D5F95246202A30D8AF48390003F0FAF944
:103EB000AD4A2123D45401334946D1544346938417
:103EC000558726230021D154012C26D9337800248C
:103ED000072B05D80822D21AD30F9B185B10DCB22F
:103EE0003978002900D10CE1069D002D00D108E1B0
:103EF00000200023012293469C4A0492020007946A
:103F000005933800AA46CC46D1E0974820223900D4
:103F100003F0C8F920230693CAE73B78002B00D1B1
:103F2000F5E0069A002A00D1F1E000240122934630
:103F30008E4A924622004946079155E00131C9B2A6
:103F40008C46A0B205000121013B9844631E0490F9
:103F5000080005920393C146B84622E001218C4631
:103F6000EFE7013274789C420FD90133DBB2072BA3
:103F7000F7D80C0014415D462542F2D05C01544450
:103F8000E55D00980543E555EBE7019D0298C3B256
:103F90009C4518D901300135ADB2039B1B18FF2B8E
:103FA00011DC4B46195C7378002BF0D0EF08FFB2A0
:103FB00007232B405C469C40E3B200930022002381
:103FC00001950290D1E70498059A4746B378C31843
:103FD00063441CB23B78002B00D1B9E006999142B2
:103FE00000D1BDE0FF2C1BDC0132D2B20137190039
:103FF00020395F2900D92023317870688046203B22
:104000004B439BB201394DB20906A7D42900C5180C
:10401000685C002892D101390806F9D5DC4690E7A2
:104020002000079B994696E0013201339BB27078DD
:10403000D1B2884210D92100114158460842F3D02C
:10404000FF2BF1D8D808C0B2072119405F468F4036
:10405000295C0F432F54E7E7009F414601370131A8
:10406000C9B23278FBB29A4212D90729F6D87378CE
:10407000002BF3D0029B039A90464344DC5D019BE6
:1040800000224D0104988046454400978846D2E7B7
:10409000069A48467178B778C9198A1812B2017819
:1040A00000293AD0059B9A454FD0FF2A1EDC059C7B
:1040B0000134E3B2059301300F00203F5F2F00D998
:1040C0002021377873689946203979438BB2984616
:1040D000002FDFD007990027531C9BB20193069253
:1040E0004B460293434603938146BEE71000E146E8
:1040F00015E000207378181800B213E000200123A7
:10410000F9E74B46012BF4D00020002310E04B468A
:10411000012BF3D0002000230AE01000E1464B46BB
:10412000012BE7D00023082802DD0300083B1BB267
:104130000D4A10871386D386FFF73EF909B0F0BC0D
:10414000BB46B246A946A046F0BD1000E146E6E7F0
:104150002000079B99464B46012BE3D10123CAE778
:104160002000079B9946F6E74802002094020020B1
:1041700070B5104B1B78002B1BD00F4B1B78002BFE
:1041800017D000240D4E0725E3082A002240DB004B
:104190009B185B00995B2000FFF766F80134E4B2DE
:1041A000402CF1D1FFF740F9034B00221A70014B6C
:1041B0001A7070BDC00000201B040020980300206E
:1041C00010B50B4B00221A70002801D0012905D030
:1041D000074901221020FEF74BFF10BD007801288F
:1041E000F6D8FFF7BBFA024B01221A70F0E7C0467F
:1041F0001904002010B5034901221120FEF738FFF1
:1042000010BDC0461A040020F8B5164B00221A70E3
:10421000154B1D78002D1CD100281DD003291BD95A
:104220000678002E11D0441C07272078A3781B02A3
:1042300062781A4339000140C0083840FFF772F92C
:104240000135EDB20334AE42EFD1064B01221A70B4
:1042500002E0044B02221A70024901223020FEF7CC
:1042600007FFF8BD190400201A040020F0B5C64667
:1042700000B5A0B0154B00221A70002822D00129E9
:1042800020D903789846002B1CD00024451C072712
:104290000E4E285D39000140C0083840FFF760F934
:1042A00033786A46D0549A1CD2B232700133DBB2F2
:1042B000000A6946C8540134E3B24345E9D33220C9
:1042C000FEF7D6FE20B080BCB846F0BD1804002032
:1042D000F8B5CE46474680B506001C4B00221A7042
:1042E0001B4B1B789846002B23D1002824D0802913
:1042F00022D1FFF7FFF8002399464B46DFB2350085
:1043000044466B781B022A781A4339002000FFF7D5
:1043100009F90134E4B20235082CF2D101239C469C
:10432000E14410364B46082BE7D1084B01221A70A6
:1043300002E0064B02221A70044901223120FEF7E6
:1043400097FEC0BCB946B046F8BDC046190400206F
:104350001A040020F0B5CE4600B5A0B0802200219E
:10436000684602F073FFE9460025EFB24E4600248E
:1043700039002000FFF7F4F83070000A7070013443
:10438000E4B20236082CF3D1013510239C46E144F7
:10439000082DEAD1802269463320FEF769FE20B05D
:1043A00080BCB946F0BD000010B50400104B0122DE
:1043B0001A70002804D00078032801D8022908D0F8
:1043C0000B4B00221A700A490122E020FEF750FE32
:1043D00010BDFFF7FDF86378002BF4D001F002FB6D
:1043E000044B1B789842EED0180001F0CFFAEAE7B0
:1043F000190400209403002000B583B06B46D91D3A
:10440000044B1B780B700122E120FEF731FE03B054
:1044100000BDC0469403002010B50400124B0122D9
:104420001A70002801D0022908D00F4B00221A7000
:104430000D490122E220FEF71BFE10BD0078642822
:10444000F3D8FFF7EFF86378002BF1D001F000FB11
:10445000064B1B78DBB29842EAD0044B1878C0B206
:1044600001F0C6FAE4E7C04619040020180B00204A
:1044700010B503490122E320FEF7FAFD10BDC04646
:10448000180B0020F0B585B0164B00221A70164BA1
:104490001B78012B09D0134B02221A7011490122FB
:1044A0004020FEF7E5FD05B0F0BD0028F6D0052957
:1044B000F4D907783B090D4A4179861D05792D020B
:1044C000C4782C43029485782D0244782C430194BF
:1044D0000F243C4000943000FFF7C4FC014B012244
:1044E0001A70DBE7190400201A040020E0720008AB
:1044F00030B58BB0114C2123E35C1B012222A25C5E
:1045000013436A461370A38C53701B0A9370638F16
:10451000D3701B0A13712000FDF7F6FD0200C5B22F
:104520006B465D712100981D02F0BCFE0635EAB2B3
:1045300069464120FEF79CFD0BB030BD48020020CB
:1045400010B50C4B00221A700B4B1B78012B08D0B6
:10455000084B02221A70074901224220FEF788FD0B
:1045600010BD0328F7D8FFF7D3F8024B01221A70C9
:10457000F1E7C046190400201A04002010B50349D1
:1045800001224320FEF774FD10BDC0466E020020DC
:10459000F0B583B0134B00221A70134B1B78002B1D
:1045A00016D1002817D0042915D141780F4B0F32AE
:1045B0000A400909077801250195C67836028478F2
:1045C000344300943800FFF73BF8064B1D7002E0BF
:1045D000044B02221A70034901223420FEF748FDE1
:1045E00003B0F0BD190400201A040020E072000896
:1045F00010B5094B01221A70084B1B78012B07D00C
:10460000FEF778FF04490122E420FEF731FD10BDDA
:104610000220FFF77DF8F3E7190400201A040020B8
:1046200000B583B0144A916B012319439163926BD7
:1046300013400193019B114BC222920098581049DC
:1046400008408021C90101439950802189001960E7
:1046500098580C4908408021C90301439950F83209
:104660001A60002201210B2001F070FA0B2001F0EA
:104670009FFA03B000BDC0460010024000E100E018
:10468000FF00FFFFFFFF00FF82B0094B596B0122C3
:1046900011435963596B0A400092009A596B0222E8
:1046A000114359635B6B1A400192019B02B0704742
:1046B00000100240084B094A1A60094A1A60022297
:1046C0005A60084A9A6019000722CB681A42FCD146
:1046D000014B054A1A60704700300040CCCC000006
:1046E00055550000FF0F0000AAAA000082B08023E9
:1046F0009B050C480C4A99181A000433096811608C
:104700008342F7D1094A116C012319431164126CD9
:1047100013400193019B064A136803210B43136066
:1047200002B07047C0000020002000E800100240E6
:104730000000014010B501F091F9114B187001F023
:1047400051F9FF280CD001F04DF90E4B187001F013
:104750007FF9FF280BD001F07BF90B4B187010BDCF
:10476000084B00221A70002001F010F9EFE7064B09
:1047700032221A701878C0B201F03AF9EFE7C04659
:10478000190B002094030020180B002070B501F0D5
:10479000CBF9050001F0CEF9040001F0D1F9024B8C
:1047A0001D605C60986070BD0C0B002000B593B07C
:1047B0003822002104A802F049FD10220021684699
:1047C00002F044FD8020800001F062FC0A23049383
:1047D000F633079300230893402209923F3A0A9246
:1047E00001320B920C920D9308330E9380239B029F
:1047F0000F93C023DB04109380239B05119304A81F
:1048000001F078FC00280ED107230093053B0193AB
:104810000023029303930221684601F059FF002808
:1048200003D113B000BD72B6FEE772B6FEE700001A
:1048300070B5FFF75BFFFFF77DFFFFF7A7FF01F004
:104840003BF9FFF7B3FFFFF71FFFFFF7E9FE00F0AB
:1048500061FD00F0C5FEFFF72DFF00F049FC00F000
:1048600063FB00F081FC00F0BDFCFEF7F3FD0120CE
:1048700001F048F95E4B02256D421D61DA680124A2
:104880002243DA601A6822431A60012001F03AF9E3
:10489000584B1D61DA682243DA601A6822431A60B5
:1048A000012001F02FF9544B1D61DA682243DA60D0
:1048B0001A6822431A60012001F024F94F4C504E2F
:1048C00025001BE0DF2B0ED92033DAB21F2A0AD8CD
:1048D00093004C4AD3589F464B4B19780139C9B2C3
:1048E0004A48FFF76DFC00232B7001F005F9FEF735
:1048F00047FFFFF73DFC464B464A1A602378012BE1
:10490000F3D13378DBB2432BDCD80F2BEBD9103B40
:10491000DAB2332AE7D893003F4AD3589F46FFF7CD
:1049200069FCE0E7384B19780139C9B23748FFF71D
:104930006BFCD8E7344B19780139C9B23348FFF71B
:1049400095FCD0E7304B19780139C9B22F48FFF7F1
:10495000BFFCC8E7FFF7FEFCC5E72B4B1978013910
:10496000C9B22A48FFF720FDBDE7FFF745FDBAE7CA
:10497000254B19780139C9B22448FFF74DFDB2E73C
:10498000FFF776FDAFE7204B19780139C9B21F4810
:10499000FFF778FDA7E7FFF7ABFDA4E7184B5878C2
:1049A000C0B2FFF7CDFD9EE7FFF7E8FD9BE7164B92
:1049B00019780139C9B21548FFF7EAFD93E7FFF707
:1049C00017FE90E70E4B5878C0B2FEF71DFC8AE741
:1049D000FEF798FB87E7FEF79FFB84E7FEF7A6FB51
:1049E00081E7074B5878C0B2FEF7AAFB7BE7C046C9
:1049F0000020004000480140004401401A0B002004
:104A00001C0B0020C87400081B0B00201D0B00208D
:104A100000300040AAAA00004875000872B6FEE700
:104A200000B583B00D4B196C012211431964196C48
:104A30000A400092009ADA6B802149050A43DA6342
:104A4000DB6B0B400193019B00220121032001F04D
:104A50007DF8032001F0ACF803B000BD0010024067
:104A6000FEE7FEE77047704710B501F039F810BD5A
:104A700010B501F0C7F810BD7047000070B5244BA9
:104A80001B689B063FD5224B20225A60214A13689F
:104A900001218B43136072B61F4BC22292009B5CB4
:104AA000002B0ED01C4C1D4D605D01300231FDF716
:104AB000A3FCC9B26155C2229200A35C013BDBB2E8
:104AC000A354154BC22292009B5C002B1CD01249B0
:104AD000124BCB5CDC011A1952008A180132FF32EA
:104AE00010881B195B005B180A4AD36053681B0CC3
:104AF0001B0403435360136801210B431360084BED
:104B000000221A7062B670BD054B01221A70F9E7D7
:104B1000000002401C0002402C130020060300008D
:104B2000C700002070B5304B1B689B0440D52E4B4E
:104B3000802292015A602D4A136801218B43136031
:104B400072B62B4BC22292009B5C002B0ED0284CDD
:104B5000284D605D01300231FDF74EFCC9B2615550
:104B6000C2229200A35C013BDBB2A354204BC222C1
:104B700092009B5C002B32D01D491E4BCB5CDC01AC
:104B80001A1952008A180132FF3210881B195B0073
:104B90005B18164AD36053681B0C1B040343536015
:104BA000136801210B431360134B00221A7062B685
:104BB0000D4B1B689B0311D50B4B802252025A6090
:104BC000802292025A600D490A6801239A430A60C2
:104BD0000B490A689A430A600A4A137070BD064B73
:104BE00001221A70E3E7C046000002404400024080
:104BF0002010002006030000C600002058000240DC
:104C0000002C0140C000002010B50E4B1B69DB07D3
:104C100016D50C4B022252421A610B4C2378013BF1
:104C200023700A48092100F0B3FD2378002B07D137
:104C3000044BDA6801218A43DA601A688A431A60F1
:104C400010BDC04600200040DD000020D400002040
:104C50000C4B1B69DB0714D50A4B022252421A6126
:104C6000094B1B78002B0CD1074B01211970074B06
:104C7000DA680A43DA601A680A431A60044B0322AE
:104C80001A70704700440140C50000200020004019
:104C9000DD00002010B5064B1B69DB0707D5044B70
:104CA000022252421A610348092100F0CDFD10BDD5
:104CB00000480140C8000020F0B5C64600B54B4B87
:104CC000DB69DB0644D5494B1B68DB0640D5474B07
:104CD00010221A62464B1A6801218A431A605A68E8
:104CE00080235B009B1A9BB2002B2DD041490C788E
:104CF000E4B20A780132012002400A700978090200
:104D00003D4A89183A4AD1605168090C0904802546
:104D10006D0029435160116801431160EFF3108564
:104D200080F3108831498A683F3002438A6085F3F6
:104D30001088082B0CD924022F4AA418E7183E002B
:104D4000093EB4420AD903E0294A13680B431360B1
:104D500080BCB846F0BD0134B442F9D82378AA2B00
:104D6000F9D16378552BF6D1E2781202A378134378
:104D7000FA2B1BD806339DB2082D17D96319984614
:104D8000BB42E5D8023B1B78552B11D14346013B72
:104D90001B78AA2B0CD16379FD2B0BD0FE2B0DD1E8
:104DA00029002000FEF7FEF84446D5E70134D3E79A
:104DB0000134D1E7FEF712F94446CDE72379012B00
:104DC00005D029002000FEF73DF94446C4E729003C
:104DD0002000FEF7BFF8012801D04446BCE72900B7
:104DE0002000FEF703F94446B6E7C046003801400C
:104DF000080002401D0C0020200E0020F8B5434B97
:104E0000DB69DB0646D5414B1B68DB0642D53F4BD1
:104E100010221A623E4B1A6801218A431A605B68AD
:104E200080246400E41AA4B2002C2FD0394A1078F0
:104E3000C0B21378013301210B40137012781202B3
:104E4000354BD218324BDA605A68120C12048025A6
:104E50006D002A435A601A680A431A60EFF31085FE
:104E600081F31088294A93683F310B43936085F39F
:104E70001088082C0ED90002274BC01804192500F1
:104E8000093DA84206D88026760007E0204A13682C
:104E90000B431360F8BD0130A842FBD80378AA2B5E
:104EA000F9D14378552BF6D1C3781B028178194389
:104EB000B1421AD8063189B2082916D94718A74233
:104EC000E8D83B00023B1B78552B10D13B00013B3F
:104ED0001B78AA2B0BD14379FD2B0CD0FE2B08D0CD
:104EE000FC2B0FD0FEF7B9F805E00130D4E7013014
:104EF000D2E7FEF76BF80023084A5362084A1370A2
:104F00003800C9E7FEF766F8F5E7C0460044004000
:104F1000300002401C0C0020200C00200044014006
:104F2000C500002070470000F0B5CE46474680B56A
:104F3000ADB01422002127A802F088F92022002118
:104F40001FA802F083F93022002113A802F07EF995
:104F5000242200210AA802F079F980239B030993F7
:104F600009A801F089FC002800D0A8E0182200213F
:104F700003A802F06BF9534E336C802212011343E5
:104F80003364336C13400293029B4F4A13683F21F2
:104F90008B432B390B4313604C4B1A684C490A4026
:104FA00010210A431A601A684A490A401A601A68AE
:104FB00020218A431A601A6820318A431A601A68CD
:104FC0008027BA433A431A601A6843490A4080214D
:104FD000490088460A431A601A6840490A401A6024
:104FE00027A900240C804C604F238B60CC600C619F
:104FF0003B4D280001F04EFE2B68BB432B60AB6895
:10500000384A1340AB60384B99461B68082213435B
:105010004A46136060231F93209421942294239482
:105020002494259426941FAA0121280001F0AEFEA5
:105030004B461B68042293434A4613606B687022F8
:1050400093436B606B68294A13406B60AB68BB434A
:10505000AB6013941494159400236A465821521897
:1050600013706B465A229B181C8080239B01179358
:10507000189419941A9480239B041B931C941D94D8
:105080001E9413A9280001F0E9FF726B01231A4353
:105090007263726B13400193019B43460393FE3B83
:1050A00004930594069407940893A02003A9C005CF
:1050B00001F0E8FC2DB0C0BCB946B046F0BDFFF72A
:1050C000ADFC53E7001002401008024058000240B7
:1050D000EFBFFFFFFFCFFFFFFFFCFFFFFFF3FFFF6F
:1050E000002C0140F8BFFEFF182C0140FFFF0FFF0E
:1050F00030B587B001AC14220021200002F0A6F8E0
:10510000144B1A6C802109020A431A641B6C0B4071
:105110000093009B104AC420800013581B021B0AF6
:105120008021C9050B43135080231B0313600B4BD5
:105130002380002363600A4AA260E360094D2100D6
:10514000280001F0A7FD2B68802213432B6007B0D5
:1051500030BDC0460010024000E100E0FF18000032
:10516000A30600000020004030B587B001AC142237
:105170000021200002F06AF8144B1A6C8021890289
:105180000A431A641B6C0B400093009B104BC52014
:10519000800019580F4A11408022D2010A431A5048
:1051A000802292031A600C4B2380002363600B4A19
:1051B000A260E36023610A4D2100280001F06AFD2E
:1051C0002B68802293432B6007B030BD0010024053
:1051D00000E100E0FF00FFFFFF1800002F75000056
:1051E0000044014030B587B001AC142200212000FA
:1051F00002F02CF8134B1A6C8021C9020A431A647E
:105200001B6C0B400093009B0F4AC5208000135875
:105210000E490B408021C9030B43135011600C4B06
:105220002380002363600B4AA260E36023610A4D80
:105230002100280001F02EFD2B68802293432B6073
:1052400007B030BD0010024000E100E0FFFF00FFAA
:10525000FF1800000F2700000048014070B5EFF371
:105260001080012181F31088234A13680C24234302
:10527000136080F31088EFF3108081F310881368B7
:1052800004342343136080F310881C4B1C4898603F
:105290001C48007800021C4D4019D8605868000C6A
:1052A000000480256D00284358601868FE3D28439F
:1052B000186018680826304318601868084318609A
:1052C000EFF3108081F3108893683836334393608E
:1052D00080F3108814620D4B0D489860EFF3108036
:1052E00081F31088916870342143916080F31088B5
:1052F0001A682A431A6070BD003801400800024055
:10530000243801401D0C0020200E00201C0002400B
:1053100028380140F0B5DE4657464E464546E0B5D2
:105320009BB02022002112A801F090FF182200213A
:105330000CA801F08BFF2422002103A801F086FFB6
:105340000123029302A801F097FA002800D0C9E0D7
:10535000664B1A6C8021C9010A431A641A6C0A4010
:105360000192019A5A6B02252A435A635B6B2B40C8
:105370000093009B402398460C930D950E950024B6
:105380000F94012610961194594B99460CA91800B8
:1053900001F078FB80270C970D950E950F941096D1
:1053A00011940CA9484601F06DFB524A13683F2145
:1053B0008A468B430D390B4313604F4B1A684F4994
:1053C00089460A401A601A684D498C460A401A609C
:1053D0001A681E35AA431A601A6841468A431A6041
:1053E0001A68BA433A431A601A68464802401A607B
:1053F0001A6845498B460A401A60444A1368514668
:105400008B430C390B431360414B1A6849460A40E1
:1054100010210A431A601A6861460A401A601A6825
:10542000AA431A601A6841468A431A601A68BA4346
:105430003A431A601A6802401A601A6859460A40CC
:105440001A60344AC621890053581B021B0A535064
:1054500080231B0513601294E1235B0213931494C1
:10546000159416940C231793189419942A4C12A986
:10547000200001F06DFEEFF3108286F31088A36820
:10548000DB00DB08A36082F31088EFF3108286F361
:105490001088A36821490B40A36082F31088236819
:1054A0001F4A1340236063681E4A13406360A36869
:1054B0002A229343A3602368334323602200802180
:1054C00089038020C003D3690B42FCD0D369034217
:1054D000F9D0FFF7C3FE1BB0F0BCBB46B246A946ED
:1054E000A046F0BDFFF79AFA32E7C046001002402E
:1054F000000400500008024008000240EFBFFFFF18
:10550000FFCFFFFFFFFCFFFFFFF3FFFF0408024098
:105510001C00024000E100E000380140FFFFFFF105
:10552000FFFFFFDFFFB7FFFF70B5EFF31080012132
:1055300081F31088234A13680C242343136080F3FB
:105540001088EFF3108081F310881368043423432C
:10555000136080F310881C4B1C4898601C4800782E
:1055600000021C4D4019D8605868000C00048025CA
:105570006D00284358601868FE3D2843186018687D
:10558000082630431860186808431860EFF310804D
:1055900081F31088936838363343936080F3108822
:1055A00014620D4B0D489860EFF3108081F3108862
:1055B000916870342143916080F310881A682A43FF
:1055C0001A6070BD00440040300002402444004096
:1055D0001C0C0020200C0020440002402844004005
:1055E000F0B5DE4657464E464546E0B591B020261A
:1055F0002022002108A801F029FE00240594584B20
:10560000DA6B802189020A43DA63DA6B0A4001927D
:10561000019A5A6B01252A435A635B6B2B40009316
:10562000009B04230293022703970497069507958E
:10563000A023DB05984602A9180001F023FA0823ED
:1056400002930397049705940695079502A940468F
:1056500001F018FA434A13683F218A468B430B39FD
:105660000B431360404B1A68404989460A401A6050
:105670001A683F4988460A401A601A68B2431A609D
:105680001A6840218C468A431A601A687E37BA43EA
:105690003A431A601A68374802401A601A68364955
:1056A0008B460A401A60354A136851468B430A39C3
:1056B0000B431360324B1A6849460A4010210A43D3
:1056C0001A601A6841460A401A601A68B2431A60A2
:1056D0001A6861468A431A601A68BA433A431A60E4
:1056E0001A6802401A601A6859460A401A60254B27
:1056F000C72189005A58FF2082435A508022520500
:105700001A600894E1235B0209930A940B940C94A9
:105710000C230D930E940F941B4C08A9200001F04C
:1057200017FD6368194A13406360A3682A229343F4
:10573000A36023682B4323602200802189038020FB
:10574000C003D3690B42FCD0D3690342F9D0FFF701
:10575000EBFE11B0F0BCBB46B246A946A046F0BD78
:10576000001002400808024030000240EFBFFFFF77
:10577000FFCFFFFFFFFCFFFFFFF3FFFF0C0802401E
:105780004400024000E100E000440040FFB7FFFF9A
:10579000F8B504000D0072B6264BC22080001B5CD9
:1057A000DBB2022B03D880235B00994201D962B699
:1057B000F8BD204E204FF05DC301C0184000801995
:1057C0000A00210001F06EFDF35DDA019B185B0019
:1057D000F3180133FF331D80F05D01300321FCF726
:1057E0000BFEC9B2F155C2229200B35C0133DBB2A9
:1057F000B354124B1B78002BD9D00E49104BCB5C05
:10580000DC011A1952008A180132FF3210880B4A43
:10581000002515701B195B005B180A4AD36053689A
:105820001B0C1B0403435360136801210B431360DB
:10583000BDE7C0462C13002007030000C70000206E
:10584000060300001C000240F8B504000D0072B60B
:10585000264BC22080001B5CDBB2022B03D88023C6
:105860005B00994201D962B6F8BD204E204FF05D31
:10587000C301C018400080190A00210001F012FD88
:10588000F35DDA019B185B00F3180133FF331D80D1
:10589000F05D01300321FCF7AFFDC9B2F155C22222
:1058A0009200B35C0133DBB2B354124B1B78002B74
:1058B000D9D00E49104BCB5CDC011A1952008A1862
:1058C0000132FF3210880B4A002515701B195B004E
:1058D0005B180A4AD36053681B0C1B0403435360D4
:1058E000136801210B431360BDE7C0462010002060
:1058F00007030000C6000020060300004400024029
:105900000D488546FFF70EFB0C480D490D4A002354
:1059100002E0D458C4500433C4188C42F9D30A4A64
:105920000A4C002301E013600432A242FBD301F0D1
:1059300095FCFEF77DFFFEE700200020C000002060
:1059400028010020B0760008280100205816002009
:10595000FEE710B586B00023059302330193F823C8
:105960001B069C466044C00A03900123049300F088
:10597000A9F905A901A800F04BFA040000F026FAE5
:1059800063425C41E0B206B010BD0000F0B5C6460F
:1059900000B5804672B6124802684368FF211500C0
:1059A0008D4341460D431E00FFF7D3FF0C4F00F01F
:1059B00089F92A0033003900012000F0D1F90400F0
:1059C00000F004FA002CF2D162B6054B1878434679
:1059D000181A43425841C0B280BCB846F0BDC04618
:1059E00000F00008014B1878C0B2704700F00008C2
:1059F000F0B5C64600B5804672B6124806684768DC
:105A0000114D354043461A0215433E00FFF7A1FFF2
:105A10000C4F00F057F92A0033003900012000F044
:105A20009FF9040000F0D2F9002CF2D162B6074BC6
:105A300018784346181A43425841C0B280BCB84651
:105A4000F0BDC04600F00008FF00FFFF01F00008B5
:105A5000014B1878C0B2704701F00008014B18786C
:105A6000C0B27047FF1F000870B504000F4B1978D3
:105A70000120002900D170BD0D4DFA208000FCF7F7
:105A80004BFB01002868FCF747FB00F09DF8030082
:105A90000120002BEFD1032CEDD800222100404241
:105AA00000F054F8034B1C600020E4E7E400002001
:105AB000E0000020E800002010B5084A11688023AB
:105AC0005B000B4313600320FFF7CEFF041E02D0E0
:105AD0000124200010BDFEF7A3FFFAE700200240DA
:105AE000034A1168034B1B785B1813607047C0466C
:105AF00038160020E4000020014B18687047C046AB
:105B00003816002070B50400FFF7F6FF0500631C8F
:105B100002D0044B1B78E418FFF7EEFF401BA042B5
:105B2000FAD370BDE4000020014B18687047C046EE
:105B30009075FF1F014B18687047C0469475FF1F92
:105B4000014B18687047C0469875FF1F70B5002854
:105B500014DB8408A400144B9C466444C026B600A1
:105B6000A55903220240D200FF231800904085432C
:105B700089010B4093402B43A35170BD0F23034079
:105B8000083B9B089B00094A94466344DC69032256
:105B90001040C000FC3215008540AC4389010A402A
:105BA00082402243DA61E8E700E100E000ED00E036
:105BB000002805DB1F22024001239340014A1360A5
:105BC0007047C04600E100E0013880235B04984242
:105BD0000FD2094A50600948036A1B021B0AC02100
:105BE00009060B4303620023936007331360002010
:105BF00070470120FCE7C04610E000E000ED00E047
:105C00007047704710B52A4B1B692A4A13402A4A2D
:105C10009268510721D5284A1469002B2AD1244BB8
:105C20001B69DB070CD5224B01221A61224B9B68B2
:105C3000022B2CD0204B00229A602000FFF7E0FFBF
:105C40001D4B9B68002B07D1194A53691B490B4018
:105C50005361194B00221A7010BD154841699143D8
:105C6000416117490A4202D0134AD468D5E7124A63
:105C70005469D2E7104A51680B4353600C4B0D49ED
:105C80001961002393602000FFF7BBFFC7E70A4AB2
:105C90009369013B9361002B03D1074B00229A606B
:105CA000CBE7516901315161106900F0A1F8C4E7F7
:105CB00000200240FAC300003C160020FFFFFFFC5A
:105CC00001000400064B5B690020002B00DB7047DD
:105CD000034B044A9A60044A9A605869C00FF6E779
:105CE0000020024023016745AB89EFCDF8B50400E1
:105CF000FFF702FF0700164E80256D0233692B4225
:105D000008D0631CFAD0FFF7F7FEC01BA042F5D302
:105D100003201CE00E490A690E4B15001D400E4879
:105D200008611A420ED10E008025ED0233692B4224
:105D30000CD0631CFAD0FFF7DFFEC01BA042F5D3E6
:105D4000032004E0054B5D60012000E00020F8BD69
:105D500000200240FAC30000FBC300003C160020F4
:105D6000F8B506000F0014001D00164B1B78012B20
:105D700026D0144B01221A7000225A60FA208000AB
:105D8000FFF7B4FF00280DD1012E0FD021003800FD
:105D900001F09EFAFA208000FFF7A8FF0A4A536933
:105DA000B3435361074B00221A70F8BD064A53698A
:105DB00001210B4353613C60BFF36F8F7D60E9E7C6
:105DC0000220F2E73C1600200020024010B5FA2025
:105DD0008000FFF78BFF054B5969802212060A43AA
:105DE0005A615869C043C00F10BDC0460020024030
:105DF000044A5369C900044803401943034B0B4349
:105E0000536170470020024007E0FFFF02000100DD
:105E1000F8B504000E00224B1B78012B3DD0204B1F
:105E200001221A7000225A60FA208000FFF75EFFFC
:105E300000282ED1042363602368042B19D001238A
:105E40005B423360A568E368EB189D421CD2FA27D9
:105E5000BF0060682900FFF7CBFF3800FFF746FF5F
:105E6000002810D10135A368E2689B18AB42F0D836
:105E70000AE00C4A51690C4B0B435361FA30800025
:105E8000FFF734FF05E03560064A536902218B4372
:105E90005361034B00221A70F8BD0220FCE7C04694
:105EA0003C1600200020024004000100F0B5DE4650
:105EB00057464E464546E0B583B00F68002F00D1E7
:105EC000D1E0002200230124A0460234694DAB46F4
:105ED00052E0876825009540AF43B946CF689740A8
:105EE0004D462F4387604768B7434E68360945469D
:105EF0002E409E403E4346604AE000265546AE4056
:105F00004D462E433E665D462D68AA466546ED43E6
:105F100001954D6880267603354200D094E05646C0
:105F2000019D2E405D462E606D68AA464D68802614
:105F3000B603354200D08BE05646019D2E405D46AB
:105F40006E608426AE594D68AD0300D584E0019D96
:105F50002E4084255F467E518026BE594D68ED0354
:105F60007DD4019D2E4080275D46EE5101330F68A0
:105F700002323E00DE4076D046469E403D0035402F
:105F8000AC463742F2D04F682740013F012FA0D9DD
:105F90004E682640032E22D0C76826009640B7439D
:105FA0008E6896403E43C6604E682640022E16D14B
:105FB000DE08B600851901952D6AAA4607271F40FD
:105FC000BF000F25BD40A94655464E46B543AA46DB
:105FD0000D69BD402F0055462F43019D2F62076874
:105FE00026009640B7434E68264096403E430660E2
:105FF0004E68C025AD022E42B8D09F08BF001D4D8F
:10600000A9464F443D6E019525001D40ED00AA466E
:106010000F255646B540019EAE43B146A025ED057D
:10602000A84200D169E7144EB04209D0134EB042E5
:1060300008D0134D4619751EAE41760003365DE754
:1060400001265BE7022659E7654656462E4369E777
:10605000654656462E4372E765462E4379E7654608
:1060600035432E007FE703B0F0BCBB46B246A946DD
:10607000A046F0BD00180240000400500008005087
:1060800000F4FFAF00690840431E9841C0B270475A
:1060900010B5020013490B681348034013430B600B
:1060A00080239B0000209A4200D010BD0F4B1B683C
:1060B0005800C01840000E49FCF72EF80130094B7B
:1060C0005B695B050AD507498022D20001384B691C
:1060D000134205D00028F9D10320E6E70020E4E7C9
:1060E0000020E2E700700040FFF9FFFFE000002021
:1060F00040420F00F0B5CE46474680B583B0041E3F
:1061000000D146E20368DB0738D5C74A91683823D7
:106110000B40D268102B26D0082B27D06368802232
:10612000520293427AD0A022D20293427DD0BE4B3B
:106130001A68BE490A401A601A68BD490A401A60C6
:106140006368002B7DD0FFF7D7FC0500B64F802693
:10615000B6023B68334211D1FFF7CEFC401B6428E6
:10616000F7D9032016E2D2439207D7D1AE4B1B6872
:106170009B0303D56368002B00D110E223689B07C3
:106180002AD5A94A916838230B40D268102B68D0D1
:10619000002B6BD1A44B1B685B0500D522E2A24902
:1061A0004A6863691B02A348024013434B609E4A3E
:1061B0001368A1490B4021690B43136013689F4981
:1061C0009B045B0F9E4ADA400A609E4B1868FFF7FB
:1061D0004BFC002800D0E4E123681B0700D48BE0CF
:1061E000914B9A6838231340182B7DD0A369002B5C
:1061F00000D1C4E08C4A136E01210B431366FFF7F4
:106200007BFC0500884F02263B6E1E4274D1FFF7CF
:1062100073FC401B0228F7D90320BBE1824A1168B6
:1062200080235B020B4313608AE77F4B196880224F
:10623000D2020A431A601968802252020A431A6085
:106240007EE7FFF759FC0500774F8026B6023B68D2
:10625000334293D0FFF750FC401B6428F7D903204A
:1062600098E10D3B1340022B00D1ABE1E368002B1A
:1062700024D06D4A136870490B4021690B431360A9
:10628000116880235B000B431360FFF735FC0500AA
:10629000654F8026F6003B68334206D1FFF72CFCA1
:1062A000401B0228F7D9032074E15F494A686369FB
:1062B0001B026048024013434B608DE75A4A136843
:1062C00061490B401360FFF717FC0500564F80260D
:1062D000F6003B68334200D17EE7FFF70DFC401B20
:1062E0000228F6D9032055E14F4B1B6E9B0703D5BF
:1062F000A369002B00D156E123685B0700D4ACE012
:10630000494B9A6838231340202B4CD0464BDB6B0B
:1063100000229146DB000BD4434BDA6B8021490508
:106320000A43DA63DB6B0B400193019B012399461F
:10633000464B1B68DB053FD5A368012B52D0052BCC
:1063400056D0394BDA6D01218A43DA65DA6D0331B3
:106350008A43DA65A368002B54D0FFF7CDFB060013
:10636000314B984602273A4D4346DB6D1F4271D1AF
